{
	"UfoZiomToken.sol": {
		"UfoZiomToken": {
			"abi": [
				{
					"inputs": [],
					"stateMutability": "nonpayable",
					"type": "constructor"
				},
				{
					"anonymous": false,
					"inputs": [
						{
							"indexed": true,
							"internalType": "address",
							"name": "owner",
							"type": "address"
						},
						{
							"indexed": true,
							"internalType": "address",
							"name": "spender",
							"type": "address"
						},
						{
							"indexed": false,
							"internalType": "uint256",
							"name": "value",
							"type": "uint256"
						}
					],
					"name": "Approval",
					"type": "event"
				},
				{
					"anonymous": false,
					"inputs": [
						{
							"indexed": true,
							"internalType": "address",
							"name": "previousOwner",
							"type": "address"
						},
						{
							"indexed": true,
							"internalType": "address",
							"name": "newOwner",
							"type": "address"
						}
					],
					"name": "OwnershipTransferred",
					"type": "event"
				},
				{
					"anonymous": false,
					"inputs": [
						{
							"indexed": true,
							"internalType": "address",
							"name": "from",
							"type": "address"
						},
						{
							"indexed": true,
							"internalType": "address",
							"name": "to",
							"type": "address"
						},
						{
							"indexed": false,
							"internalType": "uint256",
							"name": "value",
							"type": "uint256"
						}
					],
					"name": "Transfer",
					"type": "event"
				},
				{
					"inputs": [
						{
							"internalType": "address",
							"name": "owner",
							"type": "address"
						},
						{
							"internalType": "address",
							"name": "spender",
							"type": "address"
						}
					],
					"name": "allowance",
					"outputs": [
						{
							"internalType": "uint256",
							"name": "",
							"type": "uint256"
						}
					],
					"stateMutability": "view",
					"type": "function"
				},
				{
					"inputs": [
						{
							"internalType": "address",
							"name": "spender",
							"type": "address"
						},
						{
							"internalType": "uint256",
							"name": "amount",
							"type": "uint256"
						}
					],
					"name": "approve",
					"outputs": [
						{
							"internalType": "bool",
							"name": "",
							"type": "bool"
						}
					],
					"stateMutability": "nonpayable",
					"type": "function"
				},
				{
					"inputs": [
						{
							"internalType": "address",
							"name": "account",
							"type": "address"
						}
					],
					"name": "balanceOf",
					"outputs": [
						{
							"internalType": "uint256",
							"name": "",
							"type": "uint256"
						}
					],
					"stateMutability": "view",
					"type": "function"
				},
				{
					"inputs": [],
					"name": "burnAddress",
					"outputs": [
						{
							"internalType": "address",
							"name": "",
							"type": "address"
						}
					],
					"stateMutability": "view",
					"type": "function"
				},
				{
					"inputs": [],
					"name": "decimals",
					"outputs": [
						{
							"internalType": "uint8",
							"name": "",
							"type": "uint8"
						}
					],
					"stateMutability": "view",
					"type": "function"
				},
				{
					"inputs": [
						{
							"internalType": "address",
							"name": "spender",
							"type": "address"
						},
						{
							"internalType": "uint256",
							"name": "subtractedValue",
							"type": "uint256"
						}
					],
					"name": "decreaseAllowance",
					"outputs": [
						{
							"internalType": "bool",
							"name": "",
							"type": "bool"
						}
					],
					"stateMutability": "nonpayable",
					"type": "function"
				},
				{
					"inputs": [
						{
							"internalType": "address",
							"name": "account",
							"type": "address"
						}
					],
					"name": "excludeFromFee",
					"outputs": [],
					"stateMutability": "nonpayable",
					"type": "function"
				},
				{
					"inputs": [
						{
							"internalType": "address",
							"name": "account",
							"type": "address"
						}
					],
					"name": "includeInFee",
					"outputs": [],
					"stateMutability": "nonpayable",
					"type": "function"
				},
				{
					"inputs": [
						{
							"internalType": "address",
							"name": "spender",
							"type": "address"
						},
						{
							"internalType": "uint256",
							"name": "addedValue",
							"type": "uint256"
						}
					],
					"name": "increaseAllowance",
					"outputs": [
						{
							"internalType": "bool",
							"name": "",
							"type": "bool"
						}
					],
					"stateMutability": "nonpayable",
					"type": "function"
				},
				{
					"inputs": [],
					"name": "name",
					"outputs": [
						{
							"internalType": "string",
							"name": "",
							"type": "string"
						}
					],
					"stateMutability": "view",
					"type": "function"
				},
				{
					"inputs": [],
					"name": "owner",
					"outputs": [
						{
							"internalType": "address",
							"name": "",
							"type": "address"
						}
					],
					"stateMutability": "view",
					"type": "function"
				},
				{
					"inputs": [],
					"name": "renounceOwnership",
					"outputs": [],
					"stateMutability": "nonpayable",
					"type": "function"
				},
				{
					"inputs": [
						{
							"internalType": "uint256",
							"name": "fee",
							"type": "uint256"
						}
					],
					"name": "setTaxFeePercent",
					"outputs": [],
					"stateMutability": "nonpayable",
					"type": "function"
				},
				{
					"inputs": [],
					"name": "symbol",
					"outputs": [
						{
							"internalType": "string",
							"name": "",
							"type": "string"
						}
					],
					"stateMutability": "view",
					"type": "function"
				},
				{
					"inputs": [],
					"name": "taxFee",
					"outputs": [
						{
							"internalType": "uint256",
							"name": "",
							"type": "uint256"
						}
					],
					"stateMutability": "view",
					"type": "function"
				},
				{
					"inputs": [],
					"name": "totalSupply",
					"outputs": [
						{
							"internalType": "uint256",
							"name": "",
							"type": "uint256"
						}
					],
					"stateMutability": "view",
					"type": "function"
				},
				{
					"inputs": [
						{
							"internalType": "address",
							"name": "to",
							"type": "address"
						},
						{
							"internalType": "uint256",
							"name": "amount",
							"type": "uint256"
						}
					],
					"name": "transfer",
					"outputs": [
						{
							"internalType": "bool",
							"name": "",
							"type": "bool"
						}
					],
					"stateMutability": "nonpayable",
					"type": "function"
				},
				{
					"inputs": [
						{
							"internalType": "address",
							"name": "from",
							"type": "address"
						},
						{
							"internalType": "address",
							"name": "to",
							"type": "address"
						},
						{
							"internalType": "uint256",
							"name": "amount",
							"type": "uint256"
						}
					],
					"name": "transferFrom",
					"outputs": [
						{
							"internalType": "bool",
							"name": "",
							"type": "bool"
						}
					],
					"stateMutability": "nonpayable",
					"type": "function"
				},
				{
					"inputs": [
						{
							"internalType": "address",
							"name": "newOwner",
							"type": "address"
						}
					],
					"name": "transferOwnership",
					"outputs": [],
					"stateMutability": "nonpayable",
					"type": "function"
				}
			],
			"devdoc": {
				"details": "UfoZiom Token is an ERC20 token with a transaction fee for burning.",
				"kind": "dev",
				"methods": {
					"allowance(address,address)": {
						"details": "See {IERC20-allowance}."
					},
					"approve(address,uint256)": {
						"details": "See {IERC20-approve}. NOTE: If `amount` is the maximum `uint256`, the allowance is not updated on `transferFrom`. This is semantically equivalent to an infinite approval. Requirements: - `spender` cannot be the zero address."
					},
					"balanceOf(address)": {
						"details": "See {IERC20-balanceOf}."
					},
					"constructor": {
						"details": "Constructor that gives msg.sender all of existing tokens and excludes owner from fee."
					},
					"decimals()": {
						"details": "Returns the number of decimals used to get its user representation. For example, if `decimals` equals `2`, a balance of `505` tokens should be displayed to a user as `5.05` (`505 / 10 ** 2`). Tokens usually opt for a value of 18, imitating the relationship between Ether and Wei. This is the value {ERC20} uses, unless this function is overridden; NOTE: This information is only used for _display_ purposes: it in no way affects any of the arithmetic of the contract, including {IERC20-balanceOf} and {IERC20-transfer}."
					},
					"decreaseAllowance(address,uint256)": {
						"details": "Atomically decreases the allowance granted to `spender` by the caller. This is an alternative to {approve} that can be used as a mitigation for problems described in {IERC20-approve}. Emits an {Approval} event indicating the updated allowance. Requirements: - `spender` cannot be the zero address. - `spender` must have allowance for the caller of at least `subtractedValue`."
					},
					"excludeFromFee(address)": {
						"details": "Exclude an account from transaction fees. Can only be called by the owner.",
						"params": {
							"account": "The address to exclude."
						}
					},
					"includeInFee(address)": {
						"details": "Include an account in transaction fees. Can only be called by the owner.",
						"params": {
							"account": "The address to include."
						}
					},
					"increaseAllowance(address,uint256)": {
						"details": "Atomically increases the allowance granted to `spender` by the caller. This is an alternative to {approve} that can be used as a mitigation for problems described in {IERC20-approve}. Emits an {Approval} event indicating the updated allowance. Requirements: - `spender` cannot be the zero address."
					},
					"name()": {
						"details": "Returns the name of the token."
					},
					"owner()": {
						"details": "Returns the address of the current owner."
					},
					"renounceOwnership()": {
						"details": "Leaves the contract without owner. It will not be possible to call `onlyOwner` functions anymore. Can only be called by the current owner. NOTE: Renouncing ownership will leave the contract without an owner, thereby removing any functionality that is only available to the owner."
					},
					"setTaxFeePercent(uint256)": {
						"details": "Set the transaction fee percentage. Can only be called by the owner.",
						"params": {
							"fee": "The new fee percentage."
						}
					},
					"symbol()": {
						"details": "Returns the symbol of the token, usually a shorter version of the name."
					},
					"totalSupply()": {
						"details": "See {IERC20-totalSupply}."
					},
					"transfer(address,uint256)": {
						"details": "See {IERC20-transfer}. Requirements: - `to` cannot be the zero address. - the caller must have a balance of at least `amount`."
					},
					"transferFrom(address,address,uint256)": {
						"details": "See {IERC20-transferFrom}. Emits an {Approval} event indicating the updated allowance. This is not required by the EIP. See the note at the beginning of {ERC20}. NOTE: Does not update the allowance if the current allowance is the maximum `uint256`. Requirements: - `from` and `to` cannot be the zero address. - `from` must have a balance of at least `amount`. - the caller must have allowance for ``from``'s tokens of at least `amount`."
					},
					"transferOwnership(address)": {
						"details": "Transfers ownership of the contract to a new account (`newOwner`). Can only be called by the current owner."
					}
				},
				"title": "UfoZiom Token",
				"version": 1
			},
			"evm": {
				"assembly": "    /* \"UfoZiomToken.sol\":427:3132  contract UfoZiomToken is ERC20, Ownable {\r... */\n  mstore(0x40, 0x80)\n    /* \"UfoZiomToken.sol\":703:704  2 */\n  0x02\n    /* \"UfoZiomToken.sol\":679:704  uint256 public taxFee = 2 */\n  0x06\n  sstore\n    /* \"UfoZiomToken.sol\":963:1218  constructor() ERC20(\"UfoZiom Token\", \"UFO\") {\r... */\n  callvalue\n  dup1\n  iszero\n  tag_1\n  jumpi\n  0x00\n  dup1\n  revert\ntag_1:\n  pop\n    /* \"https://github.com/OpenZeppelin/openzeppelin-contracts/blob/v4.5.0/contracts/token/ERC20/ERC20.sol\":1978:2091  constructor(string memory name_, string memory symbol_) {... */\n  mload(0x40)\n  dup1\n  0x40\n  add\n  0x40\n  mstore\n  dup1\n  0x0d\n  dup2\n  mstore\n  0x20\n  add\n  shl(0x99, 0x2ab337ad34b7b6902a37b5b2b7)\n  dup2\n  mstore\n  pop\n  mload(0x40)\n  dup1\n  0x40\n  add\n  0x40\n  mstore\n  dup1\n  0x03\n  dup2\n  mstore\n  0x20\n  add\n  shl(0xe8, 0x55464f)\n  dup2\n  mstore\n  pop\n    /* \"https://github.com/OpenZeppelin/openzeppelin-contracts/blob/v4.5.0/contracts/token/ERC20/ERC20.sol\":2052:2057  name_ */\n  dup2\n    /* \"https://github.com/OpenZeppelin/openzeppelin-contracts/blob/v4.5.0/contracts/token/ERC20/ERC20.sol\":2044:2049  _name */\n  0x03\n    /* \"https://github.com/OpenZeppelin/openzeppelin-contracts/blob/v4.5.0/contracts/token/ERC20/ERC20.sol\":2044:2057  _name = name_ */\n  swap1\n  dup1\n  mload\n  swap1\n  0x20\n  add\n  swap1\n  tag_6\n  swap3\n  swap2\n  swap1\n  tag_7\n  jump\t// in\ntag_6:\n  pop\n    /* \"https://github.com/OpenZeppelin/openzeppelin-contracts/blob/v4.5.0/contracts/token/ERC20/ERC20.sol\":2067:2084  _symbol = symbol_ */\n  dup1\n  mload\n  tag_8\n  swap1\n    /* \"https://github.com/OpenZeppelin/openzeppelin-contracts/blob/v4.5.0/contracts/token/ERC20/ERC20.sol\":2067:2074  _symbol */\n  0x04\n  swap1\n    /* \"https://github.com/OpenZeppelin/openzeppelin-contracts/blob/v4.5.0/contracts/token/ERC20/ERC20.sol\":2067:2084  _symbol = symbol_ */\n  0x20\n  dup5\n  add\n  swap1\n  tag_7\n  jump\t// in\ntag_8:\n  pop\n    /* \"https://github.com/OpenZeppelin/openzeppelin-contracts/blob/v4.5.0/contracts/token/ERC20/ERC20.sol\":1978:2091  constructor(string memory name_, string memory symbol_) {... */\n  pop\n  pop\n    /* \"https://github.com/OpenZeppelin/openzeppelin-contracts/blob/v4.5.0/contracts/access/Ownable.sol\":921:953  _transferOwnership(_msgSender()) */\n  tag_10\n    /* \"https://github.com/OpenZeppelin/openzeppelin-contracts/blob/v4.5.0/contracts/access/Ownable.sol\":940:952  _msgSender() */\n  tag_11\n    /* \"https://github.com/OpenZeppelin/openzeppelin-contracts/blob/v4.5.0/contracts/access/Ownable.sol\":940:950  _msgSender */\n  shl(0x20, tag_12)\n    /* \"https://github.com/OpenZeppelin/openzeppelin-contracts/blob/v4.5.0/contracts/access/Ownable.sol\":940:952  _msgSender() */\n  0x20\n  shr\n  jump\t// in\ntag_11:\n    /* \"https://github.com/OpenZeppelin/openzeppelin-contracts/blob/v4.5.0/contracts/access/Ownable.sol\":921:939  _transferOwnership */\n  tag_13\n    /* \"https://github.com/OpenZeppelin/openzeppelin-contracts/blob/v4.5.0/contracts/access/Ownable.sol\":921:953  _transferOwnership(_msgSender()) */\n  jump\t// in\ntag_10:\n    /* \"UfoZiomToken.sol\":1069:1124  _mint(msg.sender, 1_000_000_000_000 * 10 ** decimals()) */\n  tag_15\n    /* \"UfoZiomToken.sol\":1075:1085  msg.sender */\n  caller\n    /* \"UfoZiomToken.sol\":1113:1123  decimals() */\n  tag_16\n    /* \"UfoZiomToken.sol\":1113:1121  decimals */\n  tag_17\n    /* \"UfoZiomToken.sol\":1113:1123  decimals() */\n  jump\t// in\ntag_16:\n    /* \"UfoZiomToken.sol\":1107:1123  10 ** decimals() */\n  tag_18\n  swap1\n    /* \"UfoZiomToken.sol\":1107:1109  10 */\n  0x0a\n    /* \"UfoZiomToken.sol\":1107:1123  10 ** decimals() */\n  tag_19\n  jump\t// in\ntag_18:\n    /* \"UfoZiomToken.sol\":1087:1123  1_000_000_000_000 * 10 ** decimals() */\n  tag_20\n  swap1\n    /* \"UfoZiomToken.sol\":1087:1104  1_000_000_000_000 */\n  0xe8d4a51000\n    /* \"UfoZiomToken.sol\":1087:1123  1_000_000_000_000 * 10 ** decimals() */\n  tag_21\n  jump\t// in\ntag_20:\n    /* \"UfoZiomToken.sol\":1069:1074  _mint */\n  tag_22\n    /* \"UfoZiomToken.sol\":1069:1124  _mint(msg.sender, 1_000_000_000_000 * 10 ** decimals()) */\n  jump\t// in\ntag_15:\n    /* \"UfoZiomToken.sol\":1192:1202  msg.sender */\n  caller\n    /* \"UfoZiomToken.sol\":1173:1203  _isExcludedFromFee[msg.sender] */\n  0x00\n  swap1\n  dup2\n  mstore\n    /* \"UfoZiomToken.sol\":1173:1191  _isExcludedFromFee */\n  0x07\n    /* \"UfoZiomToken.sol\":1173:1203  _isExcludedFromFee[msg.sender] */\n  0x20\n  mstore\n  0x40\n  swap1\n  keccak256\n    /* \"UfoZiomToken.sol\":1173:1210  _isExcludedFromFee[msg.sender] = true */\n  dup1\n  sload\n  not(0xff)\n  and\n    /* \"UfoZiomToken.sol\":1206:1210  true */\n  0x01\n    /* \"UfoZiomToken.sol\":1173:1210  _isExcludedFromFee[msg.sender] = true */\n  or\n  swap1\n  sstore\n    /* \"UfoZiomToken.sol\":427:3132  contract UfoZiomToken is ERC20, Ownable {\r... */\n  jump(tag_53)\n    /* \"https://github.com/OpenZeppelin/openzeppelin-contracts/blob/v4.5.0/contracts/utils/Context.sol\":640:736  function _msgSender() internal view virtual returns (address) {... */\ntag_12:\n    /* \"https://github.com/OpenZeppelin/openzeppelin-contracts/blob/v4.5.0/contracts/utils/Context.sol\":719:729  msg.sender */\n  caller\n    /* \"https://github.com/OpenZeppelin/openzeppelin-contracts/blob/v4.5.0/contracts/utils/Context.sol\":640:736  function _msgSender() internal view virtual returns (address) {... */\n  swap1\n  jump\t// out\n    /* \"https://github.com/OpenZeppelin/openzeppelin-contracts/blob/v4.5.0/contracts/access/Ownable.sol\":2270:2457  function _transferOwnership(address newOwner) internal virtual {... */\ntag_13:\n    /* \"https://github.com/OpenZeppelin/openzeppelin-contracts/blob/v4.5.0/contracts/access/Ownable.sol\":2362:2368  _owner */\n  0x05\n  dup1\n  sload\n  sub(shl(0xa0, 0x01), 0x01)\n    /* \"https://github.com/OpenZeppelin/openzeppelin-contracts/blob/v4.5.0/contracts/access/Ownable.sol\":2378:2395  _owner = newOwner */\n  dup4\n  dup2\n  and\n  not(sub(shl(0xa0, 0x01), 0x01))\n  dup4\n  and\n  dup2\n  or\n  swap1\n  swap4\n  sstore\n    /* \"https://github.com/OpenZeppelin/openzeppelin-contracts/blob/v4.5.0/contracts/access/Ownable.sol\":2410:2450  OwnershipTransferred(oldOwner, newOwner) */\n  mload(0x40)\n    /* \"https://github.com/OpenZeppelin/openzeppelin-contracts/blob/v4.5.0/contracts/access/Ownable.sol\":2362:2368  _owner */\n  swap2\n  and\n  swap2\n    /* \"https://github.com/OpenZeppelin/openzeppelin-contracts/blob/v4.5.0/contracts/access/Ownable.sol\":2378:2395  _owner = newOwner */\n  swap1\n    /* \"https://github.com/OpenZeppelin/openzeppelin-contracts/blob/v4.5.0/contracts/access/Ownable.sol\":2362:2368  _owner */\n  dup3\n  swap1\n    /* \"https://github.com/OpenZeppelin/openzeppelin-contracts/blob/v4.5.0/contracts/access/Ownable.sol\":2410:2450  OwnershipTransferred(oldOwner, newOwner) */\n  0x8be0079c531659141344cd1fd0a4f28419497f9722a3daafe3b4186f6b6457e0\n  swap1\n    /* \"https://github.com/OpenZeppelin/openzeppelin-contracts/blob/v4.5.0/contracts/access/Ownable.sol\":2343:2359  address oldOwner */\n  0x00\n  swap1\n    /* \"https://github.com/OpenZeppelin/openzeppelin-contracts/blob/v4.5.0/contracts/access/Ownable.sol\":2410:2450  OwnershipTransferred(oldOwner, newOwner) */\n  log3\n    /* \"https://github.com/OpenZeppelin/openzeppelin-contracts/blob/v4.5.0/contracts/access/Ownable.sol\":2270:2457  function _transferOwnership(address newOwner) internal virtual {... */\n  pop\n  pop\n  jump\t// out\n    /* \"https://github.com/OpenZeppelin/openzeppelin-contracts/blob/v4.5.0/contracts/token/ERC20/ERC20.sol\":3093:3184  function decimals() public view virtual override returns (uint8) {... */\ntag_17:\n    /* \"https://github.com/OpenZeppelin/openzeppelin-contracts/blob/v4.5.0/contracts/token/ERC20/ERC20.sol\":3175:3177  18 */\n  0x12\n    /* \"https://github.com/OpenZeppelin/openzeppelin-contracts/blob/v4.5.0/contracts/token/ERC20/ERC20.sol\":3093:3184  function decimals() public view virtual override returns (uint8) {... */\n  swap1\n  jump\t// out\n    /* \"https://github.com/OpenZeppelin/openzeppelin-contracts/blob/v4.5.0/contracts/token/ERC20/ERC20.sol\":8415:8804  function _mint(address account, uint256 amount) internal virtual {... */\ntag_22:\n  sub(shl(0xa0, 0x01), 0x01)\n    /* \"https://github.com/OpenZeppelin/openzeppelin-contracts/blob/v4.5.0/contracts/token/ERC20/ERC20.sol\":8498:8519  account != address(0) */\n  dup3\n  and\n    /* \"https://github.com/OpenZeppelin/openzeppelin-contracts/blob/v4.5.0/contracts/token/ERC20/ERC20.sol\":8490:8555  require(account != address(0), \"ERC20: mint to the zero address\") */\n  tag_28\n  jumpi\n  mload(0x40)\n  shl(0xe5, 0x461bcd)\n  dup2\n  mstore\n  0x04\n  add\n  tag_29\n  swap1\n  tag_30\n  jump\t// in\ntag_29:\n  mload(0x40)\n  dup1\n  swap2\n  sub\n  swap1\n  revert\ntag_28:\n    /* \"https://github.com/OpenZeppelin/openzeppelin-contracts/blob/v4.5.0/contracts/token/ERC20/ERC20.sol\":8566:8615  _beforeTokenTransfer(address(0), account, amount) */\n  tag_31\n    /* \"https://github.com/OpenZeppelin/openzeppelin-contracts/blob/v4.5.0/contracts/token/ERC20/ERC20.sol\":8595:8596  0 */\n  0x00\n    /* \"https://github.com/OpenZeppelin/openzeppelin-contracts/blob/v4.5.0/contracts/token/ERC20/ERC20.sol\":8599:8606  account */\n  dup4\n    /* \"https://github.com/OpenZeppelin/openzeppelin-contracts/blob/v4.5.0/contracts/token/ERC20/ERC20.sol\":8608:8614  amount */\n  dup4\n    /* \"https://github.com/OpenZeppelin/openzeppelin-contracts/blob/v4.5.0/contracts/token/ERC20/ERC20.sol\":8566:8586  _beforeTokenTransfer */\n  tag_32\n    /* \"https://github.com/OpenZeppelin/openzeppelin-contracts/blob/v4.5.0/contracts/token/ERC20/ERC20.sol\":8566:8615  _beforeTokenTransfer(address(0), account, amount) */\n  jump\t// in\ntag_31:\n    /* \"https://github.com/OpenZeppelin/openzeppelin-contracts/blob/v4.5.0/contracts/token/ERC20/ERC20.sol\":8642:8648  amount */\n  dup1\n    /* \"https://github.com/OpenZeppelin/openzeppelin-contracts/blob/v4.5.0/contracts/token/ERC20/ERC20.sol\":8626:8638  _totalSupply */\n  0x02\n  0x00\n    /* \"https://github.com/OpenZeppelin/openzeppelin-contracts/blob/v4.5.0/contracts/token/ERC20/ERC20.sol\":8626:8648  _totalSupply += amount */\n  dup3\n  dup3\n  sload\n  tag_33\n  swap2\n  swap1\n  tag_34\n  jump\t// in\ntag_33:\n  swap1\n  swap2\n  sstore\n  pop\n  pop\n  sub(shl(0xa0, 0x01), 0x01)\n    /* \"https://github.com/OpenZeppelin/openzeppelin-contracts/blob/v4.5.0/contracts/token/ERC20/ERC20.sol\":8658:8676  _balances[account] */\n  dup3\n  and\n    /* \"https://github.com/OpenZeppelin/openzeppelin-contracts/blob/v4.5.0/contracts/token/ERC20/ERC20.sol\":8658:8667  _balances */\n  0x00\n    /* \"https://github.com/OpenZeppelin/openzeppelin-contracts/blob/v4.5.0/contracts/token/ERC20/ERC20.sol\":8658:8676  _balances[account] */\n  swap1\n  dup2\n  mstore\n  0x20\n  dup2\n  swap1\n  mstore\n  0x40\n  dup2\n  keccak256\n    /* \"https://github.com/OpenZeppelin/openzeppelin-contracts/blob/v4.5.0/contracts/token/ERC20/ERC20.sol\":8658:8686  _balances[account] += amount */\n  dup1\n  sload\n    /* \"https://github.com/OpenZeppelin/openzeppelin-contracts/blob/v4.5.0/contracts/token/ERC20/ERC20.sol\":8680:8686  amount */\n  dup4\n  swap3\n    /* \"https://github.com/OpenZeppelin/openzeppelin-contracts/blob/v4.5.0/contracts/token/ERC20/ERC20.sol\":8658:8667  _balances */\n  swap1\n    /* \"https://github.com/OpenZeppelin/openzeppelin-contracts/blob/v4.5.0/contracts/token/ERC20/ERC20.sol\":8658:8686  _balances[account] += amount */\n  tag_35\n  swap1\n    /* \"https://github.com/OpenZeppelin/openzeppelin-contracts/blob/v4.5.0/contracts/token/ERC20/ERC20.sol\":8680:8686  amount */\n  dup5\n  swap1\n    /* \"https://github.com/OpenZeppelin/openzeppelin-contracts/blob/v4.5.0/contracts/token/ERC20/ERC20.sol\":8658:8686  _balances[account] += amount */\n  tag_34\n  jump\t// in\ntag_35:\n  swap1\n  swap2\n  sstore\n  pop\n  pop\n    /* \"https://github.com/OpenZeppelin/openzeppelin-contracts/blob/v4.5.0/contracts/token/ERC20/ERC20.sol\":8701:8738  Transfer(address(0), account, amount) */\n  mload(0x40)\n  sub(shl(0xa0, 0x01), 0x01)\n  dup4\n  and\n  swap1\n    /* \"https://github.com/OpenZeppelin/openzeppelin-contracts/blob/v4.5.0/contracts/token/ERC20/ERC20.sol\":8718:8719  0 */\n  0x00\n  swap1\n    /* \"https://github.com/OpenZeppelin/openzeppelin-contracts/blob/v4.5.0/contracts/token/ERC20/ERC20.sol\":8701:8738  Transfer(address(0), account, amount) */\n  0xddf252ad1be2c89b69c2b068fc378daa952ba7f163c4a11628f55a4df523b3ef\n  swap1\n  tag_36\n  swap1\n    /* \"https://github.com/OpenZeppelin/openzeppelin-contracts/blob/v4.5.0/contracts/token/ERC20/ERC20.sol\":8731:8737  amount */\n  dup6\n  swap1\n    /* \"https://github.com/OpenZeppelin/openzeppelin-contracts/blob/v4.5.0/contracts/token/ERC20/ERC20.sol\":8701:8738  Transfer(address(0), account, amount) */\n  tag_37\n  jump\t// in\ntag_36:\n  mload(0x40)\n  dup1\n  swap2\n  sub\n  swap1\n  log3\n    /* \"https://github.com/OpenZeppelin/openzeppelin-contracts/blob/v4.5.0/contracts/token/ERC20/ERC20.sol\":8749:8797  _afterTokenTransfer(address(0), account, amount) */\n  tag_38\n    /* \"https://github.com/OpenZeppelin/openzeppelin-contracts/blob/v4.5.0/contracts/token/ERC20/ERC20.sol\":8777:8778  0 */\n  0x00\n    /* \"https://github.com/OpenZeppelin/openzeppelin-contracts/blob/v4.5.0/contracts/token/ERC20/ERC20.sol\":8781:8788  account */\n  dup4\n    /* \"https://github.com/OpenZeppelin/openzeppelin-contracts/blob/v4.5.0/contracts/token/ERC20/ERC20.sol\":8790:8796  amount */\n  dup4\n    /* \"https://github.com/OpenZeppelin/openzeppelin-contracts/blob/v4.5.0/contracts/token/ERC20/ERC20.sol\":8749:8768  _afterTokenTransfer */\n  tag_32\n    /* \"https://github.com/OpenZeppelin/openzeppelin-contracts/blob/v4.5.0/contracts/token/ERC20/ERC20.sol\":8749:8797  _afterTokenTransfer(address(0), account, amount) */\n  jump\t// in\ntag_38:\n    /* \"https://github.com/OpenZeppelin/openzeppelin-contracts/blob/v4.5.0/contracts/token/ERC20/ERC20.sol\":8415:8804  function _mint(address account, uint256 amount) internal virtual {... */\n  pop\n  pop\n  jump\t// out\n    /* \"https://github.com/OpenZeppelin/openzeppelin-contracts/blob/v4.5.0/contracts/token/ERC20/ERC20.sol\":11795:11916  function _beforeTokenTransfer(... */\ntag_32:\n  pop\n  pop\n  pop\n  jump\t// out\n    /* \"UfoZiomToken.sol\":427:3132  contract UfoZiomToken is ERC20, Ownable {\r... */\ntag_7:\n  dup3\n  dup1\n  sload\n  tag_42\n  swap1\n  tag_43\n  jump\t// in\ntag_42:\n  swap1\n  0x00\n  mstore\n  keccak256(0x00, 0x20)\n  swap1\n  0x1f\n  add\n  0x20\n  swap1\n  div\n  dup2\n  add\n  swap3\n  dup3\n  tag_45\n  jumpi\n  0x00\n  dup6\n  sstore\n  jump(tag_48)\ntag_45:\n  dup3\n  0x1f\n  lt\n  tag_46\n  jumpi\n  dup1\n  mload\n  not(0xff)\n  and\n  dup4\n  dup1\n  add\n  or\n  dup6\n  sstore\n  jump(tag_48)\ntag_46:\n  dup3\n  dup1\n  add\n  0x01\n  add\n  dup6\n  sstore\n  dup3\n  iszero\n  tag_48\n  jumpi\n  swap2\n  dup3\n  add\ntag_47:\n  dup3\n  dup2\n  gt\n  iszero\n  tag_48\n  jumpi\n  dup3\n  mload\n  dup3\n  sstore\n  swap2\n  0x20\n  add\n  swap2\n  swap1\n  0x01\n  add\n  swap1\n  jump(tag_47)\ntag_48:\n  pop\n  tag_49\n  swap3\n  swap2\n  pop\n  tag_50\n  jump\t// in\ntag_49:\n  pop\n  swap1\n  jump\t// out\ntag_50:\ntag_51:\n  dup1\n  dup3\n  gt\n  iszero\n  tag_49\n  jumpi\n  0x00\n  dup2\n  sstore\n  0x01\n  add\n  jump(tag_51)\n    /* \"#utility.yul\":14:369   */\ntag_30:\n    /* \"#utility.yul\":216:218   */\n  0x20\n    /* \"#utility.yul\":198:219   */\n  dup1\n  dup3\n  mstore\n    /* \"#utility.yul\":255:257   */\n  0x1f\n    /* \"#utility.yul\":235:253   */\n  swap1\n  dup3\n  add\n    /* \"#utility.yul\":228:258   */\n  mstore\n    /* \"#utility.yul\":294:327   */\n  0x45524332303a206d696e7420746f20746865207a65726f206164647265737300\n    /* \"#utility.yul\":289:291   */\n  0x40\n    /* \"#utility.yul\":274:292   */\n  dup3\n  add\n    /* \"#utility.yul\":267:328   */\n  mstore\n    /* \"#utility.yul\":360:362   */\n  0x60\n    /* \"#utility.yul\":345:363   */\n  add\n  swap1\n    /* \"#utility.yul\":188:369   */\n  jump\t// out\n    /* \"#utility.yul\":374:551   */\ntag_37:\n    /* \"#utility.yul\":520:545   */\n  swap1\n  dup2\n  mstore\n    /* \"#utility.yul\":508:510   */\n  0x20\n    /* \"#utility.yul\":493:511   */\n  add\n  swap1\n    /* \"#utility.yul\":475:551   */\n  jump\t// out\n    /* \"#utility.yul\":556:684   */\ntag_34:\n  0x00\n    /* \"#utility.yul\":627:628   */\n  dup3\n    /* \"#utility.yul\":623:629   */\n  not\n    /* \"#utility.yul\":620:621   */\n  dup3\n    /* \"#utility.yul\":617:630   */\n  gt\n    /* \"#utility.yul\":614:616   */\n  iszero\n  tag_58\n  jumpi\n    /* \"#utility.yul\":633:651   */\n  tag_58\n  tag_59\n  jump\t// in\ntag_58:\n  pop\n    /* \"#utility.yul\":669:678   */\n  add\n  swap1\n    /* \"#utility.yul\":604:684   */\n  jump\t// out\n    /* \"#utility.yul\":689:1142   */\ntag_60:\n    /* \"#utility.yul\":785:791   */\n  dup1\n    /* \"#utility.yul\":808:813   */\n  dup3\n    /* \"#utility.yul\":822:1136   */\ntag_62:\n    /* \"#utility.yul\":871:872   */\n  0x01\n    /* \"#utility.yul\":908:910   */\n  dup1\n    /* \"#utility.yul\":898:906   */\n  dup7\n    /* \"#utility.yul\":895:911   */\n  gt\n    /* \"#utility.yul\":885:887   */\n  tag_65\n  jumpi\n    /* \"#utility.yul\":915:920   */\n  pop\n  jump(tag_64)\n    /* \"#utility.yul\":885:887   */\ntag_65:\n    /* \"#utility.yul\":956:960   */\n  dup2\n    /* \"#utility.yul\":951:954   */\n  dup8\n    /* \"#utility.yul\":947:961   */\n  div\n    /* \"#utility.yul\":941:945   */\n  dup3\n    /* \"#utility.yul\":938:962   */\n  gt\n    /* \"#utility.yul\":935:937   */\n  iszero\n  tag_67\n  jumpi\n    /* \"#utility.yul\":965:983   */\n  tag_67\n  tag_59\n  jump\t// in\ntag_67:\n    /* \"#utility.yul\":1015:1017   */\n  dup1\n    /* \"#utility.yul\":1005:1013   */\n  dup7\n    /* \"#utility.yul\":1001:1018   */\n  and\n    /* \"#utility.yul\":998:1000   */\n  iszero\n  tag_68\n  jumpi\n    /* \"#utility.yul\":1030:1046   */\n  swap2\n  dup2\n  mul\n  swap2\n    /* \"#utility.yul\":998:1000   */\ntag_68:\n    /* \"#utility.yul\":1109:1126   */\n  swap5\n  swap1\n  swap5\n  shr\n  swap4\n    /* \"#utility.yul\":1069:1084   */\n  dup1\n  mul\n    /* \"#utility.yul\":822:1136   */\n  jump(tag_62)\ntag_64:\n    /* \"#utility.yul\":766:1142   */\n  swap5\n  pop\n  swap5\n  swap3\n  pop\n  pop\n  pop\n  jump\t// out\n    /* \"#utility.yul\":1147:1295   */\ntag_19:\n  0x00\n    /* \"#utility.yul\":1234:1289   */\n  tag_70\n  not(0x00)\n    /* \"#utility.yul\":1275:1279   */\n  0xff\n    /* \"#utility.yul\":1261:1280   */\n  dup6\n  and\n    /* \"#utility.yul\":1255:1259   */\n  dup5\n    /* \"#utility.yul\":1234:1289   */\n  tag_71\n  jump\t// in\ntag_70:\n    /* \"#utility.yul\":1225:1289   */\n  swap4\n    /* \"#utility.yul\":1215:1295   */\n  swap3\n  pop\n  pop\n  pop\n  jump\t// out\n    /* \"#utility.yul\":1300:2222   */\ntag_71:\n  0x00\n    /* \"#utility.yul\":1384:1392   */\n  dup3\n    /* \"#utility.yul\":1374:1376   */\n  tag_73\n  jumpi\n  pop\n    /* \"#utility.yul\":1425:1426   */\n  0x01\n    /* \"#utility.yul\":1439:1444   */\n  jump(tag_70)\n    /* \"#utility.yul\":1374:1376   */\ntag_73:\n    /* \"#utility.yul\":1473:1477   */\n  dup2\n    /* \"#utility.yul\":1463:1465   */\n  tag_74\n  jumpi\n  pop\n    /* \"#utility.yul\":1510:1511   */\n  0x00\n    /* \"#utility.yul\":1524:1529   */\n  jump(tag_70)\n    /* \"#utility.yul\":1463:1465   */\ntag_74:\n    /* \"#utility.yul\":1555:1559   */\n  dup2\n    /* \"#utility.yul\":1573:1574   */\n  0x01\n    /* \"#utility.yul\":1568:1627   */\n  dup2\n  eq\n  tag_76\n  jumpi\n    /* \"#utility.yul\":1641:1642   */\n  0x02\n    /* \"#utility.yul\":1636:1819   */\n  dup2\n  eq\n  tag_77\n  jumpi\n    /* \"#utility.yul\":1548:1819   */\n  jump(tag_75)\n    /* \"#utility.yul\":1568:1627   */\ntag_76:\n    /* \"#utility.yul\":1598:1599   */\n  0x01\n    /* \"#utility.yul\":1589:1599   */\n  swap2\n  pop\n    /* \"#utility.yul\":1612:1617   */\n  pop\n  jump(tag_70)\n    /* \"#utility.yul\":1636:1819   */\ntag_77:\n    /* \"#utility.yul\":1673:1676   */\n  0xff\n    /* \"#utility.yul\":1663:1671   */\n  dup5\n    /* \"#utility.yul\":1660:1677   */\n  gt\n    /* \"#utility.yul\":1657:1659   */\n  iszero\n  tag_79\n  jumpi\n    /* \"#utility.yul\":1680:1698   */\n  tag_79\n  tag_59\n  jump\t// in\ntag_79:\n    /* \"#utility.yul\":1736:1737   */\n  0x01\n    /* \"#utility.yul\":1726:1734   */\n  dup5\n    /* \"#utility.yul\":1722:1738   */\n  shl\n    /* \"#utility.yul\":1713:1738   */\n  swap2\n  pop\n    /* \"#utility.yul\":1764:1767   */\n  dup5\n    /* \"#utility.yul\":1757:1762   */\n  dup3\n    /* \"#utility.yul\":1754:1768   */\n  gt\n    /* \"#utility.yul\":1751:1753   */\n  iszero\n  tag_81\n  jumpi\n    /* \"#utility.yul\":1771:1789   */\n  tag_81\n  tag_59\n  jump\t// in\ntag_81:\n    /* \"#utility.yul\":1804:1809   */\n  pop\n  jump(tag_70)\n    /* \"#utility.yul\":1548:1819   */\ntag_75:\n  pop\n    /* \"#utility.yul\":1903:1905   */\n  0x20\n    /* \"#utility.yul\":1893:1901   */\n  dup4\n    /* \"#utility.yul\":1890:1906   */\n  lt\n    /* \"#utility.yul\":1884:1887   */\n  0x0133\n    /* \"#utility.yul\":1878:1882   */\n  dup4\n    /* \"#utility.yul\":1875:1888   */\n  lt\n    /* \"#utility.yul\":1871:1907   */\n  and\n    /* \"#utility.yul\":1865:1867   */\n  0x4e\n    /* \"#utility.yul\":1855:1863   */\n  dup5\n    /* \"#utility.yul\":1852:1868   */\n  lt\n    /* \"#utility.yul\":1847:1849   */\n  0x0b\n    /* \"#utility.yul\":1841:1845   */\n  dup5\n    /* \"#utility.yul\":1838:1850   */\n  lt\n    /* \"#utility.yul\":1834:1869   */\n  and\n    /* \"#utility.yul\":1831:1908   */\n  or\n    /* \"#utility.yul\":1828:1830   */\n  iszero\n  tag_82\n  jumpi\n  pop\n    /* \"#utility.yul\":1940:1959   */\n  dup2\n  dup2\n  exp\n    /* \"#utility.yul\":1975:1989   */\n  dup4\n  dup2\n  gt\n    /* \"#utility.yul\":1972:1974   */\n  iszero\n  tag_84\n  jumpi\n    /* \"#utility.yul\":1992:2010   */\n  tag_84\n  tag_59\n  jump\t// in\ntag_84:\n    /* \"#utility.yul\":2025:2030   */\n  jump(tag_70)\n    /* \"#utility.yul\":1828:1830   */\ntag_82:\n    /* \"#utility.yul\":2072:2114   */\n  tag_85\n    /* \"#utility.yul\":2110:2113   */\n  dup5\n    /* \"#utility.yul\":2100:2108   */\n  dup5\n    /* \"#utility.yul\":2094:2098   */\n  dup5\n    /* \"#utility.yul\":2091:2092   */\n  0x01\n    /* \"#utility.yul\":2072:2114   */\n  tag_60\n  jump\t// in\ntag_85:\n    /* \"#utility.yul\":2147:2153   */\n  dup1\n    /* \"#utility.yul\":2142:2145   */\n  dup7\n    /* \"#utility.yul\":2138:2154   */\n  div\n    /* \"#utility.yul\":2129:2136   */\n  dup3\n    /* \"#utility.yul\":2126:2155   */\n  gt\n    /* \"#utility.yul\":2123:2125   */\n  iszero\n  tag_87\n  jumpi\n    /* \"#utility.yul\":2158:2176   */\n  tag_87\n  tag_59\n  jump\t// in\ntag_87:\n    /* \"#utility.yul\":2196:2216   */\n  mul\n  swap5\n    /* \"#utility.yul\":1364:2222   */\n  swap4\n  pop\n  pop\n  pop\n  pop\n  jump\t// out\n    /* \"#utility.yul\":2227:2395   */\ntag_21:\n  0x00\n    /* \"#utility.yul\":2333:2334   */\n  dup2\n    /* \"#utility.yul\":2329:2330   */\n  0x00\n    /* \"#utility.yul\":2325:2331   */\n  not\n    /* \"#utility.yul\":2321:2335   */\n  div\n    /* \"#utility.yul\":2318:2319   */\n  dup4\n    /* \"#utility.yul\":2315:2336   */\n  gt\n    /* \"#utility.yul\":2310:2311   */\n  dup3\n    /* \"#utility.yul\":2303:2312   */\n  iszero\n    /* \"#utility.yul\":2296:2313   */\n  iszero\n    /* \"#utility.yul\":2292:2337   */\n  and\n    /* \"#utility.yul\":2289:2291   */\n  iszero\n  tag_90\n  jumpi\n    /* \"#utility.yul\":2340:2358   */\n  tag_90\n  tag_59\n  jump\t// in\ntag_90:\n  pop\n    /* \"#utility.yul\":2380:2389   */\n  mul\n  swap1\n    /* \"#utility.yul\":2279:2395   */\n  jump\t// out\n    /* \"#utility.yul\":2400:2780   */\ntag_43:\n    /* \"#utility.yul\":2485:2486   */\n  0x02\n    /* \"#utility.yul\":2475:2487   */\n  dup2\n  div\n    /* \"#utility.yul\":2532:2533   */\n  0x01\n    /* \"#utility.yul\":2522:2534   */\n  dup3\n  and\n  dup1\n    /* \"#utility.yul\":2543:2545   */\n  tag_92\n  jumpi\n    /* \"#utility.yul\":2597:2601   */\n  0x7f\n    /* \"#utility.yul\":2589:2595   */\n  dup3\n    /* \"#utility.yul\":2585:2602   */\n  and\n    /* \"#utility.yul\":2575:2602   */\n  swap2\n  pop\n    /* \"#utility.yul\":2543:2545   */\ntag_92:\n    /* \"#utility.yul\":2650:2652   */\n  0x20\n    /* \"#utility.yul\":2642:2648   */\n  dup3\n    /* \"#utility.yul\":2639:2653   */\n  lt\n    /* \"#utility.yul\":2619:2637   */\n  dup2\n    /* \"#utility.yul\":2616:2654   */\n  eq\n    /* \"#utility.yul\":2613:2615   */\n  iszero\n  tag_93\n  jumpi\n    /* \"#utility.yul\":2696:2706   */\n  0x4e487b71\n    /* \"#utility.yul\":2691:2694   */\n  0xe0\n    /* \"#utility.yul\":2687:2707   */\n  shl\n    /* \"#utility.yul\":2684:2685   */\n  0x00\n    /* \"#utility.yul\":2677:2708   */\n  mstore\n    /* \"#utility.yul\":2731:2735   */\n  0x22\n    /* \"#utility.yul\":2728:2729   */\n  0x04\n    /* \"#utility.yul\":2721:2736   */\n  mstore\n    /* \"#utility.yul\":2759:2763   */\n  0x24\n    /* \"#utility.yul\":2756:2757   */\n  0x00\n    /* \"#utility.yul\":2749:2764   */\n  revert\n    /* \"#utility.yul\":2613:2615   */\ntag_93:\n  pop\n    /* \"#utility.yul\":2455:2780   */\n  swap2\n  swap1\n  pop\n  jump\t// out\n    /* \"#utility.yul\":2785:2912   */\ntag_59:\n    /* \"#utility.yul\":2846:2856   */\n  0x4e487b71\n    /* \"#utility.yul\":2841:2844   */\n  0xe0\n    /* \"#utility.yul\":2837:2857   */\n  shl\n    /* \"#utility.yul\":2834:2835   */\n  0x00\n    /* \"#utility.yul\":2827:2858   */\n  mstore\n    /* \"#utility.yul\":2877:2881   */\n  0x11\n    /* \"#utility.yul\":2874:2875   */\n  0x04\n    /* \"#utility.yul\":2867:2882   */\n  mstore\n    /* \"#utility.yul\":2901:2905   */\n  0x24\n    /* \"#utility.yul\":2898:2899   */\n  0x00\n    /* \"#utility.yul\":2891:2906   */\n  revert\n    /* \"#utility.yul\":2817:2912   */\ntag_53:\n    /* \"UfoZiomToken.sol\":427:3132  contract UfoZiomToken is ERC20, Ownable {\r... */\n  dataSize(sub_0)\n  dup1\n  dataOffset(sub_0)\n  0x00\n  codecopy\n  0x00\n  return\nstop\n\nsub_0: assembly {\n        /* \"UfoZiomToken.sol\":427:3132  contract UfoZiomToken is ERC20, Ownable {\r... */\n      mstore(0x40, 0x80)\n      callvalue\n      dup1\n      iszero\n      tag_1\n      jumpi\n      0x00\n      dup1\n      revert\n    tag_1:\n      pop\n      jumpi(tag_2, lt(calldatasize, 0x04))\n      shr(0xe0, calldataload(0x00))\n      dup1\n      0x70d5ae05\n      gt\n      tag_22\n      jumpi\n      dup1\n      0xa457c2d7\n      gt\n      tag_23\n      jumpi\n      dup1\n      0xa457c2d7\n      eq\n      tag_17\n      jumpi\n      dup1\n      0xa9059cbb\n      eq\n      tag_18\n      jumpi\n      dup1\n      0xdd62ed3e\n      eq\n      tag_19\n      jumpi\n      dup1\n      0xea2f0b37\n      eq\n      tag_20\n      jumpi\n      dup1\n      0xf2fde38b\n      eq\n      tag_21\n      jumpi\n      jump(tag_2)\n    tag_23:\n      dup1\n      0x70d5ae05\n      eq\n      tag_12\n      jumpi\n      dup1\n      0x715018a6\n      eq\n      tag_13\n      jumpi\n      dup1\n      0x8da5cb5b\n      eq\n      tag_14\n      jumpi\n      dup1\n      0x95d89b41\n      eq\n      tag_15\n      jumpi\n      dup1\n      0xa071dcf4\n      eq\n      tag_16\n      jumpi\n      jump(tag_2)\n    tag_22:\n      dup1\n      0x23b872dd\n      gt\n      tag_24\n      jumpi\n      dup1\n      0x23b872dd\n      eq\n      tag_7\n      jumpi\n      dup1\n      0x313ce567\n      eq\n      tag_8\n      jumpi\n      dup1\n      0x39509351\n      eq\n      tag_9\n      jumpi\n      dup1\n      0x437823ec\n      eq\n      tag_10\n      jumpi\n      dup1\n      0x70a08231\n      eq\n      tag_11\n      jumpi\n      jump(tag_2)\n    tag_24:\n      dup1\n      0x061c82d0\n      eq\n      tag_3\n      jumpi\n      dup1\n      0x06fdde03\n      eq\n      tag_4\n      jumpi\n      dup1\n      0x095ea7b3\n      eq\n      tag_5\n      jumpi\n      dup1\n      0x18160ddd\n      eq\n      tag_6\n      jumpi\n    tag_2:\n      0x00\n      dup1\n      revert\n        /* \"UfoZiomToken.sol\":1938:2102  function setTaxFeePercent(uint256 fee) external onlyOwner {\r... */\n    tag_3:\n      tag_25\n      tag_26\n      calldatasize\n      0x04\n      tag_27\n      jump\t// in\n    tag_26:\n      tag_28\n      jump\t// in\n    tag_25:\n      stop\n        /* \"https://github.com/OpenZeppelin/openzeppelin-contracts/blob/v4.5.0/contracts/token/ERC20/ERC20.sol\":2156:2254  function name() public view virtual override returns (string memory) {... */\n    tag_4:\n      tag_29\n      tag_30\n      jump\t// in\n    tag_29:\n      mload(0x40)\n      tag_31\n      swap2\n      swap1\n      tag_32\n      jump\t// in\n    tag_31:\n      mload(0x40)\n      dup1\n      swap2\n      sub\n      swap1\n      return\n        /* \"https://github.com/OpenZeppelin/openzeppelin-contracts/blob/v4.5.0/contracts/token/ERC20/ERC20.sol\":4433:4630  function approve(address spender, uint256 amount) public virtual override returns (bool) {... */\n    tag_5:\n      tag_33\n      tag_34\n      calldatasize\n      0x04\n      tag_35\n      jump\t// in\n    tag_34:\n      tag_36\n      jump\t// in\n    tag_33:\n      mload(0x40)\n      tag_31\n      swap2\n      swap1\n      tag_38\n      jump\t// in\n        /* \"https://github.com/OpenZeppelin/openzeppelin-contracts/blob/v4.5.0/contracts/token/ERC20/ERC20.sol\":3244:3350  function totalSupply() public view virtual override returns (uint256) {... */\n    tag_6:\n      tag_39\n      tag_40\n      jump\t// in\n    tag_39:\n      mload(0x40)\n      tag_31\n      swap2\n      swap1\n      tag_42\n      jump\t// in\n        /* \"https://github.com/OpenZeppelin/openzeppelin-contracts/blob/v4.5.0/contracts/token/ERC20/ERC20.sol\":5192:5478  function transferFrom(... */\n    tag_7:\n      tag_33\n      tag_44\n      calldatasize\n      0x04\n      tag_45\n      jump\t// in\n    tag_44:\n      tag_46\n      jump\t// in\n        /* \"https://github.com/OpenZeppelin/openzeppelin-contracts/blob/v4.5.0/contracts/token/ERC20/ERC20.sol\":3093:3184  function decimals() public view virtual override returns (uint8) {... */\n    tag_8:\n      tag_48\n      tag_49\n      jump\t// in\n    tag_48:\n      mload(0x40)\n      tag_31\n      swap2\n      swap1\n      tag_51\n      jump\t// in\n        /* \"https://github.com/OpenZeppelin/openzeppelin-contracts/blob/v4.5.0/contracts/token/ERC20/ERC20.sol\":5873:6109  function increaseAllowance(address spender, uint256 addedValue) public virtual returns (bool) {... */\n    tag_9:\n      tag_33\n      tag_53\n      calldatasize\n      0x04\n      tag_35\n      jump\t// in\n    tag_53:\n      tag_54\n      jump\t// in\n        /* \"UfoZiomToken.sol\":1387:1500  function excludeFromFee(address account) external onlyOwner {\r... */\n    tag_10:\n      tag_25\n      tag_57\n      calldatasize\n      0x04\n      tag_58\n      jump\t// in\n    tag_57:\n      tag_59\n      jump\t// in\n        /* \"https://github.com/OpenZeppelin/openzeppelin-contracts/blob/v4.5.0/contracts/token/ERC20/ERC20.sol\":3408:3533  function balanceOf(address account) public view virtual override returns (uint256) {... */\n    tag_11:\n      tag_39\n      tag_61\n      calldatasize\n      0x04\n      tag_58\n      jump\t// in\n    tag_61:\n      tag_62\n      jump\t// in\n        /* \"UfoZiomToken.sol\":533:613  address public constant burnAddress = 0x000000000000000000000000000000000000dEaD */\n    tag_12:\n      tag_64\n      tag_65\n      jump\t// in\n    tag_64:\n      mload(0x40)\n      tag_31\n      swap2\n      swap1\n      tag_67\n      jump\t// in\n        /* \"https://github.com/OpenZeppelin/openzeppelin-contracts/blob/v4.5.0/contracts/access/Ownable.sol\":1668:1769  function renounceOwnership() public virtual onlyOwner {... */\n    tag_13:\n      tag_25\n      tag_69\n      jump\t// in\n        /* \"https://github.com/OpenZeppelin/openzeppelin-contracts/blob/v4.5.0/contracts/access/Ownable.sol\":1036:1121  function owner() public view virtual returns (address) {... */\n    tag_14:\n      tag_64\n      tag_71\n      jump\t// in\n        /* \"https://github.com/OpenZeppelin/openzeppelin-contracts/blob/v4.5.0/contracts/token/ERC20/ERC20.sol\":2367:2469  function symbol() public view virtual override returns (string memory) {... */\n    tag_15:\n      tag_29\n      tag_74\n      jump\t// in\n        /* \"UfoZiomToken.sol\":679:704  uint256 public taxFee = 2 */\n    tag_16:\n      tag_39\n      tag_77\n      jump\t// in\n        /* \"https://github.com/OpenZeppelin/openzeppelin-contracts/blob/v4.5.0/contracts/token/ERC20/ERC20.sol\":6596:7025  function decreaseAllowance(address spender, uint256 subtractedValue) public virtual returns (bool) {... */\n    tag_17:\n      tag_33\n      tag_80\n      calldatasize\n      0x04\n      tag_35\n      jump\t// in\n    tag_80:\n      tag_81\n      jump\t// in\n        /* \"https://github.com/OpenZeppelin/openzeppelin-contracts/blob/v4.5.0/contracts/token/ERC20/ERC20.sol\":3729:3918  function transfer(address to, uint256 amount) public virtual override returns (bool) {... */\n    tag_18:\n      tag_33\n      tag_84\n      calldatasize\n      0x04\n      tag_35\n      jump\t// in\n    tag_84:\n      tag_85\n      jump\t// in\n        /* \"https://github.com/OpenZeppelin/openzeppelin-contracts/blob/v4.5.0/contracts/token/ERC20/ERC20.sol\":3976:4125  function allowance(address owner, address spender) public view virtual override returns (uint256) {... */\n    tag_19:\n      tag_39\n      tag_88\n      calldatasize\n      0x04\n      tag_89\n      jump\t// in\n    tag_88:\n      tag_90\n      jump\t// in\n        /* \"UfoZiomToken.sol\":1667:1779  function includeInFee(address account) external onlyOwner {\r... */\n    tag_20:\n      tag_25\n      tag_93\n      calldatasize\n      0x04\n      tag_58\n      jump\t// in\n    tag_93:\n      tag_94\n      jump\t// in\n        /* \"https://github.com/OpenZeppelin/openzeppelin-contracts/blob/v4.5.0/contracts/access/Ownable.sol\":1918:2116  function transferOwnership(address newOwner) public virtual onlyOwner {... */\n    tag_21:\n      tag_25\n      tag_96\n      calldatasize\n      0x04\n      tag_58\n      jump\t// in\n    tag_96:\n      tag_97\n      jump\t// in\n        /* \"UfoZiomToken.sol\":1938:2102  function setTaxFeePercent(uint256 fee) external onlyOwner {\r... */\n    tag_28:\n        /* \"https://github.com/OpenZeppelin/openzeppelin-contracts/blob/v4.5.0/contracts/access/Ownable.sol\":1259:1271  _msgSender() */\n      tag_99\n        /* \"https://github.com/OpenZeppelin/openzeppelin-contracts/blob/v4.5.0/contracts/access/Ownable.sol\":1259:1269  _msgSender */\n      tag_100\n        /* \"https://github.com/OpenZeppelin/openzeppelin-contracts/blob/v4.5.0/contracts/access/Ownable.sol\":1259:1271  _msgSender() */\n      jump\t// in\n    tag_99:\n      sub(shl(0xa0, 0x01), 0x01)\n        /* \"https://github.com/OpenZeppelin/openzeppelin-contracts/blob/v4.5.0/contracts/access/Ownable.sol\":1248:1271  owner() == _msgSender() */\n      and\n        /* \"https://github.com/OpenZeppelin/openzeppelin-contracts/blob/v4.5.0/contracts/access/Ownable.sol\":1248:1255  owner() */\n      tag_101\n        /* \"https://github.com/OpenZeppelin/openzeppelin-contracts/blob/v4.5.0/contracts/access/Ownable.sol\":1248:1253  owner */\n      tag_71\n        /* \"https://github.com/OpenZeppelin/openzeppelin-contracts/blob/v4.5.0/contracts/access/Ownable.sol\":1248:1255  owner() */\n      jump\t// in\n    tag_101:\n      sub(shl(0xa0, 0x01), 0x01)\n        /* \"https://github.com/OpenZeppelin/openzeppelin-contracts/blob/v4.5.0/contracts/access/Ownable.sol\":1248:1271  owner() == _msgSender() */\n      and\n      eq\n        /* \"https://github.com/OpenZeppelin/openzeppelin-contracts/blob/v4.5.0/contracts/access/Ownable.sol\":1240:1308  require(owner() == _msgSender(), \"Ownable: caller is not the owner\") */\n      tag_102\n      jumpi\n      mload(0x40)\n      shl(0xe5, 0x461bcd)\n      dup2\n      mstore\n      0x04\n      add\n      tag_103\n      swap1\n      tag_104\n      jump\t// in\n    tag_103:\n      mload(0x40)\n      dup1\n      swap2\n      sub\n      swap1\n      revert\n    tag_102:\n        /* \"UfoZiomToken.sol\":2034:2036  10 */\n      0x0a\n        /* \"UfoZiomToken.sol\":2027:2030  fee */\n      dup2\n        /* \"UfoZiomToken.sol\":2027:2036  fee <= 10 */\n      gt\n      iszero\n        /* \"UfoZiomToken.sol\":2007:2071  require(fee >= 0 && fee <= 10, \"Fee must be between 0% and 10%\") */\n      tag_107\n      jumpi\n      mload(0x40)\n      shl(0xe5, 0x461bcd)\n      dup2\n      mstore\n      0x04\n      add\n      tag_103\n      swap1\n      tag_109\n      jump\t// in\n    tag_107:\n        /* \"UfoZiomToken.sol\":2082:2088  taxFee */\n      0x06\n        /* \"UfoZiomToken.sol\":2082:2094  taxFee = fee */\n      sstore\n        /* \"UfoZiomToken.sol\":1938:2102  function setTaxFeePercent(uint256 fee) external onlyOwner {\r... */\n      jump\t// out\n        /* \"https://github.com/OpenZeppelin/openzeppelin-contracts/blob/v4.5.0/contracts/token/ERC20/ERC20.sol\":2156:2254  function name() public view virtual override returns (string memory) {... */\n    tag_30:\n        /* \"https://github.com/OpenZeppelin/openzeppelin-contracts/blob/v4.5.0/contracts/token/ERC20/ERC20.sol\":2210:2223  string memory */\n      0x60\n        /* \"https://github.com/OpenZeppelin/openzeppelin-contracts/blob/v4.5.0/contracts/token/ERC20/ERC20.sol\":2242:2247  _name */\n      0x03\n        /* \"https://github.com/OpenZeppelin/openzeppelin-contracts/blob/v4.5.0/contracts/token/ERC20/ERC20.sol\":2235:2247  return _name */\n      dup1\n      sload\n      tag_111\n      swap1\n      tag_112\n      jump\t// in\n    tag_111:\n      dup1\n      0x1f\n      add\n      0x20\n      dup1\n      swap2\n      div\n      mul\n      0x20\n      add\n      mload(0x40)\n      swap1\n      dup2\n      add\n      0x40\n      mstore\n      dup1\n      swap3\n      swap2\n      swap1\n      dup2\n      dup2\n      mstore\n      0x20\n      add\n      dup3\n      dup1\n      sload\n      tag_113\n      swap1\n      tag_112\n      jump\t// in\n    tag_113:\n      dup1\n      iszero\n      tag_114\n      jumpi\n      dup1\n      0x1f\n      lt\n      tag_115\n      jumpi\n      0x0100\n      dup1\n      dup4\n      sload\n      div\n      mul\n      dup4\n      mstore\n      swap2\n      0x20\n      add\n      swap2\n      jump(tag_114)\n    tag_115:\n      dup3\n      add\n      swap2\n      swap1\n      0x00\n      mstore\n      keccak256(0x00, 0x20)\n      swap1\n    tag_116:\n      dup2\n      sload\n      dup2\n      mstore\n      swap1\n      0x01\n      add\n      swap1\n      0x20\n      add\n      dup1\n      dup4\n      gt\n      tag_116\n      jumpi\n      dup3\n      swap1\n      sub\n      0x1f\n      and\n      dup3\n      add\n      swap2\n    tag_114:\n      pop\n      pop\n      pop\n      pop\n      pop\n      swap1\n      pop\n        /* \"https://github.com/OpenZeppelin/openzeppelin-contracts/blob/v4.5.0/contracts/token/ERC20/ERC20.sol\":2156:2254  function name() public view virtual override returns (string memory) {... */\n      swap1\n      jump\t// out\n        /* \"https://github.com/OpenZeppelin/openzeppelin-contracts/blob/v4.5.0/contracts/token/ERC20/ERC20.sol\":4433:4630  function approve(address spender, uint256 amount) public virtual override returns (bool) {... */\n    tag_36:\n        /* \"https://github.com/OpenZeppelin/openzeppelin-contracts/blob/v4.5.0/contracts/token/ERC20/ERC20.sol\":4516:4520  bool */\n      0x00\n        /* \"https://github.com/OpenZeppelin/openzeppelin-contracts/blob/v4.5.0/contracts/token/ERC20/ERC20.sol\":4532:4545  address owner */\n      dup1\n        /* \"https://github.com/OpenZeppelin/openzeppelin-contracts/blob/v4.5.0/contracts/token/ERC20/ERC20.sol\":4548:4560  _msgSender() */\n      tag_118\n        /* \"https://github.com/OpenZeppelin/openzeppelin-contracts/blob/v4.5.0/contracts/token/ERC20/ERC20.sol\":4548:4558  _msgSender */\n      tag_100\n        /* \"https://github.com/OpenZeppelin/openzeppelin-contracts/blob/v4.5.0/contracts/token/ERC20/ERC20.sol\":4548:4560  _msgSender() */\n      jump\t// in\n    tag_118:\n        /* \"https://github.com/OpenZeppelin/openzeppelin-contracts/blob/v4.5.0/contracts/token/ERC20/ERC20.sol\":4532:4560  address owner = _msgSender() */\n      swap1\n      pop\n        /* \"https://github.com/OpenZeppelin/openzeppelin-contracts/blob/v4.5.0/contracts/token/ERC20/ERC20.sol\":4570:4602  _approve(owner, spender, amount) */\n      tag_119\n        /* \"https://github.com/OpenZeppelin/openzeppelin-contracts/blob/v4.5.0/contracts/token/ERC20/ERC20.sol\":4579:4584  owner */\n      dup2\n        /* \"https://github.com/OpenZeppelin/openzeppelin-contracts/blob/v4.5.0/contracts/token/ERC20/ERC20.sol\":4586:4593  spender */\n      dup6\n        /* \"https://github.com/OpenZeppelin/openzeppelin-contracts/blob/v4.5.0/contracts/token/ERC20/ERC20.sol\":4595:4601  amount */\n      dup6\n        /* \"https://github.com/OpenZeppelin/openzeppelin-contracts/blob/v4.5.0/contracts/token/ERC20/ERC20.sol\":4570:4578  _approve */\n      tag_120\n        /* \"https://github.com/OpenZeppelin/openzeppelin-contracts/blob/v4.5.0/contracts/token/ERC20/ERC20.sol\":4570:4602  _approve(owner, spender, amount) */\n      jump\t// in\n    tag_119:\n      pop\n        /* \"https://github.com/OpenZeppelin/openzeppelin-contracts/blob/v4.5.0/contracts/token/ERC20/ERC20.sol\":4619:4623  true */\n      0x01\n      swap4\n        /* \"https://github.com/OpenZeppelin/openzeppelin-contracts/blob/v4.5.0/contracts/token/ERC20/ERC20.sol\":4433:4630  function approve(address spender, uint256 amount) public virtual override returns (bool) {... */\n      swap3\n      pop\n      pop\n      pop\n      jump\t// out\n        /* \"https://github.com/OpenZeppelin/openzeppelin-contracts/blob/v4.5.0/contracts/token/ERC20/ERC20.sol\":3244:3350  function totalSupply() public view virtual override returns (uint256) {... */\n    tag_40:\n        /* \"https://github.com/OpenZeppelin/openzeppelin-contracts/blob/v4.5.0/contracts/token/ERC20/ERC20.sol\":3331:3343  _totalSupply */\n      sload(0x02)\n        /* \"https://github.com/OpenZeppelin/openzeppelin-contracts/blob/v4.5.0/contracts/token/ERC20/ERC20.sol\":3244:3350  function totalSupply() public view virtual override returns (uint256) {... */\n      swap1\n      jump\t// out\n        /* \"https://github.com/OpenZeppelin/openzeppelin-contracts/blob/v4.5.0/contracts/token/ERC20/ERC20.sol\":5192:5478  function transferFrom(... */\n    tag_46:\n        /* \"https://github.com/OpenZeppelin/openzeppelin-contracts/blob/v4.5.0/contracts/token/ERC20/ERC20.sol\":5319:5323  bool */\n      0x00\n        /* \"https://github.com/OpenZeppelin/openzeppelin-contracts/blob/v4.5.0/contracts/token/ERC20/ERC20.sol\":5335:5350  address spender */\n      dup1\n        /* \"https://github.com/OpenZeppelin/openzeppelin-contracts/blob/v4.5.0/contracts/token/ERC20/ERC20.sol\":5353:5365  _msgSender() */\n      tag_123\n        /* \"https://github.com/OpenZeppelin/openzeppelin-contracts/blob/v4.5.0/contracts/token/ERC20/ERC20.sol\":5353:5363  _msgSender */\n      tag_100\n        /* \"https://github.com/OpenZeppelin/openzeppelin-contracts/blob/v4.5.0/contracts/token/ERC20/ERC20.sol\":5353:5365  _msgSender() */\n      jump\t// in\n    tag_123:\n        /* \"https://github.com/OpenZeppelin/openzeppelin-contracts/blob/v4.5.0/contracts/token/ERC20/ERC20.sol\":5335:5365  address spender = _msgSender() */\n      swap1\n      pop\n        /* \"https://github.com/OpenZeppelin/openzeppelin-contracts/blob/v4.5.0/contracts/token/ERC20/ERC20.sol\":5375:5413  _spendAllowance(from, spender, amount) */\n      tag_124\n        /* \"https://github.com/OpenZeppelin/openzeppelin-contracts/blob/v4.5.0/contracts/token/ERC20/ERC20.sol\":5391:5395  from */\n      dup6\n        /* \"https://github.com/OpenZeppelin/openzeppelin-contracts/blob/v4.5.0/contracts/token/ERC20/ERC20.sol\":5397:5404  spender */\n      dup3\n        /* \"https://github.com/OpenZeppelin/openzeppelin-contracts/blob/v4.5.0/contracts/token/ERC20/ERC20.sol\":5406:5412  amount */\n      dup6\n        /* \"https://github.com/OpenZeppelin/openzeppelin-contracts/blob/v4.5.0/contracts/token/ERC20/ERC20.sol\":5375:5390  _spendAllowance */\n      tag_125\n        /* \"https://github.com/OpenZeppelin/openzeppelin-contracts/blob/v4.5.0/contracts/token/ERC20/ERC20.sol\":5375:5413  _spendAllowance(from, spender, amount) */\n      jump\t// in\n    tag_124:\n        /* \"https://github.com/OpenZeppelin/openzeppelin-contracts/blob/v4.5.0/contracts/token/ERC20/ERC20.sol\":5423:5450  _transfer(from, to, amount) */\n      tag_126\n        /* \"https://github.com/OpenZeppelin/openzeppelin-contracts/blob/v4.5.0/contracts/token/ERC20/ERC20.sol\":5433:5437  from */\n      dup6\n        /* \"https://github.com/OpenZeppelin/openzeppelin-contracts/blob/v4.5.0/contracts/token/ERC20/ERC20.sol\":5439:5441  to */\n      dup6\n        /* \"https://github.com/OpenZeppelin/openzeppelin-contracts/blob/v4.5.0/contracts/token/ERC20/ERC20.sol\":5443:5449  amount */\n      dup6\n        /* \"https://github.com/OpenZeppelin/openzeppelin-contracts/blob/v4.5.0/contracts/token/ERC20/ERC20.sol\":5423:5432  _transfer */\n      tag_127\n        /* \"https://github.com/OpenZeppelin/openzeppelin-contracts/blob/v4.5.0/contracts/token/ERC20/ERC20.sol\":5423:5450  _transfer(from, to, amount) */\n      jump\t// in\n    tag_126:\n      pop\n        /* \"https://github.com/OpenZeppelin/openzeppelin-contracts/blob/v4.5.0/contracts/token/ERC20/ERC20.sol\":5467:5471  true */\n      0x01\n      swap5\n        /* \"https://github.com/OpenZeppelin/openzeppelin-contracts/blob/v4.5.0/contracts/token/ERC20/ERC20.sol\":5192:5478  function transferFrom(... */\n      swap4\n      pop\n      pop\n      pop\n      pop\n      jump\t// out\n        /* \"https://github.com/OpenZeppelin/openzeppelin-contracts/blob/v4.5.0/contracts/token/ERC20/ERC20.sol\":3093:3184  function decimals() public view virtual override returns (uint8) {... */\n    tag_49:\n        /* \"https://github.com/OpenZeppelin/openzeppelin-contracts/blob/v4.5.0/contracts/token/ERC20/ERC20.sol\":3175:3177  18 */\n      0x12\n        /* \"https://github.com/OpenZeppelin/openzeppelin-contracts/blob/v4.5.0/contracts/token/ERC20/ERC20.sol\":3093:3184  function decimals() public view virtual override returns (uint8) {... */\n      swap1\n      jump\t// out\n        /* \"https://github.com/OpenZeppelin/openzeppelin-contracts/blob/v4.5.0/contracts/token/ERC20/ERC20.sol\":5873:6109  function increaseAllowance(address spender, uint256 addedValue) public virtual returns (bool) {... */\n    tag_54:\n        /* \"https://github.com/OpenZeppelin/openzeppelin-contracts/blob/v4.5.0/contracts/token/ERC20/ERC20.sol\":5961:5965  bool */\n      0x00\n        /* \"https://github.com/OpenZeppelin/openzeppelin-contracts/blob/v4.5.0/contracts/token/ERC20/ERC20.sol\":5977:5990  address owner */\n      dup1\n        /* \"https://github.com/OpenZeppelin/openzeppelin-contracts/blob/v4.5.0/contracts/token/ERC20/ERC20.sol\":5993:6005  _msgSender() */\n      tag_130\n        /* \"https://github.com/OpenZeppelin/openzeppelin-contracts/blob/v4.5.0/contracts/token/ERC20/ERC20.sol\":5993:6003  _msgSender */\n      tag_100\n        /* \"https://github.com/OpenZeppelin/openzeppelin-contracts/blob/v4.5.0/contracts/token/ERC20/ERC20.sol\":5993:6005  _msgSender() */\n      jump\t// in\n    tag_130:\n      sub(shl(0xa0, 0x01), 0x01)\n        /* \"https://github.com/OpenZeppelin/openzeppelin-contracts/blob/v4.5.0/contracts/token/ERC20/ERC20.sol\":6040:6058  _allowances[owner] */\n      dup1\n      dup3\n      and\n      0x00\n      swap1\n      dup2\n      mstore\n        /* \"https://github.com/OpenZeppelin/openzeppelin-contracts/blob/v4.5.0/contracts/token/ERC20/ERC20.sol\":6040:6051  _allowances */\n      0x01\n        /* \"https://github.com/OpenZeppelin/openzeppelin-contracts/blob/v4.5.0/contracts/token/ERC20/ERC20.sol\":6040:6058  _allowances[owner] */\n      0x20\n      swap1\n      dup2\n      mstore\n      0x40\n      dup1\n      dup4\n      keccak256\n        /* \"https://github.com/OpenZeppelin/openzeppelin-contracts/blob/v4.5.0/contracts/token/ERC20/ERC20.sol\":6040:6067  _allowances[owner][spender] */\n      swap4\n      dup10\n      and\n      dup4\n      mstore\n      swap3\n      swap1\n      mstore\n      keccak256\n      sload\n        /* \"https://github.com/OpenZeppelin/openzeppelin-contracts/blob/v4.5.0/contracts/token/ERC20/ERC20.sol\":5977:6005  address owner = _msgSender() */\n      swap1\n      swap2\n      pop\n        /* \"https://github.com/OpenZeppelin/openzeppelin-contracts/blob/v4.5.0/contracts/token/ERC20/ERC20.sol\":6015:6081  _approve(owner, spender, _allowances[owner][spender] + addedValue) */\n      tag_119\n      swap1\n        /* \"https://github.com/OpenZeppelin/openzeppelin-contracts/blob/v4.5.0/contracts/token/ERC20/ERC20.sol\":5977:6005  address owner = _msgSender() */\n      dup3\n      swap1\n        /* \"https://github.com/OpenZeppelin/openzeppelin-contracts/blob/v4.5.0/contracts/token/ERC20/ERC20.sol\":6031:6038  spender */\n      dup7\n      swap1\n        /* \"https://github.com/OpenZeppelin/openzeppelin-contracts/blob/v4.5.0/contracts/token/ERC20/ERC20.sol\":6040:6080  _allowances[owner][spender] + addedValue */\n      tag_132\n      swap1\n        /* \"https://github.com/OpenZeppelin/openzeppelin-contracts/blob/v4.5.0/contracts/token/ERC20/ERC20.sol\":6070:6080  addedValue */\n      dup8\n      swap1\n        /* \"https://github.com/OpenZeppelin/openzeppelin-contracts/blob/v4.5.0/contracts/token/ERC20/ERC20.sol\":6040:6080  _allowances[owner][spender] + addedValue */\n      tag_133\n      jump\t// in\n    tag_132:\n        /* \"https://github.com/OpenZeppelin/openzeppelin-contracts/blob/v4.5.0/contracts/token/ERC20/ERC20.sol\":6015:6023  _approve */\n      tag_120\n        /* \"https://github.com/OpenZeppelin/openzeppelin-contracts/blob/v4.5.0/contracts/token/ERC20/ERC20.sol\":6015:6081  _approve(owner, spender, _allowances[owner][spender] + addedValue) */\n      jump\t// in\n        /* \"UfoZiomToken.sol\":1387:1500  function excludeFromFee(address account) external onlyOwner {\r... */\n    tag_59:\n        /* \"https://github.com/OpenZeppelin/openzeppelin-contracts/blob/v4.5.0/contracts/access/Ownable.sol\":1259:1271  _msgSender() */\n      tag_135\n        /* \"https://github.com/OpenZeppelin/openzeppelin-contracts/blob/v4.5.0/contracts/access/Ownable.sol\":1259:1269  _msgSender */\n      tag_100\n        /* \"https://github.com/OpenZeppelin/openzeppelin-contracts/blob/v4.5.0/contracts/access/Ownable.sol\":1259:1271  _msgSender() */\n      jump\t// in\n    tag_135:\n      sub(shl(0xa0, 0x01), 0x01)\n        /* \"https://github.com/OpenZeppelin/openzeppelin-contracts/blob/v4.5.0/contracts/access/Ownable.sol\":1248:1271  owner() == _msgSender() */\n      and\n        /* \"https://github.com/OpenZeppelin/openzeppelin-contracts/blob/v4.5.0/contracts/access/Ownable.sol\":1248:1255  owner() */\n      tag_136\n        /* \"https://github.com/OpenZeppelin/openzeppelin-contracts/blob/v4.5.0/contracts/access/Ownable.sol\":1248:1253  owner */\n      tag_71\n        /* \"https://github.com/OpenZeppelin/openzeppelin-contracts/blob/v4.5.0/contracts/access/Ownable.sol\":1248:1255  owner() */\n      jump\t// in\n    tag_136:\n      sub(shl(0xa0, 0x01), 0x01)\n        /* \"https://github.com/OpenZeppelin/openzeppelin-contracts/blob/v4.5.0/contracts/access/Ownable.sol\":1248:1271  owner() == _msgSender() */\n      and\n      eq\n        /* \"https://github.com/OpenZeppelin/openzeppelin-contracts/blob/v4.5.0/contracts/access/Ownable.sol\":1240:1308  require(owner() == _msgSender(), \"Ownable: caller is not the owner\") */\n      tag_137\n      jumpi\n      mload(0x40)\n      shl(0xe5, 0x461bcd)\n      dup2\n      mstore\n      0x04\n      add\n      tag_103\n      swap1\n      tag_104\n      jump\t// in\n    tag_137:\n      sub(shl(0xa0, 0x01), 0x01)\n        /* \"UfoZiomToken.sol\":1458:1485  _isExcludedFromFee[account] */\n      and\n      0x00\n      swap1\n      dup2\n      mstore\n        /* \"UfoZiomToken.sol\":1458:1476  _isExcludedFromFee */\n      0x07\n        /* \"UfoZiomToken.sol\":1458:1485  _isExcludedFromFee[account] */\n      0x20\n      mstore\n      0x40\n      swap1\n      keccak256\n        /* \"UfoZiomToken.sol\":1458:1492  _isExcludedFromFee[account] = true */\n      dup1\n      sload\n      not(0xff)\n      and\n        /* \"UfoZiomToken.sol\":1488:1492  true */\n      0x01\n        /* \"UfoZiomToken.sol\":1458:1492  _isExcludedFromFee[account] = true */\n      or\n      swap1\n      sstore\n        /* \"UfoZiomToken.sol\":1387:1500  function excludeFromFee(address account) external onlyOwner {\r... */\n      jump\t// out\n        /* \"https://github.com/OpenZeppelin/openzeppelin-contracts/blob/v4.5.0/contracts/token/ERC20/ERC20.sol\":3408:3533  function balanceOf(address account) public view virtual override returns (uint256) {... */\n    tag_62:\n      sub(shl(0xa0, 0x01), 0x01)\n        /* \"https://github.com/OpenZeppelin/openzeppelin-contracts/blob/v4.5.0/contracts/token/ERC20/ERC20.sol\":3508:3526  _balances[account] */\n      dup2\n      and\n        /* \"https://github.com/OpenZeppelin/openzeppelin-contracts/blob/v4.5.0/contracts/token/ERC20/ERC20.sol\":3482:3489  uint256 */\n      0x00\n        /* \"https://github.com/OpenZeppelin/openzeppelin-contracts/blob/v4.5.0/contracts/token/ERC20/ERC20.sol\":3508:3526  _balances[account] */\n      swap1\n      dup2\n      mstore\n      0x20\n      dup2\n      swap1\n      mstore\n      0x40\n      swap1\n      keccak256\n      sload\n        /* \"https://github.com/OpenZeppelin/openzeppelin-contracts/blob/v4.5.0/contracts/token/ERC20/ERC20.sol\":3408:3533  function balanceOf(address account) public view virtual override returns (uint256) {... */\n    tag_140:\n      swap2\n      swap1\n      pop\n      jump\t// out\n        /* \"UfoZiomToken.sol\":533:613  address public constant burnAddress = 0x000000000000000000000000000000000000dEaD */\n    tag_65:\n        /* \"UfoZiomToken.sol\":571:613  0x000000000000000000000000000000000000dEaD */\n      0xdead\n        /* \"UfoZiomToken.sol\":533:613  address public constant burnAddress = 0x000000000000000000000000000000000000dEaD */\n      dup2\n      jump\t// out\n        /* \"https://github.com/OpenZeppelin/openzeppelin-contracts/blob/v4.5.0/contracts/access/Ownable.sol\":1668:1769  function renounceOwnership() public virtual onlyOwner {... */\n    tag_69:\n        /* \"https://github.com/OpenZeppelin/openzeppelin-contracts/blob/v4.5.0/contracts/access/Ownable.sol\":1259:1271  _msgSender() */\n      tag_142\n        /* \"https://github.com/OpenZeppelin/openzeppelin-contracts/blob/v4.5.0/contracts/access/Ownable.sol\":1259:1269  _msgSender */\n      tag_100\n        /* \"https://github.com/OpenZeppelin/openzeppelin-contracts/blob/v4.5.0/contracts/access/Ownable.sol\":1259:1271  _msgSender() */\n      jump\t// in\n    tag_142:\n      sub(shl(0xa0, 0x01), 0x01)\n        /* \"https://github.com/OpenZeppelin/openzeppelin-contracts/blob/v4.5.0/contracts/access/Ownable.sol\":1248:1271  owner() == _msgSender() */\n      and\n        /* \"https://github.com/OpenZeppelin/openzeppelin-contracts/blob/v4.5.0/contracts/access/Ownable.sol\":1248:1255  owner() */\n      tag_143\n        /* \"https://github.com/OpenZeppelin/openzeppelin-contracts/blob/v4.5.0/contracts/access/Ownable.sol\":1248:1253  owner */\n      tag_71\n        /* \"https://github.com/OpenZeppelin/openzeppelin-contracts/blob/v4.5.0/contracts/access/Ownable.sol\":1248:1255  owner() */\n      jump\t// in\n    tag_143:\n      sub(shl(0xa0, 0x01), 0x01)\n        /* \"https://github.com/OpenZeppelin/openzeppelin-contracts/blob/v4.5.0/contracts/access/Ownable.sol\":1248:1271  owner() == _msgSender() */\n      and\n      eq\n        /* \"https://github.com/OpenZeppelin/openzeppelin-contracts/blob/v4.5.0/contracts/access/Ownable.sol\":1240:1308  require(owner() == _msgSender(), \"Ownable: caller is not the owner\") */\n      tag_144\n      jumpi\n      mload(0x40)\n      shl(0xe5, 0x461bcd)\n      dup2\n      mstore\n      0x04\n      add\n      tag_103\n      swap1\n      tag_104\n      jump\t// in\n    tag_144:\n        /* \"https://github.com/OpenZeppelin/openzeppelin-contracts/blob/v4.5.0/contracts/access/Ownable.sol\":1732:1762  _transferOwnership(address(0)) */\n      tag_147\n        /* \"https://github.com/OpenZeppelin/openzeppelin-contracts/blob/v4.5.0/contracts/access/Ownable.sol\":1759:1760  0 */\n      0x00\n        /* \"https://github.com/OpenZeppelin/openzeppelin-contracts/blob/v4.5.0/contracts/access/Ownable.sol\":1732:1750  _transferOwnership */\n      tag_148\n        /* \"https://github.com/OpenZeppelin/openzeppelin-contracts/blob/v4.5.0/contracts/access/Ownable.sol\":1732:1762  _transferOwnership(address(0)) */\n      jump\t// in\n    tag_147:\n        /* \"https://github.com/OpenZeppelin/openzeppelin-contracts/blob/v4.5.0/contracts/access/Ownable.sol\":1668:1769  function renounceOwnership() public virtual onlyOwner {... */\n      jump\t// out\n        /* \"https://github.com/OpenZeppelin/openzeppelin-contracts/blob/v4.5.0/contracts/access/Ownable.sol\":1036:1121  function owner() public view virtual returns (address) {... */\n    tag_71:\n        /* \"https://github.com/OpenZeppelin/openzeppelin-contracts/blob/v4.5.0/contracts/access/Ownable.sol\":1108:1114  _owner */\n      and(sub(shl(0xa0, 0x01), 0x01), sload(0x05))\n        /* \"https://github.com/OpenZeppelin/openzeppelin-contracts/blob/v4.5.0/contracts/access/Ownable.sol\":1036:1121  function owner() public view virtual returns (address) {... */\n      swap1\n      jump\t// out\n        /* \"https://github.com/OpenZeppelin/openzeppelin-contracts/blob/v4.5.0/contracts/token/ERC20/ERC20.sol\":2367:2469  function symbol() public view virtual override returns (string memory) {... */\n    tag_74:\n        /* \"https://github.com/OpenZeppelin/openzeppelin-contracts/blob/v4.5.0/contracts/token/ERC20/ERC20.sol\":2423:2436  string memory */\n      0x60\n        /* \"https://github.com/OpenZeppelin/openzeppelin-contracts/blob/v4.5.0/contracts/token/ERC20/ERC20.sol\":2455:2462  _symbol */\n      0x04\n        /* \"https://github.com/OpenZeppelin/openzeppelin-contracts/blob/v4.5.0/contracts/token/ERC20/ERC20.sol\":2448:2462  return _symbol */\n      dup1\n      sload\n      tag_111\n      swap1\n      tag_112\n      jump\t// in\n        /* \"UfoZiomToken.sol\":679:704  uint256 public taxFee = 2 */\n    tag_77:\n      sload(0x06)\n      dup2\n      jump\t// out\n        /* \"https://github.com/OpenZeppelin/openzeppelin-contracts/blob/v4.5.0/contracts/token/ERC20/ERC20.sol\":6596:7025  function decreaseAllowance(address spender, uint256 subtractedValue) public virtual returns (bool) {... */\n    tag_81:\n        /* \"https://github.com/OpenZeppelin/openzeppelin-contracts/blob/v4.5.0/contracts/token/ERC20/ERC20.sol\":6689:6693  bool */\n      0x00\n        /* \"https://github.com/OpenZeppelin/openzeppelin-contracts/blob/v4.5.0/contracts/token/ERC20/ERC20.sol\":6705:6718  address owner */\n      dup1\n        /* \"https://github.com/OpenZeppelin/openzeppelin-contracts/blob/v4.5.0/contracts/token/ERC20/ERC20.sol\":6721:6733  _msgSender() */\n      tag_157\n        /* \"https://github.com/OpenZeppelin/openzeppelin-contracts/blob/v4.5.0/contracts/token/ERC20/ERC20.sol\":6721:6731  _msgSender */\n      tag_100\n        /* \"https://github.com/OpenZeppelin/openzeppelin-contracts/blob/v4.5.0/contracts/token/ERC20/ERC20.sol\":6721:6733  _msgSender() */\n      jump\t// in\n    tag_157:\n      sub(shl(0xa0, 0x01), 0x01)\n        /* \"https://github.com/OpenZeppelin/openzeppelin-contracts/blob/v4.5.0/contracts/token/ERC20/ERC20.sol\":6770:6788  _allowances[owner] */\n      dup1\n      dup3\n      and\n        /* \"https://github.com/OpenZeppelin/openzeppelin-contracts/blob/v4.5.0/contracts/token/ERC20/ERC20.sol\":6743:6767  uint256 currentAllowance */\n      0x00\n        /* \"https://github.com/OpenZeppelin/openzeppelin-contracts/blob/v4.5.0/contracts/token/ERC20/ERC20.sol\":6770:6788  _allowances[owner] */\n      swap1\n      dup2\n      mstore\n        /* \"https://github.com/OpenZeppelin/openzeppelin-contracts/blob/v4.5.0/contracts/token/ERC20/ERC20.sol\":6770:6781  _allowances */\n      0x01\n        /* \"https://github.com/OpenZeppelin/openzeppelin-contracts/blob/v4.5.0/contracts/token/ERC20/ERC20.sol\":6770:6788  _allowances[owner] */\n      0x20\n      swap1\n      dup2\n      mstore\n      0x40\n      dup1\n      dup4\n      keccak256\n        /* \"https://github.com/OpenZeppelin/openzeppelin-contracts/blob/v4.5.0/contracts/token/ERC20/ERC20.sol\":6770:6797  _allowances[owner][spender] */\n      swap4\n      dup10\n      and\n      dup4\n      mstore\n      swap3\n      swap1\n      mstore\n      keccak256\n      sload\n        /* \"https://github.com/OpenZeppelin/openzeppelin-contracts/blob/v4.5.0/contracts/token/ERC20/ERC20.sol\":6705:6733  address owner = _msgSender() */\n      swap1\n      swap2\n      pop\n        /* \"https://github.com/OpenZeppelin/openzeppelin-contracts/blob/v4.5.0/contracts/token/ERC20/ERC20.sol\":6815:6850  currentAllowance >= subtractedValue */\n      dup4\n      dup2\n      lt\n      iszero\n        /* \"https://github.com/OpenZeppelin/openzeppelin-contracts/blob/v4.5.0/contracts/token/ERC20/ERC20.sol\":6807:6892  require(currentAllowance >= subtractedValue, \"ERC20: decreased allowance below zero\") */\n      tag_158\n      jumpi\n      mload(0x40)\n      shl(0xe5, 0x461bcd)\n      dup2\n      mstore\n      0x04\n      add\n      tag_103\n      swap1\n      tag_160\n      jump\t// in\n    tag_158:\n        /* \"https://github.com/OpenZeppelin/openzeppelin-contracts/blob/v4.5.0/contracts/token/ERC20/ERC20.sol\":6926:6986  _approve(owner, spender, currentAllowance - subtractedValue) */\n      tag_126\n        /* \"https://github.com/OpenZeppelin/openzeppelin-contracts/blob/v4.5.0/contracts/token/ERC20/ERC20.sol\":6935:6940  owner */\n      dup3\n        /* \"https://github.com/OpenZeppelin/openzeppelin-contracts/blob/v4.5.0/contracts/token/ERC20/ERC20.sol\":6942:6949  spender */\n      dup7\n        /* \"https://github.com/OpenZeppelin/openzeppelin-contracts/blob/v4.5.0/contracts/token/ERC20/ERC20.sol\":6970:6985  subtractedValue */\n      dup7\n        /* \"https://github.com/OpenZeppelin/openzeppelin-contracts/blob/v4.5.0/contracts/token/ERC20/ERC20.sol\":6951:6967  currentAllowance */\n      dup5\n        /* \"https://github.com/OpenZeppelin/openzeppelin-contracts/blob/v4.5.0/contracts/token/ERC20/ERC20.sol\":6951:6985  currentAllowance - subtractedValue */\n      sub\n        /* \"https://github.com/OpenZeppelin/openzeppelin-contracts/blob/v4.5.0/contracts/token/ERC20/ERC20.sol\":6926:6934  _approve */\n      tag_120\n        /* \"https://github.com/OpenZeppelin/openzeppelin-contracts/blob/v4.5.0/contracts/token/ERC20/ERC20.sol\":6926:6986  _approve(owner, spender, currentAllowance - subtractedValue) */\n      jump\t// in\n        /* \"https://github.com/OpenZeppelin/openzeppelin-contracts/blob/v4.5.0/contracts/token/ERC20/ERC20.sol\":3729:3918  function transfer(address to, uint256 amount) public virtual override returns (bool) {... */\n    tag_85:\n        /* \"https://github.com/OpenZeppelin/openzeppelin-contracts/blob/v4.5.0/contracts/token/ERC20/ERC20.sol\":3808:3812  bool */\n      0x00\n        /* \"https://github.com/OpenZeppelin/openzeppelin-contracts/blob/v4.5.0/contracts/token/ERC20/ERC20.sol\":3824:3837  address owner */\n      dup1\n        /* \"https://github.com/OpenZeppelin/openzeppelin-contracts/blob/v4.5.0/contracts/token/ERC20/ERC20.sol\":3840:3852  _msgSender() */\n      tag_163\n        /* \"https://github.com/OpenZeppelin/openzeppelin-contracts/blob/v4.5.0/contracts/token/ERC20/ERC20.sol\":3840:3850  _msgSender */\n      tag_100\n        /* \"https://github.com/OpenZeppelin/openzeppelin-contracts/blob/v4.5.0/contracts/token/ERC20/ERC20.sol\":3840:3852  _msgSender() */\n      jump\t// in\n    tag_163:\n        /* \"https://github.com/OpenZeppelin/openzeppelin-contracts/blob/v4.5.0/contracts/token/ERC20/ERC20.sol\":3824:3852  address owner = _msgSender() */\n      swap1\n      pop\n        /* \"https://github.com/OpenZeppelin/openzeppelin-contracts/blob/v4.5.0/contracts/token/ERC20/ERC20.sol\":3862:3890  _transfer(owner, to, amount) */\n      tag_119\n        /* \"https://github.com/OpenZeppelin/openzeppelin-contracts/blob/v4.5.0/contracts/token/ERC20/ERC20.sol\":3872:3877  owner */\n      dup2\n        /* \"https://github.com/OpenZeppelin/openzeppelin-contracts/blob/v4.5.0/contracts/token/ERC20/ERC20.sol\":3879:3881  to */\n      dup6\n        /* \"https://github.com/OpenZeppelin/openzeppelin-contracts/blob/v4.5.0/contracts/token/ERC20/ERC20.sol\":3883:3889  amount */\n      dup6\n        /* \"https://github.com/OpenZeppelin/openzeppelin-contracts/blob/v4.5.0/contracts/token/ERC20/ERC20.sol\":3862:3871  _transfer */\n      tag_127\n        /* \"https://github.com/OpenZeppelin/openzeppelin-contracts/blob/v4.5.0/contracts/token/ERC20/ERC20.sol\":3862:3890  _transfer(owner, to, amount) */\n      jump\t// in\n        /* \"https://github.com/OpenZeppelin/openzeppelin-contracts/blob/v4.5.0/contracts/token/ERC20/ERC20.sol\":3976:4125  function allowance(address owner, address spender) public view virtual override returns (uint256) {... */\n    tag_90:\n      sub(shl(0xa0, 0x01), 0x01)\n        /* \"https://github.com/OpenZeppelin/openzeppelin-contracts/blob/v4.5.0/contracts/token/ERC20/ERC20.sol\":4091:4109  _allowances[owner] */\n      swap2\n      dup3\n      and\n        /* \"https://github.com/OpenZeppelin/openzeppelin-contracts/blob/v4.5.0/contracts/token/ERC20/ERC20.sol\":4065:4072  uint256 */\n      0x00\n        /* \"https://github.com/OpenZeppelin/openzeppelin-contracts/blob/v4.5.0/contracts/token/ERC20/ERC20.sol\":4091:4109  _allowances[owner] */\n      swap1\n      dup2\n      mstore\n        /* \"https://github.com/OpenZeppelin/openzeppelin-contracts/blob/v4.5.0/contracts/token/ERC20/ERC20.sol\":4091:4102  _allowances */\n      0x01\n        /* \"https://github.com/OpenZeppelin/openzeppelin-contracts/blob/v4.5.0/contracts/token/ERC20/ERC20.sol\":4091:4109  _allowances[owner] */\n      0x20\n      swap1\n      dup2\n      mstore\n      0x40\n      dup1\n      dup4\n      keccak256\n        /* \"https://github.com/OpenZeppelin/openzeppelin-contracts/blob/v4.5.0/contracts/token/ERC20/ERC20.sol\":4091:4118  _allowances[owner][spender] */\n      swap4\n      swap1\n      swap5\n      and\n      dup3\n      mstore\n      swap2\n      swap1\n      swap2\n      mstore\n      keccak256\n      sload\n      swap1\n        /* \"https://github.com/OpenZeppelin/openzeppelin-contracts/blob/v4.5.0/contracts/token/ERC20/ERC20.sol\":3976:4125  function allowance(address owner, address spender) public view virtual override returns (uint256) {... */\n      jump\t// out\n        /* \"UfoZiomToken.sol\":1667:1779  function includeInFee(address account) external onlyOwner {\r... */\n    tag_94:\n        /* \"https://github.com/OpenZeppelin/openzeppelin-contracts/blob/v4.5.0/contracts/access/Ownable.sol\":1259:1271  _msgSender() */\n      tag_167\n        /* \"https://github.com/OpenZeppelin/openzeppelin-contracts/blob/v4.5.0/contracts/access/Ownable.sol\":1259:1269  _msgSender */\n      tag_100\n        /* \"https://github.com/OpenZeppelin/openzeppelin-contracts/blob/v4.5.0/contracts/access/Ownable.sol\":1259:1271  _msgSender() */\n      jump\t// in\n    tag_167:\n      sub(shl(0xa0, 0x01), 0x01)\n        /* \"https://github.com/OpenZeppelin/openzeppelin-contracts/blob/v4.5.0/contracts/access/Ownable.sol\":1248:1271  owner() == _msgSender() */\n      and\n        /* \"https://github.com/OpenZeppelin/openzeppelin-contracts/blob/v4.5.0/contracts/access/Ownable.sol\":1248:1255  owner() */\n      tag_168\n        /* \"https://github.com/OpenZeppelin/openzeppelin-contracts/blob/v4.5.0/contracts/access/Ownable.sol\":1248:1253  owner */\n      tag_71\n        /* \"https://github.com/OpenZeppelin/openzeppelin-contracts/blob/v4.5.0/contracts/access/Ownable.sol\":1248:1255  owner() */\n      jump\t// in\n    tag_168:\n      sub(shl(0xa0, 0x01), 0x01)\n        /* \"https://github.com/OpenZeppelin/openzeppelin-contracts/blob/v4.5.0/contracts/access/Ownable.sol\":1248:1271  owner() == _msgSender() */\n      and\n      eq\n        /* \"https://github.com/OpenZeppelin/openzeppelin-contracts/blob/v4.5.0/contracts/access/Ownable.sol\":1240:1308  require(owner() == _msgSender(), \"Ownable: caller is not the owner\") */\n      tag_169\n      jumpi\n      mload(0x40)\n      shl(0xe5, 0x461bcd)\n      dup2\n      mstore\n      0x04\n      add\n      tag_103\n      swap1\n      tag_104\n      jump\t// in\n    tag_169:\n      sub(shl(0xa0, 0x01), 0x01)\n        /* \"UfoZiomToken.sol\":1736:1763  _isExcludedFromFee[account] */\n      and\n        /* \"UfoZiomToken.sol\":1766:1771  false */\n      0x00\n        /* \"UfoZiomToken.sol\":1736:1763  _isExcludedFromFee[account] */\n      swap1\n      dup2\n      mstore\n        /* \"UfoZiomToken.sol\":1736:1754  _isExcludedFromFee */\n      0x07\n        /* \"UfoZiomToken.sol\":1736:1763  _isExcludedFromFee[account] */\n      0x20\n      mstore\n      0x40\n      swap1\n      keccak256\n        /* \"UfoZiomToken.sol\":1736:1771  _isExcludedFromFee[account] = false */\n      dup1\n      sload\n      not(0xff)\n      and\n      swap1\n      sstore\n        /* \"UfoZiomToken.sol\":1667:1779  function includeInFee(address account) external onlyOwner {\r... */\n      jump\t// out\n        /* \"https://github.com/OpenZeppelin/openzeppelin-contracts/blob/v4.5.0/contracts/access/Ownable.sol\":1918:2116  function transferOwnership(address newOwner) public virtual onlyOwner {... */\n    tag_97:\n        /* \"https://github.com/OpenZeppelin/openzeppelin-contracts/blob/v4.5.0/contracts/access/Ownable.sol\":1259:1271  _msgSender() */\n      tag_173\n        /* \"https://github.com/OpenZeppelin/openzeppelin-contracts/blob/v4.5.0/contracts/access/Ownable.sol\":1259:1269  _msgSender */\n      tag_100\n        /* \"https://github.com/OpenZeppelin/openzeppelin-contracts/blob/v4.5.0/contracts/access/Ownable.sol\":1259:1271  _msgSender() */\n      jump\t// in\n    tag_173:\n      sub(shl(0xa0, 0x01), 0x01)\n        /* \"https://github.com/OpenZeppelin/openzeppelin-contracts/blob/v4.5.0/contracts/access/Ownable.sol\":1248:1271  owner() == _msgSender() */\n      and\n        /* \"https://github.com/OpenZeppelin/openzeppelin-contracts/blob/v4.5.0/contracts/access/Ownable.sol\":1248:1255  owner() */\n      tag_174\n        /* \"https://github.com/OpenZeppelin/openzeppelin-contracts/blob/v4.5.0/contracts/access/Ownable.sol\":1248:1253  owner */\n      tag_71\n        /* \"https://github.com/OpenZeppelin/openzeppelin-contracts/blob/v4.5.0/contracts/access/Ownable.sol\":1248:1255  owner() */\n      jump\t// in\n    tag_174:\n      sub(shl(0xa0, 0x01), 0x01)\n        /* \"https://github.com/OpenZeppelin/openzeppelin-contracts/blob/v4.5.0/contracts/access/Ownable.sol\":1248:1271  owner() == _msgSender() */\n      and\n      eq\n        /* \"https://github.com/OpenZeppelin/openzeppelin-contracts/blob/v4.5.0/contracts/access/Ownable.sol\":1240:1308  require(owner() == _msgSender(), \"Ownable: caller is not the owner\") */\n      tag_175\n      jumpi\n      mload(0x40)\n      shl(0xe5, 0x461bcd)\n      dup2\n      mstore\n      0x04\n      add\n      tag_103\n      swap1\n      tag_104\n      jump\t// in\n    tag_175:\n      sub(shl(0xa0, 0x01), 0x01)\n        /* \"https://github.com/OpenZeppelin/openzeppelin-contracts/blob/v4.5.0/contracts/access/Ownable.sol\":2006:2028  newOwner != address(0) */\n      dup2\n      and\n        /* \"https://github.com/OpenZeppelin/openzeppelin-contracts/blob/v4.5.0/contracts/access/Ownable.sol\":1998:2071  require(newOwner != address(0), \"Ownable: new owner is the zero address\") */\n      tag_178\n      jumpi\n      mload(0x40)\n      shl(0xe5, 0x461bcd)\n      dup2\n      mstore\n      0x04\n      add\n      tag_103\n      swap1\n      tag_180\n      jump\t// in\n    tag_178:\n        /* \"https://github.com/OpenZeppelin/openzeppelin-contracts/blob/v4.5.0/contracts/access/Ownable.sol\":2081:2109  _transferOwnership(newOwner) */\n      tag_181\n        /* \"https://github.com/OpenZeppelin/openzeppelin-contracts/blob/v4.5.0/contracts/access/Ownable.sol\":2100:2108  newOwner */\n      dup2\n        /* \"https://github.com/OpenZeppelin/openzeppelin-contracts/blob/v4.5.0/contracts/access/Ownable.sol\":2081:2099  _transferOwnership */\n      tag_148\n        /* \"https://github.com/OpenZeppelin/openzeppelin-contracts/blob/v4.5.0/contracts/access/Ownable.sol\":2081:2109  _transferOwnership(newOwner) */\n      jump\t// in\n    tag_181:\n        /* \"https://github.com/OpenZeppelin/openzeppelin-contracts/blob/v4.5.0/contracts/access/Ownable.sol\":1918:2116  function transferOwnership(address newOwner) public virtual onlyOwner {... */\n      pop\n      jump\t// out\n        /* \"https://github.com/OpenZeppelin/openzeppelin-contracts/blob/v4.5.0/contracts/utils/Context.sol\":640:736  function _msgSender() internal view virtual returns (address) {... */\n    tag_100:\n        /* \"https://github.com/OpenZeppelin/openzeppelin-contracts/blob/v4.5.0/contracts/utils/Context.sol\":719:729  msg.sender */\n      caller\n        /* \"https://github.com/OpenZeppelin/openzeppelin-contracts/blob/v4.5.0/contracts/utils/Context.sol\":640:736  function _msgSender() internal view virtual returns (address) {... */\n      swap1\n      jump\t// out\n        /* \"https://github.com/OpenZeppelin/openzeppelin-contracts/blob/v4.5.0/contracts/token/ERC20/ERC20.sol\":10123:10493  function _approve(... */\n    tag_120:\n      sub(shl(0xa0, 0x01), 0x01)\n        /* \"https://github.com/OpenZeppelin/openzeppelin-contracts/blob/v4.5.0/contracts/token/ERC20/ERC20.sol\":10254:10273  owner != address(0) */\n      dup4\n      and\n        /* \"https://github.com/OpenZeppelin/openzeppelin-contracts/blob/v4.5.0/contracts/token/ERC20/ERC20.sol\":10246:10314  require(owner != address(0), \"ERC20: approve from the zero address\") */\n      tag_184\n      jumpi\n      mload(0x40)\n      shl(0xe5, 0x461bcd)\n      dup2\n      mstore\n      0x04\n      add\n      tag_103\n      swap1\n      tag_186\n      jump\t// in\n    tag_184:\n      sub(shl(0xa0, 0x01), 0x01)\n        /* \"https://github.com/OpenZeppelin/openzeppelin-contracts/blob/v4.5.0/contracts/token/ERC20/ERC20.sol\":10332:10353  spender != address(0) */\n      dup3\n      and\n        /* \"https://github.com/OpenZeppelin/openzeppelin-contracts/blob/v4.5.0/contracts/token/ERC20/ERC20.sol\":10324:10392  require(spender != address(0), \"ERC20: approve to the zero address\") */\n      tag_187\n      jumpi\n      mload(0x40)\n      shl(0xe5, 0x461bcd)\n      dup2\n      mstore\n      0x04\n      add\n      tag_103\n      swap1\n      tag_189\n      jump\t// in\n    tag_187:\n      sub(shl(0xa0, 0x01), 0x01)\n        /* \"https://github.com/OpenZeppelin/openzeppelin-contracts/blob/v4.5.0/contracts/token/ERC20/ERC20.sol\":10403:10421  _allowances[owner] */\n      dup1\n      dup5\n      and\n      0x00\n      dup2\n      dup2\n      mstore\n        /* \"https://github.com/OpenZeppelin/openzeppelin-contracts/blob/v4.5.0/contracts/token/ERC20/ERC20.sol\":10403:10414  _allowances */\n      0x01\n        /* \"https://github.com/OpenZeppelin/openzeppelin-contracts/blob/v4.5.0/contracts/token/ERC20/ERC20.sol\":10403:10421  _allowances[owner] */\n      0x20\n      swap1\n      dup2\n      mstore\n      0x40\n      dup1\n      dup4\n      keccak256\n        /* \"https://github.com/OpenZeppelin/openzeppelin-contracts/blob/v4.5.0/contracts/token/ERC20/ERC20.sol\":10403:10430  _allowances[owner][spender] */\n      swap5\n      dup8\n      and\n      dup1\n      dup5\n      mstore\n      swap5\n      swap1\n      swap2\n      mstore\n      swap1\n      dup2\n      swap1\n      keccak256\n        /* \"https://github.com/OpenZeppelin/openzeppelin-contracts/blob/v4.5.0/contracts/token/ERC20/ERC20.sol\":10403:10439  _allowances[owner][spender] = amount */\n      dup5\n      swap1\n      sstore\n        /* \"https://github.com/OpenZeppelin/openzeppelin-contracts/blob/v4.5.0/contracts/token/ERC20/ERC20.sol\":10454:10486  Approval(owner, spender, amount) */\n      mload\n      0x8c5be1e5ebec7d5bd14f71427d1e84f3dd0314c0f7b2291e5b200ac8c7c3b925\n      swap1\n      tag_190\n      swap1\n        /* \"https://github.com/OpenZeppelin/openzeppelin-contracts/blob/v4.5.0/contracts/token/ERC20/ERC20.sol\":10433:10439  amount */\n      dup6\n      swap1\n        /* \"https://github.com/OpenZeppelin/openzeppelin-contracts/blob/v4.5.0/contracts/token/ERC20/ERC20.sol\":10454:10486  Approval(owner, spender, amount) */\n      tag_42\n      jump\t// in\n    tag_190:\n      mload(0x40)\n      dup1\n      swap2\n      sub\n      swap1\n      log3\n        /* \"https://github.com/OpenZeppelin/openzeppelin-contracts/blob/v4.5.0/contracts/token/ERC20/ERC20.sol\":10123:10493  function _approve(... */\n      pop\n      pop\n      pop\n      jump\t// out\n        /* \"https://github.com/OpenZeppelin/openzeppelin-contracts/blob/v4.5.0/contracts/token/ERC20/ERC20.sol\":10770:11211  function _spendAllowance(... */\n    tag_125:\n        /* \"https://github.com/OpenZeppelin/openzeppelin-contracts/blob/v4.5.0/contracts/token/ERC20/ERC20.sol\":10900:10924  uint256 currentAllowance */\n      0x00\n        /* \"https://github.com/OpenZeppelin/openzeppelin-contracts/blob/v4.5.0/contracts/token/ERC20/ERC20.sol\":10927:10952  allowance(owner, spender) */\n      tag_192\n        /* \"https://github.com/OpenZeppelin/openzeppelin-contracts/blob/v4.5.0/contracts/token/ERC20/ERC20.sol\":10937:10942  owner */\n      dup5\n        /* \"https://github.com/OpenZeppelin/openzeppelin-contracts/blob/v4.5.0/contracts/token/ERC20/ERC20.sol\":10944:10951  spender */\n      dup5\n        /* \"https://github.com/OpenZeppelin/openzeppelin-contracts/blob/v4.5.0/contracts/token/ERC20/ERC20.sol\":10927:10936  allowance */\n      tag_90\n        /* \"https://github.com/OpenZeppelin/openzeppelin-contracts/blob/v4.5.0/contracts/token/ERC20/ERC20.sol\":10927:10952  allowance(owner, spender) */\n      jump\t// in\n    tag_192:\n        /* \"https://github.com/OpenZeppelin/openzeppelin-contracts/blob/v4.5.0/contracts/token/ERC20/ERC20.sol\":10900:10952  uint256 currentAllowance = allowance(owner, spender) */\n      swap1\n      pop\n      not(0x00)\n        /* \"https://github.com/OpenZeppelin/openzeppelin-contracts/blob/v4.5.0/contracts/token/ERC20/ERC20.sol\":10966:10982  currentAllowance */\n      dup2\n        /* \"https://github.com/OpenZeppelin/openzeppelin-contracts/blob/v4.5.0/contracts/token/ERC20/ERC20.sol\":10966:11003  currentAllowance != type(uint256).max */\n      eq\n        /* \"https://github.com/OpenZeppelin/openzeppelin-contracts/blob/v4.5.0/contracts/token/ERC20/ERC20.sol\":10962:11205  if (currentAllowance != type(uint256).max) {... */\n      tag_197\n      jumpi\n        /* \"https://github.com/OpenZeppelin/openzeppelin-contracts/blob/v4.5.0/contracts/token/ERC20/ERC20.sol\":11047:11053  amount */\n      dup2\n        /* \"https://github.com/OpenZeppelin/openzeppelin-contracts/blob/v4.5.0/contracts/token/ERC20/ERC20.sol\":11027:11043  currentAllowance */\n      dup2\n        /* \"https://github.com/OpenZeppelin/openzeppelin-contracts/blob/v4.5.0/contracts/token/ERC20/ERC20.sol\":11027:11053  currentAllowance >= amount */\n      lt\n      iszero\n        /* \"https://github.com/OpenZeppelin/openzeppelin-contracts/blob/v4.5.0/contracts/token/ERC20/ERC20.sol\":11019:11087  require(currentAllowance >= amount, \"ERC20: insufficient allowance\") */\n      tag_194\n      jumpi\n      mload(0x40)\n      shl(0xe5, 0x461bcd)\n      dup2\n      mstore\n      0x04\n      add\n      tag_103\n      swap1\n      tag_196\n      jump\t// in\n    tag_194:\n        /* \"https://github.com/OpenZeppelin/openzeppelin-contracts/blob/v4.5.0/contracts/token/ERC20/ERC20.sol\":11129:11180  _approve(owner, spender, currentAllowance - amount) */\n      tag_197\n        /* \"https://github.com/OpenZeppelin/openzeppelin-contracts/blob/v4.5.0/contracts/token/ERC20/ERC20.sol\":11138:11143  owner */\n      dup5\n        /* \"https://github.com/OpenZeppelin/openzeppelin-contracts/blob/v4.5.0/contracts/token/ERC20/ERC20.sol\":11145:11152  spender */\n      dup5\n        /* \"https://github.com/OpenZeppelin/openzeppelin-contracts/blob/v4.5.0/contracts/token/ERC20/ERC20.sol\":11173:11179  amount */\n      dup5\n        /* \"https://github.com/OpenZeppelin/openzeppelin-contracts/blob/v4.5.0/contracts/token/ERC20/ERC20.sol\":11154:11170  currentAllowance */\n      dup5\n        /* \"https://github.com/OpenZeppelin/openzeppelin-contracts/blob/v4.5.0/contracts/token/ERC20/ERC20.sol\":11154:11179  currentAllowance - amount */\n      sub\n        /* \"https://github.com/OpenZeppelin/openzeppelin-contracts/blob/v4.5.0/contracts/token/ERC20/ERC20.sol\":11129:11137  _approve */\n      tag_120\n        /* \"https://github.com/OpenZeppelin/openzeppelin-contracts/blob/v4.5.0/contracts/token/ERC20/ERC20.sol\":11129:11180  _approve(owner, spender, currentAllowance - amount) */\n      jump\t// in\n    tag_197:\n        /* \"https://github.com/OpenZeppelin/openzeppelin-contracts/blob/v4.5.0/contracts/token/ERC20/ERC20.sol\":10770:11211  function _spendAllowance(... */\n      pop\n      pop\n      pop\n      pop\n      jump\t// out\n        /* \"UfoZiomToken.sol\":2390:3129  function _transfer(address sender, address recipient, uint256 amount) internal override {\r... */\n    tag_127:\n      sub(shl(0xa0, 0x01), 0x01)\n        /* \"UfoZiomToken.sol\":2493:2519  _isExcludedFromFee[sender] */\n      dup4\n      and\n      0x00\n      swap1\n      dup2\n      mstore\n        /* \"UfoZiomToken.sol\":2493:2511  _isExcludedFromFee */\n      0x07\n        /* \"UfoZiomToken.sol\":2493:2519  _isExcludedFromFee[sender] */\n      0x20\n      mstore\n      0x40\n      swap1\n      keccak256\n      sload\n      0xff\n      and\n      dup1\n        /* \"UfoZiomToken.sol\":2493:2552  _isExcludedFromFee[sender] || _isExcludedFromFee[recipient] */\n      tag_199\n      jumpi\n      pop\n      sub(shl(0xa0, 0x01), 0x01)\n        /* \"UfoZiomToken.sol\":2523:2552  _isExcludedFromFee[recipient] */\n      dup3\n      and\n      0x00\n      swap1\n      dup2\n      mstore\n        /* \"UfoZiomToken.sol\":2523:2541  _isExcludedFromFee */\n      0x07\n        /* \"UfoZiomToken.sol\":2523:2552  _isExcludedFromFee[recipient] */\n      0x20\n      mstore\n      0x40\n      swap1\n      keccak256\n      sload\n      0xff\n      and\n        /* \"UfoZiomToken.sol\":2493:2552  _isExcludedFromFee[sender] || _isExcludedFromFee[recipient] */\n    tag_199:\n        /* \"UfoZiomToken.sol\":2489:3122  if (_isExcludedFromFee[sender] || _isExcludedFromFee[recipient]) {\r... */\n      iszero\n      tag_200\n      jumpi\n        /* \"UfoZiomToken.sol\":2665:2707  super._transfer(sender, recipient, amount) */\n      tag_201\n        /* \"UfoZiomToken.sol\":2681:2687  sender */\n      dup4\n        /* \"UfoZiomToken.sol\":2689:2698  recipient */\n      dup4\n        /* \"UfoZiomToken.sol\":2700:2706  amount */\n      dup4\n        /* \"UfoZiomToken.sol\":2665:2680  super._transfer */\n      tag_202\n        /* \"UfoZiomToken.sol\":2665:2707  super._transfer(sender, recipient, amount) */\n      jump\t// in\n    tag_201:\n        /* \"UfoZiomToken.sol\":2489:3122  if (_isExcludedFromFee[sender] || _isExcludedFromFee[recipient]) {\r... */\n      jump(tag_203)\n    tag_200:\n        /* \"UfoZiomToken.sol\":2781:2798  uint256 feeAmount */\n      0x00\n        /* \"UfoZiomToken.sol\":2819:2822  100 */\n      0x64\n        /* \"UfoZiomToken.sol\":2810:2816  taxFee */\n      sload(0x06)\n        /* \"UfoZiomToken.sol\":2801:2807  amount */\n      dup4\n        /* \"UfoZiomToken.sol\":2801:2816  amount * taxFee */\n      tag_204\n      swap2\n      swap1\n      tag_205\n      jump\t// in\n    tag_204:\n        /* \"UfoZiomToken.sol\":2801:2822  amount * taxFee / 100 */\n      tag_206\n      swap2\n      swap1\n      tag_207\n      jump\t// in\n    tag_206:\n        /* \"UfoZiomToken.sol\":2781:2822  uint256 feeAmount = amount * taxFee / 100 */\n      swap1\n      pop\n        /* \"UfoZiomToken.sol\":2837:2859  uint256 amountAfterFee */\n      0x00\n        /* \"UfoZiomToken.sol\":2862:2880  amount - feeAmount */\n      tag_208\n        /* \"UfoZiomToken.sol\":2781:2822  uint256 feeAmount = amount * taxFee / 100 */\n      dup3\n        /* \"UfoZiomToken.sol\":2862:2868  amount */\n      dup5\n        /* \"UfoZiomToken.sol\":2862:2880  amount - feeAmount */\n      tag_209\n      jump\t// in\n    tag_208:\n        /* \"UfoZiomToken.sol\":2837:2880  uint256 amountAfterFee = amount - feeAmount */\n      swap1\n      pop\n        /* \"UfoZiomToken.sol\":2933:2980  super._transfer(sender, burnAddress, feeAmount) */\n      tag_210\n        /* \"UfoZiomToken.sol\":2949:2955  sender */\n      dup6\n        /* \"UfoZiomToken.sol\":571:613  0x000000000000000000000000000000000000dEaD */\n      0xdead\n        /* \"UfoZiomToken.sol\":2970:2979  feeAmount */\n      dup5\n        /* \"UfoZiomToken.sol\":2933:2948  super._transfer */\n      tag_202\n        /* \"UfoZiomToken.sol\":2933:2980  super._transfer(sender, burnAddress, feeAmount) */\n      jump\t// in\n    tag_210:\n        /* \"UfoZiomToken.sol\":3060:3110  super._transfer(sender, recipient, amountAfterFee) */\n      tag_211\n        /* \"UfoZiomToken.sol\":3076:3082  sender */\n      dup6\n        /* \"UfoZiomToken.sol\":3084:3093  recipient */\n      dup6\n        /* \"UfoZiomToken.sol\":3095:3109  amountAfterFee */\n      dup4\n        /* \"UfoZiomToken.sol\":3060:3075  super._transfer */\n      tag_202\n        /* \"UfoZiomToken.sol\":3060:3110  super._transfer(sender, recipient, amountAfterFee) */\n      jump\t// in\n    tag_211:\n        /* \"UfoZiomToken.sol\":2489:3122  if (_isExcludedFromFee[sender] || _isExcludedFromFee[recipient]) {\r... */\n      pop\n      pop\n    tag_203:\n        /* \"UfoZiomToken.sol\":2390:3129  function _transfer(address sender, address recipient, uint256 amount) internal override {\r... */\n      pop\n      pop\n      pop\n      jump\t// out\n        /* \"https://github.com/OpenZeppelin/openzeppelin-contracts/blob/v4.5.0/contracts/access/Ownable.sol\":2270:2457  function _transferOwnership(address newOwner) internal virtual {... */\n    tag_148:\n        /* \"https://github.com/OpenZeppelin/openzeppelin-contracts/blob/v4.5.0/contracts/access/Ownable.sol\":2362:2368  _owner */\n      0x05\n      dup1\n      sload\n      sub(shl(0xa0, 0x01), 0x01)\n        /* \"https://github.com/OpenZeppelin/openzeppelin-contracts/blob/v4.5.0/contracts/access/Ownable.sol\":2378:2395  _owner = newOwner */\n      dup4\n      dup2\n      and\n      not(sub(shl(0xa0, 0x01), 0x01))\n      dup4\n      and\n      dup2\n      or\n      swap1\n      swap4\n      sstore\n        /* \"https://github.com/OpenZeppelin/openzeppelin-contracts/blob/v4.5.0/contracts/access/Ownable.sol\":2410:2450  OwnershipTransferred(oldOwner, newOwner) */\n      mload(0x40)\n        /* \"https://github.com/OpenZeppelin/openzeppelin-contracts/blob/v4.5.0/contracts/access/Ownable.sol\":2362:2368  _owner */\n      swap2\n      and\n      swap2\n        /* \"https://github.com/OpenZeppelin/openzeppelin-contracts/blob/v4.5.0/contracts/access/Ownable.sol\":2378:2395  _owner = newOwner */\n      swap1\n        /* \"https://github.com/OpenZeppelin/openzeppelin-contracts/blob/v4.5.0/contracts/access/Ownable.sol\":2362:2368  _owner */\n      dup3\n      swap1\n        /* \"https://github.com/OpenZeppelin/openzeppelin-contracts/blob/v4.5.0/contracts/access/Ownable.sol\":2410:2450  OwnershipTransferred(oldOwner, newOwner) */\n      0x8be0079c531659141344cd1fd0a4f28419497f9722a3daafe3b4186f6b6457e0\n      swap1\n        /* \"https://github.com/OpenZeppelin/openzeppelin-contracts/blob/v4.5.0/contracts/access/Ownable.sol\":2343:2359  address oldOwner */\n      0x00\n      swap1\n        /* \"https://github.com/OpenZeppelin/openzeppelin-contracts/blob/v4.5.0/contracts/access/Ownable.sol\":2410:2450  OwnershipTransferred(oldOwner, newOwner) */\n      log3\n        /* \"https://github.com/OpenZeppelin/openzeppelin-contracts/blob/v4.5.0/contracts/access/Ownable.sol\":2270:2457  function _transferOwnership(address newOwner) internal virtual {... */\n      pop\n      pop\n      jump\t// out\n        /* \"https://github.com/OpenZeppelin/openzeppelin-contracts/blob/v4.5.0/contracts/token/ERC20/ERC20.sol\":7488:8139  function _transfer(... */\n    tag_202:\n      sub(shl(0xa0, 0x01), 0x01)\n        /* \"https://github.com/OpenZeppelin/openzeppelin-contracts/blob/v4.5.0/contracts/token/ERC20/ERC20.sol\":7614:7632  from != address(0) */\n      dup4\n      and\n        /* \"https://github.com/OpenZeppelin/openzeppelin-contracts/blob/v4.5.0/contracts/token/ERC20/ERC20.sol\":7606:7674  require(from != address(0), \"ERC20: transfer from the zero address\") */\n      tag_214\n      jumpi\n      mload(0x40)\n      shl(0xe5, 0x461bcd)\n      dup2\n      mstore\n      0x04\n      add\n      tag_103\n      swap1\n      tag_216\n      jump\t// in\n    tag_214:\n      sub(shl(0xa0, 0x01), 0x01)\n        /* \"https://github.com/OpenZeppelin/openzeppelin-contracts/blob/v4.5.0/contracts/token/ERC20/ERC20.sol\":7692:7708  to != address(0) */\n      dup3\n      and\n        /* \"https://github.com/OpenZeppelin/openzeppelin-contracts/blob/v4.5.0/contracts/token/ERC20/ERC20.sol\":7684:7748  require(to != address(0), \"ERC20: transfer to the zero address\") */\n      tag_217\n      jumpi\n      mload(0x40)\n      shl(0xe5, 0x461bcd)\n      dup2\n      mstore\n      0x04\n      add\n      tag_103\n      swap1\n      tag_219\n      jump\t// in\n    tag_217:\n        /* \"https://github.com/OpenZeppelin/openzeppelin-contracts/blob/v4.5.0/contracts/token/ERC20/ERC20.sol\":7759:7797  _beforeTokenTransfer(from, to, amount) */\n      tag_220\n        /* \"https://github.com/OpenZeppelin/openzeppelin-contracts/blob/v4.5.0/contracts/token/ERC20/ERC20.sol\":7780:7784  from */\n      dup4\n        /* \"https://github.com/OpenZeppelin/openzeppelin-contracts/blob/v4.5.0/contracts/token/ERC20/ERC20.sol\":7786:7788  to */\n      dup4\n        /* \"https://github.com/OpenZeppelin/openzeppelin-contracts/blob/v4.5.0/contracts/token/ERC20/ERC20.sol\":7790:7796  amount */\n      dup4\n        /* \"https://github.com/OpenZeppelin/openzeppelin-contracts/blob/v4.5.0/contracts/token/ERC20/ERC20.sol\":7759:7779  _beforeTokenTransfer */\n      tag_203\n        /* \"https://github.com/OpenZeppelin/openzeppelin-contracts/blob/v4.5.0/contracts/token/ERC20/ERC20.sol\":7759:7797  _beforeTokenTransfer(from, to, amount) */\n      jump\t// in\n    tag_220:\n      sub(shl(0xa0, 0x01), 0x01)\n        /* \"https://github.com/OpenZeppelin/openzeppelin-contracts/blob/v4.5.0/contracts/token/ERC20/ERC20.sol\":7830:7845  _balances[from] */\n      dup4\n      and\n        /* \"https://github.com/OpenZeppelin/openzeppelin-contracts/blob/v4.5.0/contracts/token/ERC20/ERC20.sol\":7808:7827  uint256 fromBalance */\n      0x00\n        /* \"https://github.com/OpenZeppelin/openzeppelin-contracts/blob/v4.5.0/contracts/token/ERC20/ERC20.sol\":7830:7845  _balances[from] */\n      swap1\n      dup2\n      mstore\n      0x20\n      dup2\n      swap1\n      mstore\n      0x40\n      swap1\n      keccak256\n      sload\n        /* \"https://github.com/OpenZeppelin/openzeppelin-contracts/blob/v4.5.0/contracts/token/ERC20/ERC20.sol\":7863:7884  fromBalance >= amount */\n      dup2\n      dup2\n      lt\n      iszero\n        /* \"https://github.com/OpenZeppelin/openzeppelin-contracts/blob/v4.5.0/contracts/token/ERC20/ERC20.sol\":7855:7927  require(fromBalance >= amount, \"ERC20: transfer amount exceeds balance\") */\n      tag_222\n      jumpi\n      mload(0x40)\n      shl(0xe5, 0x461bcd)\n      dup2\n      mstore\n      0x04\n      add\n      tag_103\n      swap1\n      tag_224\n      jump\t// in\n    tag_222:\n      sub(shl(0xa0, 0x01), 0x01)\n        /* \"https://github.com/OpenZeppelin/openzeppelin-contracts/blob/v4.5.0/contracts/token/ERC20/ERC20.sol\":7961:7976  _balances[from] */\n      dup1\n      dup6\n      and\n        /* \"https://github.com/OpenZeppelin/openzeppelin-contracts/blob/v4.5.0/contracts/token/ERC20/ERC20.sol\":7961:7970  _balances */\n      0x00\n        /* \"https://github.com/OpenZeppelin/openzeppelin-contracts/blob/v4.5.0/contracts/token/ERC20/ERC20.sol\":7961:7976  _balances[from] */\n      swap1\n      dup2\n      mstore\n      0x20\n      dup2\n      swap1\n      mstore\n      0x40\n      dup1\n      dup3\n      keccak256\n        /* \"https://github.com/OpenZeppelin/openzeppelin-contracts/blob/v4.5.0/contracts/token/ERC20/ERC20.sol\":7979:7999  fromBalance - amount */\n      dup6\n      dup6\n      sub\n        /* \"https://github.com/OpenZeppelin/openzeppelin-contracts/blob/v4.5.0/contracts/token/ERC20/ERC20.sol\":7961:7999  _balances[from] = fromBalance - amount */\n      swap1\n      sstore\n        /* \"https://github.com/OpenZeppelin/openzeppelin-contracts/blob/v4.5.0/contracts/token/ERC20/ERC20.sol\":8019:8032  _balances[to] */\n      swap2\n      dup6\n      and\n      dup2\n      mstore\n      swap1\n      dup2\n      keccak256\n        /* \"https://github.com/OpenZeppelin/openzeppelin-contracts/blob/v4.5.0/contracts/token/ERC20/ERC20.sol\":8019:8042  _balances[to] += amount */\n      dup1\n      sload\n        /* \"https://github.com/OpenZeppelin/openzeppelin-contracts/blob/v4.5.0/contracts/token/ERC20/ERC20.sol\":7993:7999  amount */\n      dup5\n      swap3\n        /* \"https://github.com/OpenZeppelin/openzeppelin-contracts/blob/v4.5.0/contracts/token/ERC20/ERC20.sol\":7961:7970  _balances */\n      swap1\n        /* \"https://github.com/OpenZeppelin/openzeppelin-contracts/blob/v4.5.0/contracts/token/ERC20/ERC20.sol\":8019:8042  _balances[to] += amount */\n      tag_225\n      swap1\n        /* \"https://github.com/OpenZeppelin/openzeppelin-contracts/blob/v4.5.0/contracts/token/ERC20/ERC20.sol\":7993:7999  amount */\n      dup5\n      swap1\n        /* \"https://github.com/OpenZeppelin/openzeppelin-contracts/blob/v4.5.0/contracts/token/ERC20/ERC20.sol\":8019:8042  _balances[to] += amount */\n      tag_133\n      jump\t// in\n    tag_225:\n      swap3\n      pop\n      pop\n      dup2\n      swap1\n      sstore\n      pop\n        /* \"https://github.com/OpenZeppelin/openzeppelin-contracts/blob/v4.5.0/contracts/token/ERC20/ERC20.sol\":8073:8075  to */\n      dup3\n      sub(shl(0xa0, 0x01), 0x01)\n        /* \"https://github.com/OpenZeppelin/openzeppelin-contracts/blob/v4.5.0/contracts/token/ERC20/ERC20.sol\":8058:8084  Transfer(from, to, amount) */\n      and\n        /* \"https://github.com/OpenZeppelin/openzeppelin-contracts/blob/v4.5.0/contracts/token/ERC20/ERC20.sol\":8067:8071  from */\n      dup5\n      sub(shl(0xa0, 0x01), 0x01)\n        /* \"https://github.com/OpenZeppelin/openzeppelin-contracts/blob/v4.5.0/contracts/token/ERC20/ERC20.sol\":8058:8084  Transfer(from, to, amount) */\n      and\n      0xddf252ad1be2c89b69c2b068fc378daa952ba7f163c4a11628f55a4df523b3ef\n        /* \"https://github.com/OpenZeppelin/openzeppelin-contracts/blob/v4.5.0/contracts/token/ERC20/ERC20.sol\":8077:8083  amount */\n      dup5\n        /* \"https://github.com/OpenZeppelin/openzeppelin-contracts/blob/v4.5.0/contracts/token/ERC20/ERC20.sol\":8058:8084  Transfer(from, to, amount) */\n      mload(0x40)\n      tag_226\n      swap2\n      swap1\n      tag_42\n      jump\t// in\n    tag_226:\n      mload(0x40)\n      dup1\n      swap2\n      sub\n      swap1\n      log3\n        /* \"https://github.com/OpenZeppelin/openzeppelin-contracts/blob/v4.5.0/contracts/token/ERC20/ERC20.sol\":8095:8132  _afterTokenTransfer(from, to, amount) */\n      tag_197\n        /* \"https://github.com/OpenZeppelin/openzeppelin-contracts/blob/v4.5.0/contracts/token/ERC20/ERC20.sol\":8115:8119  from */\n      dup5\n        /* \"https://github.com/OpenZeppelin/openzeppelin-contracts/blob/v4.5.0/contracts/token/ERC20/ERC20.sol\":8121:8123  to */\n      dup5\n        /* \"https://github.com/OpenZeppelin/openzeppelin-contracts/blob/v4.5.0/contracts/token/ERC20/ERC20.sol\":8125:8131  amount */\n      dup5\n        /* \"https://github.com/OpenZeppelin/openzeppelin-contracts/blob/v4.5.0/contracts/token/ERC20/ERC20.sol\":8095:8114  _afterTokenTransfer */\n      tag_203\n        /* \"https://github.com/OpenZeppelin/openzeppelin-contracts/blob/v4.5.0/contracts/token/ERC20/ERC20.sol\":8095:8132  _afterTokenTransfer(from, to, amount) */\n      jump\t// in\n        /* \"#utility.yul\":14:189   */\n    tag_232:\n        /* \"#utility.yul\":84:104   */\n      dup1\n      calldataload\n      sub(shl(0xa0, 0x01), 0x01)\n        /* \"#utility.yul\":133:164   */\n      dup2\n      and\n        /* \"#utility.yul\":123:165   */\n      dup2\n      eq\n        /* \"#utility.yul\":113:115   */\n      tag_140\n      jumpi\n        /* \"#utility.yul\":179:180   */\n      0x00\n        /* \"#utility.yul\":176:177   */\n      dup1\n        /* \"#utility.yul\":169:181   */\n      revert\n        /* \"#utility.yul\":194:392   */\n    tag_58:\n      0x00\n        /* \"#utility.yul\":306:308   */\n      0x20\n        /* \"#utility.yul\":294:303   */\n      dup3\n        /* \"#utility.yul\":285:292   */\n      dup5\n        /* \"#utility.yul\":281:304   */\n      sub\n        /* \"#utility.yul\":277:309   */\n      slt\n        /* \"#utility.yul\":274:276   */\n      iszero\n      tag_236\n      jumpi\n        /* \"#utility.yul\":327:333   */\n      dup1\n        /* \"#utility.yul\":319:325   */\n      dup2\n        /* \"#utility.yul\":312:334   */\n      revert\n        /* \"#utility.yul\":274:276   */\n    tag_236:\n        /* \"#utility.yul\":355:386   */\n      tag_237\n        /* \"#utility.yul\":376:385   */\n      dup3\n        /* \"#utility.yul\":355:386   */\n      tag_232\n      jump\t// in\n    tag_237:\n        /* \"#utility.yul\":345:386   */\n      swap4\n        /* \"#utility.yul\":264:392   */\n      swap3\n      pop\n      pop\n      pop\n      jump\t// out\n        /* \"#utility.yul\":397:671   */\n    tag_89:\n      0x00\n      dup1\n        /* \"#utility.yul\":526:528   */\n      0x40\n        /* \"#utility.yul\":514:523   */\n      dup4\n        /* \"#utility.yul\":505:512   */\n      dup6\n        /* \"#utility.yul\":501:524   */\n      sub\n        /* \"#utility.yul\":497:529   */\n      slt\n        /* \"#utility.yul\":494:496   */\n      iszero\n      tag_239\n      jumpi\n        /* \"#utility.yul\":547:553   */\n      dup1\n        /* \"#utility.yul\":539:545   */\n      dup2\n        /* \"#utility.yul\":532:554   */\n      revert\n        /* \"#utility.yul\":494:496   */\n    tag_239:\n        /* \"#utility.yul\":575:606   */\n      tag_240\n        /* \"#utility.yul\":596:605   */\n      dup4\n        /* \"#utility.yul\":575:606   */\n      tag_232\n      jump\t// in\n    tag_240:\n        /* \"#utility.yul\":565:606   */\n      swap2\n      pop\n        /* \"#utility.yul\":625:665   */\n      tag_241\n        /* \"#utility.yul\":661:663   */\n      0x20\n        /* \"#utility.yul\":650:659   */\n      dup5\n        /* \"#utility.yul\":646:664   */\n      add\n        /* \"#utility.yul\":625:665   */\n      tag_232\n      jump\t// in\n    tag_241:\n        /* \"#utility.yul\":615:665   */\n      swap1\n      pop\n        /* \"#utility.yul\":484:671   */\n      swap3\n      pop\n      swap3\n      swap1\n      pop\n      jump\t// out\n        /* \"#utility.yul\":676:1018   */\n    tag_45:\n      0x00\n      dup1\n      0x00\n        /* \"#utility.yul\":822:824   */\n      0x60\n        /* \"#utility.yul\":810:819   */\n      dup5\n        /* \"#utility.yul\":801:808   */\n      dup7\n        /* \"#utility.yul\":797:820   */\n      sub\n        /* \"#utility.yul\":793:825   */\n      slt\n        /* \"#utility.yul\":790:792   */\n      iszero\n      tag_243\n      jumpi\n        /* \"#utility.yul\":843:849   */\n      dup1\n        /* \"#utility.yul\":835:841   */\n      dup2\n        /* \"#utility.yul\":828:850   */\n      revert\n        /* \"#utility.yul\":790:792   */\n    tag_243:\n        /* \"#utility.yul\":871:902   */\n      tag_244\n        /* \"#utility.yul\":892:901   */\n      dup5\n        /* \"#utility.yul\":871:902   */\n      tag_232\n      jump\t// in\n    tag_244:\n        /* \"#utility.yul\":861:902   */\n      swap3\n      pop\n        /* \"#utility.yul\":921:961   */\n      tag_245\n        /* \"#utility.yul\":957:959   */\n      0x20\n        /* \"#utility.yul\":946:955   */\n      dup6\n        /* \"#utility.yul\":942:960   */\n      add\n        /* \"#utility.yul\":921:961   */\n      tag_232\n      jump\t// in\n    tag_245:\n        /* \"#utility.yul\":911:961   */\n      swap2\n      pop\n        /* \"#utility.yul\":1008:1010   */\n      0x40\n        /* \"#utility.yul\":997:1006   */\n      dup5\n        /* \"#utility.yul\":993:1011   */\n      add\n        /* \"#utility.yul\":980:1012   */\n      calldataload\n        /* \"#utility.yul\":970:1012   */\n      swap1\n      pop\n        /* \"#utility.yul\":780:1018   */\n      swap3\n      pop\n      swap3\n      pop\n      swap3\n      jump\t// out\n        /* \"#utility.yul\":1023:1289   */\n    tag_35:\n      0x00\n      dup1\n        /* \"#utility.yul\":1152:1154   */\n      0x40\n        /* \"#utility.yul\":1140:1149   */\n      dup4\n        /* \"#utility.yul\":1131:1138   */\n      dup6\n        /* \"#utility.yul\":1127:1150   */\n      sub\n        /* \"#utility.yul\":1123:1155   */\n      slt\n        /* \"#utility.yul\":1120:1122   */\n      iszero\n      tag_247\n      jumpi\n        /* \"#utility.yul\":1173:1179   */\n      dup2\n        /* \"#utility.yul\":1165:1171   */\n      dup3\n        /* \"#utility.yul\":1158:1180   */\n      revert\n        /* \"#utility.yul\":1120:1122   */\n    tag_247:\n        /* \"#utility.yul\":1201:1232   */\n      tag_248\n        /* \"#utility.yul\":1222:1231   */\n      dup4\n        /* \"#utility.yul\":1201:1232   */\n      tag_232\n      jump\t// in\n    tag_248:\n        /* \"#utility.yul\":1191:1232   */\n      swap5\n        /* \"#utility.yul\":1279:1281   */\n      0x20\n        /* \"#utility.yul\":1264:1282   */\n      swap4\n      swap1\n      swap4\n      add\n        /* \"#utility.yul\":1251:1283   */\n      calldataload\n      swap4\n      pop\n      pop\n      pop\n        /* \"#utility.yul\":1110:1289   */\n      jump\t// out\n        /* \"#utility.yul\":1294:1484   */\n    tag_27:\n      0x00\n        /* \"#utility.yul\":1406:1408   */\n      0x20\n        /* \"#utility.yul\":1394:1403   */\n      dup3\n        /* \"#utility.yul\":1385:1392   */\n      dup5\n        /* \"#utility.yul\":1381:1404   */\n      sub\n        /* \"#utility.yul\":1377:1409   */\n      slt\n        /* \"#utility.yul\":1374:1376   */\n      iszero\n      tag_250\n      jumpi\n        /* \"#utility.yul\":1427:1433   */\n      dup1\n        /* \"#utility.yul\":1419:1425   */\n      dup2\n        /* \"#utility.yul\":1412:1434   */\n      revert\n        /* \"#utility.yul\":1374:1376   */\n    tag_250:\n      pop\n        /* \"#utility.yul\":1455:1478   */\n      calldataload\n      swap2\n        /* \"#utility.yul\":1364:1484   */\n      swap1\n      pop\n      jump\t// out\n        /* \"#utility.yul\":1489:1692   */\n    tag_67:\n      sub(shl(0xa0, 0x01), 0x01)\n        /* \"#utility.yul\":1653:1685   */\n      swap2\n      swap1\n      swap2\n      and\n        /* \"#utility.yul\":1635:1686   */\n      dup2\n      mstore\n        /* \"#utility.yul\":1623:1625   */\n      0x20\n        /* \"#utility.yul\":1608:1626   */\n      add\n      swap1\n        /* \"#utility.yul\":1590:1692   */\n      jump\t// out\n        /* \"#utility.yul\":1697:1884   */\n    tag_38:\n        /* \"#utility.yul\":1862:1876   */\n      swap1\n      iszero\n        /* \"#utility.yul\":1855:1877   */\n      iszero\n        /* \"#utility.yul\":1837:1878   */\n      dup2\n      mstore\n        /* \"#utility.yul\":1825:1827   */\n      0x20\n        /* \"#utility.yul\":1810:1828   */\n      add\n      swap1\n        /* \"#utility.yul\":1792:1884   */\n      jump\t// out\n        /* \"#utility.yul\":1889:2492   */\n    tag_32:\n      0x00\n        /* \"#utility.yul\":2030:2032   */\n      0x20\n        /* \"#utility.yul\":2059:2061   */\n      dup1\n        /* \"#utility.yul\":2048:2057   */\n      dup4\n        /* \"#utility.yul\":2041:2062   */\n      mstore\n        /* \"#utility.yul\":2091:2097   */\n      dup4\n        /* \"#utility.yul\":2085:2098   */\n      mload\n        /* \"#utility.yul\":2134:2140   */\n      dup1\n        /* \"#utility.yul\":2129:2131   */\n      dup3\n        /* \"#utility.yul\":2118:2127   */\n      dup6\n        /* \"#utility.yul\":2114:2132   */\n      add\n        /* \"#utility.yul\":2107:2141   */\n      mstore\n        /* \"#utility.yul\":2159:2163   */\n      dup3\n        /* \"#utility.yul\":2172:2312   */\n    tag_254:\n        /* \"#utility.yul\":2186:2192   */\n      dup2\n        /* \"#utility.yul\":2183:2184   */\n      dup2\n        /* \"#utility.yul\":2180:2193   */\n      lt\n        /* \"#utility.yul\":2172:2312   */\n      iszero\n      tag_256\n      jumpi\n        /* \"#utility.yul\":2281:2295   */\n      dup6\n      dup2\n      add\n        /* \"#utility.yul\":2277:2300   */\n      dup4\n      add\n        /* \"#utility.yul\":2271:2301   */\n      mload\n        /* \"#utility.yul\":2247:2264   */\n      dup6\n      dup3\n      add\n        /* \"#utility.yul\":2266:2268   */\n      0x40\n        /* \"#utility.yul\":2243:2269   */\n      add\n        /* \"#utility.yul\":2236:2302   */\n      mstore\n        /* \"#utility.yul\":2201:2211   */\n      dup3\n      add\n        /* \"#utility.yul\":2172:2312   */\n      jump(tag_254)\n    tag_256:\n        /* \"#utility.yul\":2330:2336   */\n      dup2\n        /* \"#utility.yul\":2327:2328   */\n      dup2\n        /* \"#utility.yul\":2324:2337   */\n      gt\n        /* \"#utility.yul\":2321:2323   */\n      iszero\n      tag_257\n      jumpi\n        /* \"#utility.yul\":2400:2404   */\n      dup4\n        /* \"#utility.yul\":2395:2397   */\n      0x40\n        /* \"#utility.yul\":2386:2392   */\n      dup4\n        /* \"#utility.yul\":2375:2384   */\n      dup8\n        /* \"#utility.yul\":2371:2393   */\n      add\n        /* \"#utility.yul\":2367:2398   */\n      add\n        /* \"#utility.yul\":2360:2405   */\n      mstore\n        /* \"#utility.yul\":2321:2323   */\n    tag_257:\n      pop\n        /* \"#utility.yul\":2476:2478   */\n      0x1f\n        /* \"#utility.yul\":2455:2470   */\n      add\n      not(0x1f)\n        /* \"#utility.yul\":2451:2480   */\n      and\n        /* \"#utility.yul\":2436:2481   */\n      swap3\n      swap1\n      swap3\n      add\n        /* \"#utility.yul\":2483:2485   */\n      0x40\n        /* \"#utility.yul\":2432:2486   */\n      add\n      swap4\n        /* \"#utility.yul\":2010:2492   */\n      swap3\n      pop\n      pop\n      pop\n      jump\t// out\n        /* \"#utility.yul\":2497:2896   */\n    tag_219:\n        /* \"#utility.yul\":2699:2701   */\n      0x20\n        /* \"#utility.yul\":2681:2702   */\n      dup1\n      dup3\n      mstore\n        /* \"#utility.yul\":2738:2740   */\n      0x23\n        /* \"#utility.yul\":2718:2736   */\n      swap1\n      dup3\n      add\n        /* \"#utility.yul\":2711:2741   */\n      mstore\n        /* \"#utility.yul\":2777:2811   */\n      0x45524332303a207472616e7366657220746f20746865207a65726f2061646472\n        /* \"#utility.yul\":2772:2774   */\n      0x40\n        /* \"#utility.yul\":2757:2775   */\n      dup3\n      add\n        /* \"#utility.yul\":2750:2812   */\n      mstore\n      shl(0xe8, 0x657373)\n        /* \"#utility.yul\":2843:2845   */\n      0x60\n        /* \"#utility.yul\":2828:2846   */\n      dup3\n      add\n        /* \"#utility.yul\":2821:2854   */\n      mstore\n        /* \"#utility.yul\":2886:2889   */\n      0x80\n        /* \"#utility.yul\":2871:2890   */\n      add\n      swap1\n        /* \"#utility.yul\":2671:2896   */\n      jump\t// out\n        /* \"#utility.yul\":2901:3303   */\n    tag_180:\n        /* \"#utility.yul\":3103:3105   */\n      0x20\n        /* \"#utility.yul\":3085:3106   */\n      dup1\n      dup3\n      mstore\n        /* \"#utility.yul\":3142:3144   */\n      0x26\n        /* \"#utility.yul\":3122:3140   */\n      swap1\n      dup3\n      add\n        /* \"#utility.yul\":3115:3145   */\n      mstore\n        /* \"#utility.yul\":3181:3215   */\n      0x4f776e61626c653a206e6577206f776e657220697320746865207a65726f2061\n        /* \"#utility.yul\":3176:3178   */\n      0x40\n        /* \"#utility.yul\":3161:3179   */\n      dup3\n      add\n        /* \"#utility.yul\":3154:3216   */\n      mstore\n      shl(0xd0, 0x646472657373)\n        /* \"#utility.yul\":3247:3249   */\n      0x60\n        /* \"#utility.yul\":3232:3250   */\n      dup3\n      add\n        /* \"#utility.yul\":3225:3261   */\n      mstore\n        /* \"#utility.yul\":3293:3296   */\n      0x80\n        /* \"#utility.yul\":3278:3297   */\n      add\n      swap1\n        /* \"#utility.yul\":3075:3303   */\n      jump\t// out\n        /* \"#utility.yul\":3308:3706   */\n    tag_189:\n        /* \"#utility.yul\":3510:3512   */\n      0x20\n        /* \"#utility.yul\":3492:3513   */\n      dup1\n      dup3\n      mstore\n        /* \"#utility.yul\":3549:3551   */\n      0x22\n        /* \"#utility.yul\":3529:3547   */\n      swap1\n      dup3\n      add\n        /* \"#utility.yul\":3522:3552   */\n      mstore\n        /* \"#utility.yul\":3588:3622   */\n      0x45524332303a20617070726f766520746f20746865207a65726f206164647265\n        /* \"#utility.yul\":3583:3585   */\n      0x40\n        /* \"#utility.yul\":3568:3586   */\n      dup3\n      add\n        /* \"#utility.yul\":3561:3623   */\n      mstore\n      shl(0xf0, 0x7373)\n        /* \"#utility.yul\":3654:3656   */\n      0x60\n        /* \"#utility.yul\":3639:3657   */\n      dup3\n      add\n        /* \"#utility.yul\":3632:3664   */\n      mstore\n        /* \"#utility.yul\":3696:3699   */\n      0x80\n        /* \"#utility.yul\":3681:3700   */\n      add\n      swap1\n        /* \"#utility.yul\":3482:3706   */\n      jump\t// out\n        /* \"#utility.yul\":3711:4064   */\n    tag_196:\n        /* \"#utility.yul\":3913:3915   */\n      0x20\n        /* \"#utility.yul\":3895:3916   */\n      dup1\n      dup3\n      mstore\n        /* \"#utility.yul\":3952:3954   */\n      0x1d\n        /* \"#utility.yul\":3932:3950   */\n      swap1\n      dup3\n      add\n        /* \"#utility.yul\":3925:3955   */\n      mstore\n        /* \"#utility.yul\":3991:4022   */\n      0x45524332303a20696e73756666696369656e7420616c6c6f77616e6365000000\n        /* \"#utility.yul\":3986:3988   */\n      0x40\n        /* \"#utility.yul\":3971:3989   */\n      dup3\n      add\n        /* \"#utility.yul\":3964:4023   */\n      mstore\n        /* \"#utility.yul\":4055:4057   */\n      0x60\n        /* \"#utility.yul\":4040:4058   */\n      add\n      swap1\n        /* \"#utility.yul\":3885:4064   */\n      jump\t// out\n        /* \"#utility.yul\":4069:4471   */\n    tag_224:\n        /* \"#utility.yul\":4271:4273   */\n      0x20\n        /* \"#utility.yul\":4253:4274   */\n      dup1\n      dup3\n      mstore\n        /* \"#utility.yul\":4310:4312   */\n      0x26\n        /* \"#utility.yul\":4290:4308   */\n      swap1\n      dup3\n      add\n        /* \"#utility.yul\":4283:4313   */\n      mstore\n        /* \"#utility.yul\":4349:4383   */\n      0x45524332303a207472616e7366657220616d6f756e7420657863656564732062\n        /* \"#utility.yul\":4344:4346   */\n      0x40\n        /* \"#utility.yul\":4329:4347   */\n      dup3\n      add\n        /* \"#utility.yul\":4322:4384   */\n      mstore\n      shl(0xd0, 0x616c616e6365)\n        /* \"#utility.yul\":4415:4417   */\n      0x60\n        /* \"#utility.yul\":4400:4418   */\n      dup3\n      add\n        /* \"#utility.yul\":4393:4429   */\n      mstore\n        /* \"#utility.yul\":4461:4464   */\n      0x80\n        /* \"#utility.yul\":4446:4465   */\n      add\n      swap1\n        /* \"#utility.yul\":4243:4471   */\n      jump\t// out\n        /* \"#utility.yul\":4476:4830   */\n    tag_109:\n        /* \"#utility.yul\":4678:4680   */\n      0x20\n        /* \"#utility.yul\":4660:4681   */\n      dup1\n      dup3\n      mstore\n        /* \"#utility.yul\":4717:4719   */\n      0x1e\n        /* \"#utility.yul\":4697:4715   */\n      swap1\n      dup3\n      add\n        /* \"#utility.yul\":4690:4720   */\n      mstore\n        /* \"#utility.yul\":4756:4788   */\n      0x466565206d757374206265206265747765656e20302520616e64203130250000\n        /* \"#utility.yul\":4751:4753   */\n      0x40\n        /* \"#utility.yul\":4736:4754   */\n      dup3\n      add\n        /* \"#utility.yul\":4729:4789   */\n      mstore\n        /* \"#utility.yul\":4821:4823   */\n      0x60\n        /* \"#utility.yul\":4806:4824   */\n      add\n      swap1\n        /* \"#utility.yul\":4650:4830   */\n      jump\t// out\n        /* \"#utility.yul\":4835:5191   */\n    tag_104:\n        /* \"#utility.yul\":5037:5039   */\n      0x20\n        /* \"#utility.yul\":5019:5040   */\n      dup1\n      dup3\n      mstore\n        /* \"#utility.yul\":5056:5074   */\n      dup2\n      dup2\n      add\n        /* \"#utility.yul\":5049:5079   */\n      mstore\n        /* \"#utility.yul\":5115:5149   */\n      0x4f776e61626c653a2063616c6c6572206973206e6f7420746865206f776e6572\n        /* \"#utility.yul\":5110:5112   */\n      0x40\n        /* \"#utility.yul\":5095:5113   */\n      dup3\n      add\n        /* \"#utility.yul\":5088:5150   */\n      mstore\n        /* \"#utility.yul\":5182:5184   */\n      0x60\n        /* \"#utility.yul\":5167:5185   */\n      add\n      swap1\n        /* \"#utility.yul\":5009:5191   */\n      jump\t// out\n        /* \"#utility.yul\":5196:5597   */\n    tag_216:\n        /* \"#utility.yul\":5398:5400   */\n      0x20\n        /* \"#utility.yul\":5380:5401   */\n      dup1\n      dup3\n      mstore\n        /* \"#utility.yul\":5437:5439   */\n      0x25\n        /* \"#utility.yul\":5417:5435   */\n      swap1\n      dup3\n      add\n        /* \"#utility.yul\":5410:5440   */\n      mstore\n        /* \"#utility.yul\":5476:5510   */\n      0x45524332303a207472616e736665722066726f6d20746865207a65726f206164\n        /* \"#utility.yul\":5471:5473   */\n      0x40\n        /* \"#utility.yul\":5456:5474   */\n      dup3\n      add\n        /* \"#utility.yul\":5449:5511   */\n      mstore\n      shl(0xd8, 0x6472657373)\n        /* \"#utility.yul\":5542:5544   */\n      0x60\n        /* \"#utility.yul\":5527:5545   */\n      dup3\n      add\n        /* \"#utility.yul\":5520:5555   */\n      mstore\n        /* \"#utility.yul\":5587:5590   */\n      0x80\n        /* \"#utility.yul\":5572:5591   */\n      add\n      swap1\n        /* \"#utility.yul\":5370:5597   */\n      jump\t// out\n        /* \"#utility.yul\":5602:6002   */\n    tag_186:\n        /* \"#utility.yul\":5804:5806   */\n      0x20\n        /* \"#utility.yul\":5786:5807   */\n      dup1\n      dup3\n      mstore\n        /* \"#utility.yul\":5843:5845   */\n      0x24\n        /* \"#utility.yul\":5823:5841   */\n      swap1\n      dup3\n      add\n        /* \"#utility.yul\":5816:5846   */\n      mstore\n        /* \"#utility.yul\":5882:5916   */\n      0x45524332303a20617070726f76652066726f6d20746865207a65726f20616464\n        /* \"#utility.yul\":5877:5879   */\n      0x40\n        /* \"#utility.yul\":5862:5880   */\n      dup3\n      add\n        /* \"#utility.yul\":5855:5917   */\n      mstore\n      shl(0xe0, 0x72657373)\n        /* \"#utility.yul\":5948:5950   */\n      0x60\n        /* \"#utility.yul\":5933:5951   */\n      dup3\n      add\n        /* \"#utility.yul\":5926:5960   */\n      mstore\n        /* \"#utility.yul\":5992:5995   */\n      0x80\n        /* \"#utility.yul\":5977:5996   */\n      add\n      swap1\n        /* \"#utility.yul\":5776:6002   */\n      jump\t// out\n        /* \"#utility.yul\":6007:6408   */\n    tag_160:\n        /* \"#utility.yul\":6209:6211   */\n      0x20\n        /* \"#utility.yul\":6191:6212   */\n      dup1\n      dup3\n      mstore\n        /* \"#utility.yul\":6248:6250   */\n      0x25\n        /* \"#utility.yul\":6228:6246   */\n      swap1\n      dup3\n      add\n        /* \"#utility.yul\":6221:6251   */\n      mstore\n        /* \"#utility.yul\":6287:6321   */\n      0x45524332303a2064656372656173656420616c6c6f77616e63652062656c6f77\n        /* \"#utility.yul\":6282:6284   */\n      0x40\n        /* \"#utility.yul\":6267:6285   */\n      dup3\n      add\n        /* \"#utility.yul\":6260:6322   */\n      mstore\n      shl(0xd8, 0x207a65726f)\n        /* \"#utility.yul\":6353:6355   */\n      0x60\n        /* \"#utility.yul\":6338:6356   */\n      dup3\n      add\n        /* \"#utility.yul\":6331:6366   */\n      mstore\n        /* \"#utility.yul\":6398:6401   */\n      0x80\n        /* \"#utility.yul\":6383:6402   */\n      add\n      swap1\n        /* \"#utility.yul\":6181:6408   */\n      jump\t// out\n        /* \"#utility.yul\":6413:6590   */\n    tag_42:\n        /* \"#utility.yul\":6559:6584   */\n      swap1\n      dup2\n      mstore\n        /* \"#utility.yul\":6547:6549   */\n      0x20\n        /* \"#utility.yul\":6532:6550   */\n      add\n      swap1\n        /* \"#utility.yul\":6514:6590   */\n      jump\t// out\n        /* \"#utility.yul\":6595:6779   */\n    tag_51:\n        /* \"#utility.yul\":6767:6771   */\n      0xff\n        /* \"#utility.yul\":6755:6772   */\n      swap2\n      swap1\n      swap2\n      and\n        /* \"#utility.yul\":6737:6773   */\n      dup2\n      mstore\n        /* \"#utility.yul\":6725:6727   */\n      0x20\n        /* \"#utility.yul\":6710:6728   */\n      add\n      swap1\n        /* \"#utility.yul\":6692:6779   */\n      jump\t// out\n        /* \"#utility.yul\":6784:6912   */\n    tag_133:\n      0x00\n        /* \"#utility.yul\":6855:6856   */\n      dup3\n        /* \"#utility.yul\":6851:6857   */\n      not\n        /* \"#utility.yul\":6848:6849   */\n      dup3\n        /* \"#utility.yul\":6845:6858   */\n      gt\n        /* \"#utility.yul\":6842:6844   */\n      iszero\n      tag_272\n      jumpi\n        /* \"#utility.yul\":6861:6879   */\n      tag_272\n      tag_273\n      jump\t// in\n    tag_272:\n      pop\n        /* \"#utility.yul\":6897:6906   */\n      add\n      swap1\n        /* \"#utility.yul\":6832:6912   */\n      jump\t// out\n        /* \"#utility.yul\":6917:7134   */\n    tag_207:\n      0x00\n        /* \"#utility.yul\":6983:6984   */\n      dup3\n        /* \"#utility.yul\":6973:6975   */\n      tag_275\n      jumpi\n      shl(0xe0, 0x4e487b71)\n        /* \"#utility.yul\":7008:7039   */\n      dup2\n      mstore\n        /* \"#utility.yul\":7062:7066   */\n      0x12\n        /* \"#utility.yul\":7059:7060   */\n      0x04\n        /* \"#utility.yul\":7052:7067   */\n      mstore\n        /* \"#utility.yul\":7090:7094   */\n      0x24\n        /* \"#utility.yul\":7015:7016   */\n      dup2\n        /* \"#utility.yul\":7080:7095   */\n      revert\n        /* \"#utility.yul\":6973:6975   */\n    tag_275:\n      pop\n        /* \"#utility.yul\":7119:7128   */\n      div\n      swap1\n        /* \"#utility.yul\":6963:7134   */\n      jump\t// out\n        /* \"#utility.yul\":7139:7307   */\n    tag_205:\n      0x00\n        /* \"#utility.yul\":7245:7246   */\n      dup2\n        /* \"#utility.yul\":7241:7242   */\n      0x00\n        /* \"#utility.yul\":7237:7243   */\n      not\n        /* \"#utility.yul\":7233:7247   */\n      div\n        /* \"#utility.yul\":7230:7231   */\n      dup4\n        /* \"#utility.yul\":7227:7248   */\n      gt\n        /* \"#utility.yul\":7222:7223   */\n      dup3\n        /* \"#utility.yul\":7215:7224   */\n      iszero\n        /* \"#utility.yul\":7208:7225   */\n      iszero\n        /* \"#utility.yul\":7204:7249   */\n      and\n        /* \"#utility.yul\":7201:7203   */\n      iszero\n      tag_278\n      jumpi\n        /* \"#utility.yul\":7252:7270   */\n      tag_278\n      tag_273\n      jump\t// in\n    tag_278:\n      pop\n        /* \"#utility.yul\":7292:7301   */\n      mul\n      swap1\n        /* \"#utility.yul\":7191:7307   */\n      jump\t// out\n        /* \"#utility.yul\":7312:7437   */\n    tag_209:\n      0x00\n        /* \"#utility.yul\":7380:7381   */\n      dup3\n        /* \"#utility.yul\":7377:7378   */\n      dup3\n        /* \"#utility.yul\":7374:7382   */\n      lt\n        /* \"#utility.yul\":7371:7373   */\n      iszero\n      tag_281\n      jumpi\n        /* \"#utility.yul\":7385:7403   */\n      tag_281\n      tag_273\n      jump\t// in\n    tag_281:\n      pop\n        /* \"#utility.yul\":7422:7431   */\n      sub\n      swap1\n        /* \"#utility.yul\":7361:7437   */\n      jump\t// out\n        /* \"#utility.yul\":7442:7822   */\n    tag_112:\n        /* \"#utility.yul\":7527:7528   */\n      0x02\n        /* \"#utility.yul\":7517:7529   */\n      dup2\n      div\n        /* \"#utility.yul\":7574:7575   */\n      0x01\n        /* \"#utility.yul\":7564:7576   */\n      dup3\n      and\n      dup1\n        /* \"#utility.yul\":7585:7587   */\n      tag_283\n      jumpi\n        /* \"#utility.yul\":7639:7643   */\n      0x7f\n        /* \"#utility.yul\":7631:7637   */\n      dup3\n        /* \"#utility.yul\":7627:7644   */\n      and\n        /* \"#utility.yul\":7617:7644   */\n      swap2\n      pop\n        /* \"#utility.yul\":7585:7587   */\n    tag_283:\n        /* \"#utility.yul\":7692:7694   */\n      0x20\n        /* \"#utility.yul\":7684:7690   */\n      dup3\n        /* \"#utility.yul\":7681:7695   */\n      lt\n        /* \"#utility.yul\":7661:7679   */\n      dup2\n        /* \"#utility.yul\":7658:7696   */\n      eq\n        /* \"#utility.yul\":7655:7657   */\n      iszero\n      tag_284\n      jumpi\n        /* \"#utility.yul\":7738:7748   */\n      0x4e487b71\n        /* \"#utility.yul\":7733:7736   */\n      0xe0\n        /* \"#utility.yul\":7729:7749   */\n      shl\n        /* \"#utility.yul\":7726:7727   */\n      0x00\n        /* \"#utility.yul\":7719:7750   */\n      mstore\n        /* \"#utility.yul\":7773:7777   */\n      0x22\n        /* \"#utility.yul\":7770:7771   */\n      0x04\n        /* \"#utility.yul\":7763:7778   */\n      mstore\n        /* \"#utility.yul\":7801:7805   */\n      0x24\n        /* \"#utility.yul\":7798:7799   */\n      0x00\n        /* \"#utility.yul\":7791:7806   */\n      revert\n        /* \"#utility.yul\":7655:7657   */\n    tag_284:\n      pop\n        /* \"#utility.yul\":7497:7822   */\n      swap2\n      swap1\n      pop\n      jump\t// out\n        /* \"#utility.yul\":7827:7954   */\n    tag_273:\n        /* \"#utility.yul\":7888:7898   */\n      0x4e487b71\n        /* \"#utility.yul\":7883:7886   */\n      0xe0\n        /* \"#utility.yul\":7879:7899   */\n      shl\n        /* \"#utility.yul\":7876:7877   */\n      0x00\n        /* \"#utility.yul\":7869:7900   */\n      mstore\n        /* \"#utility.yul\":7919:7923   */\n      0x11\n        /* \"#utility.yul\":7916:7917   */\n      0x04\n        /* \"#utility.yul\":7909:7924   */\n      mstore\n        /* \"#utility.yul\":7943:7947   */\n      0x24\n        /* \"#utility.yul\":7940:7941   */\n      0x00\n        /* \"#utility.yul\":7933:7948   */\n      revert\n\n    auxdata: 0xa26469706673582212206ffdea4ebb53e14c3bbd82d52a443db5be9aa69fb8c9bd838a5e7327cf9c207864736f6c63430008000033\n}\n",
				"bytecode": {
					"linkReferences": {},
					"object": "608060405260026006553480156200001657600080fd5b506040518060400160405280600d81526020016c2ab337ad34b7b6902a37b5b2b760991b8152506040518060400160405280600381526020016255464f60e81b81525081600390805190602001906200007192919062000239565b5080516200008790600490602084019062000239565b505050620000a46200009e620000f760201b60201c565b620000fb565b620000d733620000b36200014d565b620000c090600a62000387565b620000d19064e8d4a510006200047f565b62000152565b336000908152600760205260409020805460ff19166001179055620004f4565b3390565b600580546001600160a01b038381166001600160a01b0319831681179093556040519116919082907f8be0079c531659141344cd1fd0a4f28419497f9722a3daafe3b4186f6b6457e090600090a35050565b601290565b6001600160a01b038216620001845760405162461bcd60e51b81526004016200017b90620002df565b60405180910390fd5b620001926000838362000234565b8060026000828254620001a691906200031f565b90915550506001600160a01b03821660009081526020819052604081208054839290620001d59084906200031f565b90915550506040516001600160a01b038316906000907fddf252ad1be2c89b69c2b068fc378daa952ba7f163c4a11628f55a4df523b3ef906200021a90859062000316565b60405180910390a3620002306000838362000234565b5050565b505050565b8280546200024790620004a1565b90600052602060002090601f0160209004810192826200026b5760008555620002b6565b82601f106200028657805160ff1916838001178555620002b6565b82800160010185558215620002b6579182015b82811115620002b657825182559160200191906001019062000299565b50620002c4929150620002c8565b5090565b5b80821115620002c45760008155600101620002c9565b6020808252601f908201527f45524332303a206d696e7420746f20746865207a65726f206164647265737300604082015260600190565b90815260200190565b60008219821115620003355762000335620004de565b500190565b80825b60018086116200034e57506200037e565b818704821115620003635762000363620004de565b808616156200037157918102915b9490941c9380026200033d565b94509492505050565b60006200039b60001960ff851684620003a2565b9392505050565b600082620003b3575060016200039b565b81620003c2575060006200039b565b8160018114620003db5760028114620003e6576200041a565b60019150506200039b565b60ff841115620003fa57620003fa620004de565b6001841b915084821115620004135762000413620004de565b506200039b565b5060208310610133831016604e8410600b841016171562000452575081810a838111156200044c576200044c620004de565b6200039b565b6200046184848460016200033a565b808604821115620004765762000476620004de565b02949350505050565b60008160001904831182151516156200049c576200049c620004de565b500290565b600281046001821680620004b657607f821691505b60208210811415620004d857634e487b7160e01b600052602260045260246000fd5b50919050565b634e487b7160e01b600052601160045260246000fd5b610e9480620005046000396000f3fe608060405234801561001057600080fd5b50600436106101215760003560e01c806370d5ae05116100ad578063a457c2d711610071578063a457c2d714610224578063a9059cbb14610237578063dd62ed3e1461024a578063ea2f0b371461025d578063f2fde38b1461027057610121565b806370d5ae05146101ef578063715018a6146102045780638da5cb5b1461020c57806395d89b4114610214578063a071dcf41461021c57610121565b806323b872dd116100f457806323b872dd1461018e578063313ce567146101a157806339509351146101b6578063437823ec146101c957806370a08231146101dc57610121565b8063061c82d01461012657806306fdde031461013b578063095ea7b31461015957806318160ddd14610179575b600080fd5b610139610134366004610a7c565b610283565b005b6101436102f1565b6040516101509190610ab3565b60405180910390f35b61016c610167366004610a53565b610383565b6040516101509190610aa8565b6101816103a5565b6040516101509190610d88565b61016c61019c366004610a18565b6103ab565b6101a96103d9565b6040516101509190610d91565b61016c6101c4366004610a53565b6103de565b6101396101d73660046109c5565b61042a565b6101816101ea3660046109c5565b61048d565b6101f76104ac565b6040516101509190610a94565b6101396104b2565b6101f76104fd565b61014361050c565b61018161051b565b61016c610232366004610a53565b610521565b61016c610245366004610a53565b610582565b6101816102583660046109e6565b61059a565b61013961026b3660046109c5565b6105c5565b61013961027e3660046109c5565b610625565b61028b610696565b6001600160a01b031661029c6104fd565b6001600160a01b0316146102cb5760405162461bcd60e51b81526004016102c290610c85565b60405180910390fd5b600a8111156102ec5760405162461bcd60e51b81526004016102c290610c4e565b600655565b60606003805461030090610e0d565b80601f016020809104026020016040519081016040528092919081815260200182805461032c90610e0d565b80156103795780601f1061034e57610100808354040283529160200191610379565b820191906000526020600020905b81548152906001019060200180831161035c57829003601f168201915b5050505050905090565b60008061038e610696565b905061039b81858561069a565b5060019392505050565b60025490565b6000806103b6610696565b90506103c385828561074e565b6103ce858585610798565b506001949350505050565b601290565b6000806103e9610696565b6001600160a01b0380821660009081526001602090815260408083209389168352929052205490915061039b9082908690610425908790610d9f565b61069a565b610432610696565b6001600160a01b03166104436104fd565b6001600160a01b0316146104695760405162461bcd60e51b81526004016102c290610c85565b6001600160a01b03166000908152600760205260409020805460ff19166001179055565b6001600160a01b0381166000908152602081905260409020545b919050565b61dead81565b6104ba610696565b6001600160a01b03166104cb6104fd565b6001600160a01b0316146104f15760405162461bcd60e51b81526004016102c290610c85565b6104fb6000610838565b565b6005546001600160a01b031690565b60606004805461030090610e0d565b60065481565b60008061052c610696565b6001600160a01b03808216600090815260016020908152604080832093891683529290522054909150838110156105755760405162461bcd60e51b81526004016102c290610d43565b6103ce828686840361069a565b60008061058d610696565b905061039b818585610798565b6001600160a01b03918216600090815260016020908152604080832093909416825291909152205490565b6105cd610696565b6001600160a01b03166105de6104fd565b6001600160a01b0316146106045760405162461bcd60e51b81526004016102c290610c85565b6001600160a01b03166000908152600760205260409020805460ff19169055565b61062d610696565b6001600160a01b031661063e6104fd565b6001600160a01b0316146106645760405162461bcd60e51b81526004016102c290610c85565b6001600160a01b03811661068a5760405162461bcd60e51b81526004016102c290610b49565b61069381610838565b50565b3390565b6001600160a01b0383166106c05760405162461bcd60e51b81526004016102c290610cff565b6001600160a01b0382166106e65760405162461bcd60e51b81526004016102c290610b8f565b6001600160a01b0380841660008181526001602090815260408083209487168084529490915290819020849055517f8c5be1e5ebec7d5bd14f71427d1e84f3dd0314c0f7b2291e5b200ac8c7c3b92590610741908590610d88565b60405180910390a3505050565b600061075a848461059a565b9050600019811461079257818110156107855760405162461bcd60e51b81526004016102c290610bd1565b610792848484840361069a565b50505050565b6001600160a01b03831660009081526007602052604090205460ff16806107d757506001600160a01b03821660009081526007602052604090205460ff165b156107ec576107e783838361088a565b610833565b60006064600654836107fe9190610dd7565b6108089190610db7565b905060006108168284610df6565b90506108258561dead8461088a565b61083085858361088a565b50505b505050565b600580546001600160a01b038381166001600160a01b0319831681179093556040519116919082907f8be0079c531659141344cd1fd0a4f28419497f9722a3daafe3b4186f6b6457e090600090a35050565b6001600160a01b0383166108b05760405162461bcd60e51b81526004016102c290610cba565b6001600160a01b0382166108d65760405162461bcd60e51b81526004016102c290610b06565b6108e1838383610833565b6001600160a01b0383166000908152602081905260409020548181101561091a5760405162461bcd60e51b81526004016102c290610c08565b6001600160a01b03808516600090815260208190526040808220858503905591851681529081208054849290610951908490610d9f565b92505081905550826001600160a01b0316846001600160a01b03167fddf252ad1be2c89b69c2b068fc378daa952ba7f163c4a11628f55a4df523b3ef8460405161099b9190610d88565b60405180910390a3610792848484610833565b80356001600160a01b03811681146104a757600080fd5b6000602082840312156109d6578081fd5b6109df826109ae565b9392505050565b600080604083850312156109f8578081fd5b610a01836109ae565b9150610a0f602084016109ae565b90509250929050565b600080600060608486031215610a2c578081fd5b610a35846109ae565b9250610a43602085016109ae565b9150604084013590509250925092565b60008060408385031215610a65578182fd5b610a6e836109ae565b946020939093013593505050565b600060208284031215610a8d578081fd5b5035919050565b6001600160a01b0391909116815260200190565b901515815260200190565b6000602080835283518082850152825b81811015610adf57858101830151858201604001528201610ac3565b81811115610af05783604083870101525b50601f01601f1916929092016040019392505050565b60208082526023908201527f45524332303a207472616e7366657220746f20746865207a65726f206164647260408201526265737360e81b606082015260800190565b60208082526026908201527f4f776e61626c653a206e6577206f776e657220697320746865207a65726f206160408201526564647265737360d01b606082015260800190565b60208082526022908201527f45524332303a20617070726f766520746f20746865207a65726f206164647265604082015261737360f01b606082015260800190565b6020808252601d908201527f45524332303a20696e73756666696369656e7420616c6c6f77616e6365000000604082015260600190565b60208082526026908201527f45524332303a207472616e7366657220616d6f756e7420657863656564732062604082015265616c616e636560d01b606082015260800190565b6020808252601e908201527f466565206d757374206265206265747765656e20302520616e64203130250000604082015260600190565b6020808252818101527f4f776e61626c653a2063616c6c6572206973206e6f7420746865206f776e6572604082015260600190565b60208082526025908201527f45524332303a207472616e736665722066726f6d20746865207a65726f206164604082015264647265737360d81b606082015260800190565b60208082526024908201527f45524332303a20617070726f76652066726f6d20746865207a65726f206164646040820152637265737360e01b606082015260800190565b60208082526025908201527f45524332303a2064656372656173656420616c6c6f77616e63652062656c6f77604082015264207a65726f60d81b606082015260800190565b90815260200190565b60ff91909116815260200190565b60008219821115610db257610db2610e48565b500190565b600082610dd257634e487b7160e01b81526012600452602481fd5b500490565b6000816000190483118215151615610df157610df1610e48565b500290565b600082821015610e0857610e08610e48565b500390565b600281046001821680610e2157607f821691505b60208210811415610e4257634e487b7160e01b600052602260045260246000fd5b50919050565b634e487b7160e01b600052601160045260246000fdfea26469706673582212206ffdea4ebb53e14c3bbd82d52a443db5be9aa69fb8c9bd838a5e7327cf9c207864736f6c63430008000033",
					"opcodes": "PUSH1 0x80 PUSH1 0x40 MSTORE PUSH1 0x2 PUSH1 0x6 SSTORE CALLVALUE DUP1 ISZERO PUSH3 0x16 JUMPI PUSH1 0x0 DUP1 REVERT JUMPDEST POP PUSH1 0x40 MLOAD DUP1 PUSH1 0x40 ADD PUSH1 0x40 MSTORE DUP1 PUSH1 0xD DUP2 MSTORE PUSH1 0x20 ADD PUSH13 0x2AB337AD34B7B6902A37B5B2B7 PUSH1 0x99 SHL DUP2 MSTORE POP PUSH1 0x40 MLOAD DUP1 PUSH1 0x40 ADD PUSH1 0x40 MSTORE DUP1 PUSH1 0x3 DUP2 MSTORE PUSH1 0x20 ADD PUSH3 0x55464F PUSH1 0xE8 SHL DUP2 MSTORE POP DUP2 PUSH1 0x3 SWAP1 DUP1 MLOAD SWAP1 PUSH1 0x20 ADD SWAP1 PUSH3 0x71 SWAP3 SWAP2 SWAP1 PUSH3 0x239 JUMP JUMPDEST POP DUP1 MLOAD PUSH3 0x87 SWAP1 PUSH1 0x4 SWAP1 PUSH1 0x20 DUP5 ADD SWAP1 PUSH3 0x239 JUMP JUMPDEST POP POP POP PUSH3 0xA4 PUSH3 0x9E PUSH3 0xF7 PUSH1 0x20 SHL PUSH1 0x20 SHR JUMP JUMPDEST PUSH3 0xFB JUMP JUMPDEST PUSH3 0xD7 CALLER PUSH3 0xB3 PUSH3 0x14D JUMP JUMPDEST PUSH3 0xC0 SWAP1 PUSH1 0xA PUSH3 0x387 JUMP JUMPDEST PUSH3 0xD1 SWAP1 PUSH5 0xE8D4A51000 PUSH3 0x47F JUMP JUMPDEST PUSH3 0x152 JUMP JUMPDEST CALLER PUSH1 0x0 SWAP1 DUP2 MSTORE PUSH1 0x7 PUSH1 0x20 MSTORE PUSH1 0x40 SWAP1 KECCAK256 DUP1 SLOAD PUSH1 0xFF NOT AND PUSH1 0x1 OR SWAP1 SSTORE PUSH3 0x4F4 JUMP JUMPDEST CALLER SWAP1 JUMP JUMPDEST PUSH1 0x5 DUP1 SLOAD PUSH1 0x1 PUSH1 0x1 PUSH1 0xA0 SHL SUB DUP4 DUP2 AND PUSH1 0x1 PUSH1 0x1 PUSH1 0xA0 SHL SUB NOT DUP4 AND DUP2 OR SWAP1 SWAP4 SSTORE PUSH1 0x40 MLOAD SWAP2 AND SWAP2 SWAP1 DUP3 SWAP1 PUSH32 0x8BE0079C531659141344CD1FD0A4F28419497F9722A3DAAFE3B4186F6B6457E0 SWAP1 PUSH1 0x0 SWAP1 LOG3 POP POP JUMP JUMPDEST PUSH1 0x12 SWAP1 JUMP JUMPDEST PUSH1 0x1 PUSH1 0x1 PUSH1 0xA0 SHL SUB DUP3 AND PUSH3 0x184 JUMPI PUSH1 0x40 MLOAD PUSH3 0x461BCD PUSH1 0xE5 SHL DUP2 MSTORE PUSH1 0x4 ADD PUSH3 0x17B SWAP1 PUSH3 0x2DF JUMP JUMPDEST PUSH1 0x40 MLOAD DUP1 SWAP2 SUB SWAP1 REVERT JUMPDEST PUSH3 0x192 PUSH1 0x0 DUP4 DUP4 PUSH3 0x234 JUMP JUMPDEST DUP1 PUSH1 0x2 PUSH1 0x0 DUP3 DUP3 SLOAD PUSH3 0x1A6 SWAP2 SWAP1 PUSH3 0x31F JUMP JUMPDEST SWAP1 SWAP2 SSTORE POP POP PUSH1 0x1 PUSH1 0x1 PUSH1 0xA0 SHL SUB DUP3 AND PUSH1 0x0 SWAP1 DUP2 MSTORE PUSH1 0x20 DUP2 SWAP1 MSTORE PUSH1 0x40 DUP2 KECCAK256 DUP1 SLOAD DUP4 SWAP3 SWAP1 PUSH3 0x1D5 SWAP1 DUP5 SWAP1 PUSH3 0x31F JUMP JUMPDEST SWAP1 SWAP2 SSTORE POP POP PUSH1 0x40 MLOAD PUSH1 0x1 PUSH1 0x1 PUSH1 0xA0 SHL SUB DUP4 AND SWAP1 PUSH1 0x0 SWAP1 PUSH32 0xDDF252AD1BE2C89B69C2B068FC378DAA952BA7F163C4A11628F55A4DF523B3EF SWAP1 PUSH3 0x21A SWAP1 DUP6 SWAP1 PUSH3 0x316 JUMP JUMPDEST PUSH1 0x40 MLOAD DUP1 SWAP2 SUB SWAP1 LOG3 PUSH3 0x230 PUSH1 0x0 DUP4 DUP4 PUSH3 0x234 JUMP JUMPDEST POP POP JUMP JUMPDEST POP POP POP JUMP JUMPDEST DUP3 DUP1 SLOAD PUSH3 0x247 SWAP1 PUSH3 0x4A1 JUMP JUMPDEST SWAP1 PUSH1 0x0 MSTORE PUSH1 0x20 PUSH1 0x0 KECCAK256 SWAP1 PUSH1 0x1F ADD PUSH1 0x20 SWAP1 DIV DUP2 ADD SWAP3 DUP3 PUSH3 0x26B JUMPI PUSH1 0x0 DUP6 SSTORE PUSH3 0x2B6 JUMP JUMPDEST DUP3 PUSH1 0x1F LT PUSH3 0x286 JUMPI DUP1 MLOAD PUSH1 0xFF NOT AND DUP4 DUP1 ADD OR DUP6 SSTORE PUSH3 0x2B6 JUMP JUMPDEST DUP3 DUP1 ADD PUSH1 0x1 ADD DUP6 SSTORE DUP3 ISZERO PUSH3 0x2B6 JUMPI SWAP2 DUP3 ADD JUMPDEST DUP3 DUP2 GT ISZERO PUSH3 0x2B6 JUMPI DUP3 MLOAD DUP3 SSTORE SWAP2 PUSH1 0x20 ADD SWAP2 SWAP1 PUSH1 0x1 ADD SWAP1 PUSH3 0x299 JUMP JUMPDEST POP PUSH3 0x2C4 SWAP3 SWAP2 POP PUSH3 0x2C8 JUMP JUMPDEST POP SWAP1 JUMP JUMPDEST JUMPDEST DUP1 DUP3 GT ISZERO PUSH3 0x2C4 JUMPI PUSH1 0x0 DUP2 SSTORE PUSH1 0x1 ADD PUSH3 0x2C9 JUMP JUMPDEST PUSH1 0x20 DUP1 DUP3 MSTORE PUSH1 0x1F SWAP1 DUP3 ADD MSTORE PUSH32 0x45524332303A206D696E7420746F20746865207A65726F206164647265737300 PUSH1 0x40 DUP3 ADD MSTORE PUSH1 0x60 ADD SWAP1 JUMP JUMPDEST SWAP1 DUP2 MSTORE PUSH1 0x20 ADD SWAP1 JUMP JUMPDEST PUSH1 0x0 DUP3 NOT DUP3 GT ISZERO PUSH3 0x335 JUMPI PUSH3 0x335 PUSH3 0x4DE JUMP JUMPDEST POP ADD SWAP1 JUMP JUMPDEST DUP1 DUP3 JUMPDEST PUSH1 0x1 DUP1 DUP7 GT PUSH3 0x34E JUMPI POP PUSH3 0x37E JUMP JUMPDEST DUP2 DUP8 DIV DUP3 GT ISZERO PUSH3 0x363 JUMPI PUSH3 0x363 PUSH3 0x4DE JUMP JUMPDEST DUP1 DUP7 AND ISZERO PUSH3 0x371 JUMPI SWAP2 DUP2 MUL SWAP2 JUMPDEST SWAP5 SWAP1 SWAP5 SHR SWAP4 DUP1 MUL PUSH3 0x33D JUMP JUMPDEST SWAP5 POP SWAP5 SWAP3 POP POP POP JUMP JUMPDEST PUSH1 0x0 PUSH3 0x39B PUSH1 0x0 NOT PUSH1 0xFF DUP6 AND DUP5 PUSH3 0x3A2 JUMP JUMPDEST SWAP4 SWAP3 POP POP POP JUMP JUMPDEST PUSH1 0x0 DUP3 PUSH3 0x3B3 JUMPI POP PUSH1 0x1 PUSH3 0x39B JUMP JUMPDEST DUP2 PUSH3 0x3C2 JUMPI POP PUSH1 0x0 PUSH3 0x39B JUMP JUMPDEST DUP2 PUSH1 0x1 DUP2 EQ PUSH3 0x3DB JUMPI PUSH1 0x2 DUP2 EQ PUSH3 0x3E6 JUMPI PUSH3 0x41A JUMP JUMPDEST PUSH1 0x1 SWAP2 POP POP PUSH3 0x39B JUMP JUMPDEST PUSH1 0xFF DUP5 GT ISZERO PUSH3 0x3FA JUMPI PUSH3 0x3FA PUSH3 0x4DE JUMP JUMPDEST PUSH1 0x1 DUP5 SHL SWAP2 POP DUP5 DUP3 GT ISZERO PUSH3 0x413 JUMPI PUSH3 0x413 PUSH3 0x4DE JUMP JUMPDEST POP PUSH3 0x39B JUMP JUMPDEST POP PUSH1 0x20 DUP4 LT PUSH2 0x133 DUP4 LT AND PUSH1 0x4E DUP5 LT PUSH1 0xB DUP5 LT AND OR ISZERO PUSH3 0x452 JUMPI POP DUP2 DUP2 EXP DUP4 DUP2 GT ISZERO PUSH3 0x44C JUMPI PUSH3 0x44C PUSH3 0x4DE JUMP JUMPDEST PUSH3 0x39B JUMP JUMPDEST PUSH3 0x461 DUP5 DUP5 DUP5 PUSH1 0x1 PUSH3 0x33A JUMP JUMPDEST DUP1 DUP7 DIV DUP3 GT ISZERO PUSH3 0x476 JUMPI PUSH3 0x476 PUSH3 0x4DE JUMP JUMPDEST MUL SWAP5 SWAP4 POP POP POP POP JUMP JUMPDEST PUSH1 0x0 DUP2 PUSH1 0x0 NOT DIV DUP4 GT DUP3 ISZERO ISZERO AND ISZERO PUSH3 0x49C JUMPI PUSH3 0x49C PUSH3 0x4DE JUMP JUMPDEST POP MUL SWAP1 JUMP JUMPDEST PUSH1 0x2 DUP2 DIV PUSH1 0x1 DUP3 AND DUP1 PUSH3 0x4B6 JUMPI PUSH1 0x7F DUP3 AND SWAP2 POP JUMPDEST PUSH1 0x20 DUP3 LT DUP2 EQ ISZERO PUSH3 0x4D8 JUMPI PUSH4 0x4E487B71 PUSH1 0xE0 SHL PUSH1 0x0 MSTORE PUSH1 0x22 PUSH1 0x4 MSTORE PUSH1 0x24 PUSH1 0x0 REVERT JUMPDEST POP SWAP2 SWAP1 POP JUMP JUMPDEST PUSH4 0x4E487B71 PUSH1 0xE0 SHL PUSH1 0x0 MSTORE PUSH1 0x11 PUSH1 0x4 MSTORE PUSH1 0x24 PUSH1 0x0 REVERT JUMPDEST PUSH2 0xE94 DUP1 PUSH3 0x504 PUSH1 0x0 CODECOPY PUSH1 0x0 RETURN INVALID PUSH1 0x80 PUSH1 0x40 MSTORE CALLVALUE DUP1 ISZERO PUSH2 0x10 JUMPI PUSH1 0x0 DUP1 REVERT JUMPDEST POP PUSH1 0x4 CALLDATASIZE LT PUSH2 0x121 JUMPI PUSH1 0x0 CALLDATALOAD PUSH1 0xE0 SHR DUP1 PUSH4 0x70D5AE05 GT PUSH2 0xAD JUMPI DUP1 PUSH4 0xA457C2D7 GT PUSH2 0x71 JUMPI DUP1 PUSH4 0xA457C2D7 EQ PUSH2 0x224 JUMPI DUP1 PUSH4 0xA9059CBB EQ PUSH2 0x237 JUMPI DUP1 PUSH4 0xDD62ED3E EQ PUSH2 0x24A JUMPI DUP1 PUSH4 0xEA2F0B37 EQ PUSH2 0x25D JUMPI DUP1 PUSH4 0xF2FDE38B EQ PUSH2 0x270 JUMPI PUSH2 0x121 JUMP JUMPDEST DUP1 PUSH4 0x70D5AE05 EQ PUSH2 0x1EF JUMPI DUP1 PUSH4 0x715018A6 EQ PUSH2 0x204 JUMPI DUP1 PUSH4 0x8DA5CB5B EQ PUSH2 0x20C JUMPI DUP1 PUSH4 0x95D89B41 EQ PUSH2 0x214 JUMPI DUP1 PUSH4 0xA071DCF4 EQ PUSH2 0x21C JUMPI PUSH2 0x121 JUMP JUMPDEST DUP1 PUSH4 0x23B872DD GT PUSH2 0xF4 JUMPI DUP1 PUSH4 0x23B872DD EQ PUSH2 0x18E JUMPI DUP1 PUSH4 0x313CE567 EQ PUSH2 0x1A1 JUMPI DUP1 PUSH4 0x39509351 EQ PUSH2 0x1B6 JUMPI DUP1 PUSH4 0x437823EC EQ PUSH2 0x1C9 JUMPI DUP1 PUSH4 0x70A08231 EQ PUSH2 0x1DC JUMPI PUSH2 0x121 JUMP JUMPDEST DUP1 PUSH4 0x61C82D0 EQ PUSH2 0x126 JUMPI DUP1 PUSH4 0x6FDDE03 EQ PUSH2 0x13B JUMPI DUP1 PUSH4 0x95EA7B3 EQ PUSH2 0x159 JUMPI DUP1 PUSH4 0x18160DDD EQ PUSH2 0x179 JUMPI JUMPDEST PUSH1 0x0 DUP1 REVERT JUMPDEST PUSH2 0x139 PUSH2 0x134 CALLDATASIZE PUSH1 0x4 PUSH2 0xA7C JUMP JUMPDEST PUSH2 0x283 JUMP JUMPDEST STOP JUMPDEST PUSH2 0x143 PUSH2 0x2F1 JUMP JUMPDEST PUSH1 0x40 MLOAD PUSH2 0x150 SWAP2 SWAP1 PUSH2 0xAB3 JUMP JUMPDEST PUSH1 0x40 MLOAD DUP1 SWAP2 SUB SWAP1 RETURN JUMPDEST PUSH2 0x16C PUSH2 0x167 CALLDATASIZE PUSH1 0x4 PUSH2 0xA53 JUMP JUMPDEST PUSH2 0x383 JUMP JUMPDEST PUSH1 0x40 MLOAD PUSH2 0x150 SWAP2 SWAP1 PUSH2 0xAA8 JUMP JUMPDEST PUSH2 0x181 PUSH2 0x3A5 JUMP JUMPDEST PUSH1 0x40 MLOAD PUSH2 0x150 SWAP2 SWAP1 PUSH2 0xD88 JUMP JUMPDEST PUSH2 0x16C PUSH2 0x19C CALLDATASIZE PUSH1 0x4 PUSH2 0xA18 JUMP JUMPDEST PUSH2 0x3AB JUMP JUMPDEST PUSH2 0x1A9 PUSH2 0x3D9 JUMP JUMPDEST PUSH1 0x40 MLOAD PUSH2 0x150 SWAP2 SWAP1 PUSH2 0xD91 JUMP JUMPDEST PUSH2 0x16C PUSH2 0x1C4 CALLDATASIZE PUSH1 0x4 PUSH2 0xA53 JUMP JUMPDEST PUSH2 0x3DE JUMP JUMPDEST PUSH2 0x139 PUSH2 0x1D7 CALLDATASIZE PUSH1 0x4 PUSH2 0x9C5 JUMP JUMPDEST PUSH2 0x42A JUMP JUMPDEST PUSH2 0x181 PUSH2 0x1EA CALLDATASIZE PUSH1 0x4 PUSH2 0x9C5 JUMP JUMPDEST PUSH2 0x48D JUMP JUMPDEST PUSH2 0x1F7 PUSH2 0x4AC JUMP JUMPDEST PUSH1 0x40 MLOAD PUSH2 0x150 SWAP2 SWAP1 PUSH2 0xA94 JUMP JUMPDEST PUSH2 0x139 PUSH2 0x4B2 JUMP JUMPDEST PUSH2 0x1F7 PUSH2 0x4FD JUMP JUMPDEST PUSH2 0x143 PUSH2 0x50C JUMP JUMPDEST PUSH2 0x181 PUSH2 0x51B JUMP JUMPDEST PUSH2 0x16C PUSH2 0x232 CALLDATASIZE PUSH1 0x4 PUSH2 0xA53 JUMP JUMPDEST PUSH2 0x521 JUMP JUMPDEST PUSH2 0x16C PUSH2 0x245 CALLDATASIZE PUSH1 0x4 PUSH2 0xA53 JUMP JUMPDEST PUSH2 0x582 JUMP JUMPDEST PUSH2 0x181 PUSH2 0x258 CALLDATASIZE PUSH1 0x4 PUSH2 0x9E6 JUMP JUMPDEST PUSH2 0x59A JUMP JUMPDEST PUSH2 0x139 PUSH2 0x26B CALLDATASIZE PUSH1 0x4 PUSH2 0x9C5 JUMP JUMPDEST PUSH2 0x5C5 JUMP JUMPDEST PUSH2 0x139 PUSH2 0x27E CALLDATASIZE PUSH1 0x4 PUSH2 0x9C5 JUMP JUMPDEST PUSH2 0x625 JUMP JUMPDEST PUSH2 0x28B PUSH2 0x696 JUMP JUMPDEST PUSH1 0x1 PUSH1 0x1 PUSH1 0xA0 SHL SUB AND PUSH2 0x29C PUSH2 0x4FD JUMP JUMPDEST PUSH1 0x1 PUSH1 0x1 PUSH1 0xA0 SHL SUB AND EQ PUSH2 0x2CB JUMPI PUSH1 0x40 MLOAD PUSH3 0x461BCD PUSH1 0xE5 SHL DUP2 MSTORE PUSH1 0x4 ADD PUSH2 0x2C2 SWAP1 PUSH2 0xC85 JUMP JUMPDEST PUSH1 0x40 MLOAD DUP1 SWAP2 SUB SWAP1 REVERT JUMPDEST PUSH1 0xA DUP2 GT ISZERO PUSH2 0x2EC JUMPI PUSH1 0x40 MLOAD PUSH3 0x461BCD PUSH1 0xE5 SHL DUP2 MSTORE PUSH1 0x4 ADD PUSH2 0x2C2 SWAP1 PUSH2 0xC4E JUMP JUMPDEST PUSH1 0x6 SSTORE JUMP JUMPDEST PUSH1 0x60 PUSH1 0x3 DUP1 SLOAD PUSH2 0x300 SWAP1 PUSH2 0xE0D JUMP JUMPDEST DUP1 PUSH1 0x1F ADD PUSH1 0x20 DUP1 SWAP2 DIV MUL PUSH1 0x20 ADD PUSH1 0x40 MLOAD SWAP1 DUP2 ADD PUSH1 0x40 MSTORE DUP1 SWAP3 SWAP2 SWAP1 DUP2 DUP2 MSTORE PUSH1 0x20 ADD DUP3 DUP1 SLOAD PUSH2 0x32C SWAP1 PUSH2 0xE0D JUMP JUMPDEST DUP1 ISZERO PUSH2 0x379 JUMPI DUP1 PUSH1 0x1F LT PUSH2 0x34E JUMPI PUSH2 0x100 DUP1 DUP4 SLOAD DIV MUL DUP4 MSTORE SWAP2 PUSH1 0x20 ADD SWAP2 PUSH2 0x379 JUMP JUMPDEST DUP3 ADD SWAP2 SWAP1 PUSH1 0x0 MSTORE PUSH1 0x20 PUSH1 0x0 KECCAK256 SWAP1 JUMPDEST DUP2 SLOAD DUP2 MSTORE SWAP1 PUSH1 0x1 ADD SWAP1 PUSH1 0x20 ADD DUP1 DUP4 GT PUSH2 0x35C JUMPI DUP3 SWAP1 SUB PUSH1 0x1F AND DUP3 ADD SWAP2 JUMPDEST POP POP POP POP POP SWAP1 POP SWAP1 JUMP JUMPDEST PUSH1 0x0 DUP1 PUSH2 0x38E PUSH2 0x696 JUMP JUMPDEST SWAP1 POP PUSH2 0x39B DUP2 DUP6 DUP6 PUSH2 0x69A JUMP JUMPDEST POP PUSH1 0x1 SWAP4 SWAP3 POP POP POP JUMP JUMPDEST PUSH1 0x2 SLOAD SWAP1 JUMP JUMPDEST PUSH1 0x0 DUP1 PUSH2 0x3B6 PUSH2 0x696 JUMP JUMPDEST SWAP1 POP PUSH2 0x3C3 DUP6 DUP3 DUP6 PUSH2 0x74E JUMP JUMPDEST PUSH2 0x3CE DUP6 DUP6 DUP6 PUSH2 0x798 JUMP JUMPDEST POP PUSH1 0x1 SWAP5 SWAP4 POP POP POP POP JUMP JUMPDEST PUSH1 0x12 SWAP1 JUMP JUMPDEST PUSH1 0x0 DUP1 PUSH2 0x3E9 PUSH2 0x696 JUMP JUMPDEST PUSH1 0x1 PUSH1 0x1 PUSH1 0xA0 SHL SUB DUP1 DUP3 AND PUSH1 0x0 SWAP1 DUP2 MSTORE PUSH1 0x1 PUSH1 0x20 SWAP1 DUP2 MSTORE PUSH1 0x40 DUP1 DUP4 KECCAK256 SWAP4 DUP10 AND DUP4 MSTORE SWAP3 SWAP1 MSTORE KECCAK256 SLOAD SWAP1 SWAP2 POP PUSH2 0x39B SWAP1 DUP3 SWAP1 DUP7 SWAP1 PUSH2 0x425 SWAP1 DUP8 SWAP1 PUSH2 0xD9F JUMP JUMPDEST PUSH2 0x69A JUMP JUMPDEST PUSH2 0x432 PUSH2 0x696 JUMP JUMPDEST PUSH1 0x1 PUSH1 0x1 PUSH1 0xA0 SHL SUB AND PUSH2 0x443 PUSH2 0x4FD JUMP JUMPDEST PUSH1 0x1 PUSH1 0x1 PUSH1 0xA0 SHL SUB AND EQ PUSH2 0x469 JUMPI PUSH1 0x40 MLOAD PUSH3 0x461BCD PUSH1 0xE5 SHL DUP2 MSTORE PUSH1 0x4 ADD PUSH2 0x2C2 SWAP1 PUSH2 0xC85 JUMP JUMPDEST PUSH1 0x1 PUSH1 0x1 PUSH1 0xA0 SHL SUB AND PUSH1 0x0 SWAP1 DUP2 MSTORE PUSH1 0x7 PUSH1 0x20 MSTORE PUSH1 0x40 SWAP1 KECCAK256 DUP1 SLOAD PUSH1 0xFF NOT AND PUSH1 0x1 OR SWAP1 SSTORE JUMP JUMPDEST PUSH1 0x1 PUSH1 0x1 PUSH1 0xA0 SHL SUB DUP2 AND PUSH1 0x0 SWAP1 DUP2 MSTORE PUSH1 0x20 DUP2 SWAP1 MSTORE PUSH1 0x40 SWAP1 KECCAK256 SLOAD JUMPDEST SWAP2 SWAP1 POP JUMP JUMPDEST PUSH2 0xDEAD DUP2 JUMP JUMPDEST PUSH2 0x4BA PUSH2 0x696 JUMP JUMPDEST PUSH1 0x1 PUSH1 0x1 PUSH1 0xA0 SHL SUB AND PUSH2 0x4CB PUSH2 0x4FD JUMP JUMPDEST PUSH1 0x1 PUSH1 0x1 PUSH1 0xA0 SHL SUB AND EQ PUSH2 0x4F1 JUMPI PUSH1 0x40 MLOAD PUSH3 0x461BCD PUSH1 0xE5 SHL DUP2 MSTORE PUSH1 0x4 ADD PUSH2 0x2C2 SWAP1 PUSH2 0xC85 JUMP JUMPDEST PUSH2 0x4FB PUSH1 0x0 PUSH2 0x838 JUMP JUMPDEST JUMP JUMPDEST PUSH1 0x5 SLOAD PUSH1 0x1 PUSH1 0x1 PUSH1 0xA0 SHL SUB AND SWAP1 JUMP JUMPDEST PUSH1 0x60 PUSH1 0x4 DUP1 SLOAD PUSH2 0x300 SWAP1 PUSH2 0xE0D JUMP JUMPDEST PUSH1 0x6 SLOAD DUP2 JUMP JUMPDEST PUSH1 0x0 DUP1 PUSH2 0x52C PUSH2 0x696 JUMP JUMPDEST PUSH1 0x1 PUSH1 0x1 PUSH1 0xA0 SHL SUB DUP1 DUP3 AND PUSH1 0x0 SWAP1 DUP2 MSTORE PUSH1 0x1 PUSH1 0x20 SWAP1 DUP2 MSTORE PUSH1 0x40 DUP1 DUP4 KECCAK256 SWAP4 DUP10 AND DUP4 MSTORE SWAP3 SWAP1 MSTORE KECCAK256 SLOAD SWAP1 SWAP2 POP DUP4 DUP2 LT ISZERO PUSH2 0x575 JUMPI PUSH1 0x40 MLOAD PUSH3 0x461BCD PUSH1 0xE5 SHL DUP2 MSTORE PUSH1 0x4 ADD PUSH2 0x2C2 SWAP1 PUSH2 0xD43 JUMP JUMPDEST PUSH2 0x3CE DUP3 DUP7 DUP7 DUP5 SUB PUSH2 0x69A JUMP JUMPDEST PUSH1 0x0 DUP1 PUSH2 0x58D PUSH2 0x696 JUMP JUMPDEST SWAP1 POP PUSH2 0x39B DUP2 DUP6 DUP6 PUSH2 0x798 JUMP JUMPDEST PUSH1 0x1 PUSH1 0x1 PUSH1 0xA0 SHL SUB SWAP2 DUP3 AND PUSH1 0x0 SWAP1 DUP2 MSTORE PUSH1 0x1 PUSH1 0x20 SWAP1 DUP2 MSTORE PUSH1 0x40 DUP1 DUP4 KECCAK256 SWAP4 SWAP1 SWAP5 AND DUP3 MSTORE SWAP2 SWAP1 SWAP2 MSTORE KECCAK256 SLOAD SWAP1 JUMP JUMPDEST PUSH2 0x5CD PUSH2 0x696 JUMP JUMPDEST PUSH1 0x1 PUSH1 0x1 PUSH1 0xA0 SHL SUB AND PUSH2 0x5DE PUSH2 0x4FD JUMP JUMPDEST PUSH1 0x1 PUSH1 0x1 PUSH1 0xA0 SHL SUB AND EQ PUSH2 0x604 JUMPI PUSH1 0x40 MLOAD PUSH3 0x461BCD PUSH1 0xE5 SHL DUP2 MSTORE PUSH1 0x4 ADD PUSH2 0x2C2 SWAP1 PUSH2 0xC85 JUMP JUMPDEST PUSH1 0x1 PUSH1 0x1 PUSH1 0xA0 SHL SUB AND PUSH1 0x0 SWAP1 DUP2 MSTORE PUSH1 0x7 PUSH1 0x20 MSTORE PUSH1 0x40 SWAP1 KECCAK256 DUP1 SLOAD PUSH1 0xFF NOT AND SWAP1 SSTORE JUMP JUMPDEST PUSH2 0x62D PUSH2 0x696 JUMP JUMPDEST PUSH1 0x1 PUSH1 0x1 PUSH1 0xA0 SHL SUB AND PUSH2 0x63E PUSH2 0x4FD JUMP JUMPDEST PUSH1 0x1 PUSH1 0x1 PUSH1 0xA0 SHL SUB AND EQ PUSH2 0x664 JUMPI PUSH1 0x40 MLOAD PUSH3 0x461BCD PUSH1 0xE5 SHL DUP2 MSTORE PUSH1 0x4 ADD PUSH2 0x2C2 SWAP1 PUSH2 0xC85 JUMP JUMPDEST PUSH1 0x1 PUSH1 0x1 PUSH1 0xA0 SHL SUB DUP2 AND PUSH2 0x68A JUMPI PUSH1 0x40 MLOAD PUSH3 0x461BCD PUSH1 0xE5 SHL DUP2 MSTORE PUSH1 0x4 ADD PUSH2 0x2C2 SWAP1 PUSH2 0xB49 JUMP JUMPDEST PUSH2 0x693 DUP2 PUSH2 0x838 JUMP JUMPDEST POP JUMP JUMPDEST CALLER SWAP1 JUMP JUMPDEST PUSH1 0x1 PUSH1 0x1 PUSH1 0xA0 SHL SUB DUP4 AND PUSH2 0x6C0 JUMPI PUSH1 0x40 MLOAD PUSH3 0x461BCD PUSH1 0xE5 SHL DUP2 MSTORE PUSH1 0x4 ADD PUSH2 0x2C2 SWAP1 PUSH2 0xCFF JUMP JUMPDEST PUSH1 0x1 PUSH1 0x1 PUSH1 0xA0 SHL SUB DUP3 AND PUSH2 0x6E6 JUMPI PUSH1 0x40 MLOAD PUSH3 0x461BCD PUSH1 0xE5 SHL DUP2 MSTORE PUSH1 0x4 ADD PUSH2 0x2C2 SWAP1 PUSH2 0xB8F JUMP JUMPDEST PUSH1 0x1 PUSH1 0x1 PUSH1 0xA0 SHL SUB DUP1 DUP5 AND PUSH1 0x0 DUP2 DUP2 MSTORE PUSH1 0x1 PUSH1 0x20 SWAP1 DUP2 MSTORE PUSH1 0x40 DUP1 DUP4 KECCAK256 SWAP5 DUP8 AND DUP1 DUP5 MSTORE SWAP5 SWAP1 SWAP2 MSTORE SWAP1 DUP2 SWAP1 KECCAK256 DUP5 SWAP1 SSTORE MLOAD PUSH32 0x8C5BE1E5EBEC7D5BD14F71427D1E84F3DD0314C0F7B2291E5B200AC8C7C3B925 SWAP1 PUSH2 0x741 SWAP1 DUP6 SWAP1 PUSH2 0xD88 JUMP JUMPDEST PUSH1 0x40 MLOAD DUP1 SWAP2 SUB SWAP1 LOG3 POP POP POP JUMP JUMPDEST PUSH1 0x0 PUSH2 0x75A DUP5 DUP5 PUSH2 0x59A JUMP JUMPDEST SWAP1 POP PUSH1 0x0 NOT DUP2 EQ PUSH2 0x792 JUMPI DUP2 DUP2 LT ISZERO PUSH2 0x785 JUMPI PUSH1 0x40 MLOAD PUSH3 0x461BCD PUSH1 0xE5 SHL DUP2 MSTORE PUSH1 0x4 ADD PUSH2 0x2C2 SWAP1 PUSH2 0xBD1 JUMP JUMPDEST PUSH2 0x792 DUP5 DUP5 DUP5 DUP5 SUB PUSH2 0x69A JUMP JUMPDEST POP POP POP POP JUMP JUMPDEST PUSH1 0x1 PUSH1 0x1 PUSH1 0xA0 SHL SUB DUP4 AND PUSH1 0x0 SWAP1 DUP2 MSTORE PUSH1 0x7 PUSH1 0x20 MSTORE PUSH1 0x40 SWAP1 KECCAK256 SLOAD PUSH1 0xFF AND DUP1 PUSH2 0x7D7 JUMPI POP PUSH1 0x1 PUSH1 0x1 PUSH1 0xA0 SHL SUB DUP3 AND PUSH1 0x0 SWAP1 DUP2 MSTORE PUSH1 0x7 PUSH1 0x20 MSTORE PUSH1 0x40 SWAP1 KECCAK256 SLOAD PUSH1 0xFF AND JUMPDEST ISZERO PUSH2 0x7EC JUMPI PUSH2 0x7E7 DUP4 DUP4 DUP4 PUSH2 0x88A JUMP JUMPDEST PUSH2 0x833 JUMP JUMPDEST PUSH1 0x0 PUSH1 0x64 PUSH1 0x6 SLOAD DUP4 PUSH2 0x7FE SWAP2 SWAP1 PUSH2 0xDD7 JUMP JUMPDEST PUSH2 0x808 SWAP2 SWAP1 PUSH2 0xDB7 JUMP JUMPDEST SWAP1 POP PUSH1 0x0 PUSH2 0x816 DUP3 DUP5 PUSH2 0xDF6 JUMP JUMPDEST SWAP1 POP PUSH2 0x825 DUP6 PUSH2 0xDEAD DUP5 PUSH2 0x88A JUMP JUMPDEST PUSH2 0x830 DUP6 DUP6 DUP4 PUSH2 0x88A JUMP JUMPDEST POP POP JUMPDEST POP POP POP JUMP JUMPDEST PUSH1 0x5 DUP1 SLOAD PUSH1 0x1 PUSH1 0x1 PUSH1 0xA0 SHL SUB DUP4 DUP2 AND PUSH1 0x1 PUSH1 0x1 PUSH1 0xA0 SHL SUB NOT DUP4 AND DUP2 OR SWAP1 SWAP4 SSTORE PUSH1 0x40 MLOAD SWAP2 AND SWAP2 SWAP1 DUP3 SWAP1 PUSH32 0x8BE0079C531659141344CD1FD0A4F28419497F9722A3DAAFE3B4186F6B6457E0 SWAP1 PUSH1 0x0 SWAP1 LOG3 POP POP JUMP JUMPDEST PUSH1 0x1 PUSH1 0x1 PUSH1 0xA0 SHL SUB DUP4 AND PUSH2 0x8B0 JUMPI PUSH1 0x40 MLOAD PUSH3 0x461BCD PUSH1 0xE5 SHL DUP2 MSTORE PUSH1 0x4 ADD PUSH2 0x2C2 SWAP1 PUSH2 0xCBA JUMP JUMPDEST PUSH1 0x1 PUSH1 0x1 PUSH1 0xA0 SHL SUB DUP3 AND PUSH2 0x8D6 JUMPI PUSH1 0x40 MLOAD PUSH3 0x461BCD PUSH1 0xE5 SHL DUP2 MSTORE PUSH1 0x4 ADD PUSH2 0x2C2 SWAP1 PUSH2 0xB06 JUMP JUMPDEST PUSH2 0x8E1 DUP4 DUP4 DUP4 PUSH2 0x833 JUMP JUMPDEST PUSH1 0x1 PUSH1 0x1 PUSH1 0xA0 SHL SUB DUP4 AND PUSH1 0x0 SWAP1 DUP2 MSTORE PUSH1 0x20 DUP2 SWAP1 MSTORE PUSH1 0x40 SWAP1 KECCAK256 SLOAD DUP2 DUP2 LT ISZERO PUSH2 0x91A JUMPI PUSH1 0x40 MLOAD PUSH3 0x461BCD PUSH1 0xE5 SHL DUP2 MSTORE PUSH1 0x4 ADD PUSH2 0x2C2 SWAP1 PUSH2 0xC08 JUMP JUMPDEST PUSH1 0x1 PUSH1 0x1 PUSH1 0xA0 SHL SUB DUP1 DUP6 AND PUSH1 0x0 SWAP1 DUP2 MSTORE PUSH1 0x20 DUP2 SWAP1 MSTORE PUSH1 0x40 DUP1 DUP3 KECCAK256 DUP6 DUP6 SUB SWAP1 SSTORE SWAP2 DUP6 AND DUP2 MSTORE SWAP1 DUP2 KECCAK256 DUP1 SLOAD DUP5 SWAP3 SWAP1 PUSH2 0x951 SWAP1 DUP5 SWAP1 PUSH2 0xD9F JUMP JUMPDEST SWAP3 POP POP DUP2 SWAP1 SSTORE POP DUP3 PUSH1 0x1 PUSH1 0x1 PUSH1 0xA0 SHL SUB AND DUP5 PUSH1 0x1 PUSH1 0x1 PUSH1 0xA0 SHL SUB AND PUSH32 0xDDF252AD1BE2C89B69C2B068FC378DAA952BA7F163C4A11628F55A4DF523B3EF DUP5 PUSH1 0x40 MLOAD PUSH2 0x99B SWAP2 SWAP1 PUSH2 0xD88 JUMP JUMPDEST PUSH1 0x40 MLOAD DUP1 SWAP2 SUB SWAP1 LOG3 PUSH2 0x792 DUP5 DUP5 DUP5 PUSH2 0x833 JUMP JUMPDEST DUP1 CALLDATALOAD PUSH1 0x1 PUSH1 0x1 PUSH1 0xA0 SHL SUB DUP2 AND DUP2 EQ PUSH2 0x4A7 JUMPI PUSH1 0x0 DUP1 REVERT JUMPDEST PUSH1 0x0 PUSH1 0x20 DUP3 DUP5 SUB SLT ISZERO PUSH2 0x9D6 JUMPI DUP1 DUP2 REVERT JUMPDEST PUSH2 0x9DF DUP3 PUSH2 0x9AE JUMP JUMPDEST SWAP4 SWAP3 POP POP POP JUMP JUMPDEST PUSH1 0x0 DUP1 PUSH1 0x40 DUP4 DUP6 SUB SLT ISZERO PUSH2 0x9F8 JUMPI DUP1 DUP2 REVERT JUMPDEST PUSH2 0xA01 DUP4 PUSH2 0x9AE JUMP JUMPDEST SWAP2 POP PUSH2 0xA0F PUSH1 0x20 DUP5 ADD PUSH2 0x9AE JUMP JUMPDEST SWAP1 POP SWAP3 POP SWAP3 SWAP1 POP JUMP JUMPDEST PUSH1 0x0 DUP1 PUSH1 0x0 PUSH1 0x60 DUP5 DUP7 SUB SLT ISZERO PUSH2 0xA2C JUMPI DUP1 DUP2 REVERT JUMPDEST PUSH2 0xA35 DUP5 PUSH2 0x9AE JUMP JUMPDEST SWAP3 POP PUSH2 0xA43 PUSH1 0x20 DUP6 ADD PUSH2 0x9AE JUMP JUMPDEST SWAP2 POP PUSH1 0x40 DUP5 ADD CALLDATALOAD SWAP1 POP SWAP3 POP SWAP3 POP SWAP3 JUMP JUMPDEST PUSH1 0x0 DUP1 PUSH1 0x40 DUP4 DUP6 SUB SLT ISZERO PUSH2 0xA65 JUMPI DUP2 DUP3 REVERT JUMPDEST PUSH2 0xA6E DUP4 PUSH2 0x9AE JUMP JUMPDEST SWAP5 PUSH1 0x20 SWAP4 SWAP1 SWAP4 ADD CALLDATALOAD SWAP4 POP POP POP JUMP JUMPDEST PUSH1 0x0 PUSH1 0x20 DUP3 DUP5 SUB SLT ISZERO PUSH2 0xA8D JUMPI DUP1 DUP2 REVERT JUMPDEST POP CALLDATALOAD SWAP2 SWAP1 POP JUMP JUMPDEST PUSH1 0x1 PUSH1 0x1 PUSH1 0xA0 SHL SUB SWAP2 SWAP1 SWAP2 AND DUP2 MSTORE PUSH1 0x20 ADD SWAP1 JUMP JUMPDEST SWAP1 ISZERO ISZERO DUP2 MSTORE PUSH1 0x20 ADD SWAP1 JUMP JUMPDEST PUSH1 0x0 PUSH1 0x20 DUP1 DUP4 MSTORE DUP4 MLOAD DUP1 DUP3 DUP6 ADD MSTORE DUP3 JUMPDEST DUP2 DUP2 LT ISZERO PUSH2 0xADF JUMPI DUP6 DUP2 ADD DUP4 ADD MLOAD DUP6 DUP3 ADD PUSH1 0x40 ADD MSTORE DUP3 ADD PUSH2 0xAC3 JUMP JUMPDEST DUP2 DUP2 GT ISZERO PUSH2 0xAF0 JUMPI DUP4 PUSH1 0x40 DUP4 DUP8 ADD ADD MSTORE JUMPDEST POP PUSH1 0x1F ADD PUSH1 0x1F NOT AND SWAP3 SWAP1 SWAP3 ADD PUSH1 0x40 ADD SWAP4 SWAP3 POP POP POP JUMP JUMPDEST PUSH1 0x20 DUP1 DUP3 MSTORE PUSH1 0x23 SWAP1 DUP3 ADD MSTORE PUSH32 0x45524332303A207472616E7366657220746F20746865207A65726F2061646472 PUSH1 0x40 DUP3 ADD MSTORE PUSH3 0x657373 PUSH1 0xE8 SHL PUSH1 0x60 DUP3 ADD MSTORE PUSH1 0x80 ADD SWAP1 JUMP JUMPDEST PUSH1 0x20 DUP1 DUP3 MSTORE PUSH1 0x26 SWAP1 DUP3 ADD MSTORE PUSH32 0x4F776E61626C653A206E6577206F776E657220697320746865207A65726F2061 PUSH1 0x40 DUP3 ADD MSTORE PUSH6 0x646472657373 PUSH1 0xD0 SHL PUSH1 0x60 DUP3 ADD MSTORE PUSH1 0x80 ADD SWAP1 JUMP JUMPDEST PUSH1 0x20 DUP1 DUP3 MSTORE PUSH1 0x22 SWAP1 DUP3 ADD MSTORE PUSH32 0x45524332303A20617070726F766520746F20746865207A65726F206164647265 PUSH1 0x40 DUP3 ADD MSTORE PUSH2 0x7373 PUSH1 0xF0 SHL PUSH1 0x60 DUP3 ADD MSTORE PUSH1 0x80 ADD SWAP1 JUMP JUMPDEST PUSH1 0x20 DUP1 DUP3 MSTORE PUSH1 0x1D SWAP1 DUP3 ADD MSTORE PUSH32 0x45524332303A20696E73756666696369656E7420616C6C6F77616E6365000000 PUSH1 0x40 DUP3 ADD MSTORE PUSH1 0x60 ADD SWAP1 JUMP JUMPDEST PUSH1 0x20 DUP1 DUP3 MSTORE PUSH1 0x26 SWAP1 DUP3 ADD MSTORE PUSH32 0x45524332303A207472616E7366657220616D6F756E7420657863656564732062 PUSH1 0x40 DUP3 ADD MSTORE PUSH6 0x616C616E6365 PUSH1 0xD0 SHL PUSH1 0x60 DUP3 ADD MSTORE PUSH1 0x80 ADD SWAP1 JUMP JUMPDEST PUSH1 0x20 DUP1 DUP3 MSTORE PUSH1 0x1E SWAP1 DUP3 ADD MSTORE PUSH32 0x466565206D757374206265206265747765656E20302520616E64203130250000 PUSH1 0x40 DUP3 ADD MSTORE PUSH1 0x60 ADD SWAP1 JUMP JUMPDEST PUSH1 0x20 DUP1 DUP3 MSTORE DUP2 DUP2 ADD MSTORE PUSH32 0x4F776E61626C653A2063616C6C6572206973206E6F7420746865206F776E6572 PUSH1 0x40 DUP3 ADD MSTORE PUSH1 0x60 ADD SWAP1 JUMP JUMPDEST PUSH1 0x20 DUP1 DUP3 MSTORE PUSH1 0x25 SWAP1 DUP3 ADD MSTORE PUSH32 0x45524332303A207472616E736665722066726F6D20746865207A65726F206164 PUSH1 0x40 DUP3 ADD MSTORE PUSH5 0x6472657373 PUSH1 0xD8 SHL PUSH1 0x60 DUP3 ADD MSTORE PUSH1 0x80 ADD SWAP1 JUMP JUMPDEST PUSH1 0x20 DUP1 DUP3 MSTORE PUSH1 0x24 SWAP1 DUP3 ADD MSTORE PUSH32 0x45524332303A20617070726F76652066726F6D20746865207A65726F20616464 PUSH1 0x40 DUP3 ADD MSTORE PUSH4 0x72657373 PUSH1 0xE0 SHL PUSH1 0x60 DUP3 ADD MSTORE PUSH1 0x80 ADD SWAP1 JUMP JUMPDEST PUSH1 0x20 DUP1 DUP3 MSTORE PUSH1 0x25 SWAP1 DUP3 ADD MSTORE PUSH32 0x45524332303A2064656372656173656420616C6C6F77616E63652062656C6F77 PUSH1 0x40 DUP3 ADD MSTORE PUSH5 0x207A65726F PUSH1 0xD8 SHL PUSH1 0x60 DUP3 ADD MSTORE PUSH1 0x80 ADD SWAP1 JUMP JUMPDEST SWAP1 DUP2 MSTORE PUSH1 0x20 ADD SWAP1 JUMP JUMPDEST PUSH1 0xFF SWAP2 SWAP1 SWAP2 AND DUP2 MSTORE PUSH1 0x20 ADD SWAP1 JUMP JUMPDEST PUSH1 0x0 DUP3 NOT DUP3 GT ISZERO PUSH2 0xDB2 JUMPI PUSH2 0xDB2 PUSH2 0xE48 JUMP JUMPDEST POP ADD SWAP1 JUMP JUMPDEST PUSH1 0x0 DUP3 PUSH2 0xDD2 JUMPI PUSH4 0x4E487B71 PUSH1 0xE0 SHL DUP2 MSTORE PUSH1 0x12 PUSH1 0x4 MSTORE PUSH1 0x24 DUP2 REVERT JUMPDEST POP DIV SWAP1 JUMP JUMPDEST PUSH1 0x0 DUP2 PUSH1 0x0 NOT DIV DUP4 GT DUP3 ISZERO ISZERO AND ISZERO PUSH2 0xDF1 JUMPI PUSH2 0xDF1 PUSH2 0xE48 JUMP JUMPDEST POP MUL SWAP1 JUMP JUMPDEST PUSH1 0x0 DUP3 DUP3 LT ISZERO PUSH2 0xE08 JUMPI PUSH2 0xE08 PUSH2 0xE48 JUMP JUMPDEST POP SUB SWAP1 JUMP JUMPDEST PUSH1 0x2 DUP2 DIV PUSH1 0x1 DUP3 AND DUP1 PUSH2 0xE21 JUMPI PUSH1 0x7F DUP3 AND SWAP2 POP JUMPDEST PUSH1 0x20 DUP3 LT DUP2 EQ ISZERO PUSH2 0xE42 JUMPI PUSH4 0x4E487B71 PUSH1 0xE0 SHL PUSH1 0x0 MSTORE PUSH1 0x22 PUSH1 0x4 MSTORE PUSH1 0x24 PUSH1 0x0 REVERT JUMPDEST POP SWAP2 SWAP1 POP JUMP JUMPDEST PUSH4 0x4E487B71 PUSH1 0xE0 SHL PUSH1 0x0 MSTORE PUSH1 0x11 PUSH1 0x4 MSTORE PUSH1 0x24 PUSH1 0x0 REVERT INVALID LOG2 PUSH5 0x6970667358 0x22 SLT KECCAK256 PUSH16 0xFDEA4EBB53E14C3BBD82D52A443DB5BE SWAP11 0xA6 SWAP16 0xB8 0xC9 0xBD DUP4 DUP11 0x5E PUSH20 0x27CF9C207864736F6C6343000800003300000000 "
				},
				"gasEstimates": {
					"creation": {
						"codeDepositCost": "746400",
						"executionCost": "infinite",
						"totalCost": "infinite"
					},
					"external": {
						"allowance(address,address)": "infinite",
						"approve(address,uint256)": "22664",
						"balanceOf(address)": "infinite",
						"burnAddress()": "275",
						"decimals()": "285",
						"decreaseAllowance(address,uint256)": "23623",
						"excludeFromFee(address)": "22229",
						"includeInFee(address)": "22222",
						"increaseAllowance(address,uint256)": "23713",
						"name()": "infinite",
						"owner()": "1137",
						"renounceOwnership()": "23552",
						"setTaxFeePercent(uint256)": "21204",
						"symbol()": "infinite",
						"taxFee()": "1139",
						"totalSupply()": "1118",
						"transfer(address,uint256)": "infinite",
						"transferFrom(address,address,uint256)": "infinite",
						"transferOwnership(address)": "23812"
					},
					"internal": {
						"_transfer(address,address,uint256)": "infinite"
					}
				},
				"methodIdentifiers": {
					"allowance(address,address)": "dd62ed3e",
					"approve(address,uint256)": "095ea7b3",
					"balanceOf(address)": "70a08231",
					"burnAddress()": "70d5ae05",
					"decimals()": "313ce567",
					"decreaseAllowance(address,uint256)": "a457c2d7",
					"excludeFromFee(address)": "437823ec",
					"includeInFee(address)": "ea2f0b37",
					"increaseAllowance(address,uint256)": "39509351",
					"name()": "06fdde03",
					"owner()": "8da5cb5b",
					"renounceOwnership()": "715018a6",
					"setTaxFeePercent(uint256)": "061c82d0",
					"symbol()": "95d89b41",
					"taxFee()": "a071dcf4",
					"totalSupply()": "18160ddd",
					"transfer(address,uint256)": "a9059cbb",
					"transferFrom(address,address,uint256)": "23b872dd",
					"transferOwnership(address)": "f2fde38b"
				}
			},
			"storageLayout": {
				"storage": [
					{
						"astId": 281,
						"contract": "UfoZiomToken.sol:UfoZiomToken",
						"label": "_balances",
						"offset": 0,
						"slot": "0",
						"type": "t_mapping(t_address,t_uint256)"
					},
					{
						"astId": 287,
						"contract": "UfoZiomToken.sol:UfoZiomToken",
						"label": "_allowances",
						"offset": 0,
						"slot": "1",
						"type": "t_mapping(t_address,t_mapping(t_address,t_uint256))"
					},
					{
						"astId": 289,
						"contract": "UfoZiomToken.sol:UfoZiomToken",
						"label": "_totalSupply",
						"offset": 0,
						"slot": "2",
						"type": "t_uint256"
					},
					{
						"astId": 291,
						"contract": "UfoZiomToken.sol:UfoZiomToken",
						"label": "_name",
						"offset": 0,
						"slot": "3",
						"type": "t_string_storage"
					},
					{
						"astId": 293,
						"contract": "UfoZiomToken.sol:UfoZiomToken",
						"label": "_symbol",
						"offset": 0,
						"slot": "4",
						"type": "t_string_storage"
					},
					{
						"astId": 168,
						"contract": "UfoZiomToken.sol:UfoZiomToken",
						"label": "_owner",
						"offset": 0,
						"slot": "5",
						"type": "t_address"
					},
					{
						"astId": 14,
						"contract": "UfoZiomToken.sol:UfoZiomToken",
						"label": "taxFee",
						"offset": 0,
						"slot": "6",
						"type": "t_uint256"
					},
					{
						"astId": 18,
						"contract": "UfoZiomToken.sol:UfoZiomToken",
						"label": "_isExcludedFromFee",
						"offset": 0,
						"slot": "7",
						"type": "t_mapping(t_address,t_bool)"
					}
				],
				"types": {
					"t_address": {
						"encoding": "inplace",
						"label": "address",
						"numberOfBytes": "20"
					},
					"t_bool": {
						"encoding": "inplace",
						"label": "bool",
						"numberOfBytes": "1"
					},
					"t_mapping(t_address,t_bool)": {
						"encoding": "mapping",
						"key": "t_address",
						"label": "mapping(address => bool)",
						"numberOfBytes": "32",
						"value": "t_bool"
					},
					"t_mapping(t_address,t_mapping(t_address,t_uint256))": {
						"encoding": "mapping",
						"key": "t_address",
						"label": "mapping(address => mapping(address => uint256))",
						"numberOfBytes": "32",
						"value": "t_mapping(t_address,t_uint256)"
					},
					"t_mapping(t_address,t_uint256)": {
						"encoding": "mapping",
						"key": "t_address",
						"label": "mapping(address => uint256)",
						"numberOfBytes": "32",
						"value": "t_uint256"
					},
					"t_string_storage": {
						"encoding": "bytes",
						"label": "string",
						"numberOfBytes": "32"
					},
					"t_uint256": {
						"encoding": "inplace",
						"label": "uint256",
						"numberOfBytes": "32"
					}
				}
			},
			"userdoc": {
				"kind": "user",
				"methods": {},
				"version": 1
			}
		}
	}
}