{
	"UfoZiomToken_flattened.sol": {
		"UfoZiomToken": {
			"abi": [
				{
					"inputs": [],
					"stateMutability": "nonpayable",
					"type": "constructor"
				},
				{
					"anonymous": false,
					"inputs": [
						{
							"indexed": true,
							"internalType": "address",
							"name": "owner",
							"type": "address"
						},
						{
							"indexed": true,
							"internalType": "address",
							"name": "spender",
							"type": "address"
						},
						{
							"indexed": false,
							"internalType": "uint256",
							"name": "value",
							"type": "uint256"
						}
					],
					"name": "Approval",
					"type": "event"
				},
				{
					"anonymous": false,
					"inputs": [
						{
							"indexed": true,
							"internalType": "address",
							"name": "previousOwner",
							"type": "address"
						},
						{
							"indexed": true,
							"internalType": "address",
							"name": "newOwner",
							"type": "address"
						}
					],
					"name": "OwnershipTransferred",
					"type": "event"
				},
				{
					"anonymous": false,
					"inputs": [
						{
							"indexed": true,
							"internalType": "address",
							"name": "from",
							"type": "address"
						},
						{
							"indexed": true,
							"internalType": "address",
							"name": "to",
							"type": "address"
						},
						{
							"indexed": false,
							"internalType": "uint256",
							"name": "value",
							"type": "uint256"
						}
					],
					"name": "Transfer",
					"type": "event"
				},
				{
					"inputs": [
						{
							"internalType": "address",
							"name": "owner",
							"type": "address"
						},
						{
							"internalType": "address",
							"name": "spender",
							"type": "address"
						}
					],
					"name": "allowance",
					"outputs": [
						{
							"internalType": "uint256",
							"name": "",
							"type": "uint256"
						}
					],
					"stateMutability": "view",
					"type": "function"
				},
				{
					"inputs": [
						{
							"internalType": "address",
							"name": "spender",
							"type": "address"
						},
						{
							"internalType": "uint256",
							"name": "amount",
							"type": "uint256"
						}
					],
					"name": "approve",
					"outputs": [
						{
							"internalType": "bool",
							"name": "",
							"type": "bool"
						}
					],
					"stateMutability": "nonpayable",
					"type": "function"
				},
				{
					"inputs": [
						{
							"internalType": "address",
							"name": "account",
							"type": "address"
						}
					],
					"name": "balanceOf",
					"outputs": [
						{
							"internalType": "uint256",
							"name": "",
							"type": "uint256"
						}
					],
					"stateMutability": "view",
					"type": "function"
				},
				{
					"inputs": [],
					"name": "burnAddress",
					"outputs": [
						{
							"internalType": "address",
							"name": "",
							"type": "address"
						}
					],
					"stateMutability": "view",
					"type": "function"
				},
				{
					"inputs": [],
					"name": "decimals",
					"outputs": [
						{
							"internalType": "uint8",
							"name": "",
							"type": "uint8"
						}
					],
					"stateMutability": "view",
					"type": "function"
				},
				{
					"inputs": [
						{
							"internalType": "address",
							"name": "spender",
							"type": "address"
						},
						{
							"internalType": "uint256",
							"name": "subtractedValue",
							"type": "uint256"
						}
					],
					"name": "decreaseAllowance",
					"outputs": [
						{
							"internalType": "bool",
							"name": "",
							"type": "bool"
						}
					],
					"stateMutability": "nonpayable",
					"type": "function"
				},
				{
					"inputs": [
						{
							"internalType": "address",
							"name": "account",
							"type": "address"
						}
					],
					"name": "excludeFromFee",
					"outputs": [],
					"stateMutability": "nonpayable",
					"type": "function"
				},
				{
					"inputs": [
						{
							"internalType": "address",
							"name": "account",
							"type": "address"
						}
					],
					"name": "includeInFee",
					"outputs": [],
					"stateMutability": "nonpayable",
					"type": "function"
				},
				{
					"inputs": [
						{
							"internalType": "address",
							"name": "spender",
							"type": "address"
						},
						{
							"internalType": "uint256",
							"name": "addedValue",
							"type": "uint256"
						}
					],
					"name": "increaseAllowance",
					"outputs": [
						{
							"internalType": "bool",
							"name": "",
							"type": "bool"
						}
					],
					"stateMutability": "nonpayable",
					"type": "function"
				},
				{
					"inputs": [],
					"name": "name",
					"outputs": [
						{
							"internalType": "string",
							"name": "",
							"type": "string"
						}
					],
					"stateMutability": "view",
					"type": "function"
				},
				{
					"inputs": [],
					"name": "owner",
					"outputs": [
						{
							"internalType": "address",
							"name": "",
							"type": "address"
						}
					],
					"stateMutability": "view",
					"type": "function"
				},
				{
					"inputs": [],
					"name": "renounceOwnership",
					"outputs": [],
					"stateMutability": "nonpayable",
					"type": "function"
				},
				{
					"inputs": [
						{
							"internalType": "uint256",
							"name": "fee",
							"type": "uint256"
						}
					],
					"name": "setTaxFeePercent",
					"outputs": [],
					"stateMutability": "nonpayable",
					"type": "function"
				},
				{
					"inputs": [],
					"name": "symbol",
					"outputs": [
						{
							"internalType": "string",
							"name": "",
							"type": "string"
						}
					],
					"stateMutability": "view",
					"type": "function"
				},
				{
					"inputs": [],
					"name": "taxFee",
					"outputs": [
						{
							"internalType": "uint256",
							"name": "",
							"type": "uint256"
						}
					],
					"stateMutability": "view",
					"type": "function"
				},
				{
					"inputs": [],
					"name": "totalSupply",
					"outputs": [
						{
							"internalType": "uint256",
							"name": "",
							"type": "uint256"
						}
					],
					"stateMutability": "view",
					"type": "function"
				},
				{
					"inputs": [
						{
							"internalType": "address",
							"name": "to",
							"type": "address"
						},
						{
							"internalType": "uint256",
							"name": "amount",
							"type": "uint256"
						}
					],
					"name": "transfer",
					"outputs": [
						{
							"internalType": "bool",
							"name": "",
							"type": "bool"
						}
					],
					"stateMutability": "nonpayable",
					"type": "function"
				},
				{
					"inputs": [
						{
							"internalType": "address",
							"name": "from",
							"type": "address"
						},
						{
							"internalType": "address",
							"name": "to",
							"type": "address"
						},
						{
							"internalType": "uint256",
							"name": "amount",
							"type": "uint256"
						}
					],
					"name": "transferFrom",
					"outputs": [
						{
							"internalType": "bool",
							"name": "",
							"type": "bool"
						}
					],
					"stateMutability": "nonpayable",
					"type": "function"
				},
				{
					"inputs": [
						{
							"internalType": "address",
							"name": "newOwner",
							"type": "address"
						}
					],
					"name": "transferOwnership",
					"outputs": [],
					"stateMutability": "nonpayable",
					"type": "function"
				}
			],
			"devdoc": {
				"details": "UfoZiom Token is an ERC20 token with a transaction fee for burning.",
				"events": {
					"Approval(address,address,uint256)": {
						"details": "Emitted when the allowance of a `spender` for an `owner` is set by a call to {approve}. `value` is the new allowance."
					},
					"Transfer(address,address,uint256)": {
						"details": "Emitted when `value` tokens are moved from one account (`from`) to another (`to`). Note that `value` may be zero."
					}
				},
				"kind": "dev",
				"methods": {
					"allowance(address,address)": {
						"details": "See {IERC20-allowance}."
					},
					"approve(address,uint256)": {
						"details": "See {IERC20-approve}. NOTE: If `amount` is the maximum `uint256`, the allowance is not updated on `transferFrom`. This is semantically equivalent to an infinite approval. Requirements: - `spender` cannot be the zero address."
					},
					"balanceOf(address)": {
						"details": "See {IERC20-balanceOf}."
					},
					"constructor": {
						"details": "Constructor that gives msg.sender all of existing tokens and excludes owner from fee."
					},
					"decimals()": {
						"details": "Returns the number of decimals used to get its user representation. For example, if `decimals` equals `2`, a balance of `505` tokens should be displayed to a user as `5.05` (`505 / 10 ** 2`). Tokens usually opt for a value of 18, imitating the relationship between Ether and Wei. This is the value {ERC20} uses, unless this function is overridden; NOTE: This information is only used for _display_ purposes: it in no way affects any of the arithmetic of the contract, including {IERC20-balanceOf} and {IERC20-transfer}."
					},
					"decreaseAllowance(address,uint256)": {
						"details": "Atomically decreases the allowance granted to `spender` by the caller. This is an alternative to {approve} that can be used as a mitigation for problems described in {IERC20-approve}. Emits an {Approval} event indicating the updated allowance. Requirements: - `spender` cannot be the zero address. - `spender` must have allowance for the caller of at least `subtractedValue`."
					},
					"excludeFromFee(address)": {
						"details": "Exclude an account from transaction fees. Can only be called by the owner.",
						"params": {
							"account": "The address to exclude."
						}
					},
					"includeInFee(address)": {
						"details": "Include an account in transaction fees. Can only be called by the owner.",
						"params": {
							"account": "The address to include."
						}
					},
					"increaseAllowance(address,uint256)": {
						"details": "Atomically increases the allowance granted to `spender` by the caller. This is an alternative to {approve} that can be used as a mitigation for problems described in {IERC20-approve}. Emits an {Approval} event indicating the updated allowance. Requirements: - `spender` cannot be the zero address."
					},
					"name()": {
						"details": "Returns the name of the token."
					},
					"owner()": {
						"details": "Returns the address of the current owner."
					},
					"renounceOwnership()": {
						"details": "Leaves the contract without owner. It will not be possible to call `onlyOwner` functions anymore. Can only be called by the current owner. NOTE: Renouncing ownership will leave the contract without an owner, thereby removing any functionality that is only available to the owner."
					},
					"setTaxFeePercent(uint256)": {
						"details": "Set the transaction fee percentage. Can only be called by the owner.",
						"params": {
							"fee": "The new fee percentage."
						}
					},
					"symbol()": {
						"details": "Returns the symbol of the token, usually a shorter version of the name."
					},
					"totalSupply()": {
						"details": "See {IERC20-totalSupply}."
					},
					"transfer(address,uint256)": {
						"details": "See {IERC20-transfer}. Requirements: - `to` cannot be the zero address. - the caller must have a balance of at least `amount`."
					},
					"transferFrom(address,address,uint256)": {
						"details": "See {IERC20-transferFrom}. Emits an {Approval} event indicating the updated allowance. This is not required by the EIP. See the note at the beginning of {ERC20}. NOTE: Does not update the allowance if the current allowance is the maximum `uint256`. Requirements: - `from` and `to` cannot be the zero address. - `from` must have a balance of at least `amount`. - the caller must have allowance for ``from``'s tokens of at least `amount`."
					},
					"transferOwnership(address)": {
						"details": "Transfers ownership of the contract to a new account (`newOwner`). Can only be called by the current owner."
					}
				},
				"title": "UfoZiom Token",
				"version": 1
			},
			"evm": {
				"assembly": "    /* \"UfoZiomToken_flattened.sol\":19868:22502  contract UfoZiomToken is ERC20, Ownable {... */\n  mstore(0x40, 0x80)\n    /* \"UfoZiomToken_flattened.sol\":20139:20140  2 */\n  0x02\n    /* \"UfoZiomToken_flattened.sol\":20115:20140  uint256 public taxFee = 2 */\n  0x06\n  sstore\n    /* \"UfoZiomToken_flattened.sol\":20391:20640  constructor() ERC20(\"UfoZiom Token\", \"UFO\") {... */\n  callvalue\n  dup1\n  iszero\n  tag_1\n  jumpi\n  0x00\n  dup1\n  revert\ntag_1:\n  pop\n    /* \"UfoZiomToken_flattened.sol\":6515:6628  constructor(string memory name_, string memory symbol_) {... */\n  mload(0x40)\n  dup1\n  0x40\n  add\n  0x40\n  mstore\n  dup1\n  0x0d\n  dup2\n  mstore\n  0x20\n  add\n  shl(0x99, 0x2ab337ad34b7b6902a37b5b2b7)\n  dup2\n  mstore\n  pop\n  mload(0x40)\n  dup1\n  0x40\n  add\n  0x40\n  mstore\n  dup1\n  0x03\n  dup2\n  mstore\n  0x20\n  add\n  shl(0xe8, 0x55464f)\n  dup2\n  mstore\n  pop\n    /* \"UfoZiomToken_flattened.sol\":6589:6594  name_ */\n  dup2\n    /* \"UfoZiomToken_flattened.sol\":6581:6586  _name */\n  0x03\n    /* \"UfoZiomToken_flattened.sol\":6581:6594  _name = name_ */\n  swap1\n  dup2\n  tag_6\n  swap2\n  swap1\n  tag_7\n  jump\t// in\ntag_6:\n  pop\n    /* \"UfoZiomToken_flattened.sol\":6604:6611  _symbol */\n  0x04\n    /* \"UfoZiomToken_flattened.sol\":6604:6621  _symbol = symbol_ */\n  tag_8\n    /* \"UfoZiomToken_flattened.sol\":6614:6621  symbol_ */\n  dup3\n    /* \"UfoZiomToken_flattened.sol\":6604:6611  _symbol */\n  dup3\n    /* \"UfoZiomToken_flattened.sol\":6604:6621  _symbol = symbol_ */\n  tag_7\n  jump\t// in\ntag_8:\n  pop\n    /* \"UfoZiomToken_flattened.sol\":6515:6628  constructor(string memory name_, string memory symbol_) {... */\n  pop\n  pop\n    /* \"UfoZiomToken_flattened.sol\":18130:18162  _transferOwnership(_msgSender()) */\n  tag_10\n    /* \"UfoZiomToken_flattened.sol\":18149:18161  _msgSender() */\n  tag_11\n    /* \"UfoZiomToken_flattened.sol\":18149:18159  _msgSender */\n  shl(0x20, tag_12)\n    /* \"UfoZiomToken_flattened.sol\":18149:18161  _msgSender() */\n  0x20\n  shr\n  jump\t// in\ntag_11:\n    /* \"UfoZiomToken_flattened.sol\":18130:18148  _transferOwnership */\n  tag_13\n    /* \"UfoZiomToken_flattened.sol\":18130:18162  _transferOwnership(_msgSender()) */\n  jump\t// in\ntag_10:\n    /* \"UfoZiomToken_flattened.sol\":20495:20550  _mint(msg.sender, 1_000_000_000_000 * 10 ** decimals()) */\n  tag_15\n    /* \"UfoZiomToken_flattened.sol\":20501:20511  msg.sender */\n  caller\n    /* \"UfoZiomToken_flattened.sol\":20533:20549  10 ** decimals() */\n  tag_18\n    /* \"UfoZiomToken_flattened.sol\":7712:7714  18 */\n  0x12\n    /* \"UfoZiomToken_flattened.sol\":20533:20535  10 */\n  0x0a\n    /* \"UfoZiomToken_flattened.sol\":20533:20549  10 ** decimals() */\n  tag_19\n  jump\t// in\ntag_18:\n    /* \"UfoZiomToken_flattened.sol\":20513:20549  1_000_000_000_000 * 10 ** decimals() */\n  tag_20\n  swap1\n    /* \"UfoZiomToken_flattened.sol\":20513:20530  1_000_000_000_000 */\n  0xe8d4a51000\n    /* \"UfoZiomToken_flattened.sol\":20513:20549  1_000_000_000_000 * 10 ** decimals() */\n  tag_21\n  jump\t// in\ntag_20:\n    /* \"UfoZiomToken_flattened.sol\":20495:20500  _mint */\n  tag_22\n    /* \"UfoZiomToken_flattened.sol\":20495:20550  _mint(msg.sender, 1_000_000_000_000 * 10 ** decimals()) */\n  jump\t// in\ntag_15:\n    /* \"UfoZiomToken_flattened.sol\":20615:20625  msg.sender */\n  caller\n    /* \"UfoZiomToken_flattened.sol\":20596:20626  _isExcludedFromFee[msg.sender] */\n  0x00\n  swap1\n  dup2\n  mstore\n    /* \"UfoZiomToken_flattened.sol\":20596:20614  _isExcludedFromFee */\n  0x07\n    /* \"UfoZiomToken_flattened.sol\":20596:20626  _isExcludedFromFee[msg.sender] */\n  0x20\n  mstore\n  0x40\n  swap1\n  keccak256\n    /* \"UfoZiomToken_flattened.sol\":20596:20633  _isExcludedFromFee[msg.sender] = true */\n  dup1\n  sload\n  not(0xff)\n  and\n    /* \"UfoZiomToken_flattened.sol\":20629:20633  true */\n  0x01\n    /* \"UfoZiomToken_flattened.sol\":20596:20633  _isExcludedFromFee[msg.sender] = true */\n  or\n  swap1\n  sstore\n    /* \"UfoZiomToken_flattened.sol\":19868:22502  contract UfoZiomToken is ERC20, Ownable {... */\n  jump(tag_50)\n    /* \"UfoZiomToken_flattened.sol\":4351:4447  function _msgSender() internal view virtual returns (address) {... */\ntag_12:\n    /* \"UfoZiomToken_flattened.sol\":4430:4440  msg.sender */\n  caller\n  swap1\n    /* \"UfoZiomToken_flattened.sol\":4351:4447  function _msgSender() internal view virtual returns (address) {... */\n  jump\t// out\n    /* \"UfoZiomToken_flattened.sol\":19479:19666  function _transferOwnership(address newOwner) internal virtual {... */\ntag_13:\n    /* \"UfoZiomToken_flattened.sol\":19571:19577  _owner */\n  0x05\n  dup1\n  sload\n  sub(shl(0xa0, 0x01), 0x01)\n    /* \"UfoZiomToken_flattened.sol\":19587:19604  _owner = newOwner */\n  dup4\n  dup2\n  and\n  not(sub(shl(0xa0, 0x01), 0x01))\n  dup4\n  and\n  dup2\n  or\n  swap1\n  swap4\n  sstore\n    /* \"UfoZiomToken_flattened.sol\":19619:19659  OwnershipTransferred(oldOwner, newOwner) */\n  mload(0x40)\n    /* \"UfoZiomToken_flattened.sol\":19571:19577  _owner */\n  swap2\n  and\n  swap2\n    /* \"UfoZiomToken_flattened.sol\":19587:19604  _owner = newOwner */\n  swap1\n    /* \"UfoZiomToken_flattened.sol\":19571:19577  _owner */\n  dup3\n  swap1\n    /* \"UfoZiomToken_flattened.sol\":19619:19659  OwnershipTransferred(oldOwner, newOwner) */\n  0x8be0079c531659141344cd1fd0a4f28419497f9722a3daafe3b4186f6b6457e0\n  swap1\n    /* \"UfoZiomToken_flattened.sol\":19552:19568  address oldOwner */\n  0x00\n  swap1\n    /* \"UfoZiomToken_flattened.sol\":19619:19659  OwnershipTransferred(oldOwner, newOwner) */\n  log3\n    /* \"UfoZiomToken_flattened.sol\":19542:19666  {... */\n  pop\n    /* \"UfoZiomToken_flattened.sol\":19479:19666  function _transferOwnership(address newOwner) internal virtual {... */\n  pop\n  jump\t// out\n    /* \"UfoZiomToken_flattened.sol\":12952:13341  function _mint(address account, uint256 amount) internal virtual {... */\ntag_22:\n  sub(shl(0xa0, 0x01), 0x01)\n    /* \"UfoZiomToken_flattened.sol\":13035:13056  account != address(0) */\n  dup3\n  and\n    /* \"UfoZiomToken_flattened.sol\":13027:13092  require(account != address(0), \"ERC20: mint to the zero address\") */\n  tag_28\n  jumpi\n  mload(0x40)\n  shl(0xe5, 0x461bcd)\n  dup2\n  mstore\n    /* \"#utility.yul\":4625:4627   */\n  0x20\n    /* \"UfoZiomToken_flattened.sol\":13027:13092  require(account != address(0), \"ERC20: mint to the zero address\") */\n  0x04\n  dup3\n  add\n    /* \"#utility.yul\":4607:4628   */\n  mstore\n    /* \"#utility.yul\":4664:4666   */\n  0x1f\n    /* \"#utility.yul\":4644:4662   */\n  0x24\n  dup3\n  add\n    /* \"#utility.yul\":4637:4667   */\n  mstore\n    /* \"#utility.yul\":4703:4736   */\n  0x45524332303a206d696e7420746f20746865207a65726f206164647265737300\n    /* \"#utility.yul\":4683:4701   */\n  0x44\n  dup3\n  add\n    /* \"#utility.yul\":4676:4737   */\n  mstore\n    /* \"#utility.yul\":4754:4772   */\n  0x64\n  add\n    /* \"UfoZiomToken_flattened.sol\":13027:13092  require(account != address(0), \"ERC20: mint to the zero address\") */\n  mload(0x40)\n  dup1\n  swap2\n  sub\n  swap1\n  revert\ntag_28:\n    /* \"UfoZiomToken_flattened.sol\":13179:13185  amount */\n  dup1\n    /* \"UfoZiomToken_flattened.sol\":13163:13175  _totalSupply */\n  0x02\n  0x00\n    /* \"UfoZiomToken_flattened.sol\":13163:13185  _totalSupply += amount */\n  dup3\n  dup3\n  sload\n  tag_33\n  swap2\n  swap1\n  tag_34\n  jump\t// in\ntag_33:\n  swap1\n  swap2\n  sstore\n  pop\n  pop\n  sub(shl(0xa0, 0x01), 0x01)\n    /* \"UfoZiomToken_flattened.sol\":13195:13213  _balances[account] */\n  dup3\n  and\n    /* \"UfoZiomToken_flattened.sol\":13195:13204  _balances */\n  0x00\n    /* \"UfoZiomToken_flattened.sol\":13195:13213  _balances[account] */\n  swap1\n  dup2\n  mstore\n  0x20\n  dup2\n  swap1\n  mstore\n  0x40\n  dup2\n  keccak256\n    /* \"UfoZiomToken_flattened.sol\":13195:13223  _balances[account] += amount */\n  dup1\n  sload\n    /* \"UfoZiomToken_flattened.sol\":13217:13223  amount */\n  dup4\n  swap3\n    /* \"UfoZiomToken_flattened.sol\":13195:13204  _balances */\n  swap1\n    /* \"UfoZiomToken_flattened.sol\":13195:13223  _balances[account] += amount */\n  tag_35\n  swap1\n    /* \"UfoZiomToken_flattened.sol\":13217:13223  amount */\n  dup5\n  swap1\n    /* \"UfoZiomToken_flattened.sol\":13195:13223  _balances[account] += amount */\n  tag_34\n  jump\t// in\ntag_35:\n  swap1\n  swap2\n  sstore\n  pop\n  pop\n    /* \"UfoZiomToken_flattened.sol\":13238:13275  Transfer(address(0), account, amount) */\n  mload(0x40)\n    /* \"#utility.yul\":5059:5084   */\n  dup2\n  dup2\n  mstore\n  sub(shl(0xa0, 0x01), 0x01)\n    /* \"UfoZiomToken_flattened.sol\":13238:13275  Transfer(address(0), account, amount) */\n  dup4\n  and\n  swap1\n    /* \"UfoZiomToken_flattened.sol\":13255:13256  0 */\n  0x00\n  swap1\n    /* \"UfoZiomToken_flattened.sol\":13238:13275  Transfer(address(0), account, amount) */\n  0xddf252ad1be2c89b69c2b068fc378daa952ba7f163c4a11628f55a4df523b3ef\n  swap1\n    /* \"#utility.yul\":5047:5049   */\n  0x20\n    /* \"#utility.yul\":5032:5050   */\n  add\n    /* \"UfoZiomToken_flattened.sol\":13238:13275  Transfer(address(0), account, amount) */\n  mload(0x40)\n  dup1\n  swap2\n  sub\n  swap1\n  log3\n    /* \"UfoZiomToken_flattened.sol\":12952:13341  function _mint(address account, uint256 amount) internal virtual {... */\n  pop\n  pop\n  jump\t// out\n    /* \"UfoZiomToken_flattened.sol\":16332:16453  function _beforeTokenTransfer(... */\ntag_32:\n  pop\n  pop\n  pop\n  jump\t// out\n    /* \"#utility.yul\":14:141   */\ntag_42:\n    /* \"#utility.yul\":75:85   */\n  0x4e487b71\n    /* \"#utility.yul\":70:73   */\n  0xe0\n    /* \"#utility.yul\":66:86   */\n  shl\n    /* \"#utility.yul\":63:64   */\n  0x00\n    /* \"#utility.yul\":56:87   */\n  mstore\n    /* \"#utility.yul\":106:110   */\n  0x41\n    /* \"#utility.yul\":103:104   */\n  0x04\n    /* \"#utility.yul\":96:111   */\n  mstore\n    /* \"#utility.yul\":130:134   */\n  0x24\n    /* \"#utility.yul\":127:128   */\n  0x00\n    /* \"#utility.yul\":120:135   */\n  revert\n    /* \"#utility.yul\":146:526   */\ntag_43:\n    /* \"#utility.yul\":225:226   */\n  0x01\n    /* \"#utility.yul\":221:233   */\n  dup2\n  dup2\n  shr\n  swap1\n    /* \"#utility.yul\":268:280   */\n  dup3\n  and\n  dup1\n    /* \"#utility.yul\":289:350   */\n  tag_53\n  jumpi\n    /* \"#utility.yul\":343:347   */\n  0x7f\n    /* \"#utility.yul\":335:341   */\n  dup3\n    /* \"#utility.yul\":331:348   */\n  and\n    /* \"#utility.yul\":321:348   */\n  swap2\n  pop\n    /* \"#utility.yul\":289:350   */\ntag_53:\n    /* \"#utility.yul\":396:398   */\n  0x20\n    /* \"#utility.yul\":388:394   */\n  dup3\n    /* \"#utility.yul\":385:399   */\n  lt\n    /* \"#utility.yul\":365:383   */\n  dup2\n    /* \"#utility.yul\":362:400   */\n  sub\n    /* \"#utility.yul\":359:520   */\n  tag_54\n  jumpi\n    /* \"#utility.yul\":442:452   */\n  0x4e487b71\n    /* \"#utility.yul\":437:440   */\n  0xe0\n    /* \"#utility.yul\":433:453   */\n  shl\n    /* \"#utility.yul\":430:431   */\n  0x00\n    /* \"#utility.yul\":423:454   */\n  mstore\n    /* \"#utility.yul\":477:481   */\n  0x22\n    /* \"#utility.yul\":474:475   */\n  0x04\n    /* \"#utility.yul\":467:482   */\n  mstore\n    /* \"#utility.yul\":505:509   */\n  0x24\n    /* \"#utility.yul\":502:503   */\n  0x00\n    /* \"#utility.yul\":495:510   */\n  revert\n    /* \"#utility.yul\":359:520   */\ntag_54:\n  pop\n    /* \"#utility.yul\":146:526   */\n  swap2\n  swap1\n  pop\n  jump\t// out\n    /* \"#utility.yul\":657:1202   */\ntag_45:\n    /* \"#utility.yul\":759:761   */\n  0x1f\n    /* \"#utility.yul\":754:757   */\n  dup3\n    /* \"#utility.yul\":751:762   */\n  gt\n    /* \"#utility.yul\":748:1196   */\n  iszero\n  tag_32\n  jumpi\n    /* \"#utility.yul\":795:796   */\n  0x00\n    /* \"#utility.yul\":820:825   */\n  dup2\n    /* \"#utility.yul\":816:818   */\n  dup2\n    /* \"#utility.yul\":809:826   */\n  mstore\n    /* \"#utility.yul\":865:869   */\n  0x20\n    /* \"#utility.yul\":861:863   */\n  dup2\n    /* \"#utility.yul\":851:870   */\n  keccak256\n    /* \"#utility.yul\":935:937   */\n  0x1f\n    /* \"#utility.yul\":923:933   */\n  dup6\n    /* \"#utility.yul\":919:938   */\n  add\n    /* \"#utility.yul\":916:917   */\n  0x05\n    /* \"#utility.yul\":912:939   */\n  shr\n    /* \"#utility.yul\":906:910   */\n  dup2\n    /* \"#utility.yul\":902:940   */\n  add\n    /* \"#utility.yul\":971:975   */\n  0x20\n    /* \"#utility.yul\":959:969   */\n  dup7\n    /* \"#utility.yul\":956:976   */\n  lt\n    /* \"#utility.yul\":953:1000   */\n  iszero\n  tag_58\n  jumpi\n  pop\n    /* \"#utility.yul\":994:998   */\n  dup1\n    /* \"#utility.yul\":953:1000   */\ntag_58:\n    /* \"#utility.yul\":1049:1051   */\n  0x1f\n    /* \"#utility.yul\":1044:1047   */\n  dup6\n    /* \"#utility.yul\":1040:1052   */\n  add\n    /* \"#utility.yul\":1037:1038   */\n  0x05\n    /* \"#utility.yul\":1033:1053   */\n  shr\n    /* \"#utility.yul\":1027:1031   */\n  dup3\n    /* \"#utility.yul\":1023:1054   */\n  add\n    /* \"#utility.yul\":1013:1054   */\n  swap2\n  pop\n    /* \"#utility.yul\":1104:1186   */\ntag_59:\n    /* \"#utility.yul\":1122:1124   */\n  dup2\n    /* \"#utility.yul\":1115:1120   */\n  dup2\n    /* \"#utility.yul\":1112:1125   */\n  lt\n    /* \"#utility.yul\":1104:1186   */\n  iszero\n  tag_61\n  jumpi\n    /* \"#utility.yul\":1167:1184   */\n  dup3\n  dup2\n  sstore\n    /* \"#utility.yul\":1148:1149   */\n  0x01\n    /* \"#utility.yul\":1137:1150   */\n  add\n    /* \"#utility.yul\":1104:1186   */\n  jump(tag_59)\ntag_61:\n    /* \"#utility.yul\":1108:1111   */\n  pop\n  pop\n  pop\n    /* \"#utility.yul\":657:1202   */\n  pop\n  pop\n  pop\n  jump\t// out\n    /* \"#utility.yul\":1378:2730   */\ntag_7:\n    /* \"#utility.yul\":1498:1508   */\n  dup2\n  mload\n  sub(shl(0x40, 0x01), 0x01)\n    /* \"#utility.yul\":1520:1550   */\n  dup2\n  gt\n    /* \"#utility.yul\":1517:1573   */\n  iszero\n  tag_65\n  jumpi\n    /* \"#utility.yul\":1553:1571   */\n  tag_65\n  tag_42\n  jump\t// in\ntag_65:\n    /* \"#utility.yul\":1582:1679   */\n  tag_66\n    /* \"#utility.yul\":1672:1678   */\n  dup2\n    /* \"#utility.yul\":1632:1670   */\n  tag_67\n    /* \"#utility.yul\":1664:1668   */\n  dup5\n    /* \"#utility.yul\":1658:1669   */\n  sload\n    /* \"#utility.yul\":1632:1670   */\n  tag_43\n  jump\t// in\ntag_67:\n    /* \"#utility.yul\":1626:1630   */\n  dup5\n    /* \"#utility.yul\":1582:1679   */\n  tag_45\n  jump\t// in\ntag_66:\n    /* \"#utility.yul\":1734:1738   */\n  0x20\n  dup1\n    /* \"#utility.yul\":1798:1800   */\n  0x1f\n    /* \"#utility.yul\":1787:1801   */\n  dup4\n  gt\n    /* \"#utility.yul\":1815:1816   */\n  0x01\n    /* \"#utility.yul\":1810:2473   */\n  dup2\n  eq\n  tag_69\n  jumpi\n    /* \"#utility.yul\":2517:2518   */\n  0x00\n    /* \"#utility.yul\":2534:2540   */\n  dup5\n    /* \"#utility.yul\":2531:2620   */\n  iszero\n  tag_70\n  jumpi\n  pop\n    /* \"#utility.yul\":2586:2605   */\n  dup6\n  dup4\n  add\n    /* \"#utility.yul\":2580:2606   */\n  mload\n    /* \"#utility.yul\":2531:2620   */\ntag_70:\n  not(0x00)\n    /* \"#utility.yul\":1335:1336   */\n  0x03\n    /* \"#utility.yul\":1331:1342   */\n  dup7\n  swap1\n  shl\n    /* \"#utility.yul\":1327:1351   */\n  shr\n    /* \"#utility.yul\":1323:1352   */\n  not\n    /* \"#utility.yul\":1313:1353   */\n  and\n    /* \"#utility.yul\":1359:1360   */\n  0x01\n    /* \"#utility.yul\":1355:1366   */\n  dup6\n  swap1\n  shl\n    /* \"#utility.yul\":1310:1367   */\n  or\n    /* \"#utility.yul\":2633:2714   */\n  dup6\n  sstore\n    /* \"#utility.yul\":1780:2724   */\n  jump(tag_61)\n    /* \"#utility.yul\":1810:2473   */\ntag_69:\n    /* \"#utility.yul\":604:605   */\n  0x00\n    /* \"#utility.yul\":597:611   */\n  dup6\n  dup2\n  mstore\n    /* \"#utility.yul\":641:645   */\n  0x20\n    /* \"#utility.yul\":628:646   */\n  dup2\n  keccak256\n  not(0x1f)\n    /* \"#utility.yul\":1846:1866   */\n  dup7\n  and\n  swap2\n    /* \"#utility.yul\":1964:2200   */\ntag_73:\n    /* \"#utility.yul\":1978:1985   */\n  dup3\n    /* \"#utility.yul\":1975:1976   */\n  dup2\n    /* \"#utility.yul\":1972:1986   */\n  lt\n    /* \"#utility.yul\":1964:2200   */\n  iszero\n  tag_75\n  jumpi\n    /* \"#utility.yul\":2067:2086   */\n  dup9\n  dup7\n  add\n    /* \"#utility.yul\":2061:2087   */\n  mload\n    /* \"#utility.yul\":2046:2088   */\n  dup3\n  sstore\n    /* \"#utility.yul\":2159:2186   */\n  swap5\n  dup5\n  add\n  swap5\n    /* \"#utility.yul\":2127:2128   */\n  0x01\n    /* \"#utility.yul\":2115:2129   */\n  swap1\n  swap2\n  add\n  swap1\n    /* \"#utility.yul\":1994:2013   */\n  dup5\n  add\n    /* \"#utility.yul\":1964:2200   */\n  jump(tag_73)\ntag_75:\n    /* \"#utility.yul\":1968:1971   */\n  pop\n    /* \"#utility.yul\":2228:2234   */\n  dup6\n    /* \"#utility.yul\":2219:2226   */\n  dup3\n    /* \"#utility.yul\":2216:2235   */\n  lt\n    /* \"#utility.yul\":2213:2414   */\n  iszero\n  tag_76\n  jumpi\n    /* \"#utility.yul\":2289:2308   */\n  dup8\n  dup6\n  add\n    /* \"#utility.yul\":2283:2309   */\n  mload\n  not(0x00)\n    /* \"#utility.yul\":2372:2373   */\n  0x03\n    /* \"#utility.yul\":2368:2382   */\n  dup9\n  swap1\n  shl\n    /* \"#utility.yul\":2384:2387   */\n  0xf8\n    /* \"#utility.yul\":2364:2388   */\n  and\n    /* \"#utility.yul\":2360:2397   */\n  shr\n    /* \"#utility.yul\":2356:2398   */\n  not\n    /* \"#utility.yul\":2341:2399   */\n  and\n    /* \"#utility.yul\":2326:2400   */\n  dup2\n  sstore\n    /* \"#utility.yul\":2213:2414   */\ntag_76:\n  pop\n  pop\n  pop\n  pop\n  pop\n    /* \"#utility.yul\":2460:2461   */\n  0x01\n    /* \"#utility.yul\":2444:2458   */\n  swap1\n  dup2\n  shl\n    /* \"#utility.yul\":2440:2462   */\n  add\n    /* \"#utility.yul\":2427:2463   */\n  swap1\n  sstore\n  pop\n    /* \"#utility.yul\":1378:2730   */\n  jump\t// out\n    /* \"#utility.yul\":2735:2862   */\ntag_47:\n    /* \"#utility.yul\":2796:2806   */\n  0x4e487b71\n    /* \"#utility.yul\":2791:2794   */\n  0xe0\n    /* \"#utility.yul\":2787:2807   */\n  shl\n    /* \"#utility.yul\":2784:2785   */\n  0x00\n    /* \"#utility.yul\":2777:2808   */\n  mstore\n    /* \"#utility.yul\":2827:2831   */\n  0x11\n    /* \"#utility.yul\":2824:2825   */\n  0x04\n    /* \"#utility.yul\":2817:2832   */\n  mstore\n    /* \"#utility.yul\":2851:2855   */\n  0x24\n    /* \"#utility.yul\":2848:2849   */\n  0x00\n    /* \"#utility.yul\":2841:2856   */\n  revert\n    /* \"#utility.yul\":2867:3289   */\ntag_48:\n    /* \"#utility.yul\":2956:2957   */\n  0x01\n    /* \"#utility.yul\":2999:3004   */\n  dup2\n    /* \"#utility.yul\":2956:2957   */\n  dup2\n    /* \"#utility.yul\":3013:3283   */\ntag_79:\n    /* \"#utility.yul\":3034:3041   */\n  dup1\n    /* \"#utility.yul\":3024:3032   */\n  dup6\n    /* \"#utility.yul\":3021:3042   */\n  gt\n    /* \"#utility.yul\":3013:3283   */\n  iszero\n  tag_81\n  jumpi\n    /* \"#utility.yul\":3093:3097   */\n  dup2\n    /* \"#utility.yul\":3089:3090   */\n  0x00\n    /* \"#utility.yul\":3085:3091   */\n  not\n    /* \"#utility.yul\":3081:3098   */\n  div\n    /* \"#utility.yul\":3075:3079   */\n  dup3\n    /* \"#utility.yul\":3072:3099   */\n  gt\n    /* \"#utility.yul\":3069:3122   */\n  iszero\n  tag_83\n  jumpi\n    /* \"#utility.yul\":3102:3120   */\n  tag_83\n  tag_47\n  jump\t// in\ntag_83:\n    /* \"#utility.yul\":3152:3159   */\n  dup1\n    /* \"#utility.yul\":3142:3150   */\n  dup6\n    /* \"#utility.yul\":3138:3160   */\n  and\n    /* \"#utility.yul\":3135:3190   */\n  iszero\n  tag_84\n  jumpi\n    /* \"#utility.yul\":3172:3188   */\n  swap2\n  dup2\n  mul\n  swap2\n    /* \"#utility.yul\":3135:3190   */\ntag_84:\n    /* \"#utility.yul\":3251:3273   */\n  swap4\n  dup5\n  shr\n  swap4\n    /* \"#utility.yul\":3211:3226   */\n  swap1\n  dup1\n  mul\n  swap1\n    /* \"#utility.yul\":3013:3283   */\n  jump(tag_79)\ntag_81:\n    /* \"#utility.yul\":3017:3020   */\n  pop\n    /* \"#utility.yul\":2867:3289   */\n  swap3\n  pop\n  swap3\n  swap1\n  pop\n  jump\t// out\n    /* \"#utility.yul\":3294:4100   */\ntag_49:\n    /* \"#utility.yul\":3343:3348   */\n  0x00\n    /* \"#utility.yul\":3373:3381   */\n  dup3\n    /* \"#utility.yul\":3363:3443   */\n  tag_86\n  jumpi\n  pop\n    /* \"#utility.yul\":3414:3415   */\n  0x01\n    /* \"#utility.yul\":3428:3433   */\n  jump(tag_85)\n    /* \"#utility.yul\":3363:3443   */\ntag_86:\n    /* \"#utility.yul\":3462:3466   */\n  dup2\n    /* \"#utility.yul\":3452:3528   */\n  tag_87\n  jumpi\n  pop\n    /* \"#utility.yul\":3499:3500   */\n  0x00\n    /* \"#utility.yul\":3513:3518   */\n  jump(tag_85)\n    /* \"#utility.yul\":3452:3528   */\ntag_87:\n    /* \"#utility.yul\":3544:3548   */\n  dup2\n    /* \"#utility.yul\":3562:3563   */\n  0x01\n    /* \"#utility.yul\":3557:3616   */\n  dup2\n  eq\n  tag_89\n  jumpi\n    /* \"#utility.yul\":3630:3631   */\n  0x02\n    /* \"#utility.yul\":3625:3755   */\n  dup2\n  eq\n  tag_90\n  jumpi\n    /* \"#utility.yul\":3537:3755   */\n  jump(tag_88)\n    /* \"#utility.yul\":3557:3616   */\ntag_89:\n    /* \"#utility.yul\":3587:3588   */\n  0x01\n    /* \"#utility.yul\":3578:3588   */\n  swap2\n  pop\n    /* \"#utility.yul\":3601:3606   */\n  pop\n  jump(tag_85)\n    /* \"#utility.yul\":3625:3755   */\ntag_90:\n    /* \"#utility.yul\":3662:3665   */\n  0xff\n    /* \"#utility.yul\":3652:3660   */\n  dup5\n    /* \"#utility.yul\":3649:3666   */\n  gt\n    /* \"#utility.yul\":3646:3689   */\n  iszero\n  tag_92\n  jumpi\n    /* \"#utility.yul\":3669:3687   */\n  tag_92\n  tag_47\n  jump\t// in\ntag_92:\n  pop\n  pop\n    /* \"#utility.yul\":3725:3726   */\n  0x01\n    /* \"#utility.yul\":3711:3727   */\n  dup3\n  shl\n    /* \"#utility.yul\":3740:3745   */\n  jump(tag_85)\n    /* \"#utility.yul\":3537:3755   */\ntag_88:\n  pop\n    /* \"#utility.yul\":3839:3841   */\n  0x20\n    /* \"#utility.yul\":3829:3837   */\n  dup4\n    /* \"#utility.yul\":3826:3842   */\n  lt\n    /* \"#utility.yul\":3820:3823   */\n  0x0133\n    /* \"#utility.yul\":3814:3818   */\n  dup4\n    /* \"#utility.yul\":3811:3824   */\n  lt\n    /* \"#utility.yul\":3807:3843   */\n  and\n    /* \"#utility.yul\":3801:3803   */\n  0x4e\n    /* \"#utility.yul\":3791:3799   */\n  dup5\n    /* \"#utility.yul\":3788:3804   */\n  lt\n    /* \"#utility.yul\":3783:3785   */\n  0x0b\n    /* \"#utility.yul\":3777:3781   */\n  dup5\n    /* \"#utility.yul\":3774:3786   */\n  lt\n    /* \"#utility.yul\":3770:3805   */\n  and\n    /* \"#utility.yul\":3767:3844   */\n  or\n    /* \"#utility.yul\":3764:3923   */\n  iszero\n  tag_93\n  jumpi\n  pop\n    /* \"#utility.yul\":3876:3895   */\n  dup2\n  dup2\n  exp\n    /* \"#utility.yul\":3908:3913   */\n  jump(tag_85)\n    /* \"#utility.yul\":3764:3923   */\ntag_93:\n    /* \"#utility.yul\":3955:3989   */\n  tag_94\n    /* \"#utility.yul\":3980:3988   */\n  dup4\n    /* \"#utility.yul\":3974:3978   */\n  dup4\n    /* \"#utility.yul\":3955:3989   */\n  tag_48\n  jump\t// in\ntag_94:\n    /* \"#utility.yul\":4025:4031   */\n  dup1\n    /* \"#utility.yul\":4021:4022   */\n  0x00\n    /* \"#utility.yul\":4017:4023   */\n  not\n    /* \"#utility.yul\":4013:4032   */\n  div\n    /* \"#utility.yul\":4004:4011   */\n  dup3\n    /* \"#utility.yul\":4001:4033   */\n  gt\n    /* \"#utility.yul\":3998:4056   */\n  iszero\n  tag_96\n  jumpi\n    /* \"#utility.yul\":4036:4054   */\n  tag_96\n  tag_47\n  jump\t// in\ntag_96:\n    /* \"#utility.yul\":4074:4094   */\n  mul\n  swap1\n  pop\n    /* \"#utility.yul\":3294:4100   */\ntag_85:\n  swap3\n  swap2\n  pop\n  pop\n  jump\t// out\n    /* \"#utility.yul\":4105:4245   */\ntag_19:\n    /* \"#utility.yul\":4163:4168   */\n  0x00\n    /* \"#utility.yul\":4192:4239   */\n  tag_98\n    /* \"#utility.yul\":4233:4237   */\n  0xff\n    /* \"#utility.yul\":4223:4231   */\n  dup5\n    /* \"#utility.yul\":4219:4238   */\n  and\n    /* \"#utility.yul\":4213:4217   */\n  dup4\n    /* \"#utility.yul\":4192:4239   */\n  tag_49\n  jump\t// in\ntag_98:\n    /* \"#utility.yul\":4183:4239   */\n  swap4\n    /* \"#utility.yul\":4105:4245   */\n  swap3\n  pop\n  pop\n  pop\n  jump\t// out\n    /* \"#utility.yul\":4250:4418   */\ntag_21:\n    /* \"#utility.yul\":4323:4332   */\n  dup1\n  dup3\n  mul\n    /* \"#utility.yul\":4354:4363   */\n  dup2\n  iszero\n    /* \"#utility.yul\":4371:4386   */\n  dup3\n  dup3\n  div\n    /* \"#utility.yul\":4365:4387   */\n  dup5\n  eq\n    /* \"#utility.yul\":4351:4388   */\n  or\n    /* \"#utility.yul\":4341:4412   */\n  tag_85\n  jumpi\n    /* \"#utility.yul\":4392:4410   */\n  tag_85\n  tag_47\n  jump\t// in\n    /* \"#utility.yul\":4783:4908   */\ntag_34:\n    /* \"#utility.yul\":4848:4857   */\n  dup1\n  dup3\n  add\n    /* \"#utility.yul\":4869:4879   */\n  dup1\n  dup3\n  gt\n    /* \"#utility.yul\":4866:4902   */\n  iszero\n  tag_85\n  jumpi\n    /* \"#utility.yul\":4882:4900   */\n  tag_85\n  tag_47\n  jump\t// in\n    /* \"#utility.yul\":4913:5090   */\ntag_50:\n    /* \"UfoZiomToken_flattened.sol\":19868:22502  contract UfoZiomToken is ERC20, Ownable {... */\n  dataSize(sub_0)\n  dup1\n  dataOffset(sub_0)\n  0x00\n  codecopy\n  0x00\n  return\nstop\n\nsub_0: assembly {\n        /* \"UfoZiomToken_flattened.sol\":19868:22502  contract UfoZiomToken is ERC20, Ownable {... */\n      mstore(0x40, 0x80)\n      callvalue\n      dup1\n      iszero\n      tag_1\n      jumpi\n      0x00\n      dup1\n      revert\n    tag_1:\n      pop\n      jumpi(tag_2, lt(calldatasize, 0x04))\n      shr(0xe0, calldataload(0x00))\n      dup1\n      0x70d5ae05\n      gt\n      tag_22\n      jumpi\n      dup1\n      0xa457c2d7\n      gt\n      tag_23\n      jumpi\n      dup1\n      0xa457c2d7\n      eq\n      tag_17\n      jumpi\n      dup1\n      0xa9059cbb\n      eq\n      tag_18\n      jumpi\n      dup1\n      0xdd62ed3e\n      eq\n      tag_19\n      jumpi\n      dup1\n      0xea2f0b37\n      eq\n      tag_20\n      jumpi\n      dup1\n      0xf2fde38b\n      eq\n      tag_21\n      jumpi\n      0x00\n      dup1\n      revert\n    tag_23:\n      dup1\n      0x70d5ae05\n      eq\n      tag_12\n      jumpi\n      dup1\n      0x715018a6\n      eq\n      tag_13\n      jumpi\n      dup1\n      0x8da5cb5b\n      eq\n      tag_14\n      jumpi\n      dup1\n      0x95d89b41\n      eq\n      tag_15\n      jumpi\n      dup1\n      0xa071dcf4\n      eq\n      tag_16\n      jumpi\n      0x00\n      dup1\n      revert\n    tag_22:\n      dup1\n      0x23b872dd\n      gt\n      tag_24\n      jumpi\n      dup1\n      0x23b872dd\n      eq\n      tag_7\n      jumpi\n      dup1\n      0x313ce567\n      eq\n      tag_8\n      jumpi\n      dup1\n      0x39509351\n      eq\n      tag_9\n      jumpi\n      dup1\n      0x437823ec\n      eq\n      tag_10\n      jumpi\n      dup1\n      0x70a08231\n      eq\n      tag_11\n      jumpi\n      0x00\n      dup1\n      revert\n    tag_24:\n      dup1\n      0x061c82d0\n      eq\n      tag_3\n      jumpi\n      dup1\n      0x06fdde03\n      eq\n      tag_4\n      jumpi\n      dup1\n      0x095ea7b3\n      eq\n      tag_5\n      jumpi\n      dup1\n      0x18160ddd\n      eq\n      tag_6\n      jumpi\n    tag_2:\n      0x00\n      dup1\n      revert\n        /* \"UfoZiomToken_flattened.sol\":21335:21496  function setTaxFeePercent(uint256 fee) external onlyOwner {... */\n    tag_3:\n      tag_25\n      tag_26\n      calldatasize\n      0x04\n      tag_27\n      jump\t// in\n    tag_26:\n      tag_28\n      jump\t// in\n    tag_25:\n      stop\n        /* \"UfoZiomToken_flattened.sol\":6693:6791  function name() public view virtual override returns (string memory) {... */\n    tag_4:\n      tag_29\n      tag_30\n      jump\t// in\n    tag_29:\n      mload(0x40)\n      tag_31\n      swap2\n      swap1\n      tag_32\n      jump\t// in\n    tag_31:\n      mload(0x40)\n      dup1\n      swap2\n      sub\n      swap1\n      return\n        /* \"UfoZiomToken_flattened.sol\":8970:9167  function approve(address spender, uint256 amount) public virtual override returns (bool) {... */\n    tag_5:\n      tag_33\n      tag_34\n      calldatasize\n      0x04\n      tag_35\n      jump\t// in\n    tag_34:\n      tag_36\n      jump\t// in\n    tag_33:\n      mload(0x40)\n        /* \"#utility.yul\":1354:1368   */\n      swap1\n      iszero\n        /* \"#utility.yul\":1347:1369   */\n      iszero\n        /* \"#utility.yul\":1329:1370   */\n      dup2\n      mstore\n        /* \"#utility.yul\":1317:1319   */\n      0x20\n        /* \"#utility.yul\":1302:1320   */\n      add\n        /* \"UfoZiomToken_flattened.sol\":8970:9167  function approve(address spender, uint256 amount) public virtual override returns (bool) {... */\n      tag_31\n        /* \"#utility.yul\":1189:1376   */\n      jump\n        /* \"UfoZiomToken_flattened.sol\":7781:7887  function totalSupply() public view virtual override returns (uint256) {... */\n    tag_6:\n        /* \"UfoZiomToken_flattened.sol\":7868:7880  _totalSupply */\n      sload(0x02)\n        /* \"UfoZiomToken_flattened.sol\":7781:7887  function totalSupply() public view virtual override returns (uint256) {... */\n    tag_39:\n      mload(0x40)\n        /* \"#utility.yul\":1527:1552   */\n      swap1\n      dup2\n      mstore\n        /* \"#utility.yul\":1515:1517   */\n      0x20\n        /* \"#utility.yul\":1500:1518   */\n      add\n        /* \"UfoZiomToken_flattened.sol\":7781:7887  function totalSupply() public view virtual override returns (uint256) {... */\n      tag_31\n        /* \"#utility.yul\":1381:1558   */\n      jump\n        /* \"UfoZiomToken_flattened.sol\":9729:10015  function transferFrom(... */\n    tag_7:\n      tag_33\n      tag_44\n      calldatasize\n      0x04\n      tag_45\n      jump\t// in\n    tag_44:\n      tag_46\n      jump\t// in\n        /* \"UfoZiomToken_flattened.sol\":7630:7721  function decimals() public view virtual override returns (uint8) {... */\n    tag_8:\n      mload(0x40)\n        /* \"UfoZiomToken_flattened.sol\":7712:7714  18 */\n      0x12\n        /* \"#utility.yul\":2038:2074   */\n      dup2\n      mstore\n        /* \"#utility.yul\":2026:2028   */\n      0x20\n        /* \"#utility.yul\":2011:2029   */\n      add\n        /* \"UfoZiomToken_flattened.sol\":7630:7721  function decimals() public view virtual override returns (uint8) {... */\n      tag_31\n        /* \"#utility.yul\":1896:2080   */\n      jump\n        /* \"UfoZiomToken_flattened.sol\":10410:10646  function increaseAllowance(address spender, uint256 addedValue) public virtual returns (bool) {... */\n    tag_9:\n      tag_33\n      tag_53\n      calldatasize\n      0x04\n      tag_35\n      jump\t// in\n    tag_53:\n      tag_54\n      jump\t// in\n        /* \"UfoZiomToken_flattened.sol\":20802:20913  function excludeFromFee(address account) external onlyOwner {... */\n    tag_10:\n      tag_25\n      tag_57\n      calldatasize\n      0x04\n      tag_58\n      jump\t// in\n    tag_57:\n      tag_59\n      jump\t// in\n        /* \"UfoZiomToken_flattened.sol\":7945:8070  function balanceOf(address account) public view virtual override returns (uint256) {... */\n    tag_11:\n      tag_39\n      tag_61\n      calldatasize\n      0x04\n      tag_58\n      jump\t// in\n    tag_61:\n      sub(shl(0xa0, 0x01), 0x01)\n        /* \"UfoZiomToken_flattened.sol\":8045:8063  _balances[account] */\n      and\n        /* \"UfoZiomToken_flattened.sol\":8019:8026  uint256 */\n      0x00\n        /* \"UfoZiomToken_flattened.sol\":8045:8063  _balances[account] */\n      swap1\n      dup2\n      mstore\n      0x20\n      dup2\n      swap1\n      mstore\n      0x40\n      swap1\n      keccak256\n      sload\n      swap1\n        /* \"UfoZiomToken_flattened.sol\":7945:8070  function balanceOf(address account) public view virtual override returns (uint256) {... */\n      jump\n        /* \"UfoZiomToken_flattened.sol\":19972:20052  address public constant burnAddress = 0x000000000000000000000000000000000000dEaD */\n    tag_12:\n      tag_64\n        /* \"UfoZiomToken_flattened.sol\":20010:20052  0x000000000000000000000000000000000000dEaD */\n      0xdead\n        /* \"UfoZiomToken_flattened.sol\":19972:20052  address public constant burnAddress = 0x000000000000000000000000000000000000dEaD */\n      dup2\n      jump\n    tag_64:\n      mload(0x40)\n      sub(shl(0xa0, 0x01), 0x01)\n        /* \"#utility.yul\":2440:2472   */\n      swap1\n      swap2\n      and\n        /* \"#utility.yul\":2422:2473   */\n      dup2\n      mstore\n        /* \"#utility.yul\":2410:2412   */\n      0x20\n        /* \"#utility.yul\":2395:2413   */\n      add\n        /* \"UfoZiomToken_flattened.sol\":19972:20052  address public constant burnAddress = 0x000000000000000000000000000000000000dEaD */\n      tag_31\n        /* \"#utility.yul\":2276:2479   */\n      jump\n        /* \"UfoZiomToken_flattened.sol\":18877:18978  function renounceOwnership() public virtual onlyOwner {... */\n    tag_13:\n      tag_25\n      tag_69\n      jump\t// in\n        /* \"UfoZiomToken_flattened.sol\":18245:18330  function owner() public view virtual returns (address) {... */\n    tag_14:\n        /* \"UfoZiomToken_flattened.sol\":18317:18323  _owner */\n      and(sub(shl(0xa0, 0x01), 0x01), sload(0x05))\n        /* \"UfoZiomToken_flattened.sol\":18245:18330  function owner() public view virtual returns (address) {... */\n      jump(tag_64)\n        /* \"UfoZiomToken_flattened.sol\":6904:7006  function symbol() public view virtual override returns (string memory) {... */\n    tag_15:\n      tag_29\n      tag_74\n      jump\t// in\n        /* \"UfoZiomToken_flattened.sol\":20115:20140  uint256 public taxFee = 2 */\n    tag_16:\n      tag_39\n      sload(0x06)\n      dup2\n      jump\n        /* \"UfoZiomToken_flattened.sol\":11133:11562  function decreaseAllowance(address spender, uint256 subtractedValue) public virtual returns (bool) {... */\n    tag_17:\n      tag_33\n      tag_80\n      calldatasize\n      0x04\n      tag_35\n      jump\t// in\n    tag_80:\n      tag_81\n      jump\t// in\n        /* \"UfoZiomToken_flattened.sol\":8266:8455  function transfer(address to, uint256 amount) public virtual override returns (bool) {... */\n    tag_18:\n      tag_33\n      tag_84\n      calldatasize\n      0x04\n      tag_35\n      jump\t// in\n    tag_84:\n      tag_85\n      jump\t// in\n        /* \"UfoZiomToken_flattened.sol\":8513:8662  function allowance(address owner, address spender) public view virtual override returns (uint256) {... */\n    tag_19:\n      tag_39\n      tag_88\n      calldatasize\n      0x04\n      tag_89\n      jump\t// in\n    tag_88:\n      sub(shl(0xa0, 0x01), 0x01)\n        /* \"UfoZiomToken_flattened.sol\":8628:8646  _allowances[owner] */\n      swap2\n      dup3\n      and\n        /* \"UfoZiomToken_flattened.sol\":8602:8609  uint256 */\n      0x00\n        /* \"UfoZiomToken_flattened.sol\":8628:8646  _allowances[owner] */\n      swap1\n      dup2\n      mstore\n        /* \"UfoZiomToken_flattened.sol\":8628:8639  _allowances */\n      0x01\n        /* \"UfoZiomToken_flattened.sol\":8628:8646  _allowances[owner] */\n      0x20\n      swap1\n      dup2\n      mstore\n      0x40\n      dup1\n      dup4\n      keccak256\n        /* \"UfoZiomToken_flattened.sol\":8628:8655  _allowances[owner][spender] */\n      swap4\n      swap1\n      swap5\n      and\n      dup3\n      mstore\n      swap2\n      swap1\n      swap2\n      mstore\n      keccak256\n      sload\n      swap1\n        /* \"UfoZiomToken_flattened.sol\":8513:8662  function allowance(address owner, address spender) public view virtual override returns (uint256) {... */\n      jump\n        /* \"UfoZiomToken_flattened.sol\":21073:21183  function includeInFee(address account) external onlyOwner {... */\n    tag_20:\n      tag_25\n      tag_93\n      calldatasize\n      0x04\n      tag_58\n      jump\t// in\n    tag_93:\n      tag_94\n      jump\t// in\n        /* \"UfoZiomToken_flattened.sol\":19127:19325  function transferOwnership(address newOwner) public virtual onlyOwner {... */\n    tag_21:\n      tag_25\n      tag_96\n      calldatasize\n      0x04\n      tag_58\n      jump\t// in\n    tag_96:\n      tag_97\n      jump\t// in\n        /* \"UfoZiomToken_flattened.sol\":21335:21496  function setTaxFeePercent(uint256 fee) external onlyOwner {... */\n    tag_28:\n        /* \"UfoZiomToken_flattened.sol\":18317:18323  _owner */\n      and(sub(shl(0xa0, 0x01), 0x01), sload(0x05))\n        /* \"UfoZiomToken_flattened.sol\":4430:4440  msg.sender */\n      caller\n        /* \"UfoZiomToken_flattened.sol\":18457:18480  owner() == _msgSender() */\n      eq\n        /* \"UfoZiomToken_flattened.sol\":18449:18517  require(owner() == _msgSender(), \"Ownable: caller is not the owner\") */\n      tag_102\n      jumpi\n      mload(0x40)\n      shl(0xe5, 0x461bcd)\n      dup2\n      mstore\n      0x04\n      add\n      tag_103\n      swap1\n      tag_104\n      jump\t// in\n    tag_103:\n      mload(0x40)\n      dup1\n      swap2\n      sub\n      swap1\n      revert\n    tag_102:\n        /* \"UfoZiomToken_flattened.sol\":21430:21432  10 */\n      0x0a\n        /* \"UfoZiomToken_flattened.sol\":21423:21426  fee */\n      dup2\n        /* \"UfoZiomToken_flattened.sol\":21423:21432  fee <= 10 */\n      gt\n      iszero\n        /* \"UfoZiomToken_flattened.sol\":21403:21467  require(fee >= 0 && fee <= 10, \"Fee must be between 0% and 10%\") */\n      tag_107\n      jumpi\n      mload(0x40)\n      shl(0xe5, 0x461bcd)\n      dup2\n      mstore\n        /* \"#utility.yul\":3312:3314   */\n      0x20\n        /* \"UfoZiomToken_flattened.sol\":21403:21467  require(fee >= 0 && fee <= 10, \"Fee must be between 0% and 10%\") */\n      0x04\n      dup3\n      add\n        /* \"#utility.yul\":3294:3315   */\n      mstore\n        /* \"#utility.yul\":3351:3353   */\n      0x1e\n        /* \"#utility.yul\":3331:3349   */\n      0x24\n      dup3\n      add\n        /* \"#utility.yul\":3324:3354   */\n      mstore\n        /* \"#utility.yul\":3390:3422   */\n      0x466565206d757374206265206265747765656e20302520616e64203130250000\n        /* \"#utility.yul\":3370:3388   */\n      0x44\n      dup3\n      add\n        /* \"#utility.yul\":3363:3423   */\n      mstore\n        /* \"#utility.yul\":3440:3458   */\n      0x64\n      add\n        /* \"UfoZiomToken_flattened.sol\":21403:21467  require(fee >= 0 && fee <= 10, \"Fee must be between 0% and 10%\") */\n      tag_103\n        /* \"#utility.yul\":3110:3464   */\n      jump\n        /* \"UfoZiomToken_flattened.sol\":21403:21467  require(fee >= 0 && fee <= 10, \"Fee must be between 0% and 10%\") */\n    tag_107:\n        /* \"UfoZiomToken_flattened.sol\":21477:21483  taxFee */\n      0x06\n        /* \"UfoZiomToken_flattened.sol\":21477:21489  taxFee = fee */\n      sstore\n        /* \"UfoZiomToken_flattened.sol\":21335:21496  function setTaxFeePercent(uint256 fee) external onlyOwner {... */\n      jump\t// out\n        /* \"UfoZiomToken_flattened.sol\":6693:6791  function name() public view virtual override returns (string memory) {... */\n    tag_30:\n        /* \"UfoZiomToken_flattened.sol\":6747:6760  string memory */\n      0x60\n        /* \"UfoZiomToken_flattened.sol\":6779:6784  _name */\n      0x03\n        /* \"UfoZiomToken_flattened.sol\":6772:6784  return _name */\n      dup1\n      sload\n      tag_111\n      swap1\n      tag_112\n      jump\t// in\n    tag_111:\n      dup1\n      0x1f\n      add\n      0x20\n      dup1\n      swap2\n      div\n      mul\n      0x20\n      add\n      mload(0x40)\n      swap1\n      dup2\n      add\n      0x40\n      mstore\n      dup1\n      swap3\n      swap2\n      swap1\n      dup2\n      dup2\n      mstore\n      0x20\n      add\n      dup3\n      dup1\n      sload\n      tag_113\n      swap1\n      tag_112\n      jump\t// in\n    tag_113:\n      dup1\n      iszero\n      tag_114\n      jumpi\n      dup1\n      0x1f\n      lt\n      tag_115\n      jumpi\n      0x0100\n      dup1\n      dup4\n      sload\n      div\n      mul\n      dup4\n      mstore\n      swap2\n      0x20\n      add\n      swap2\n      jump(tag_114)\n    tag_115:\n      dup3\n      add\n      swap2\n      swap1\n      0x00\n      mstore\n      keccak256(0x00, 0x20)\n      swap1\n    tag_116:\n      dup2\n      sload\n      dup2\n      mstore\n      swap1\n      0x01\n      add\n      swap1\n      0x20\n      add\n      dup1\n      dup4\n      gt\n      tag_116\n      jumpi\n      dup3\n      swap1\n      sub\n      0x1f\n      and\n      dup3\n      add\n      swap2\n    tag_114:\n      pop\n      pop\n      pop\n      pop\n      pop\n      swap1\n      pop\n        /* \"UfoZiomToken_flattened.sol\":6693:6791  function name() public view virtual override returns (string memory) {... */\n      swap1\n      jump\t// out\n        /* \"UfoZiomToken_flattened.sol\":8970:9167  function approve(address spender, uint256 amount) public virtual override returns (bool) {... */\n    tag_36:\n        /* \"UfoZiomToken_flattened.sol\":9053:9057  bool */\n      0x00\n        /* \"UfoZiomToken_flattened.sol\":4430:4440  msg.sender */\n      caller\n        /* \"UfoZiomToken_flattened.sol\":9107:9139  _approve(owner, spender, amount) */\n      tag_119\n        /* \"UfoZiomToken_flattened.sol\":4430:4440  msg.sender */\n      dup2\n        /* \"UfoZiomToken_flattened.sol\":9123:9130  spender */\n      dup6\n        /* \"UfoZiomToken_flattened.sol\":9132:9138  amount */\n      dup6\n        /* \"UfoZiomToken_flattened.sol\":9107:9115  _approve */\n      tag_120\n        /* \"UfoZiomToken_flattened.sol\":9107:9139  _approve(owner, spender, amount) */\n      jump\t// in\n    tag_119:\n        /* \"UfoZiomToken_flattened.sol\":9156:9160  true */\n      0x01\n        /* \"UfoZiomToken_flattened.sol\":9149:9160  return true */\n      swap2\n      pop\n      pop\n        /* \"UfoZiomToken_flattened.sol\":8970:9167  function approve(address spender, uint256 amount) public virtual override returns (bool) {... */\n    tag_117:\n      swap3\n      swap2\n      pop\n      pop\n      jump\t// out\n        /* \"UfoZiomToken_flattened.sol\":9729:10015  function transferFrom(... */\n    tag_46:\n        /* \"UfoZiomToken_flattened.sol\":9856:9860  bool */\n      0x00\n        /* \"UfoZiomToken_flattened.sol\":4430:4440  msg.sender */\n      caller\n        /* \"UfoZiomToken_flattened.sol\":9912:9950  _spendAllowance(from, spender, amount) */\n      tag_124\n        /* \"UfoZiomToken_flattened.sol\":9928:9932  from */\n      dup6\n        /* \"UfoZiomToken_flattened.sol\":4430:4440  msg.sender */\n      dup3\n        /* \"UfoZiomToken_flattened.sol\":9943:9949  amount */\n      dup6\n        /* \"UfoZiomToken_flattened.sol\":9912:9927  _spendAllowance */\n      tag_125\n        /* \"UfoZiomToken_flattened.sol\":9912:9950  _spendAllowance(from, spender, amount) */\n      jump\t// in\n    tag_124:\n        /* \"UfoZiomToken_flattened.sol\":9960:9987  _transfer(from, to, amount) */\n      tag_126\n        /* \"UfoZiomToken_flattened.sol\":9970:9974  from */\n      dup6\n        /* \"UfoZiomToken_flattened.sol\":9976:9978  to */\n      dup6\n        /* \"UfoZiomToken_flattened.sol\":9980:9986  amount */\n      dup6\n        /* \"UfoZiomToken_flattened.sol\":9960:9969  _transfer */\n      tag_127\n        /* \"UfoZiomToken_flattened.sol\":9960:9987  _transfer(from, to, amount) */\n      jump\t// in\n    tag_126:\n      pop\n        /* \"UfoZiomToken_flattened.sol\":10004:10008  true */\n      0x01\n      swap5\n        /* \"UfoZiomToken_flattened.sol\":9729:10015  function transferFrom(... */\n      swap4\n      pop\n      pop\n      pop\n      pop\n      jump\t// out\n        /* \"UfoZiomToken_flattened.sol\":10410:10646  function increaseAllowance(address spender, uint256 addedValue) public virtual returns (bool) {... */\n    tag_54:\n        /* \"UfoZiomToken_flattened.sol\":4430:4440  msg.sender */\n      caller\n        /* \"UfoZiomToken_flattened.sol\":10498:10502  bool */\n      0x00\n        /* \"UfoZiomToken_flattened.sol\":10577:10595  _allowances[owner] */\n      dup2\n      dup2\n      mstore\n        /* \"UfoZiomToken_flattened.sol\":10577:10588  _allowances */\n      0x01\n        /* \"UfoZiomToken_flattened.sol\":10577:10595  _allowances[owner] */\n      0x20\n      swap1\n      dup2\n      mstore\n      0x40\n      dup1\n      dup4\n      keccak256\n      sub(shl(0xa0, 0x01), 0x01)\n        /* \"UfoZiomToken_flattened.sol\":10577:10604  _allowances[owner][spender] */\n      dup8\n      and\n      dup5\n      mstore\n      swap1\n      swap2\n      mstore\n      dup2\n      keccak256\n      sload\n        /* \"UfoZiomToken_flattened.sol\":10498:10502  bool */\n      swap1\n      swap2\n        /* \"UfoZiomToken_flattened.sol\":4430:4440  msg.sender */\n      swap1\n        /* \"UfoZiomToken_flattened.sol\":10552:10618  _approve(owner, spender, _allowances[owner][spender] + addedValue) */\n      tag_119\n      swap1\n        /* \"UfoZiomToken_flattened.sol\":4430:4440  msg.sender */\n      dup3\n      swap1\n        /* \"UfoZiomToken_flattened.sol\":10577:10604  _allowances[owner][spender] */\n      dup7\n      swap1\n        /* \"UfoZiomToken_flattened.sol\":10577:10617  _allowances[owner][spender] + addedValue */\n      tag_132\n      swap1\n        /* \"UfoZiomToken_flattened.sol\":10607:10617  addedValue */\n      dup8\n      swap1\n        /* \"UfoZiomToken_flattened.sol\":10577:10617  _allowances[owner][spender] + addedValue */\n      tag_133\n      jump\t// in\n    tag_132:\n        /* \"UfoZiomToken_flattened.sol\":10552:10560  _approve */\n      tag_120\n        /* \"UfoZiomToken_flattened.sol\":10552:10618  _approve(owner, spender, _allowances[owner][spender] + addedValue) */\n      jump\t// in\n        /* \"UfoZiomToken_flattened.sol\":20802:20913  function excludeFromFee(address account) external onlyOwner {... */\n    tag_59:\n        /* \"UfoZiomToken_flattened.sol\":18317:18323  _owner */\n      and(sub(shl(0xa0, 0x01), 0x01), sload(0x05))\n        /* \"UfoZiomToken_flattened.sol\":4430:4440  msg.sender */\n      caller\n        /* \"UfoZiomToken_flattened.sol\":18457:18480  owner() == _msgSender() */\n      eq\n        /* \"UfoZiomToken_flattened.sol\":18449:18517  require(owner() == _msgSender(), \"Ownable: caller is not the owner\") */\n      tag_137\n      jumpi\n      mload(0x40)\n      shl(0xe5, 0x461bcd)\n      dup2\n      mstore\n      0x04\n      add\n      tag_103\n      swap1\n      tag_104\n      jump\t// in\n    tag_137:\n      sub(shl(0xa0, 0x01), 0x01)\n        /* \"UfoZiomToken_flattened.sol\":20872:20899  _isExcludedFromFee[account] */\n      and\n      0x00\n      swap1\n      dup2\n      mstore\n        /* \"UfoZiomToken_flattened.sol\":20872:20890  _isExcludedFromFee */\n      0x07\n        /* \"UfoZiomToken_flattened.sol\":20872:20899  _isExcludedFromFee[account] */\n      0x20\n      mstore\n      0x40\n      swap1\n      keccak256\n        /* \"UfoZiomToken_flattened.sol\":20872:20906  _isExcludedFromFee[account] = true */\n      dup1\n      sload\n      not(0xff)\n      and\n        /* \"UfoZiomToken_flattened.sol\":20902:20906  true */\n      0x01\n        /* \"UfoZiomToken_flattened.sol\":20872:20906  _isExcludedFromFee[account] = true */\n      or\n      swap1\n      sstore\n        /* \"UfoZiomToken_flattened.sol\":20802:20913  function excludeFromFee(address account) external onlyOwner {... */\n      jump\t// out\n        /* \"UfoZiomToken_flattened.sol\":18877:18978  function renounceOwnership() public virtual onlyOwner {... */\n    tag_69:\n        /* \"UfoZiomToken_flattened.sol\":18317:18323  _owner */\n      and(sub(shl(0xa0, 0x01), 0x01), sload(0x05))\n        /* \"UfoZiomToken_flattened.sol\":4430:4440  msg.sender */\n      caller\n        /* \"UfoZiomToken_flattened.sol\":18457:18480  owner() == _msgSender() */\n      eq\n        /* \"UfoZiomToken_flattened.sol\":18449:18517  require(owner() == _msgSender(), \"Ownable: caller is not the owner\") */\n      tag_144\n      jumpi\n      mload(0x40)\n      shl(0xe5, 0x461bcd)\n      dup2\n      mstore\n      0x04\n      add\n      tag_103\n      swap1\n      tag_104\n      jump\t// in\n    tag_144:\n        /* \"UfoZiomToken_flattened.sol\":18941:18971  _transferOwnership(address(0)) */\n      tag_147\n        /* \"UfoZiomToken_flattened.sol\":18968:18969  0 */\n      0x00\n        /* \"UfoZiomToken_flattened.sol\":18941:18959  _transferOwnership */\n      tag_148\n        /* \"UfoZiomToken_flattened.sol\":18941:18971  _transferOwnership(address(0)) */\n      jump\t// in\n    tag_147:\n        /* \"UfoZiomToken_flattened.sol\":18877:18978  function renounceOwnership() public virtual onlyOwner {... */\n      jump\t// out\n        /* \"UfoZiomToken_flattened.sol\":6904:7006  function symbol() public view virtual override returns (string memory) {... */\n    tag_74:\n        /* \"UfoZiomToken_flattened.sol\":6960:6973  string memory */\n      0x60\n        /* \"UfoZiomToken_flattened.sol\":6992:6999  _symbol */\n      0x04\n        /* \"UfoZiomToken_flattened.sol\":6985:6999  return _symbol */\n      dup1\n      sload\n      tag_111\n      swap1\n      tag_112\n      jump\t// in\n        /* \"UfoZiomToken_flattened.sol\":11133:11562  function decreaseAllowance(address spender, uint256 subtractedValue) public virtual returns (bool) {... */\n    tag_81:\n        /* \"UfoZiomToken_flattened.sol\":4430:4440  msg.sender */\n      caller\n        /* \"UfoZiomToken_flattened.sol\":11226:11230  bool */\n      0x00\n        /* \"UfoZiomToken_flattened.sol\":11307:11325  _allowances[owner] */\n      dup2\n      dup2\n      mstore\n        /* \"UfoZiomToken_flattened.sol\":11307:11318  _allowances */\n      0x01\n        /* \"UfoZiomToken_flattened.sol\":11307:11325  _allowances[owner] */\n      0x20\n      swap1\n      dup2\n      mstore\n      0x40\n      dup1\n      dup4\n      keccak256\n      sub(shl(0xa0, 0x01), 0x01)\n        /* \"UfoZiomToken_flattened.sol\":11307:11334  _allowances[owner][spender] */\n      dup8\n      and\n      dup5\n      mstore\n      swap1\n      swap2\n      mstore\n      dup2\n      keccak256\n      sload\n        /* \"UfoZiomToken_flattened.sol\":11226:11230  bool */\n      swap1\n      swap2\n        /* \"UfoZiomToken_flattened.sol\":4430:4440  msg.sender */\n      swap1\n        /* \"UfoZiomToken_flattened.sol\":11352:11387  currentAllowance >= subtractedValue */\n      dup4\n      dup2\n      lt\n      iszero\n        /* \"UfoZiomToken_flattened.sol\":11344:11429  require(currentAllowance >= subtractedValue, \"ERC20: decreased allowance below zero\") */\n      tag_158\n      jumpi\n      mload(0x40)\n      shl(0xe5, 0x461bcd)\n      dup2\n      mstore\n        /* \"#utility.yul\":4318:4320   */\n      0x20\n        /* \"UfoZiomToken_flattened.sol\":11344:11429  require(currentAllowance >= subtractedValue, \"ERC20: decreased allowance below zero\") */\n      0x04\n      dup3\n      add\n        /* \"#utility.yul\":4300:4321   */\n      mstore\n        /* \"#utility.yul\":4357:4359   */\n      0x25\n        /* \"#utility.yul\":4337:4355   */\n      0x24\n      dup3\n      add\n        /* \"#utility.yul\":4330:4360   */\n      mstore\n        /* \"#utility.yul\":4396:4430   */\n      0x45524332303a2064656372656173656420616c6c6f77616e63652062656c6f77\n        /* \"#utility.yul\":4376:4394   */\n      0x44\n      dup3\n      add\n        /* \"#utility.yul\":4369:4431   */\n      mstore\n      shl(0xd8, 0x207a65726f)\n        /* \"#utility.yul\":4447:4465   */\n      0x64\n      dup3\n      add\n        /* \"#utility.yul\":4440:4475   */\n      mstore\n        /* \"#utility.yul\":4492:4511   */\n      0x84\n      add\n        /* \"UfoZiomToken_flattened.sol\":11344:11429  require(currentAllowance >= subtractedValue, \"ERC20: decreased allowance below zero\") */\n      tag_103\n        /* \"#utility.yul\":4116:4517   */\n      jump\n        /* \"UfoZiomToken_flattened.sol\":11344:11429  require(currentAllowance >= subtractedValue, \"ERC20: decreased allowance below zero\") */\n    tag_158:\n        /* \"UfoZiomToken_flattened.sol\":11463:11523  _approve(owner, spender, currentAllowance - subtractedValue) */\n      tag_126\n        /* \"UfoZiomToken_flattened.sol\":11472:11477  owner */\n      dup3\n        /* \"UfoZiomToken_flattened.sol\":11479:11486  spender */\n      dup7\n        /* \"UfoZiomToken_flattened.sol\":11507:11522  subtractedValue */\n      dup7\n        /* \"UfoZiomToken_flattened.sol\":11488:11504  currentAllowance */\n      dup5\n        /* \"UfoZiomToken_flattened.sol\":11488:11522  currentAllowance - subtractedValue */\n      sub\n        /* \"UfoZiomToken_flattened.sol\":11463:11471  _approve */\n      tag_120\n        /* \"UfoZiomToken_flattened.sol\":11463:11523  _approve(owner, spender, currentAllowance - subtractedValue) */\n      jump\t// in\n        /* \"UfoZiomToken_flattened.sol\":8266:8455  function transfer(address to, uint256 amount) public virtual override returns (bool) {... */\n    tag_85:\n        /* \"UfoZiomToken_flattened.sol\":8345:8349  bool */\n      0x00\n        /* \"UfoZiomToken_flattened.sol\":4430:4440  msg.sender */\n      caller\n        /* \"UfoZiomToken_flattened.sol\":8399:8427  _transfer(owner, to, amount) */\n      tag_119\n        /* \"UfoZiomToken_flattened.sol\":4430:4440  msg.sender */\n      dup2\n        /* \"UfoZiomToken_flattened.sol\":8416:8418  to */\n      dup6\n        /* \"UfoZiomToken_flattened.sol\":8420:8426  amount */\n      dup6\n        /* \"UfoZiomToken_flattened.sol\":8399:8408  _transfer */\n      tag_127\n        /* \"UfoZiomToken_flattened.sol\":8399:8427  _transfer(owner, to, amount) */\n      jump\t// in\n        /* \"UfoZiomToken_flattened.sol\":21073:21183  function includeInFee(address account) external onlyOwner {... */\n    tag_94:\n        /* \"UfoZiomToken_flattened.sol\":18317:18323  _owner */\n      and(sub(shl(0xa0, 0x01), 0x01), sload(0x05))\n        /* \"UfoZiomToken_flattened.sol\":4430:4440  msg.sender */\n      caller\n        /* \"UfoZiomToken_flattened.sol\":18457:18480  owner() == _msgSender() */\n      eq\n        /* \"UfoZiomToken_flattened.sol\":18449:18517  require(owner() == _msgSender(), \"Ownable: caller is not the owner\") */\n      tag_169\n      jumpi\n      mload(0x40)\n      shl(0xe5, 0x461bcd)\n      dup2\n      mstore\n      0x04\n      add\n      tag_103\n      swap1\n      tag_104\n      jump\t// in\n    tag_169:\n      sub(shl(0xa0, 0x01), 0x01)\n        /* \"UfoZiomToken_flattened.sol\":21141:21168  _isExcludedFromFee[account] */\n      and\n        /* \"UfoZiomToken_flattened.sol\":21171:21176  false */\n      0x00\n        /* \"UfoZiomToken_flattened.sol\":21141:21168  _isExcludedFromFee[account] */\n      swap1\n      dup2\n      mstore\n        /* \"UfoZiomToken_flattened.sol\":21141:21159  _isExcludedFromFee */\n      0x07\n        /* \"UfoZiomToken_flattened.sol\":21141:21168  _isExcludedFromFee[account] */\n      0x20\n      mstore\n      0x40\n      swap1\n      keccak256\n        /* \"UfoZiomToken_flattened.sol\":21141:21176  _isExcludedFromFee[account] = false */\n      dup1\n      sload\n      not(0xff)\n      and\n      swap1\n      sstore\n        /* \"UfoZiomToken_flattened.sol\":21073:21183  function includeInFee(address account) external onlyOwner {... */\n      jump\t// out\n        /* \"UfoZiomToken_flattened.sol\":19127:19325  function transferOwnership(address newOwner) public virtual onlyOwner {... */\n    tag_97:\n        /* \"UfoZiomToken_flattened.sol\":18317:18323  _owner */\n      and(sub(shl(0xa0, 0x01), 0x01), sload(0x05))\n        /* \"UfoZiomToken_flattened.sol\":4430:4440  msg.sender */\n      caller\n        /* \"UfoZiomToken_flattened.sol\":18457:18480  owner() == _msgSender() */\n      eq\n        /* \"UfoZiomToken_flattened.sol\":18449:18517  require(owner() == _msgSender(), \"Ownable: caller is not the owner\") */\n      tag_175\n      jumpi\n      mload(0x40)\n      shl(0xe5, 0x461bcd)\n      dup2\n      mstore\n      0x04\n      add\n      tag_103\n      swap1\n      tag_104\n      jump\t// in\n    tag_175:\n      sub(shl(0xa0, 0x01), 0x01)\n        /* \"UfoZiomToken_flattened.sol\":19215:19237  newOwner != address(0) */\n      dup2\n      and\n        /* \"UfoZiomToken_flattened.sol\":19207:19280  require(newOwner != address(0), \"Ownable: new owner is the zero address\") */\n      tag_178\n      jumpi\n      mload(0x40)\n      shl(0xe5, 0x461bcd)\n      dup2\n      mstore\n        /* \"#utility.yul\":4724:4726   */\n      0x20\n        /* \"UfoZiomToken_flattened.sol\":19207:19280  require(newOwner != address(0), \"Ownable: new owner is the zero address\") */\n      0x04\n      dup3\n      add\n        /* \"#utility.yul\":4706:4727   */\n      mstore\n        /* \"#utility.yul\":4763:4765   */\n      0x26\n        /* \"#utility.yul\":4743:4761   */\n      0x24\n      dup3\n      add\n        /* \"#utility.yul\":4736:4766   */\n      mstore\n        /* \"#utility.yul\":4802:4836   */\n      0x4f776e61626c653a206e6577206f776e657220697320746865207a65726f2061\n        /* \"#utility.yul\":4782:4800   */\n      0x44\n      dup3\n      add\n        /* \"#utility.yul\":4775:4837   */\n      mstore\n      shl(0xd0, 0x646472657373)\n        /* \"#utility.yul\":4853:4871   */\n      0x64\n      dup3\n      add\n        /* \"#utility.yul\":4846:4882   */\n      mstore\n        /* \"#utility.yul\":4899:4918   */\n      0x84\n      add\n        /* \"UfoZiomToken_flattened.sol\":19207:19280  require(newOwner != address(0), \"Ownable: new owner is the zero address\") */\n      tag_103\n        /* \"#utility.yul\":4522:4924   */\n      jump\n        /* \"UfoZiomToken_flattened.sol\":19207:19280  require(newOwner != address(0), \"Ownable: new owner is the zero address\") */\n    tag_178:\n        /* \"UfoZiomToken_flattened.sol\":19290:19318  _transferOwnership(newOwner) */\n      tag_181\n        /* \"UfoZiomToken_flattened.sol\":19309:19317  newOwner */\n      dup2\n        /* \"UfoZiomToken_flattened.sol\":19290:19308  _transferOwnership */\n      tag_148\n        /* \"UfoZiomToken_flattened.sol\":19290:19318  _transferOwnership(newOwner) */\n      jump\t// in\n    tag_181:\n        /* \"UfoZiomToken_flattened.sol\":19127:19325  function transferOwnership(address newOwner) public virtual onlyOwner {... */\n      pop\n      jump\t// out\n        /* \"UfoZiomToken_flattened.sol\":14660:15030  function _approve(... */\n    tag_120:\n      sub(shl(0xa0, 0x01), 0x01)\n        /* \"UfoZiomToken_flattened.sol\":14791:14810  owner != address(0) */\n      dup4\n      and\n        /* \"UfoZiomToken_flattened.sol\":14783:14851  require(owner != address(0), \"ERC20: approve from the zero address\") */\n      tag_184\n      jumpi\n      mload(0x40)\n      shl(0xe5, 0x461bcd)\n      dup2\n      mstore\n        /* \"#utility.yul\":5131:5133   */\n      0x20\n        /* \"UfoZiomToken_flattened.sol\":14783:14851  require(owner != address(0), \"ERC20: approve from the zero address\") */\n      0x04\n      dup3\n      add\n        /* \"#utility.yul\":5113:5134   */\n      mstore\n        /* \"#utility.yul\":5170:5172   */\n      0x24\n        /* \"#utility.yul\":5150:5168   */\n      dup1\n      dup3\n      add\n        /* \"#utility.yul\":5143:5173   */\n      mstore\n        /* \"#utility.yul\":5209:5243   */\n      0x45524332303a20617070726f76652066726f6d20746865207a65726f20616464\n        /* \"#utility.yul\":5189:5207   */\n      0x44\n      dup3\n      add\n        /* \"#utility.yul\":5182:5244   */\n      mstore\n      shl(0xe0, 0x72657373)\n        /* \"#utility.yul\":5260:5278   */\n      0x64\n      dup3\n      add\n        /* \"#utility.yul\":5253:5287   */\n      mstore\n        /* \"#utility.yul\":5304:5323   */\n      0x84\n      add\n        /* \"UfoZiomToken_flattened.sol\":14783:14851  require(owner != address(0), \"ERC20: approve from the zero address\") */\n      tag_103\n        /* \"#utility.yul\":4929:5329   */\n      jump\n        /* \"UfoZiomToken_flattened.sol\":14783:14851  require(owner != address(0), \"ERC20: approve from the zero address\") */\n    tag_184:\n      sub(shl(0xa0, 0x01), 0x01)\n        /* \"UfoZiomToken_flattened.sol\":14869:14890  spender != address(0) */\n      dup3\n      and\n        /* \"UfoZiomToken_flattened.sol\":14861:14929  require(spender != address(0), \"ERC20: approve to the zero address\") */\n      tag_187\n      jumpi\n      mload(0x40)\n      shl(0xe5, 0x461bcd)\n      dup2\n      mstore\n        /* \"#utility.yul\":5536:5538   */\n      0x20\n        /* \"UfoZiomToken_flattened.sol\":14861:14929  require(spender != address(0), \"ERC20: approve to the zero address\") */\n      0x04\n      dup3\n      add\n        /* \"#utility.yul\":5518:5539   */\n      mstore\n        /* \"#utility.yul\":5575:5577   */\n      0x22\n        /* \"#utility.yul\":5555:5573   */\n      0x24\n      dup3\n      add\n        /* \"#utility.yul\":5548:5578   */\n      mstore\n        /* \"#utility.yul\":5614:5648   */\n      0x45524332303a20617070726f766520746f20746865207a65726f206164647265\n        /* \"#utility.yul\":5594:5612   */\n      0x44\n      dup3\n      add\n        /* \"#utility.yul\":5587:5649   */\n      mstore\n      shl(0xf0, 0x7373)\n        /* \"#utility.yul\":5665:5683   */\n      0x64\n      dup3\n      add\n        /* \"#utility.yul\":5658:5690   */\n      mstore\n        /* \"#utility.yul\":5707:5726   */\n      0x84\n      add\n        /* \"UfoZiomToken_flattened.sol\":14861:14929  require(spender != address(0), \"ERC20: approve to the zero address\") */\n      tag_103\n        /* \"#utility.yul\":5334:5732   */\n      jump\n        /* \"UfoZiomToken_flattened.sol\":14861:14929  require(spender != address(0), \"ERC20: approve to the zero address\") */\n    tag_187:\n      sub(shl(0xa0, 0x01), 0x01)\n        /* \"UfoZiomToken_flattened.sol\":14940:14958  _allowances[owner] */\n      dup4\n      dup2\n      and\n      0x00\n      dup2\n      dup2\n      mstore\n        /* \"UfoZiomToken_flattened.sol\":14940:14951  _allowances */\n      0x01\n        /* \"UfoZiomToken_flattened.sol\":14940:14958  _allowances[owner] */\n      0x20\n      swap1\n      dup2\n      mstore\n      0x40\n      dup1\n      dup4\n      keccak256\n        /* \"UfoZiomToken_flattened.sol\":14940:14967  _allowances[owner][spender] */\n      swap5\n      dup8\n      and\n      dup1\n      dup5\n      mstore\n      swap5\n      dup3\n      mstore\n      swap2\n      dup3\n      swap1\n      keccak256\n        /* \"UfoZiomToken_flattened.sol\":14940:14976  _allowances[owner][spender] = amount */\n      dup6\n      swap1\n      sstore\n        /* \"UfoZiomToken_flattened.sol\":14991:15023  Approval(owner, spender, amount) */\n      swap1\n      mload\n        /* \"#utility.yul\":1527:1552   */\n      dup5\n      dup2\n      mstore\n        /* \"UfoZiomToken_flattened.sol\":14991:15023  Approval(owner, spender, amount) */\n      0x8c5be1e5ebec7d5bd14f71427d1e84f3dd0314c0f7b2291e5b200ac8c7c3b925\n      swap2\n        /* \"#utility.yul\":1500:1518   */\n      add\n        /* \"UfoZiomToken_flattened.sol\":14991:15023  Approval(owner, spender, amount) */\n      mload(0x40)\n      dup1\n      swap2\n      sub\n      swap1\n      log3\n        /* \"UfoZiomToken_flattened.sol\":14660:15030  function _approve(... */\n      pop\n      pop\n      pop\n      jump\t// out\n        /* \"UfoZiomToken_flattened.sol\":15307:15748  function _spendAllowance(... */\n    tag_125:\n      sub(shl(0xa0, 0x01), 0x01)\n        /* \"UfoZiomToken_flattened.sol\":8628:8646  _allowances[owner] */\n      dup4\n      dup2\n      and\n        /* \"UfoZiomToken_flattened.sol\":15437:15461  uint256 currentAllowance */\n      0x00\n        /* \"UfoZiomToken_flattened.sol\":8628:8646  _allowances[owner] */\n      swap1\n      dup2\n      mstore\n        /* \"UfoZiomToken_flattened.sol\":8628:8639  _allowances */\n      0x01\n        /* \"UfoZiomToken_flattened.sol\":8628:8646  _allowances[owner] */\n      0x20\n      swap1\n      dup2\n      mstore\n      0x40\n      dup1\n      dup4\n      keccak256\n        /* \"UfoZiomToken_flattened.sol\":8628:8655  _allowances[owner][spender] */\n      swap4\n      dup7\n      and\n      dup4\n      mstore\n      swap3\n      swap1\n      mstore\n      keccak256\n      sload\n      not(0x00)\n        /* \"UfoZiomToken_flattened.sol\":15503:15540  currentAllowance != type(uint256).max */\n      dup2\n      eq\n        /* \"UfoZiomToken_flattened.sol\":15499:15742  if (currentAllowance != type(uint256).max) {... */\n      tag_197\n      jumpi\n        /* \"UfoZiomToken_flattened.sol\":15584:15590  amount */\n      dup2\n        /* \"UfoZiomToken_flattened.sol\":15564:15580  currentAllowance */\n      dup2\n        /* \"UfoZiomToken_flattened.sol\":15564:15590  currentAllowance >= amount */\n      lt\n      iszero\n        /* \"UfoZiomToken_flattened.sol\":15556:15624  require(currentAllowance >= amount, \"ERC20: insufficient allowance\") */\n      tag_194\n      jumpi\n      mload(0x40)\n      shl(0xe5, 0x461bcd)\n      dup2\n      mstore\n        /* \"#utility.yul\":5939:5941   */\n      0x20\n        /* \"UfoZiomToken_flattened.sol\":15556:15624  require(currentAllowance >= amount, \"ERC20: insufficient allowance\") */\n      0x04\n      dup3\n      add\n        /* \"#utility.yul\":5921:5942   */\n      mstore\n        /* \"#utility.yul\":5978:5980   */\n      0x1d\n        /* \"#utility.yul\":5958:5976   */\n      0x24\n      dup3\n      add\n        /* \"#utility.yul\":5951:5981   */\n      mstore\n        /* \"#utility.yul\":6017:6048   */\n      0x45524332303a20696e73756666696369656e7420616c6c6f77616e6365000000\n        /* \"#utility.yul\":5997:6015   */\n      0x44\n      dup3\n      add\n        /* \"#utility.yul\":5990:6049   */\n      mstore\n        /* \"#utility.yul\":6066:6084   */\n      0x64\n      add\n        /* \"UfoZiomToken_flattened.sol\":15556:15624  require(currentAllowance >= amount, \"ERC20: insufficient allowance\") */\n      tag_103\n        /* \"#utility.yul\":5737:6090   */\n      jump\n        /* \"UfoZiomToken_flattened.sol\":15556:15624  require(currentAllowance >= amount, \"ERC20: insufficient allowance\") */\n    tag_194:\n        /* \"UfoZiomToken_flattened.sol\":15666:15717  _approve(owner, spender, currentAllowance - amount) */\n      tag_197\n        /* \"UfoZiomToken_flattened.sol\":15675:15680  owner */\n      dup5\n        /* \"UfoZiomToken_flattened.sol\":15682:15689  spender */\n      dup5\n        /* \"UfoZiomToken_flattened.sol\":15710:15716  amount */\n      dup5\n        /* \"UfoZiomToken_flattened.sol\":15691:15707  currentAllowance */\n      dup5\n        /* \"UfoZiomToken_flattened.sol\":15691:15716  currentAllowance - amount */\n      sub\n        /* \"UfoZiomToken_flattened.sol\":15666:15674  _approve */\n      tag_120\n        /* \"UfoZiomToken_flattened.sol\":15666:15717  _approve(owner, spender, currentAllowance - amount) */\n      jump\t// in\n    tag_197:\n        /* \"UfoZiomToken_flattened.sol\":15427:15748  {... */\n      pop\n        /* \"UfoZiomToken_flattened.sol\":15307:15748  function _spendAllowance(... */\n      pop\n      pop\n      pop\n      jump\t// out\n        /* \"UfoZiomToken_flattened.sol\":21776:22500  function _transfer(address sender, address recipient, uint256 amount) internal override {... */\n    tag_127:\n      sub(shl(0xa0, 0x01), 0x01)\n        /* \"UfoZiomToken_flattened.sol\":21878:21904  _isExcludedFromFee[sender] */\n      dup4\n      and\n      0x00\n      swap1\n      dup2\n      mstore\n        /* \"UfoZiomToken_flattened.sol\":21878:21896  _isExcludedFromFee */\n      0x07\n        /* \"UfoZiomToken_flattened.sol\":21878:21904  _isExcludedFromFee[sender] */\n      0x20\n      mstore\n      0x40\n      swap1\n      keccak256\n      sload\n      0xff\n      and\n      dup1\n        /* \"UfoZiomToken_flattened.sol\":21878:21937  _isExcludedFromFee[sender] || _isExcludedFromFee[recipient] */\n      tag_199\n      jumpi\n      pop\n      sub(shl(0xa0, 0x01), 0x01)\n        /* \"UfoZiomToken_flattened.sol\":21908:21937  _isExcludedFromFee[recipient] */\n      dup3\n      and\n      0x00\n      swap1\n      dup2\n      mstore\n        /* \"UfoZiomToken_flattened.sol\":21908:21926  _isExcludedFromFee */\n      0x07\n        /* \"UfoZiomToken_flattened.sol\":21908:21937  _isExcludedFromFee[recipient] */\n      0x20\n      mstore\n      0x40\n      swap1\n      keccak256\n      sload\n      0xff\n      and\n        /* \"UfoZiomToken_flattened.sol\":21878:21937  _isExcludedFromFee[sender] || _isExcludedFromFee[recipient] */\n    tag_199:\n        /* \"UfoZiomToken_flattened.sol\":21874:22494  if (_isExcludedFromFee[sender] || _isExcludedFromFee[recipient]) {... */\n      iszero\n      tag_200\n      jumpi\n        /* \"UfoZiomToken_flattened.sol\":22048:22090  super._transfer(sender, recipient, amount) */\n      tag_201\n        /* \"UfoZiomToken_flattened.sol\":22064:22070  sender */\n      dup4\n        /* \"UfoZiomToken_flattened.sol\":22072:22081  recipient */\n      dup4\n        /* \"UfoZiomToken_flattened.sol\":22083:22089  amount */\n      dup4\n        /* \"UfoZiomToken_flattened.sol\":22048:22063  super._transfer */\n      tag_202\n        /* \"UfoZiomToken_flattened.sol\":22048:22090  super._transfer(sender, recipient, amount) */\n      jump\t// in\n    tag_201:\n        /* \"UfoZiomToken_flattened.sol\":21776:22500  function _transfer(address sender, address recipient, uint256 amount) internal override {... */\n      pop\n      pop\n      pop\n      jump\t// out\n        /* \"UfoZiomToken_flattened.sol\":21874:22494  if (_isExcludedFromFee[sender] || _isExcludedFromFee[recipient]) {... */\n    tag_200:\n        /* \"UfoZiomToken_flattened.sol\":22161:22178  uint256 feeAmount */\n      0x00\n        /* \"UfoZiomToken_flattened.sol\":22199:22202  100 */\n      0x64\n        /* \"UfoZiomToken_flattened.sol\":22190:22196  taxFee */\n      sload(0x06)\n        /* \"UfoZiomToken_flattened.sol\":22181:22187  amount */\n      dup4\n        /* \"UfoZiomToken_flattened.sol\":22181:22196  amount * taxFee */\n      tag_204\n      swap2\n      swap1\n      tag_205\n      jump\t// in\n    tag_204:\n        /* \"UfoZiomToken_flattened.sol\":22181:22202  amount * taxFee / 100 */\n      tag_206\n      swap2\n      swap1\n      tag_207\n      jump\t// in\n    tag_206:\n        /* \"UfoZiomToken_flattened.sol\":22161:22202  uint256 feeAmount = amount * taxFee / 100 */\n      swap1\n      pop\n        /* \"UfoZiomToken_flattened.sol\":22216:22238  uint256 amountAfterFee */\n      0x00\n        /* \"UfoZiomToken_flattened.sol\":22241:22259  amount - feeAmount */\n      tag_208\n        /* \"UfoZiomToken_flattened.sol\":22161:22202  uint256 feeAmount = amount * taxFee / 100 */\n      dup3\n        /* \"UfoZiomToken_flattened.sol\":22241:22247  amount */\n      dup5\n        /* \"UfoZiomToken_flattened.sol\":22241:22259  amount - feeAmount */\n      tag_209\n      jump\t// in\n    tag_208:\n        /* \"UfoZiomToken_flattened.sol\":22216:22259  uint256 amountAfterFee = amount - feeAmount */\n      swap1\n      pop\n        /* \"UfoZiomToken_flattened.sol\":22309:22356  super._transfer(sender, burnAddress, feeAmount) */\n      tag_210\n        /* \"UfoZiomToken_flattened.sol\":22325:22331  sender */\n      dup6\n        /* \"UfoZiomToken_flattened.sol\":20010:20052  0x000000000000000000000000000000000000dEaD */\n      0xdead\n        /* \"UfoZiomToken_flattened.sol\":22346:22355  feeAmount */\n      dup5\n        /* \"UfoZiomToken_flattened.sol\":22309:22324  super._transfer */\n      tag_202\n        /* \"UfoZiomToken_flattened.sol\":22309:22356  super._transfer(sender, burnAddress, feeAmount) */\n      jump\t// in\n    tag_210:\n        /* \"UfoZiomToken_flattened.sol\":22433:22483  super._transfer(sender, recipient, amountAfterFee) */\n      tag_211\n        /* \"UfoZiomToken_flattened.sol\":22449:22455  sender */\n      dup6\n        /* \"UfoZiomToken_flattened.sol\":22457:22466  recipient */\n      dup6\n        /* \"UfoZiomToken_flattened.sol\":22468:22482  amountAfterFee */\n      dup4\n        /* \"UfoZiomToken_flattened.sol\":22433:22448  super._transfer */\n      tag_202\n        /* \"UfoZiomToken_flattened.sol\":22433:22483  super._transfer(sender, recipient, amountAfterFee) */\n      jump\t// in\n    tag_211:\n        /* \"UfoZiomToken_flattened.sol\":22107:22494  {... */\n      pop\n      pop\n        /* \"UfoZiomToken_flattened.sol\":21776:22500  function _transfer(address sender, address recipient, uint256 amount) internal override {... */\n      pop\n      pop\n      pop\n      jump\t// out\n        /* \"UfoZiomToken_flattened.sol\":19479:19666  function _transferOwnership(address newOwner) internal virtual {... */\n    tag_148:\n        /* \"UfoZiomToken_flattened.sol\":19571:19577  _owner */\n      0x05\n      dup1\n      sload\n      sub(shl(0xa0, 0x01), 0x01)\n        /* \"UfoZiomToken_flattened.sol\":19587:19604  _owner = newOwner */\n      dup4\n      dup2\n      and\n      not(sub(shl(0xa0, 0x01), 0x01))\n      dup4\n      and\n      dup2\n      or\n      swap1\n      swap4\n      sstore\n        /* \"UfoZiomToken_flattened.sol\":19619:19659  OwnershipTransferred(oldOwner, newOwner) */\n      mload(0x40)\n        /* \"UfoZiomToken_flattened.sol\":19571:19577  _owner */\n      swap2\n      and\n      swap2\n        /* \"UfoZiomToken_flattened.sol\":19587:19604  _owner = newOwner */\n      swap1\n        /* \"UfoZiomToken_flattened.sol\":19571:19577  _owner */\n      dup3\n      swap1\n        /* \"UfoZiomToken_flattened.sol\":19619:19659  OwnershipTransferred(oldOwner, newOwner) */\n      0x8be0079c531659141344cd1fd0a4f28419497f9722a3daafe3b4186f6b6457e0\n      swap1\n        /* \"UfoZiomToken_flattened.sol\":19552:19568  address oldOwner */\n      0x00\n      swap1\n        /* \"UfoZiomToken_flattened.sol\":19619:19659  OwnershipTransferred(oldOwner, newOwner) */\n      log3\n        /* \"UfoZiomToken_flattened.sol\":19542:19666  {... */\n      pop\n        /* \"UfoZiomToken_flattened.sol\":19479:19666  function _transferOwnership(address newOwner) internal virtual {... */\n      pop\n      jump\t// out\n        /* \"UfoZiomToken_flattened.sol\":12025:12676  function _transfer(... */\n    tag_202:\n      sub(shl(0xa0, 0x01), 0x01)\n        /* \"UfoZiomToken_flattened.sol\":12151:12169  from != address(0) */\n      dup4\n      and\n        /* \"UfoZiomToken_flattened.sol\":12143:12211  require(from != address(0), \"ERC20: transfer from the zero address\") */\n      tag_214\n      jumpi\n      mload(0x40)\n      shl(0xe5, 0x461bcd)\n      dup2\n      mstore\n        /* \"#utility.yul\":6825:6827   */\n      0x20\n        /* \"UfoZiomToken_flattened.sol\":12143:12211  require(from != address(0), \"ERC20: transfer from the zero address\") */\n      0x04\n      dup3\n      add\n        /* \"#utility.yul\":6807:6828   */\n      mstore\n        /* \"#utility.yul\":6864:6866   */\n      0x25\n        /* \"#utility.yul\":6844:6862   */\n      0x24\n      dup3\n      add\n        /* \"#utility.yul\":6837:6867   */\n      mstore\n        /* \"#utility.yul\":6903:6937   */\n      0x45524332303a207472616e736665722066726f6d20746865207a65726f206164\n        /* \"#utility.yul\":6883:6901   */\n      0x44\n      dup3\n      add\n        /* \"#utility.yul\":6876:6938   */\n      mstore\n      shl(0xd8, 0x6472657373)\n        /* \"#utility.yul\":6954:6972   */\n      0x64\n      dup3\n      add\n        /* \"#utility.yul\":6947:6982   */\n      mstore\n        /* \"#utility.yul\":6999:7018   */\n      0x84\n      add\n        /* \"UfoZiomToken_flattened.sol\":12143:12211  require(from != address(0), \"ERC20: transfer from the zero address\") */\n      tag_103\n        /* \"#utility.yul\":6623:7024   */\n      jump\n        /* \"UfoZiomToken_flattened.sol\":12143:12211  require(from != address(0), \"ERC20: transfer from the zero address\") */\n    tag_214:\n      sub(shl(0xa0, 0x01), 0x01)\n        /* \"UfoZiomToken_flattened.sol\":12229:12245  to != address(0) */\n      dup3\n      and\n        /* \"UfoZiomToken_flattened.sol\":12221:12285  require(to != address(0), \"ERC20: transfer to the zero address\") */\n      tag_217\n      jumpi\n      mload(0x40)\n      shl(0xe5, 0x461bcd)\n      dup2\n      mstore\n        /* \"#utility.yul\":7231:7233   */\n      0x20\n        /* \"UfoZiomToken_flattened.sol\":12221:12285  require(to != address(0), \"ERC20: transfer to the zero address\") */\n      0x04\n      dup3\n      add\n        /* \"#utility.yul\":7213:7234   */\n      mstore\n        /* \"#utility.yul\":7270:7272   */\n      0x23\n        /* \"#utility.yul\":7250:7268   */\n      0x24\n      dup3\n      add\n        /* \"#utility.yul\":7243:7273   */\n      mstore\n        /* \"#utility.yul\":7309:7343   */\n      0x45524332303a207472616e7366657220746f20746865207a65726f2061646472\n        /* \"#utility.yul\":7289:7307   */\n      0x44\n      dup3\n      add\n        /* \"#utility.yul\":7282:7344   */\n      mstore\n      shl(0xe8, 0x657373)\n        /* \"#utility.yul\":7360:7378   */\n      0x64\n      dup3\n      add\n        /* \"#utility.yul\":7353:7386   */\n      mstore\n        /* \"#utility.yul\":7403:7422   */\n      0x84\n      add\n        /* \"UfoZiomToken_flattened.sol\":12221:12285  require(to != address(0), \"ERC20: transfer to the zero address\") */\n      tag_103\n        /* \"#utility.yul\":7029:7428   */\n      jump\n        /* \"UfoZiomToken_flattened.sol\":12221:12285  require(to != address(0), \"ERC20: transfer to the zero address\") */\n    tag_217:\n      sub(shl(0xa0, 0x01), 0x01)\n        /* \"UfoZiomToken_flattened.sol\":12367:12382  _balances[from] */\n      dup4\n      and\n        /* \"UfoZiomToken_flattened.sol\":12345:12364  uint256 fromBalance */\n      0x00\n        /* \"UfoZiomToken_flattened.sol\":12367:12382  _balances[from] */\n      swap1\n      dup2\n      mstore\n      0x20\n      dup2\n      swap1\n      mstore\n      0x40\n      swap1\n      keccak256\n      sload\n        /* \"UfoZiomToken_flattened.sol\":12400:12421  fromBalance >= amount */\n      dup2\n      dup2\n      lt\n      iszero\n        /* \"UfoZiomToken_flattened.sol\":12392:12464  require(fromBalance >= amount, \"ERC20: transfer amount exceeds balance\") */\n      tag_222\n      jumpi\n      mload(0x40)\n      shl(0xe5, 0x461bcd)\n      dup2\n      mstore\n        /* \"#utility.yul\":7635:7637   */\n      0x20\n        /* \"UfoZiomToken_flattened.sol\":12392:12464  require(fromBalance >= amount, \"ERC20: transfer amount exceeds balance\") */\n      0x04\n      dup3\n      add\n        /* \"#utility.yul\":7617:7638   */\n      mstore\n        /* \"#utility.yul\":7674:7676   */\n      0x26\n        /* \"#utility.yul\":7654:7672   */\n      0x24\n      dup3\n      add\n        /* \"#utility.yul\":7647:7677   */\n      mstore\n        /* \"#utility.yul\":7713:7747   */\n      0x45524332303a207472616e7366657220616d6f756e7420657863656564732062\n        /* \"#utility.yul\":7693:7711   */\n      0x44\n      dup3\n      add\n        /* \"#utility.yul\":7686:7748   */\n      mstore\n      shl(0xd0, 0x616c616e6365)\n        /* \"#utility.yul\":7764:7782   */\n      0x64\n      dup3\n      add\n        /* \"#utility.yul\":7757:7793   */\n      mstore\n        /* \"#utility.yul\":7810:7829   */\n      0x84\n      add\n        /* \"UfoZiomToken_flattened.sol\":12392:12464  require(fromBalance >= amount, \"ERC20: transfer amount exceeds balance\") */\n      tag_103\n        /* \"#utility.yul\":7433:7835   */\n      jump\n        /* \"UfoZiomToken_flattened.sol\":12392:12464  require(fromBalance >= amount, \"ERC20: transfer amount exceeds balance\") */\n    tag_222:\n      sub(shl(0xa0, 0x01), 0x01)\n        /* \"UfoZiomToken_flattened.sol\":12498:12513  _balances[from] */\n      dup1\n      dup6\n      and\n        /* \"UfoZiomToken_flattened.sol\":12498:12507  _balances */\n      0x00\n        /* \"UfoZiomToken_flattened.sol\":12498:12513  _balances[from] */\n      swap1\n      dup2\n      mstore\n      0x20\n      dup2\n      swap1\n      mstore\n      0x40\n      dup1\n      dup3\n      keccak256\n        /* \"UfoZiomToken_flattened.sol\":12516:12536  fromBalance - amount */\n      dup6\n      dup6\n      sub\n        /* \"UfoZiomToken_flattened.sol\":12498:12536  _balances[from] = fromBalance - amount */\n      swap1\n      sstore\n        /* \"UfoZiomToken_flattened.sol\":12556:12569  _balances[to] */\n      swap2\n      dup6\n      and\n      dup2\n      mstore\n      swap1\n      dup2\n      keccak256\n        /* \"UfoZiomToken_flattened.sol\":12556:12579  _balances[to] += amount */\n      dup1\n      sload\n        /* \"UfoZiomToken_flattened.sol\":12530:12536  amount */\n      dup5\n      swap3\n        /* \"UfoZiomToken_flattened.sol\":12498:12507  _balances */\n      swap1\n        /* \"UfoZiomToken_flattened.sol\":12556:12579  _balances[to] += amount */\n      tag_225\n      swap1\n        /* \"UfoZiomToken_flattened.sol\":12530:12536  amount */\n      dup5\n      swap1\n        /* \"UfoZiomToken_flattened.sol\":12556:12579  _balances[to] += amount */\n      tag_133\n      jump\t// in\n    tag_225:\n      swap3\n      pop\n      pop\n      dup2\n      swap1\n      sstore\n      pop\n        /* \"UfoZiomToken_flattened.sol\":12610:12612  to */\n      dup3\n      sub(shl(0xa0, 0x01), 0x01)\n        /* \"UfoZiomToken_flattened.sol\":12595:12621  Transfer(from, to, amount) */\n      and\n        /* \"UfoZiomToken_flattened.sol\":12604:12608  from */\n      dup5\n      sub(shl(0xa0, 0x01), 0x01)\n        /* \"UfoZiomToken_flattened.sol\":12595:12621  Transfer(from, to, amount) */\n      and\n      0xddf252ad1be2c89b69c2b068fc378daa952ba7f163c4a11628f55a4df523b3ef\n        /* \"UfoZiomToken_flattened.sol\":12614:12620  amount */\n      dup5\n        /* \"UfoZiomToken_flattened.sol\":12595:12621  Transfer(from, to, amount) */\n      mload(0x40)\n      tag_226\n      swap2\n        /* \"#utility.yul\":1527:1552   */\n      dup2\n      mstore\n        /* \"#utility.yul\":1515:1517   */\n      0x20\n        /* \"#utility.yul\":1500:1518   */\n      add\n      swap1\n        /* \"#utility.yul\":1381:1558   */\n      jump\n        /* \"UfoZiomToken_flattened.sol\":12595:12621  Transfer(from, to, amount) */\n    tag_226:\n      mload(0x40)\n      dup1\n      swap2\n      sub\n      swap1\n      log3\n        /* \"UfoZiomToken_flattened.sol\":12632:12669  _afterTokenTransfer(from, to, amount) */\n      tag_197\n        /* \"UfoZiomToken_flattened.sol\":21776:22500  function _transfer(address sender, address recipient, uint256 amount) internal override {... */\n      jump\n        /* \"#utility.yul\":14:194   */\n    tag_27:\n        /* \"#utility.yul\":73:79   */\n      0x00\n        /* \"#utility.yul\":126:128   */\n      0x20\n        /* \"#utility.yul\":114:123   */\n      dup3\n        /* \"#utility.yul\":105:112   */\n      dup5\n        /* \"#utility.yul\":101:124   */\n      sub\n        /* \"#utility.yul\":97:129   */\n      slt\n        /* \"#utility.yul\":94:146   */\n      iszero\n      tag_235\n      jumpi\n        /* \"#utility.yul\":142:143   */\n      0x00\n        /* \"#utility.yul\":139:140   */\n      dup1\n        /* \"#utility.yul\":132:144   */\n      revert\n        /* \"#utility.yul\":94:146   */\n    tag_235:\n      pop\n        /* \"#utility.yul\":165:188   */\n      calldataload\n      swap2\n        /* \"#utility.yul\":14:194   */\n      swap1\n      pop\n      jump\t// out\n        /* \"#utility.yul\":199:747   */\n    tag_32:\n        /* \"#utility.yul\":311:315   */\n      0x00\n        /* \"#utility.yul\":340:342   */\n      0x20\n        /* \"#utility.yul\":369:371   */\n      dup1\n        /* \"#utility.yul\":358:367   */\n      dup4\n        /* \"#utility.yul\":351:372   */\n      mstore\n        /* \"#utility.yul\":401:407   */\n      dup4\n        /* \"#utility.yul\":395:408   */\n      mload\n        /* \"#utility.yul\":444:450   */\n      dup1\n        /* \"#utility.yul\":439:441   */\n      dup3\n        /* \"#utility.yul\":428:437   */\n      dup6\n        /* \"#utility.yul\":424:442   */\n      add\n        /* \"#utility.yul\":417:451   */\n      mstore\n        /* \"#utility.yul\":469:470   */\n      0x00\n        /* \"#utility.yul\":479:619   */\n    tag_237:\n        /* \"#utility.yul\":493:499   */\n      dup2\n        /* \"#utility.yul\":490:491   */\n      dup2\n        /* \"#utility.yul\":487:500   */\n      lt\n        /* \"#utility.yul\":479:619   */\n      iszero\n      tag_239\n      jumpi\n        /* \"#utility.yul\":588:602   */\n      dup6\n      dup2\n      add\n        /* \"#utility.yul\":584:607   */\n      dup4\n      add\n        /* \"#utility.yul\":578:608   */\n      mload\n        /* \"#utility.yul\":554:571   */\n      dup6\n      dup3\n      add\n        /* \"#utility.yul\":573:575   */\n      0x40\n        /* \"#utility.yul\":550:576   */\n      add\n        /* \"#utility.yul\":543:609   */\n      mstore\n        /* \"#utility.yul\":508:518   */\n      dup3\n      add\n        /* \"#utility.yul\":479:619   */\n      jump(tag_237)\n    tag_239:\n        /* \"#utility.yul\":483:486   */\n      pop\n        /* \"#utility.yul\":668:669   */\n      0x00\n        /* \"#utility.yul\":663:665   */\n      0x40\n        /* \"#utility.yul\":654:660   */\n      dup3\n        /* \"#utility.yul\":643:652   */\n      dup7\n        /* \"#utility.yul\":639:661   */\n      add\n        /* \"#utility.yul\":635:666   */\n      add\n        /* \"#utility.yul\":628:670   */\n      mstore\n        /* \"#utility.yul\":738:740   */\n      0x40\n        /* \"#utility.yul\":731:733   */\n      0x1f\n        /* \"#utility.yul\":727:734   */\n      not\n        /* \"#utility.yul\":722:724   */\n      0x1f\n        /* \"#utility.yul\":714:720   */\n      dup4\n        /* \"#utility.yul\":710:725   */\n      add\n        /* \"#utility.yul\":706:735   */\n      and\n        /* \"#utility.yul\":695:704   */\n      dup6\n        /* \"#utility.yul\":691:736   */\n      add\n        /* \"#utility.yul\":687:741   */\n      add\n        /* \"#utility.yul\":679:741   */\n      swap3\n      pop\n      pop\n      pop\n        /* \"#utility.yul\":199:747   */\n      swap3\n      swap2\n      pop\n      pop\n      jump\t// out\n        /* \"#utility.yul\":752:925   */\n    tag_231:\n        /* \"#utility.yul\":820:840   */\n      dup1\n      calldataload\n      sub(shl(0xa0, 0x01), 0x01)\n        /* \"#utility.yul\":869:900   */\n      dup2\n      and\n        /* \"#utility.yul\":859:901   */\n      dup2\n      eq\n        /* \"#utility.yul\":849:919   */\n      tag_241\n      jumpi\n        /* \"#utility.yul\":915:916   */\n      0x00\n        /* \"#utility.yul\":912:913   */\n      dup1\n        /* \"#utility.yul\":905:917   */\n      revert\n        /* \"#utility.yul\":849:919   */\n    tag_241:\n        /* \"#utility.yul\":752:925   */\n      swap2\n      swap1\n      pop\n      jump\t// out\n        /* \"#utility.yul\":930:1184   */\n    tag_35:\n        /* \"#utility.yul\":998:1004   */\n      0x00\n        /* \"#utility.yul\":1006:1012   */\n      dup1\n        /* \"#utility.yul\":1059:1061   */\n      0x40\n        /* \"#utility.yul\":1047:1056   */\n      dup4\n        /* \"#utility.yul\":1038:1045   */\n      dup6\n        /* \"#utility.yul\":1034:1057   */\n      sub\n        /* \"#utility.yul\":1030:1062   */\n      slt\n        /* \"#utility.yul\":1027:1079   */\n      iszero\n      tag_243\n      jumpi\n        /* \"#utility.yul\":1075:1076   */\n      0x00\n        /* \"#utility.yul\":1072:1073   */\n      dup1\n        /* \"#utility.yul\":1065:1077   */\n      revert\n        /* \"#utility.yul\":1027:1079   */\n    tag_243:\n        /* \"#utility.yul\":1098:1127   */\n      tag_244\n        /* \"#utility.yul\":1117:1126   */\n      dup4\n        /* \"#utility.yul\":1098:1127   */\n      tag_231\n      jump\t// in\n    tag_244:\n        /* \"#utility.yul\":1088:1127   */\n      swap5\n        /* \"#utility.yul\":1174:1176   */\n      0x20\n        /* \"#utility.yul\":1159:1177   */\n      swap4\n      swap1\n      swap4\n      add\n        /* \"#utility.yul\":1146:1178   */\n      calldataload\n      swap4\n      pop\n      pop\n      pop\n        /* \"#utility.yul\":930:1184   */\n      jump\t// out\n        /* \"#utility.yul\":1563:1891   */\n    tag_45:\n        /* \"#utility.yul\":1640:1646   */\n      0x00\n        /* \"#utility.yul\":1648:1654   */\n      dup1\n        /* \"#utility.yul\":1656:1662   */\n      0x00\n        /* \"#utility.yul\":1709:1711   */\n      0x60\n        /* \"#utility.yul\":1697:1706   */\n      dup5\n        /* \"#utility.yul\":1688:1695   */\n      dup7\n        /* \"#utility.yul\":1684:1707   */\n      sub\n        /* \"#utility.yul\":1680:1712   */\n      slt\n        /* \"#utility.yul\":1677:1729   */\n      iszero\n      tag_248\n      jumpi\n        /* \"#utility.yul\":1725:1726   */\n      0x00\n        /* \"#utility.yul\":1722:1723   */\n      dup1\n        /* \"#utility.yul\":1715:1727   */\n      revert\n        /* \"#utility.yul\":1677:1729   */\n    tag_248:\n        /* \"#utility.yul\":1748:1777   */\n      tag_249\n        /* \"#utility.yul\":1767:1776   */\n      dup5\n        /* \"#utility.yul\":1748:1777   */\n      tag_231\n      jump\t// in\n    tag_249:\n        /* \"#utility.yul\":1738:1777   */\n      swap3\n      pop\n        /* \"#utility.yul\":1796:1834   */\n      tag_250\n        /* \"#utility.yul\":1830:1832   */\n      0x20\n        /* \"#utility.yul\":1819:1828   */\n      dup6\n        /* \"#utility.yul\":1815:1833   */\n      add\n        /* \"#utility.yul\":1796:1834   */\n      tag_231\n      jump\t// in\n    tag_250:\n        /* \"#utility.yul\":1786:1834   */\n      swap2\n      pop\n        /* \"#utility.yul\":1881:1883   */\n      0x40\n        /* \"#utility.yul\":1870:1879   */\n      dup5\n        /* \"#utility.yul\":1866:1884   */\n      add\n        /* \"#utility.yul\":1853:1885   */\n      calldataload\n        /* \"#utility.yul\":1843:1885   */\n      swap1\n      pop\n        /* \"#utility.yul\":1563:1891   */\n      swap3\n      pop\n      swap3\n      pop\n      swap3\n      jump\t// out\n        /* \"#utility.yul\":2085:2271   */\n    tag_58:\n        /* \"#utility.yul\":2144:2150   */\n      0x00\n        /* \"#utility.yul\":2197:2199   */\n      0x20\n        /* \"#utility.yul\":2185:2194   */\n      dup3\n        /* \"#utility.yul\":2176:2183   */\n      dup5\n        /* \"#utility.yul\":2172:2195   */\n      sub\n        /* \"#utility.yul\":2168:2200   */\n      slt\n        /* \"#utility.yul\":2165:2217   */\n      iszero\n      tag_253\n      jumpi\n        /* \"#utility.yul\":2213:2214   */\n      0x00\n        /* \"#utility.yul\":2210:2211   */\n      dup1\n        /* \"#utility.yul\":2203:2215   */\n      revert\n        /* \"#utility.yul\":2165:2217   */\n    tag_253:\n        /* \"#utility.yul\":2236:2265   */\n      tag_254\n        /* \"#utility.yul\":2255:2264   */\n      dup3\n        /* \"#utility.yul\":2236:2265   */\n      tag_231\n      jump\t// in\n    tag_254:\n        /* \"#utility.yul\":2226:2265   */\n      swap4\n        /* \"#utility.yul\":2085:2271   */\n      swap3\n      pop\n      pop\n      pop\n      jump\t// out\n        /* \"#utility.yul\":2484:2744   */\n    tag_89:\n        /* \"#utility.yul\":2552:2558   */\n      0x00\n        /* \"#utility.yul\":2560:2566   */\n      dup1\n        /* \"#utility.yul\":2613:2615   */\n      0x40\n        /* \"#utility.yul\":2601:2610   */\n      dup4\n        /* \"#utility.yul\":2592:2599   */\n      dup6\n        /* \"#utility.yul\":2588:2611   */\n      sub\n        /* \"#utility.yul\":2584:2616   */\n      slt\n        /* \"#utility.yul\":2581:2633   */\n      iszero\n      tag_257\n      jumpi\n        /* \"#utility.yul\":2629:2630   */\n      0x00\n        /* \"#utility.yul\":2626:2627   */\n      dup1\n        /* \"#utility.yul\":2619:2631   */\n      revert\n        /* \"#utility.yul\":2581:2633   */\n    tag_257:\n        /* \"#utility.yul\":2652:2681   */\n      tag_258\n        /* \"#utility.yul\":2671:2680   */\n      dup4\n        /* \"#utility.yul\":2652:2681   */\n      tag_231\n      jump\t// in\n    tag_258:\n        /* \"#utility.yul\":2642:2681   */\n      swap2\n      pop\n        /* \"#utility.yul\":2700:2738   */\n      tag_259\n        /* \"#utility.yul\":2734:2736   */\n      0x20\n        /* \"#utility.yul\":2723:2732   */\n      dup5\n        /* \"#utility.yul\":2719:2737   */\n      add\n        /* \"#utility.yul\":2700:2738   */\n      tag_231\n      jump\t// in\n    tag_259:\n        /* \"#utility.yul\":2690:2738   */\n      swap1\n      pop\n        /* \"#utility.yul\":2484:2744   */\n      swap3\n      pop\n      swap3\n      swap1\n      pop\n      jump\t// out\n        /* \"#utility.yul\":2749:3105   */\n    tag_104:\n        /* \"#utility.yul\":2951:2953   */\n      0x20\n        /* \"#utility.yul\":2933:2954   */\n      dup1\n      dup3\n      mstore\n        /* \"#utility.yul\":2970:2988   */\n      dup2\n      dup2\n      add\n        /* \"#utility.yul\":2963:2993   */\n      mstore\n        /* \"#utility.yul\":3029:3063   */\n      0x4f776e61626c653a2063616c6c6572206973206e6f7420746865206f776e6572\n        /* \"#utility.yul\":3024:3026   */\n      0x40\n        /* \"#utility.yul\":3009:3027   */\n      dup3\n      add\n        /* \"#utility.yul\":3002:3064   */\n      mstore\n        /* \"#utility.yul\":3096:3098   */\n      0x60\n        /* \"#utility.yul\":3081:3099   */\n      add\n      swap1\n        /* \"#utility.yul\":2749:3105   */\n      jump\t// out\n        /* \"#utility.yul\":3469:3849   */\n    tag_112:\n        /* \"#utility.yul\":3548:3549   */\n      0x01\n        /* \"#utility.yul\":3544:3556   */\n      dup2\n      dup2\n      shr\n      swap1\n        /* \"#utility.yul\":3591:3603   */\n      dup3\n      and\n      dup1\n        /* \"#utility.yul\":3612:3673   */\n      tag_263\n      jumpi\n        /* \"#utility.yul\":3666:3670   */\n      0x7f\n        /* \"#utility.yul\":3658:3664   */\n      dup3\n        /* \"#utility.yul\":3654:3671   */\n      and\n        /* \"#utility.yul\":3644:3671   */\n      swap2\n      pop\n        /* \"#utility.yul\":3612:3673   */\n    tag_263:\n        /* \"#utility.yul\":3719:3721   */\n      0x20\n        /* \"#utility.yul\":3711:3717   */\n      dup3\n        /* \"#utility.yul\":3708:3722   */\n      lt\n        /* \"#utility.yul\":3688:3706   */\n      dup2\n        /* \"#utility.yul\":3685:3723   */\n      sub\n        /* \"#utility.yul\":3682:3843   */\n      tag_264\n      jumpi\n        /* \"#utility.yul\":3765:3775   */\n      0x4e487b71\n        /* \"#utility.yul\":3760:3763   */\n      0xe0\n        /* \"#utility.yul\":3756:3776   */\n      shl\n        /* \"#utility.yul\":3753:3754   */\n      0x00\n        /* \"#utility.yul\":3746:3777   */\n      mstore\n        /* \"#utility.yul\":3800:3804   */\n      0x22\n        /* \"#utility.yul\":3797:3798   */\n      0x04\n        /* \"#utility.yul\":3790:3805   */\n      mstore\n        /* \"#utility.yul\":3828:3832   */\n      0x24\n        /* \"#utility.yul\":3825:3826   */\n      0x00\n        /* \"#utility.yul\":3818:3833   */\n      revert\n        /* \"#utility.yul\":3682:3843   */\n    tag_264:\n      pop\n        /* \"#utility.yul\":3469:3849   */\n      swap2\n      swap1\n      pop\n      jump\t// out\n        /* \"#utility.yul\":3854:3981   */\n    tag_232:\n        /* \"#utility.yul\":3915:3925   */\n      0x4e487b71\n        /* \"#utility.yul\":3910:3913   */\n      0xe0\n        /* \"#utility.yul\":3906:3926   */\n      shl\n        /* \"#utility.yul\":3903:3904   */\n      0x00\n        /* \"#utility.yul\":3896:3927   */\n      mstore\n        /* \"#utility.yul\":3946:3950   */\n      0x11\n        /* \"#utility.yul\":3943:3944   */\n      0x04\n        /* \"#utility.yul\":3936:3951   */\n      mstore\n        /* \"#utility.yul\":3970:3974   */\n      0x24\n        /* \"#utility.yul\":3967:3968   */\n      0x00\n        /* \"#utility.yul\":3960:3975   */\n      revert\n        /* \"#utility.yul\":3986:4111   */\n    tag_133:\n        /* \"#utility.yul\":4051:4060   */\n      dup1\n      dup3\n      add\n        /* \"#utility.yul\":4072:4082   */\n      dup1\n      dup3\n      gt\n        /* \"#utility.yul\":4069:4105   */\n      iszero\n      tag_117\n      jumpi\n        /* \"#utility.yul\":4085:4103   */\n      tag_117\n      tag_232\n      jump\t// in\n        /* \"#utility.yul\":6095:6263   */\n    tag_205:\n        /* \"#utility.yul\":6168:6177   */\n      dup1\n      dup3\n      mul\n        /* \"#utility.yul\":6199:6208   */\n      dup2\n      iszero\n        /* \"#utility.yul\":6216:6231   */\n      dup3\n      dup3\n      div\n        /* \"#utility.yul\":6210:6232   */\n      dup5\n      eq\n        /* \"#utility.yul\":6196:6233   */\n      or\n        /* \"#utility.yul\":6186:6257   */\n      tag_117\n      jumpi\n        /* \"#utility.yul\":6237:6255   */\n      tag_117\n      tag_232\n      jump\t// in\n        /* \"#utility.yul\":6268:6485   */\n    tag_207:\n        /* \"#utility.yul\":6308:6309   */\n      0x00\n        /* \"#utility.yul\":6334:6335   */\n      dup3\n        /* \"#utility.yul\":6324:6456   */\n      tag_278\n      jumpi\n        /* \"#utility.yul\":6378:6388   */\n      0x4e487b71\n        /* \"#utility.yul\":6373:6376   */\n      0xe0\n        /* \"#utility.yul\":6369:6389   */\n      shl\n        /* \"#utility.yul\":6366:6367   */\n      0x00\n        /* \"#utility.yul\":6359:6390   */\n      mstore\n        /* \"#utility.yul\":6413:6417   */\n      0x12\n        /* \"#utility.yul\":6410:6411   */\n      0x04\n        /* \"#utility.yul\":6403:6418   */\n      mstore\n        /* \"#utility.yul\":6441:6445   */\n      0x24\n        /* \"#utility.yul\":6438:6439   */\n      0x00\n        /* \"#utility.yul\":6431:6446   */\n      revert\n        /* \"#utility.yul\":6324:6456   */\n    tag_278:\n      pop\n        /* \"#utility.yul\":6470:6479   */\n      div\n      swap1\n        /* \"#utility.yul\":6268:6485   */\n      jump\t// out\n        /* \"#utility.yul\":6490:6618   */\n    tag_209:\n        /* \"#utility.yul\":6557:6566   */\n      dup2\n      dup2\n      sub\n        /* \"#utility.yul\":6578:6589   */\n      dup2\n      dup2\n      gt\n        /* \"#utility.yul\":6575:6612   */\n      iszero\n      tag_117\n      jumpi\n        /* \"#utility.yul\":6592:6610   */\n      tag_117\n      tag_232\n      jump\t// in\n\n    auxdata: 0xa26469706673582212205a8329fe0aaef8cfe04417877eea140942b50bc41be37af020cda3ac3295c52564736f6c63430008140033\n}\n",
				"bytecode": {
					"linkReferences": {},
					"object": "6080604052600260065534801562000015575f80fd5b506040518060400160405280600d81526020016c2ab337ad34b7b6902a37b5b2b760991b8152506040518060400160405280600381526020016255464f60e81b8152508160039081620000699190620002bc565b506004620000788282620002bc565b505050620000956200008f620000de60201b60201c565b620000e2565b620000bf33620000a86012600a62000493565b620000b99064e8d4a51000620004aa565b62000133565b335f908152600760205260409020805460ff19166001179055620004da565b3390565b600580546001600160a01b038381166001600160a01b0319831681179093556040519116919082907f8be0079c531659141344cd1fd0a4f28419497f9722a3daafe3b4186f6b6457e0905f90a35050565b6001600160a01b0382166200018e5760405162461bcd60e51b815260206004820152601f60248201527f45524332303a206d696e7420746f20746865207a65726f206164647265737300604482015260640160405180910390fd5b8060025f828254620001a19190620004c4565b90915550506001600160a01b0382165f9081526020819052604081208054839290620001cf908490620004c4565b90915550506040518181526001600160a01b038316905f907fddf252ad1be2c89b69c2b068fc378daa952ba7f163c4a11628f55a4df523b3ef9060200160405180910390a35050565b505050565b634e487b7160e01b5f52604160045260245ffd5b600181811c908216806200024657607f821691505b6020821081036200026557634e487b7160e01b5f52602260045260245ffd5b50919050565b601f82111562000218575f81815260208120601f850160051c81016020861015620002935750805b601f850160051c820191505b81811015620002b4578281556001016200029f565b505050505050565b81516001600160401b03811115620002d857620002d86200021d565b620002f081620002e9845462000231565b846200026b565b602080601f83116001811462000326575f84156200030e5750858301515b5f19600386901b1c1916600185901b178555620002b4565b5f85815260208120601f198616915b82811015620003565788860151825594840194600190910190840162000335565b50858210156200037457878501515f19600388901b60f8161c191681555b5050505050600190811b01905550565b634e487b7160e01b5f52601160045260245ffd5b600181815b80851115620003d857815f1904821115620003bc57620003bc62000384565b80851615620003ca57918102915b93841c93908002906200039d565b509250929050565b5f82620003f0575060016200048d565b81620003fe57505f6200048d565b8160018114620004175760028114620004225762000442565b60019150506200048d565b60ff84111562000436576200043662000384565b50506001821b6200048d565b5060208310610133831016604e8410600b841016171562000467575081810a6200048d565b62000473838362000398565b805f190482111562000489576200048962000384565b0290505b92915050565b5f620004a360ff841683620003e0565b9392505050565b80820281158282048414176200048d576200048d62000384565b808201808211156200048d576200048d62000384565b610d1b80620004e85f395ff3fe608060405234801561000f575f80fd5b506004361061011c575f3560e01c806370d5ae05116100a9578063a457c2d71161006e578063a457c2d714610243578063a9059cbb14610256578063dd62ed3e14610269578063ea2f0b37146102a1578063f2fde38b146102b4575f80fd5b806370d5ae05146101f8578063715018a6146102195780638da5cb5b1461022157806395d89b4114610232578063a071dcf41461023a575f80fd5b806323b872dd116100ef57806323b872dd14610188578063313ce5671461019b57806339509351146101aa578063437823ec146101bd57806370a08231146101d0575f80fd5b8063061c82d01461012057806306fdde0314610135578063095ea7b31461015357806318160ddd14610176575b5f80fd5b61013361012e366004610ad9565b6102c7565b005b61013d610350565b60405161014a9190610af0565b60405180910390f35b610166610161366004610b56565b6103e0565b604051901515815260200161014a565b6002545b60405190815260200161014a565b610166610196366004610b7e565b6103f9565b6040516012815260200161014a565b6101666101b8366004610b56565b61041c565b6101336101cb366004610bb7565b61045a565b61017a6101de366004610bb7565b6001600160a01b03165f9081526020819052604090205490565b61020161dead81565b6040516001600160a01b03909116815260200161014a565b6101336104a7565b6005546001600160a01b0316610201565b61013d6104dc565b61017a60065481565b610166610251366004610b56565b6104eb565b610166610264366004610b56565b61057c565b61017a610277366004610bd7565b6001600160a01b039182165f90815260016020908152604080832093909416825291909152205490565b6101336102af366004610bb7565b610589565b6101336102c2366004610bb7565b6105d3565b6005546001600160a01b031633146102fa5760405162461bcd60e51b81526004016102f190610c08565b60405180910390fd5b600a81111561034b5760405162461bcd60e51b815260206004820152601e60248201527f466565206d757374206265206265747765656e20302520616e6420313025000060448201526064016102f1565b600655565b60606003805461035f90610c3d565b80601f016020809104026020016040519081016040528092919081815260200182805461038b90610c3d565b80156103d65780601f106103ad576101008083540402835291602001916103d6565b820191905f5260205f20905b8154815290600101906020018083116103b957829003601f168201915b5050505050905090565b5f336103ed81858561066e565b60019150505b92915050565b5f33610406858285610791565b610411858585610821565b506001949350505050565b335f8181526001602090815260408083206001600160a01b03871684529091528120549091906103ed9082908690610455908790610c89565b61066e565b6005546001600160a01b031633146104845760405162461bcd60e51b81526004016102f190610c08565b6001600160a01b03165f908152600760205260409020805460ff19166001179055565b6005546001600160a01b031633146104d15760405162461bcd60e51b81526004016102f190610c08565b6104da5f6108bc565b565b60606004805461035f90610c3d565b335f8181526001602090815260408083206001600160a01b03871684529091528120549091908381101561056f5760405162461bcd60e51b815260206004820152602560248201527f45524332303a2064656372656173656420616c6c6f77616e63652062656c6f77604482015264207a65726f60d81b60648201526084016102f1565b610411828686840361066e565b5f336103ed818585610821565b6005546001600160a01b031633146105b35760405162461bcd60e51b81526004016102f190610c08565b6001600160a01b03165f908152600760205260409020805460ff19169055565b6005546001600160a01b031633146105fd5760405162461bcd60e51b81526004016102f190610c08565b6001600160a01b0381166106625760405162461bcd60e51b815260206004820152602660248201527f4f776e61626c653a206e6577206f776e657220697320746865207a65726f206160448201526564647265737360d01b60648201526084016102f1565b61066b816108bc565b50565b6001600160a01b0383166106d05760405162461bcd60e51b8152602060048201526024808201527f45524332303a20617070726f76652066726f6d20746865207a65726f206164646044820152637265737360e01b60648201526084016102f1565b6001600160a01b0382166107315760405162461bcd60e51b815260206004820152602260248201527f45524332303a20617070726f766520746f20746865207a65726f206164647265604482015261737360f01b60648201526084016102f1565b6001600160a01b038381165f8181526001602090815260408083209487168084529482529182902085905590518481527f8c5be1e5ebec7d5bd14f71427d1e84f3dd0314c0f7b2291e5b200ac8c7c3b925910160405180910390a3505050565b6001600160a01b038381165f908152600160209081526040808320938616835292905220545f19811461081b578181101561080e5760405162461bcd60e51b815260206004820152601d60248201527f45524332303a20696e73756666696369656e7420616c6c6f77616e636500000060448201526064016102f1565b61081b848484840361066e565b50505050565b6001600160a01b0383165f9081526007602052604090205460ff168061085e57506001600160a01b0382165f9081526007602052604090205460ff165b156108735761086e83838361090d565b505050565b5f6064600654836108849190610c9c565b61088e9190610cb3565b90505f61089b8284610cd2565b90506108aa8561dead8461090d565b6108b585858361090d565b5050505050565b600580546001600160a01b038381166001600160a01b0319831681179093556040519116919082907f8be0079c531659141344cd1fd0a4f28419497f9722a3daafe3b4186f6b6457e0905f90a35050565b6001600160a01b0383166109715760405162461bcd60e51b815260206004820152602560248201527f45524332303a207472616e736665722066726f6d20746865207a65726f206164604482015264647265737360d81b60648201526084016102f1565b6001600160a01b0382166109d35760405162461bcd60e51b815260206004820152602360248201527f45524332303a207472616e7366657220746f20746865207a65726f206164647260448201526265737360e81b60648201526084016102f1565b6001600160a01b0383165f9081526020819052604090205481811015610a4a5760405162461bcd60e51b815260206004820152602660248201527f45524332303a207472616e7366657220616d6f756e7420657863656564732062604482015265616c616e636560d01b60648201526084016102f1565b6001600160a01b038085165f90815260208190526040808220858503905591851681529081208054849290610a80908490610c89565b92505081905550826001600160a01b0316846001600160a01b03167fddf252ad1be2c89b69c2b068fc378daa952ba7f163c4a11628f55a4df523b3ef84604051610acc91815260200190565b60405180910390a361081b565b5f60208284031215610ae9575f80fd5b5035919050565b5f6020808352835180828501525f5b81811015610b1b57858101830151858201604001528201610aff565b505f604082860101526040601f19601f8301168501019250505092915050565b80356001600160a01b0381168114610b51575f80fd5b919050565b5f8060408385031215610b67575f80fd5b610b7083610b3b565b946020939093013593505050565b5f805f60608486031215610b90575f80fd5b610b9984610b3b565b9250610ba760208501610b3b565b9150604084013590509250925092565b5f60208284031215610bc7575f80fd5b610bd082610b3b565b9392505050565b5f8060408385031215610be8575f80fd5b610bf183610b3b565b9150610bff60208401610b3b565b90509250929050565b6020808252818101527f4f776e61626c653a2063616c6c6572206973206e6f7420746865206f776e6572604082015260600190565b600181811c90821680610c5157607f821691505b602082108103610c6f57634e487b7160e01b5f52602260045260245ffd5b50919050565b634e487b7160e01b5f52601160045260245ffd5b808201808211156103f3576103f3610c75565b80820281158282048414176103f3576103f3610c75565b5f82610ccd57634e487b7160e01b5f52601260045260245ffd5b500490565b818103818111156103f3576103f3610c7556fea26469706673582212205a8329fe0aaef8cfe04417877eea140942b50bc41be37af020cda3ac3295c52564736f6c63430008140033",
					"opcodes": "PUSH1 0x80 PUSH1 0x40 MSTORE PUSH1 0x2 PUSH1 0x6 SSTORE CALLVALUE DUP1 ISZERO PUSH3 0x15 JUMPI PUSH0 DUP1 REVERT JUMPDEST POP PUSH1 0x40 MLOAD DUP1 PUSH1 0x40 ADD PUSH1 0x40 MSTORE DUP1 PUSH1 0xD DUP2 MSTORE PUSH1 0x20 ADD PUSH13 0x2AB337AD34B7B6902A37B5B2B7 PUSH1 0x99 SHL DUP2 MSTORE POP PUSH1 0x40 MLOAD DUP1 PUSH1 0x40 ADD PUSH1 0x40 MSTORE DUP1 PUSH1 0x3 DUP2 MSTORE PUSH1 0x20 ADD PUSH3 0x55464F PUSH1 0xE8 SHL DUP2 MSTORE POP DUP2 PUSH1 0x3 SWAP1 DUP2 PUSH3 0x69 SWAP2 SWAP1 PUSH3 0x2BC JUMP JUMPDEST POP PUSH1 0x4 PUSH3 0x78 DUP3 DUP3 PUSH3 0x2BC JUMP JUMPDEST POP POP POP PUSH3 0x95 PUSH3 0x8F PUSH3 0xDE PUSH1 0x20 SHL PUSH1 0x20 SHR JUMP JUMPDEST PUSH3 0xE2 JUMP JUMPDEST PUSH3 0xBF CALLER PUSH3 0xA8 PUSH1 0x12 PUSH1 0xA PUSH3 0x493 JUMP JUMPDEST PUSH3 0xB9 SWAP1 PUSH5 0xE8D4A51000 PUSH3 0x4AA JUMP JUMPDEST PUSH3 0x133 JUMP JUMPDEST CALLER PUSH0 SWAP1 DUP2 MSTORE PUSH1 0x7 PUSH1 0x20 MSTORE PUSH1 0x40 SWAP1 KECCAK256 DUP1 SLOAD PUSH1 0xFF NOT AND PUSH1 0x1 OR SWAP1 SSTORE PUSH3 0x4DA JUMP JUMPDEST CALLER SWAP1 JUMP JUMPDEST PUSH1 0x5 DUP1 SLOAD PUSH1 0x1 PUSH1 0x1 PUSH1 0xA0 SHL SUB DUP4 DUP2 AND PUSH1 0x1 PUSH1 0x1 PUSH1 0xA0 SHL SUB NOT DUP4 AND DUP2 OR SWAP1 SWAP4 SSTORE PUSH1 0x40 MLOAD SWAP2 AND SWAP2 SWAP1 DUP3 SWAP1 PUSH32 0x8BE0079C531659141344CD1FD0A4F28419497F9722A3DAAFE3B4186F6B6457E0 SWAP1 PUSH0 SWAP1 LOG3 POP POP JUMP JUMPDEST PUSH1 0x1 PUSH1 0x1 PUSH1 0xA0 SHL SUB DUP3 AND PUSH3 0x18E JUMPI PUSH1 0x40 MLOAD PUSH3 0x461BCD PUSH1 0xE5 SHL DUP2 MSTORE PUSH1 0x20 PUSH1 0x4 DUP3 ADD MSTORE PUSH1 0x1F PUSH1 0x24 DUP3 ADD MSTORE PUSH32 0x45524332303A206D696E7420746F20746865207A65726F206164647265737300 PUSH1 0x44 DUP3 ADD MSTORE PUSH1 0x64 ADD PUSH1 0x40 MLOAD DUP1 SWAP2 SUB SWAP1 REVERT JUMPDEST DUP1 PUSH1 0x2 PUSH0 DUP3 DUP3 SLOAD PUSH3 0x1A1 SWAP2 SWAP1 PUSH3 0x4C4 JUMP JUMPDEST SWAP1 SWAP2 SSTORE POP POP PUSH1 0x1 PUSH1 0x1 PUSH1 0xA0 SHL SUB DUP3 AND PUSH0 SWAP1 DUP2 MSTORE PUSH1 0x20 DUP2 SWAP1 MSTORE PUSH1 0x40 DUP2 KECCAK256 DUP1 SLOAD DUP4 SWAP3 SWAP1 PUSH3 0x1CF SWAP1 DUP5 SWAP1 PUSH3 0x4C4 JUMP JUMPDEST SWAP1 SWAP2 SSTORE POP POP PUSH1 0x40 MLOAD DUP2 DUP2 MSTORE PUSH1 0x1 PUSH1 0x1 PUSH1 0xA0 SHL SUB DUP4 AND SWAP1 PUSH0 SWAP1 PUSH32 0xDDF252AD1BE2C89B69C2B068FC378DAA952BA7F163C4A11628F55A4DF523B3EF SWAP1 PUSH1 0x20 ADD PUSH1 0x40 MLOAD DUP1 SWAP2 SUB SWAP1 LOG3 POP POP JUMP JUMPDEST POP POP POP JUMP JUMPDEST PUSH4 0x4E487B71 PUSH1 0xE0 SHL PUSH0 MSTORE PUSH1 0x41 PUSH1 0x4 MSTORE PUSH1 0x24 PUSH0 REVERT JUMPDEST PUSH1 0x1 DUP2 DUP2 SHR SWAP1 DUP3 AND DUP1 PUSH3 0x246 JUMPI PUSH1 0x7F DUP3 AND SWAP2 POP JUMPDEST PUSH1 0x20 DUP3 LT DUP2 SUB PUSH3 0x265 JUMPI PUSH4 0x4E487B71 PUSH1 0xE0 SHL PUSH0 MSTORE PUSH1 0x22 PUSH1 0x4 MSTORE PUSH1 0x24 PUSH0 REVERT JUMPDEST POP SWAP2 SWAP1 POP JUMP JUMPDEST PUSH1 0x1F DUP3 GT ISZERO PUSH3 0x218 JUMPI PUSH0 DUP2 DUP2 MSTORE PUSH1 0x20 DUP2 KECCAK256 PUSH1 0x1F DUP6 ADD PUSH1 0x5 SHR DUP2 ADD PUSH1 0x20 DUP7 LT ISZERO PUSH3 0x293 JUMPI POP DUP1 JUMPDEST PUSH1 0x1F DUP6 ADD PUSH1 0x5 SHR DUP3 ADD SWAP2 POP JUMPDEST DUP2 DUP2 LT ISZERO PUSH3 0x2B4 JUMPI DUP3 DUP2 SSTORE PUSH1 0x1 ADD PUSH3 0x29F JUMP JUMPDEST POP POP POP POP POP POP JUMP JUMPDEST DUP2 MLOAD PUSH1 0x1 PUSH1 0x1 PUSH1 0x40 SHL SUB DUP2 GT ISZERO PUSH3 0x2D8 JUMPI PUSH3 0x2D8 PUSH3 0x21D JUMP JUMPDEST PUSH3 0x2F0 DUP2 PUSH3 0x2E9 DUP5 SLOAD PUSH3 0x231 JUMP JUMPDEST DUP5 PUSH3 0x26B JUMP JUMPDEST PUSH1 0x20 DUP1 PUSH1 0x1F DUP4 GT PUSH1 0x1 DUP2 EQ PUSH3 0x326 JUMPI PUSH0 DUP5 ISZERO PUSH3 0x30E JUMPI POP DUP6 DUP4 ADD MLOAD JUMPDEST PUSH0 NOT PUSH1 0x3 DUP7 SWAP1 SHL SHR NOT AND PUSH1 0x1 DUP6 SWAP1 SHL OR DUP6 SSTORE PUSH3 0x2B4 JUMP JUMPDEST PUSH0 DUP6 DUP2 MSTORE PUSH1 0x20 DUP2 KECCAK256 PUSH1 0x1F NOT DUP7 AND SWAP2 JUMPDEST DUP3 DUP2 LT ISZERO PUSH3 0x356 JUMPI DUP9 DUP7 ADD MLOAD DUP3 SSTORE SWAP5 DUP5 ADD SWAP5 PUSH1 0x1 SWAP1 SWAP2 ADD SWAP1 DUP5 ADD PUSH3 0x335 JUMP JUMPDEST POP DUP6 DUP3 LT ISZERO PUSH3 0x374 JUMPI DUP8 DUP6 ADD MLOAD PUSH0 NOT PUSH1 0x3 DUP9 SWAP1 SHL PUSH1 0xF8 AND SHR NOT AND DUP2 SSTORE JUMPDEST POP POP POP POP POP PUSH1 0x1 SWAP1 DUP2 SHL ADD SWAP1 SSTORE POP JUMP JUMPDEST PUSH4 0x4E487B71 PUSH1 0xE0 SHL PUSH0 MSTORE PUSH1 0x11 PUSH1 0x4 MSTORE PUSH1 0x24 PUSH0 REVERT JUMPDEST PUSH1 0x1 DUP2 DUP2 JUMPDEST DUP1 DUP6 GT ISZERO PUSH3 0x3D8 JUMPI DUP2 PUSH0 NOT DIV DUP3 GT ISZERO PUSH3 0x3BC JUMPI PUSH3 0x3BC PUSH3 0x384 JUMP JUMPDEST DUP1 DUP6 AND ISZERO PUSH3 0x3CA JUMPI SWAP2 DUP2 MUL SWAP2 JUMPDEST SWAP4 DUP5 SHR SWAP4 SWAP1 DUP1 MUL SWAP1 PUSH3 0x39D JUMP JUMPDEST POP SWAP3 POP SWAP3 SWAP1 POP JUMP JUMPDEST PUSH0 DUP3 PUSH3 0x3F0 JUMPI POP PUSH1 0x1 PUSH3 0x48D JUMP JUMPDEST DUP2 PUSH3 0x3FE JUMPI POP PUSH0 PUSH3 0x48D JUMP JUMPDEST DUP2 PUSH1 0x1 DUP2 EQ PUSH3 0x417 JUMPI PUSH1 0x2 DUP2 EQ PUSH3 0x422 JUMPI PUSH3 0x442 JUMP JUMPDEST PUSH1 0x1 SWAP2 POP POP PUSH3 0x48D JUMP JUMPDEST PUSH1 0xFF DUP5 GT ISZERO PUSH3 0x436 JUMPI PUSH3 0x436 PUSH3 0x384 JUMP JUMPDEST POP POP PUSH1 0x1 DUP3 SHL PUSH3 0x48D JUMP JUMPDEST POP PUSH1 0x20 DUP4 LT PUSH2 0x133 DUP4 LT AND PUSH1 0x4E DUP5 LT PUSH1 0xB DUP5 LT AND OR ISZERO PUSH3 0x467 JUMPI POP DUP2 DUP2 EXP PUSH3 0x48D JUMP JUMPDEST PUSH3 0x473 DUP4 DUP4 PUSH3 0x398 JUMP JUMPDEST DUP1 PUSH0 NOT DIV DUP3 GT ISZERO PUSH3 0x489 JUMPI PUSH3 0x489 PUSH3 0x384 JUMP JUMPDEST MUL SWAP1 POP JUMPDEST SWAP3 SWAP2 POP POP JUMP JUMPDEST PUSH0 PUSH3 0x4A3 PUSH1 0xFF DUP5 AND DUP4 PUSH3 0x3E0 JUMP JUMPDEST SWAP4 SWAP3 POP POP POP JUMP JUMPDEST DUP1 DUP3 MUL DUP2 ISZERO DUP3 DUP3 DIV DUP5 EQ OR PUSH3 0x48D JUMPI PUSH3 0x48D PUSH3 0x384 JUMP JUMPDEST DUP1 DUP3 ADD DUP1 DUP3 GT ISZERO PUSH3 0x48D JUMPI PUSH3 0x48D PUSH3 0x384 JUMP JUMPDEST PUSH2 0xD1B DUP1 PUSH3 0x4E8 PUSH0 CODECOPY PUSH0 RETURN INVALID PUSH1 0x80 PUSH1 0x40 MSTORE CALLVALUE DUP1 ISZERO PUSH2 0xF JUMPI PUSH0 DUP1 REVERT JUMPDEST POP PUSH1 0x4 CALLDATASIZE LT PUSH2 0x11C JUMPI PUSH0 CALLDATALOAD PUSH1 0xE0 SHR DUP1 PUSH4 0x70D5AE05 GT PUSH2 0xA9 JUMPI DUP1 PUSH4 0xA457C2D7 GT PUSH2 0x6E JUMPI DUP1 PUSH4 0xA457C2D7 EQ PUSH2 0x243 JUMPI DUP1 PUSH4 0xA9059CBB EQ PUSH2 0x256 JUMPI DUP1 PUSH4 0xDD62ED3E EQ PUSH2 0x269 JUMPI DUP1 PUSH4 0xEA2F0B37 EQ PUSH2 0x2A1 JUMPI DUP1 PUSH4 0xF2FDE38B EQ PUSH2 0x2B4 JUMPI PUSH0 DUP1 REVERT JUMPDEST DUP1 PUSH4 0x70D5AE05 EQ PUSH2 0x1F8 JUMPI DUP1 PUSH4 0x715018A6 EQ PUSH2 0x219 JUMPI DUP1 PUSH4 0x8DA5CB5B EQ PUSH2 0x221 JUMPI DUP1 PUSH4 0x95D89B41 EQ PUSH2 0x232 JUMPI DUP1 PUSH4 0xA071DCF4 EQ PUSH2 0x23A JUMPI PUSH0 DUP1 REVERT JUMPDEST DUP1 PUSH4 0x23B872DD GT PUSH2 0xEF JUMPI DUP1 PUSH4 0x23B872DD EQ PUSH2 0x188 JUMPI DUP1 PUSH4 0x313CE567 EQ PUSH2 0x19B JUMPI DUP1 PUSH4 0x39509351 EQ PUSH2 0x1AA JUMPI DUP1 PUSH4 0x437823EC EQ PUSH2 0x1BD JUMPI DUP1 PUSH4 0x70A08231 EQ PUSH2 0x1D0 JUMPI PUSH0 DUP1 REVERT JUMPDEST DUP1 PUSH4 0x61C82D0 EQ PUSH2 0x120 JUMPI DUP1 PUSH4 0x6FDDE03 EQ PUSH2 0x135 JUMPI DUP1 PUSH4 0x95EA7B3 EQ PUSH2 0x153 JUMPI DUP1 PUSH4 0x18160DDD EQ PUSH2 0x176 JUMPI JUMPDEST PUSH0 DUP1 REVERT JUMPDEST PUSH2 0x133 PUSH2 0x12E CALLDATASIZE PUSH1 0x4 PUSH2 0xAD9 JUMP JUMPDEST PUSH2 0x2C7 JUMP JUMPDEST STOP JUMPDEST PUSH2 0x13D PUSH2 0x350 JUMP JUMPDEST PUSH1 0x40 MLOAD PUSH2 0x14A SWAP2 SWAP1 PUSH2 0xAF0 JUMP JUMPDEST PUSH1 0x40 MLOAD DUP1 SWAP2 SUB SWAP1 RETURN JUMPDEST PUSH2 0x166 PUSH2 0x161 CALLDATASIZE PUSH1 0x4 PUSH2 0xB56 JUMP JUMPDEST PUSH2 0x3E0 JUMP JUMPDEST PUSH1 0x40 MLOAD SWAP1 ISZERO ISZERO DUP2 MSTORE PUSH1 0x20 ADD PUSH2 0x14A JUMP JUMPDEST PUSH1 0x2 SLOAD JUMPDEST PUSH1 0x40 MLOAD SWAP1 DUP2 MSTORE PUSH1 0x20 ADD PUSH2 0x14A JUMP JUMPDEST PUSH2 0x166 PUSH2 0x196 CALLDATASIZE PUSH1 0x4 PUSH2 0xB7E JUMP JUMPDEST PUSH2 0x3F9 JUMP JUMPDEST PUSH1 0x40 MLOAD PUSH1 0x12 DUP2 MSTORE PUSH1 0x20 ADD PUSH2 0x14A JUMP JUMPDEST PUSH2 0x166 PUSH2 0x1B8 CALLDATASIZE PUSH1 0x4 PUSH2 0xB56 JUMP JUMPDEST PUSH2 0x41C JUMP JUMPDEST PUSH2 0x133 PUSH2 0x1CB CALLDATASIZE PUSH1 0x4 PUSH2 0xBB7 JUMP JUMPDEST PUSH2 0x45A JUMP JUMPDEST PUSH2 0x17A PUSH2 0x1DE CALLDATASIZE PUSH1 0x4 PUSH2 0xBB7 JUMP JUMPDEST PUSH1 0x1 PUSH1 0x1 PUSH1 0xA0 SHL SUB AND PUSH0 SWAP1 DUP2 MSTORE PUSH1 0x20 DUP2 SWAP1 MSTORE PUSH1 0x40 SWAP1 KECCAK256 SLOAD SWAP1 JUMP JUMPDEST PUSH2 0x201 PUSH2 0xDEAD DUP2 JUMP JUMPDEST PUSH1 0x40 MLOAD PUSH1 0x1 PUSH1 0x1 PUSH1 0xA0 SHL SUB SWAP1 SWAP2 AND DUP2 MSTORE PUSH1 0x20 ADD PUSH2 0x14A JUMP JUMPDEST PUSH2 0x133 PUSH2 0x4A7 JUMP JUMPDEST PUSH1 0x5 SLOAD PUSH1 0x1 PUSH1 0x1 PUSH1 0xA0 SHL SUB AND PUSH2 0x201 JUMP JUMPDEST PUSH2 0x13D PUSH2 0x4DC JUMP JUMPDEST PUSH2 0x17A PUSH1 0x6 SLOAD DUP2 JUMP JUMPDEST PUSH2 0x166 PUSH2 0x251 CALLDATASIZE PUSH1 0x4 PUSH2 0xB56 JUMP JUMPDEST PUSH2 0x4EB JUMP JUMPDEST PUSH2 0x166 PUSH2 0x264 CALLDATASIZE PUSH1 0x4 PUSH2 0xB56 JUMP JUMPDEST PUSH2 0x57C JUMP JUMPDEST PUSH2 0x17A PUSH2 0x277 CALLDATASIZE PUSH1 0x4 PUSH2 0xBD7 JUMP JUMPDEST PUSH1 0x1 PUSH1 0x1 PUSH1 0xA0 SHL SUB SWAP2 DUP3 AND PUSH0 SWAP1 DUP2 MSTORE PUSH1 0x1 PUSH1 0x20 SWAP1 DUP2 MSTORE PUSH1 0x40 DUP1 DUP4 KECCAK256 SWAP4 SWAP1 SWAP5 AND DUP3 MSTORE SWAP2 SWAP1 SWAP2 MSTORE KECCAK256 SLOAD SWAP1 JUMP JUMPDEST PUSH2 0x133 PUSH2 0x2AF CALLDATASIZE PUSH1 0x4 PUSH2 0xBB7 JUMP JUMPDEST PUSH2 0x589 JUMP JUMPDEST PUSH2 0x133 PUSH2 0x2C2 CALLDATASIZE PUSH1 0x4 PUSH2 0xBB7 JUMP JUMPDEST PUSH2 0x5D3 JUMP JUMPDEST PUSH1 0x5 SLOAD PUSH1 0x1 PUSH1 0x1 PUSH1 0xA0 SHL SUB AND CALLER EQ PUSH2 0x2FA JUMPI PUSH1 0x40 MLOAD PUSH3 0x461BCD PUSH1 0xE5 SHL DUP2 MSTORE PUSH1 0x4 ADD PUSH2 0x2F1 SWAP1 PUSH2 0xC08 JUMP JUMPDEST PUSH1 0x40 MLOAD DUP1 SWAP2 SUB SWAP1 REVERT JUMPDEST PUSH1 0xA DUP2 GT ISZERO PUSH2 0x34B JUMPI PUSH1 0x40 MLOAD PUSH3 0x461BCD PUSH1 0xE5 SHL DUP2 MSTORE PUSH1 0x20 PUSH1 0x4 DUP3 ADD MSTORE PUSH1 0x1E PUSH1 0x24 DUP3 ADD MSTORE PUSH32 0x466565206D757374206265206265747765656E20302520616E64203130250000 PUSH1 0x44 DUP3 ADD MSTORE PUSH1 0x64 ADD PUSH2 0x2F1 JUMP JUMPDEST PUSH1 0x6 SSTORE JUMP JUMPDEST PUSH1 0x60 PUSH1 0x3 DUP1 SLOAD PUSH2 0x35F SWAP1 PUSH2 0xC3D JUMP JUMPDEST DUP1 PUSH1 0x1F ADD PUSH1 0x20 DUP1 SWAP2 DIV MUL PUSH1 0x20 ADD PUSH1 0x40 MLOAD SWAP1 DUP2 ADD PUSH1 0x40 MSTORE DUP1 SWAP3 SWAP2 SWAP1 DUP2 DUP2 MSTORE PUSH1 0x20 ADD DUP3 DUP1 SLOAD PUSH2 0x38B SWAP1 PUSH2 0xC3D JUMP JUMPDEST DUP1 ISZERO PUSH2 0x3D6 JUMPI DUP1 PUSH1 0x1F LT PUSH2 0x3AD JUMPI PUSH2 0x100 DUP1 DUP4 SLOAD DIV MUL DUP4 MSTORE SWAP2 PUSH1 0x20 ADD SWAP2 PUSH2 0x3D6 JUMP JUMPDEST DUP3 ADD SWAP2 SWAP1 PUSH0 MSTORE PUSH1 0x20 PUSH0 KECCAK256 SWAP1 JUMPDEST DUP2 SLOAD DUP2 MSTORE SWAP1 PUSH1 0x1 ADD SWAP1 PUSH1 0x20 ADD DUP1 DUP4 GT PUSH2 0x3B9 JUMPI DUP3 SWAP1 SUB PUSH1 0x1F AND DUP3 ADD SWAP2 JUMPDEST POP POP POP POP POP SWAP1 POP SWAP1 JUMP JUMPDEST PUSH0 CALLER PUSH2 0x3ED DUP2 DUP6 DUP6 PUSH2 0x66E JUMP JUMPDEST PUSH1 0x1 SWAP2 POP POP JUMPDEST SWAP3 SWAP2 POP POP JUMP JUMPDEST PUSH0 CALLER PUSH2 0x406 DUP6 DUP3 DUP6 PUSH2 0x791 JUMP JUMPDEST PUSH2 0x411 DUP6 DUP6 DUP6 PUSH2 0x821 JUMP JUMPDEST POP PUSH1 0x1 SWAP5 SWAP4 POP POP POP POP JUMP JUMPDEST CALLER PUSH0 DUP2 DUP2 MSTORE PUSH1 0x1 PUSH1 0x20 SWAP1 DUP2 MSTORE PUSH1 0x40 DUP1 DUP4 KECCAK256 PUSH1 0x1 PUSH1 0x1 PUSH1 0xA0 SHL SUB DUP8 AND DUP5 MSTORE SWAP1 SWAP2 MSTORE DUP2 KECCAK256 SLOAD SWAP1 SWAP2 SWAP1 PUSH2 0x3ED SWAP1 DUP3 SWAP1 DUP7 SWAP1 PUSH2 0x455 SWAP1 DUP8 SWAP1 PUSH2 0xC89 JUMP JUMPDEST PUSH2 0x66E JUMP JUMPDEST PUSH1 0x5 SLOAD PUSH1 0x1 PUSH1 0x1 PUSH1 0xA0 SHL SUB AND CALLER EQ PUSH2 0x484 JUMPI PUSH1 0x40 MLOAD PUSH3 0x461BCD PUSH1 0xE5 SHL DUP2 MSTORE PUSH1 0x4 ADD PUSH2 0x2F1 SWAP1 PUSH2 0xC08 JUMP JUMPDEST PUSH1 0x1 PUSH1 0x1 PUSH1 0xA0 SHL SUB AND PUSH0 SWAP1 DUP2 MSTORE PUSH1 0x7 PUSH1 0x20 MSTORE PUSH1 0x40 SWAP1 KECCAK256 DUP1 SLOAD PUSH1 0xFF NOT AND PUSH1 0x1 OR SWAP1 SSTORE JUMP JUMPDEST PUSH1 0x5 SLOAD PUSH1 0x1 PUSH1 0x1 PUSH1 0xA0 SHL SUB AND CALLER EQ PUSH2 0x4D1 JUMPI PUSH1 0x40 MLOAD PUSH3 0x461BCD PUSH1 0xE5 SHL DUP2 MSTORE PUSH1 0x4 ADD PUSH2 0x2F1 SWAP1 PUSH2 0xC08 JUMP JUMPDEST PUSH2 0x4DA PUSH0 PUSH2 0x8BC JUMP JUMPDEST JUMP JUMPDEST PUSH1 0x60 PUSH1 0x4 DUP1 SLOAD PUSH2 0x35F SWAP1 PUSH2 0xC3D JUMP JUMPDEST CALLER PUSH0 DUP2 DUP2 MSTORE PUSH1 0x1 PUSH1 0x20 SWAP1 DUP2 MSTORE PUSH1 0x40 DUP1 DUP4 KECCAK256 PUSH1 0x1 PUSH1 0x1 PUSH1 0xA0 SHL SUB DUP8 AND DUP5 MSTORE SWAP1 SWAP2 MSTORE DUP2 KECCAK256 SLOAD SWAP1 SWAP2 SWAP1 DUP4 DUP2 LT ISZERO PUSH2 0x56F JUMPI PUSH1 0x40 MLOAD PUSH3 0x461BCD PUSH1 0xE5 SHL DUP2 MSTORE PUSH1 0x20 PUSH1 0x4 DUP3 ADD MSTORE PUSH1 0x25 PUSH1 0x24 DUP3 ADD MSTORE PUSH32 0x45524332303A2064656372656173656420616C6C6F77616E63652062656C6F77 PUSH1 0x44 DUP3 ADD MSTORE PUSH5 0x207A65726F PUSH1 0xD8 SHL PUSH1 0x64 DUP3 ADD MSTORE PUSH1 0x84 ADD PUSH2 0x2F1 JUMP JUMPDEST PUSH2 0x411 DUP3 DUP7 DUP7 DUP5 SUB PUSH2 0x66E JUMP JUMPDEST PUSH0 CALLER PUSH2 0x3ED DUP2 DUP6 DUP6 PUSH2 0x821 JUMP JUMPDEST PUSH1 0x5 SLOAD PUSH1 0x1 PUSH1 0x1 PUSH1 0xA0 SHL SUB AND CALLER EQ PUSH2 0x5B3 JUMPI PUSH1 0x40 MLOAD PUSH3 0x461BCD PUSH1 0xE5 SHL DUP2 MSTORE PUSH1 0x4 ADD PUSH2 0x2F1 SWAP1 PUSH2 0xC08 JUMP JUMPDEST PUSH1 0x1 PUSH1 0x1 PUSH1 0xA0 SHL SUB AND PUSH0 SWAP1 DUP2 MSTORE PUSH1 0x7 PUSH1 0x20 MSTORE PUSH1 0x40 SWAP1 KECCAK256 DUP1 SLOAD PUSH1 0xFF NOT AND SWAP1 SSTORE JUMP JUMPDEST PUSH1 0x5 SLOAD PUSH1 0x1 PUSH1 0x1 PUSH1 0xA0 SHL SUB AND CALLER EQ PUSH2 0x5FD JUMPI PUSH1 0x40 MLOAD PUSH3 0x461BCD PUSH1 0xE5 SHL DUP2 MSTORE PUSH1 0x4 ADD PUSH2 0x2F1 SWAP1 PUSH2 0xC08 JUMP JUMPDEST PUSH1 0x1 PUSH1 0x1 PUSH1 0xA0 SHL SUB DUP2 AND PUSH2 0x662 JUMPI PUSH1 0x40 MLOAD PUSH3 0x461BCD PUSH1 0xE5 SHL DUP2 MSTORE PUSH1 0x20 PUSH1 0x4 DUP3 ADD MSTORE PUSH1 0x26 PUSH1 0x24 DUP3 ADD MSTORE PUSH32 0x4F776E61626C653A206E6577206F776E657220697320746865207A65726F2061 PUSH1 0x44 DUP3 ADD MSTORE PUSH6 0x646472657373 PUSH1 0xD0 SHL PUSH1 0x64 DUP3 ADD MSTORE PUSH1 0x84 ADD PUSH2 0x2F1 JUMP JUMPDEST PUSH2 0x66B DUP2 PUSH2 0x8BC JUMP JUMPDEST POP JUMP JUMPDEST PUSH1 0x1 PUSH1 0x1 PUSH1 0xA0 SHL SUB DUP4 AND PUSH2 0x6D0 JUMPI PUSH1 0x40 MLOAD PUSH3 0x461BCD PUSH1 0xE5 SHL DUP2 MSTORE PUSH1 0x20 PUSH1 0x4 DUP3 ADD MSTORE PUSH1 0x24 DUP1 DUP3 ADD MSTORE PUSH32 0x45524332303A20617070726F76652066726F6D20746865207A65726F20616464 PUSH1 0x44 DUP3 ADD MSTORE PUSH4 0x72657373 PUSH1 0xE0 SHL PUSH1 0x64 DUP3 ADD MSTORE PUSH1 0x84 ADD PUSH2 0x2F1 JUMP JUMPDEST PUSH1 0x1 PUSH1 0x1 PUSH1 0xA0 SHL SUB DUP3 AND PUSH2 0x731 JUMPI PUSH1 0x40 MLOAD PUSH3 0x461BCD PUSH1 0xE5 SHL DUP2 MSTORE PUSH1 0x20 PUSH1 0x4 DUP3 ADD MSTORE PUSH1 0x22 PUSH1 0x24 DUP3 ADD MSTORE PUSH32 0x45524332303A20617070726F766520746F20746865207A65726F206164647265 PUSH1 0x44 DUP3 ADD MSTORE PUSH2 0x7373 PUSH1 0xF0 SHL PUSH1 0x64 DUP3 ADD MSTORE PUSH1 0x84 ADD PUSH2 0x2F1 JUMP JUMPDEST PUSH1 0x1 PUSH1 0x1 PUSH1 0xA0 SHL SUB DUP4 DUP2 AND PUSH0 DUP2 DUP2 MSTORE PUSH1 0x1 PUSH1 0x20 SWAP1 DUP2 MSTORE PUSH1 0x40 DUP1 DUP4 KECCAK256 SWAP5 DUP8 AND DUP1 DUP5 MSTORE SWAP5 DUP3 MSTORE SWAP2 DUP3 SWAP1 KECCAK256 DUP6 SWAP1 SSTORE SWAP1 MLOAD DUP5 DUP2 MSTORE PUSH32 0x8C5BE1E5EBEC7D5BD14F71427D1E84F3DD0314C0F7B2291E5B200AC8C7C3B925 SWAP2 ADD PUSH1 0x40 MLOAD DUP1 SWAP2 SUB SWAP1 LOG3 POP POP POP JUMP JUMPDEST PUSH1 0x1 PUSH1 0x1 PUSH1 0xA0 SHL SUB DUP4 DUP2 AND PUSH0 SWAP1 DUP2 MSTORE PUSH1 0x1 PUSH1 0x20 SWAP1 DUP2 MSTORE PUSH1 0x40 DUP1 DUP4 KECCAK256 SWAP4 DUP7 AND DUP4 MSTORE SWAP3 SWAP1 MSTORE KECCAK256 SLOAD PUSH0 NOT DUP2 EQ PUSH2 0x81B JUMPI DUP2 DUP2 LT ISZERO PUSH2 0x80E JUMPI PUSH1 0x40 MLOAD PUSH3 0x461BCD PUSH1 0xE5 SHL DUP2 MSTORE PUSH1 0x20 PUSH1 0x4 DUP3 ADD MSTORE PUSH1 0x1D PUSH1 0x24 DUP3 ADD MSTORE PUSH32 0x45524332303A20696E73756666696369656E7420616C6C6F77616E6365000000 PUSH1 0x44 DUP3 ADD MSTORE PUSH1 0x64 ADD PUSH2 0x2F1 JUMP JUMPDEST PUSH2 0x81B DUP5 DUP5 DUP5 DUP5 SUB PUSH2 0x66E JUMP JUMPDEST POP POP POP POP JUMP JUMPDEST PUSH1 0x1 PUSH1 0x1 PUSH1 0xA0 SHL SUB DUP4 AND PUSH0 SWAP1 DUP2 MSTORE PUSH1 0x7 PUSH1 0x20 MSTORE PUSH1 0x40 SWAP1 KECCAK256 SLOAD PUSH1 0xFF AND DUP1 PUSH2 0x85E JUMPI POP PUSH1 0x1 PUSH1 0x1 PUSH1 0xA0 SHL SUB DUP3 AND PUSH0 SWAP1 DUP2 MSTORE PUSH1 0x7 PUSH1 0x20 MSTORE PUSH1 0x40 SWAP1 KECCAK256 SLOAD PUSH1 0xFF AND JUMPDEST ISZERO PUSH2 0x873 JUMPI PUSH2 0x86E DUP4 DUP4 DUP4 PUSH2 0x90D JUMP JUMPDEST POP POP POP JUMP JUMPDEST PUSH0 PUSH1 0x64 PUSH1 0x6 SLOAD DUP4 PUSH2 0x884 SWAP2 SWAP1 PUSH2 0xC9C JUMP JUMPDEST PUSH2 0x88E SWAP2 SWAP1 PUSH2 0xCB3 JUMP JUMPDEST SWAP1 POP PUSH0 PUSH2 0x89B DUP3 DUP5 PUSH2 0xCD2 JUMP JUMPDEST SWAP1 POP PUSH2 0x8AA DUP6 PUSH2 0xDEAD DUP5 PUSH2 0x90D JUMP JUMPDEST PUSH2 0x8B5 DUP6 DUP6 DUP4 PUSH2 0x90D JUMP JUMPDEST POP POP POP POP POP JUMP JUMPDEST PUSH1 0x5 DUP1 SLOAD PUSH1 0x1 PUSH1 0x1 PUSH1 0xA0 SHL SUB DUP4 DUP2 AND PUSH1 0x1 PUSH1 0x1 PUSH1 0xA0 SHL SUB NOT DUP4 AND DUP2 OR SWAP1 SWAP4 SSTORE PUSH1 0x40 MLOAD SWAP2 AND SWAP2 SWAP1 DUP3 SWAP1 PUSH32 0x8BE0079C531659141344CD1FD0A4F28419497F9722A3DAAFE3B4186F6B6457E0 SWAP1 PUSH0 SWAP1 LOG3 POP POP JUMP JUMPDEST PUSH1 0x1 PUSH1 0x1 PUSH1 0xA0 SHL SUB DUP4 AND PUSH2 0x971 JUMPI PUSH1 0x40 MLOAD PUSH3 0x461BCD PUSH1 0xE5 SHL DUP2 MSTORE PUSH1 0x20 PUSH1 0x4 DUP3 ADD MSTORE PUSH1 0x25 PUSH1 0x24 DUP3 ADD MSTORE PUSH32 0x45524332303A207472616E736665722066726F6D20746865207A65726F206164 PUSH1 0x44 DUP3 ADD MSTORE PUSH5 0x6472657373 PUSH1 0xD8 SHL PUSH1 0x64 DUP3 ADD MSTORE PUSH1 0x84 ADD PUSH2 0x2F1 JUMP JUMPDEST PUSH1 0x1 PUSH1 0x1 PUSH1 0xA0 SHL SUB DUP3 AND PUSH2 0x9D3 JUMPI PUSH1 0x40 MLOAD PUSH3 0x461BCD PUSH1 0xE5 SHL DUP2 MSTORE PUSH1 0x20 PUSH1 0x4 DUP3 ADD MSTORE PUSH1 0x23 PUSH1 0x24 DUP3 ADD MSTORE PUSH32 0x45524332303A207472616E7366657220746F20746865207A65726F2061646472 PUSH1 0x44 DUP3 ADD MSTORE PUSH3 0x657373 PUSH1 0xE8 SHL PUSH1 0x64 DUP3 ADD MSTORE PUSH1 0x84 ADD PUSH2 0x2F1 JUMP JUMPDEST PUSH1 0x1 PUSH1 0x1 PUSH1 0xA0 SHL SUB DUP4 AND PUSH0 SWAP1 DUP2 MSTORE PUSH1 0x20 DUP2 SWAP1 MSTORE PUSH1 0x40 SWAP1 KECCAK256 SLOAD DUP2 DUP2 LT ISZERO PUSH2 0xA4A JUMPI PUSH1 0x40 MLOAD PUSH3 0x461BCD PUSH1 0xE5 SHL DUP2 MSTORE PUSH1 0x20 PUSH1 0x4 DUP3 ADD MSTORE PUSH1 0x26 PUSH1 0x24 DUP3 ADD MSTORE PUSH32 0x45524332303A207472616E7366657220616D6F756E7420657863656564732062 PUSH1 0x44 DUP3 ADD MSTORE PUSH6 0x616C616E6365 PUSH1 0xD0 SHL PUSH1 0x64 DUP3 ADD MSTORE PUSH1 0x84 ADD PUSH2 0x2F1 JUMP JUMPDEST PUSH1 0x1 PUSH1 0x1 PUSH1 0xA0 SHL SUB DUP1 DUP6 AND PUSH0 SWAP1 DUP2 MSTORE PUSH1 0x20 DUP2 SWAP1 MSTORE PUSH1 0x40 DUP1 DUP3 KECCAK256 DUP6 DUP6 SUB SWAP1 SSTORE SWAP2 DUP6 AND DUP2 MSTORE SWAP1 DUP2 KECCAK256 DUP1 SLOAD DUP5 SWAP3 SWAP1 PUSH2 0xA80 SWAP1 DUP5 SWAP1 PUSH2 0xC89 JUMP JUMPDEST SWAP3 POP POP DUP2 SWAP1 SSTORE POP DUP3 PUSH1 0x1 PUSH1 0x1 PUSH1 0xA0 SHL SUB AND DUP5 PUSH1 0x1 PUSH1 0x1 PUSH1 0xA0 SHL SUB AND PUSH32 0xDDF252AD1BE2C89B69C2B068FC378DAA952BA7F163C4A11628F55A4DF523B3EF DUP5 PUSH1 0x40 MLOAD PUSH2 0xACC SWAP2 DUP2 MSTORE PUSH1 0x20 ADD SWAP1 JUMP JUMPDEST PUSH1 0x40 MLOAD DUP1 SWAP2 SUB SWAP1 LOG3 PUSH2 0x81B JUMP JUMPDEST PUSH0 PUSH1 0x20 DUP3 DUP5 SUB SLT ISZERO PUSH2 0xAE9 JUMPI PUSH0 DUP1 REVERT JUMPDEST POP CALLDATALOAD SWAP2 SWAP1 POP JUMP JUMPDEST PUSH0 PUSH1 0x20 DUP1 DUP4 MSTORE DUP4 MLOAD DUP1 DUP3 DUP6 ADD MSTORE PUSH0 JUMPDEST DUP2 DUP2 LT ISZERO PUSH2 0xB1B JUMPI DUP6 DUP2 ADD DUP4 ADD MLOAD DUP6 DUP3 ADD PUSH1 0x40 ADD MSTORE DUP3 ADD PUSH2 0xAFF JUMP JUMPDEST POP PUSH0 PUSH1 0x40 DUP3 DUP7 ADD ADD MSTORE PUSH1 0x40 PUSH1 0x1F NOT PUSH1 0x1F DUP4 ADD AND DUP6 ADD ADD SWAP3 POP POP POP SWAP3 SWAP2 POP POP JUMP JUMPDEST DUP1 CALLDATALOAD PUSH1 0x1 PUSH1 0x1 PUSH1 0xA0 SHL SUB DUP2 AND DUP2 EQ PUSH2 0xB51 JUMPI PUSH0 DUP1 REVERT JUMPDEST SWAP2 SWAP1 POP JUMP JUMPDEST PUSH0 DUP1 PUSH1 0x40 DUP4 DUP6 SUB SLT ISZERO PUSH2 0xB67 JUMPI PUSH0 DUP1 REVERT JUMPDEST PUSH2 0xB70 DUP4 PUSH2 0xB3B JUMP JUMPDEST SWAP5 PUSH1 0x20 SWAP4 SWAP1 SWAP4 ADD CALLDATALOAD SWAP4 POP POP POP JUMP JUMPDEST PUSH0 DUP1 PUSH0 PUSH1 0x60 DUP5 DUP7 SUB SLT ISZERO PUSH2 0xB90 JUMPI PUSH0 DUP1 REVERT JUMPDEST PUSH2 0xB99 DUP5 PUSH2 0xB3B JUMP JUMPDEST SWAP3 POP PUSH2 0xBA7 PUSH1 0x20 DUP6 ADD PUSH2 0xB3B JUMP JUMPDEST SWAP2 POP PUSH1 0x40 DUP5 ADD CALLDATALOAD SWAP1 POP SWAP3 POP SWAP3 POP SWAP3 JUMP JUMPDEST PUSH0 PUSH1 0x20 DUP3 DUP5 SUB SLT ISZERO PUSH2 0xBC7 JUMPI PUSH0 DUP1 REVERT JUMPDEST PUSH2 0xBD0 DUP3 PUSH2 0xB3B JUMP JUMPDEST SWAP4 SWAP3 POP POP POP JUMP JUMPDEST PUSH0 DUP1 PUSH1 0x40 DUP4 DUP6 SUB SLT ISZERO PUSH2 0xBE8 JUMPI PUSH0 DUP1 REVERT JUMPDEST PUSH2 0xBF1 DUP4 PUSH2 0xB3B JUMP JUMPDEST SWAP2 POP PUSH2 0xBFF PUSH1 0x20 DUP5 ADD PUSH2 0xB3B JUMP JUMPDEST SWAP1 POP SWAP3 POP SWAP3 SWAP1 POP JUMP JUMPDEST PUSH1 0x20 DUP1 DUP3 MSTORE DUP2 DUP2 ADD MSTORE PUSH32 0x4F776E61626C653A2063616C6C6572206973206E6F7420746865206F776E6572 PUSH1 0x40 DUP3 ADD MSTORE PUSH1 0x60 ADD SWAP1 JUMP JUMPDEST PUSH1 0x1 DUP2 DUP2 SHR SWAP1 DUP3 AND DUP1 PUSH2 0xC51 JUMPI PUSH1 0x7F DUP3 AND SWAP2 POP JUMPDEST PUSH1 0x20 DUP3 LT DUP2 SUB PUSH2 0xC6F JUMPI PUSH4 0x4E487B71 PUSH1 0xE0 SHL PUSH0 MSTORE PUSH1 0x22 PUSH1 0x4 MSTORE PUSH1 0x24 PUSH0 REVERT JUMPDEST POP SWAP2 SWAP1 POP JUMP JUMPDEST PUSH4 0x4E487B71 PUSH1 0xE0 SHL PUSH0 MSTORE PUSH1 0x11 PUSH1 0x4 MSTORE PUSH1 0x24 PUSH0 REVERT JUMPDEST DUP1 DUP3 ADD DUP1 DUP3 GT ISZERO PUSH2 0x3F3 JUMPI PUSH2 0x3F3 PUSH2 0xC75 JUMP JUMPDEST DUP1 DUP3 MUL DUP2 ISZERO DUP3 DUP3 DIV DUP5 EQ OR PUSH2 0x3F3 JUMPI PUSH2 0x3F3 PUSH2 0xC75 JUMP JUMPDEST PUSH0 DUP3 PUSH2 0xCCD JUMPI PUSH4 0x4E487B71 PUSH1 0xE0 SHL PUSH0 MSTORE PUSH1 0x12 PUSH1 0x4 MSTORE PUSH1 0x24 PUSH0 REVERT JUMPDEST POP DIV SWAP1 JUMP JUMPDEST DUP2 DUP2 SUB DUP2 DUP2 GT ISZERO PUSH2 0x3F3 JUMPI PUSH2 0x3F3 PUSH2 0xC75 JUMP INVALID LOG2 PUSH5 0x6970667358 0x22 SLT KECCAK256 GAS DUP4 0x29 INVALID EXP 0xAE 0xF8 0xCF 0xE0 PREVRANDAO OR DUP8 PUSH31 0xEA140942B50BC41BE37AF020CDA3AC3295C52564736F6C6343000814003300 "
				},
				"gasEstimates": {
					"creation": {
						"codeDepositCost": "671000",
						"executionCost": "infinite",
						"totalCost": "infinite"
					},
					"external": {
						"allowance(address,address)": "infinite",
						"approve(address,uint256)": "24669",
						"balanceOf(address)": "2648",
						"burnAddress()": "238",
						"decimals()": "221",
						"decreaseAllowance(address,uint256)": "26918",
						"excludeFromFee(address)": "26836",
						"includeInFee(address)": "26829",
						"increaseAllowance(address,uint256)": "infinite",
						"name()": "infinite",
						"owner()": "2397",
						"renounceOwnership()": "28159",
						"setTaxFeePercent(uint256)": "24512",
						"symbol()": "infinite",
						"taxFee()": "2405",
						"totalSupply()": "2370",
						"transfer(address,uint256)": "infinite",
						"transferFrom(address,address,uint256)": "infinite",
						"transferOwnership(address)": "28419"
					},
					"internal": {
						"_transfer(address,address,uint256)": "infinite"
					}
				},
				"methodIdentifiers": {
					"allowance(address,address)": "dd62ed3e",
					"approve(address,uint256)": "095ea7b3",
					"balanceOf(address)": "70a08231",
					"burnAddress()": "70d5ae05",
					"decimals()": "313ce567",
					"decreaseAllowance(address,uint256)": "a457c2d7",
					"excludeFromFee(address)": "437823ec",
					"includeInFee(address)": "ea2f0b37",
					"increaseAllowance(address,uint256)": "39509351",
					"name()": "06fdde03",
					"owner()": "8da5cb5b",
					"renounceOwnership()": "715018a6",
					"setTaxFeePercent(uint256)": "061c82d0",
					"symbol()": "95d89b41",
					"taxFee()": "a071dcf4",
					"totalSupply()": "18160ddd",
					"transfer(address,uint256)": "a9059cbb",
					"transferFrom(address,address,uint256)": "23b872dd",
					"transferOwnership(address)": "f2fde38b"
				}
			},
			"storageLayout": {
				"storage": [
					{
						"astId": 133,
						"contract": "UfoZiomToken_flattened.sol:UfoZiomToken",
						"label": "_balances",
						"offset": 0,
						"slot": "0",
						"type": "t_mapping(t_address,t_uint256)"
					},
					{
						"astId": 139,
						"contract": "UfoZiomToken_flattened.sol:UfoZiomToken",
						"label": "_allowances",
						"offset": 0,
						"slot": "1",
						"type": "t_mapping(t_address,t_mapping(t_address,t_uint256))"
					},
					{
						"astId": 141,
						"contract": "UfoZiomToken_flattened.sol:UfoZiomToken",
						"label": "_totalSupply",
						"offset": 0,
						"slot": "2",
						"type": "t_uint256"
					},
					{
						"astId": 143,
						"contract": "UfoZiomToken_flattened.sol:UfoZiomToken",
						"label": "_name",
						"offset": 0,
						"slot": "3",
						"type": "t_string_storage"
					},
					{
						"astId": 145,
						"contract": "UfoZiomToken_flattened.sol:UfoZiomToken",
						"label": "_symbol",
						"offset": 0,
						"slot": "4",
						"type": "t_string_storage"
					},
					{
						"astId": 711,
						"contract": "UfoZiomToken_flattened.sol:UfoZiomToken",
						"label": "_owner",
						"offset": 0,
						"slot": "5",
						"type": "t_address"
					},
					{
						"astId": 820,
						"contract": "UfoZiomToken_flattened.sol:UfoZiomToken",
						"label": "taxFee",
						"offset": 0,
						"slot": "6",
						"type": "t_uint256"
					},
					{
						"astId": 824,
						"contract": "UfoZiomToken_flattened.sol:UfoZiomToken",
						"label": "_isExcludedFromFee",
						"offset": 0,
						"slot": "7",
						"type": "t_mapping(t_address,t_bool)"
					}
				],
				"types": {
					"t_address": {
						"encoding": "inplace",
						"label": "address",
						"numberOfBytes": "20"
					},
					"t_bool": {
						"encoding": "inplace",
						"label": "bool",
						"numberOfBytes": "1"
					},
					"t_mapping(t_address,t_bool)": {
						"encoding": "mapping",
						"key": "t_address",
						"label": "mapping(address => bool)",
						"numberOfBytes": "32",
						"value": "t_bool"
					},
					"t_mapping(t_address,t_mapping(t_address,t_uint256))": {
						"encoding": "mapping",
						"key": "t_address",
						"label": "mapping(address => mapping(address => uint256))",
						"numberOfBytes": "32",
						"value": "t_mapping(t_address,t_uint256)"
					},
					"t_mapping(t_address,t_uint256)": {
						"encoding": "mapping",
						"key": "t_address",
						"label": "mapping(address => uint256)",
						"numberOfBytes": "32",
						"value": "t_uint256"
					},
					"t_string_storage": {
						"encoding": "bytes",
						"label": "string",
						"numberOfBytes": "32"
					},
					"t_uint256": {
						"encoding": "inplace",
						"label": "uint256",
						"numberOfBytes": "32"
					}
				}
			},
			"userdoc": {
				"kind": "user",
				"methods": {},
				"version": 1
			}
		}
	}
}